{
  "contractName": "Lottery",
  "abi": [
    {
      "constant": true,
      "inputs": [],
      "name": "index",
      "outputs": [
        {
          "name": "",
          "type": "uint256"
        }
      ],
      "payable": false,
      "stateMutability": "view",
      "type": "function"
    },
    {
      "constant": true,
      "inputs": [],
      "name": "deadline",
      "outputs": [
        {
          "name": "",
          "type": "uint256"
        }
      ],
      "payable": false,
      "stateMutability": "view",
      "type": "function"
    },
    {
      "constant": true,
      "inputs": [
        {
          "name": "",
          "type": "address"
        },
        {
          "name": "",
          "type": "uint256"
        }
      ],
      "name": "playerTickets",
      "outputs": [
        {
          "name": "ticket",
          "type": "bytes6"
        },
        {
          "name": "user",
          "type": "address"
        },
        {
          "name": "number3",
          "type": "bool"
        },
        {
          "name": "number4",
          "type": "bool"
        },
        {
          "name": "number5",
          "type": "bool"
        },
        {
          "name": "number6",
          "type": "bool"
        },
        {
          "name": "processed",
          "type": "bool"
        }
      ],
      "payable": false,
      "stateMutability": "view",
      "type": "function"
    },
    {
      "constant": true,
      "inputs": [],
      "name": "winningNumber",
      "outputs": [
        {
          "name": "",
          "type": "bytes6"
        }
      ],
      "payable": false,
      "stateMutability": "view",
      "type": "function"
    },
    {
      "constant": true,
      "inputs": [],
      "name": "jackPot",
      "outputs": [
        {
          "name": "",
          "type": "uint256"
        }
      ],
      "payable": false,
      "stateMutability": "view",
      "type": "function"
    },
    {
      "constant": true,
      "inputs": [
        {
          "name": "",
          "type": "uint256"
        }
      ],
      "name": "tickets",
      "outputs": [
        {
          "name": "ticket",
          "type": "bytes6"
        },
        {
          "name": "user",
          "type": "address"
        },
        {
          "name": "number3",
          "type": "bool"
        },
        {
          "name": "number4",
          "type": "bool"
        },
        {
          "name": "number5",
          "type": "bool"
        },
        {
          "name": "number6",
          "type": "bool"
        },
        {
          "name": "processed",
          "type": "bool"
        }
      ],
      "payable": false,
      "stateMutability": "view",
      "type": "function"
    },
    {
      "constant": true,
      "inputs": [
        {
          "name": "",
          "type": "bytes6"
        },
        {
          "name": "",
          "type": "uint256"
        }
      ],
      "name": "ticketPlayers",
      "outputs": [
        {
          "name": "",
          "type": "address"
        }
      ],
      "payable": false,
      "stateMutability": "view",
      "type": "function"
    },
    {
      "constant": true,
      "inputs": [],
      "name": "owner",
      "outputs": [
        {
          "name": "",
          "type": "address"
        }
      ],
      "payable": false,
      "stateMutability": "view",
      "type": "function"
    },
    {
      "constant": true,
      "inputs": [],
      "name": "lotteryValue",
      "outputs": [
        {
          "name": "",
          "type": "uint256"
        }
      ],
      "payable": false,
      "stateMutability": "view",
      "type": "function"
    },
    {
      "constant": true,
      "inputs": [],
      "name": "factoryAddress",
      "outputs": [
        {
          "name": "",
          "type": "address"
        }
      ],
      "payable": false,
      "stateMutability": "view",
      "type": "function"
    },
    {
      "constant": true,
      "inputs": [
        {
          "name": "",
          "type": "uint256"
        }
      ],
      "name": "winners",
      "outputs": [
        {
          "name": "numberOfWinners",
          "type": "uint256"
        },
        {
          "name": "allocated",
          "type": "uint256"
        },
        {
          "name": "payed",
          "type": "uint256"
        }
      ],
      "payable": false,
      "stateMutability": "view",
      "type": "function"
    },
    {
      "constant": true,
      "inputs": [],
      "name": "lotteryHasPlayed",
      "outputs": [
        {
          "name": "",
          "type": "bool"
        }
      ],
      "payable": false,
      "stateMutability": "view",
      "type": "function"
    },
    {
      "constant": true,
      "inputs": [],
      "name": "lastLottery",
      "outputs": [
        {
          "name": "",
          "type": "address"
        }
      ],
      "payable": false,
      "stateMutability": "view",
      "type": "function"
    },
    {
      "constant": false,
      "inputs": [
        {
          "name": "newOwner",
          "type": "address"
        }
      ],
      "name": "transferOwnership",
      "outputs": [],
      "payable": false,
      "stateMutability": "nonpayable",
      "type": "function"
    },
    {
      "inputs": [
        {
          "name": "_duration",
          "type": "uint256"
        },
        {
          "name": "_lotteryValue",
          "type": "uint256"
        },
        {
          "name": "_lastLotteryAddress",
          "type": "address"
        }
      ],
      "payable": false,
      "stateMutability": "nonpayable",
      "type": "constructor"
    },
    {
      "anonymous": false,
      "inputs": [
        {
          "indexed": false,
          "name": "value",
          "type": "uint256"
        }
      ],
      "name": "TransferJackPot",
      "type": "event"
    },
    {
      "anonymous": false,
      "inputs": [
        {
          "indexed": false,
          "name": "previousOwner",
          "type": "address"
        },
        {
          "indexed": false,
          "name": "newOwner",
          "type": "address"
        }
      ],
      "name": "OwnershipTransferred",
      "type": "event"
    },
    {
      "constant": false,
      "inputs": [
        {
          "name": "_ticket",
          "type": "bytes6"
        }
      ],
      "name": "enter",
      "outputs": [],
      "payable": true,
      "stateMutability": "payable",
      "type": "function"
    },
    {
      "constant": false,
      "inputs": [],
      "name": "playTheLottery",
      "outputs": [],
      "payable": false,
      "stateMutability": "nonpayable",
      "type": "function"
    },
    {
      "constant": false,
      "inputs": [],
      "name": "setWinners",
      "outputs": [],
      "payable": false,
      "stateMutability": "nonpayable",
      "type": "function"
    },
    {
      "constant": false,
      "inputs": [],
      "name": "addJackPot",
      "outputs": [],
      "payable": true,
      "stateMutability": "payable",
      "type": "function"
    },
    {
      "constant": false,
      "inputs": [
        {
          "name": "_newLottery",
          "type": "address"
        }
      ],
      "name": "transferJackPot",
      "outputs": [],
      "payable": false,
      "stateMutability": "nonpayable",
      "type": "function"
    },
    {
      "constant": true,
      "inputs": [],
      "name": "getSummary",
      "outputs": [
        {
          "name": "",
          "type": "uint256"
        },
        {
          "name": "",
          "type": "uint256"
        },
        {
          "name": "",
          "type": "uint256"
        },
        {
          "name": "",
          "type": "uint256"
        },
        {
          "name": "",
          "type": "bool"
        },
        {
          "name": "",
          "type": "address"
        },
        {
          "name": "",
          "type": "address"
        },
        {
          "name": "",
          "type": "address"
        }
      ],
      "payable": false,
      "stateMutability": "view",
      "type": "function"
    },
    {
      "constant": true,
      "inputs": [
        {
          "name": "_n",
          "type": "uint256"
        }
      ],
      "name": "getWinners",
      "outputs": [
        {
          "name": "",
          "type": "uint256"
        },
        {
          "name": "",
          "type": "uint256"
        },
        {
          "name": "",
          "type": "uint256"
        },
        {
          "name": "",
          "type": "address[]"
        },
        {
          "name": "",
          "type": "bytes6[]"
        }
      ],
      "payable": false,
      "stateMutability": "view",
      "type": "function"
    },
    {
      "constant": true,
      "inputs": [
        {
          "name": "_address",
          "type": "address"
        },
        {
          "name": "_index",
          "type": "uint256"
        }
      ],
      "name": "getPlayerTicket",
      "outputs": [
        {
          "name": "outTicket",
          "type": "bytes6"
        }
      ],
      "payable": false,
      "stateMutability": "view",
      "type": "function"
    },
    {
      "constant": true,
      "inputs": [
        {
          "name": "_address",
          "type": "address"
        }
      ],
      "name": "getNumberOfTickets",
      "outputs": [
        {
          "name": "size",
          "type": "uint256"
        }
      ],
      "payable": false,
      "stateMutability": "view",
      "type": "function"
    },
    {
      "constant": true,
      "inputs": [
        {
          "name": "_ticket",
          "type": "bytes6"
        }
      ],
      "name": "getPlayers",
      "outputs": [
        {
          "name": "",
          "type": "address[]"
        }
      ],
      "payable": false,
      "stateMutability": "view",
      "type": "function"
    }
  ],
  "bytecode": "0x608060405260006004556000601d60006101000a81548160ff02191690831515021790555034801561003057600080fd5b50604051606080613238833981018060405281019080805190602001909291908051906020019092919080519060200190929190505050336000806101000a81548173ffffffffffffffffffffffffffffffffffffffff021916908373ffffffffffffffffffffffffffffffffffffffff1602179055506000831115156100b657600080fd5b6000821115156100c557600080fd5b33601e60006101000a81548173ffffffffffffffffffffffffffffffffffffffff021916908373ffffffffffffffffffffffffffffffffffffffff1602179055508242016001819055508160028190555080601d60016101000a81548173ffffffffffffffffffffffffffffffffffffffff021916908373ffffffffffffffffffffffffffffffffffffffff1602179055505050506130cf806101696000396000f30060806040526004361061013e576000357c0100000000000000000000000000000000000000000000000000000000900463ffffffff1680632986c0e51461014357806329dcb0cf1461016e57806335097fbc146101995780634051ddac1461023857806344d855f11461031c5780634664611e146104215780634a78cdba1461048657806350b44712146104b1578063642e8fef1461059657806365d2f71c146105a05780636b1426a41461063457806371ff3781146107135780637c73255c146107505780638da5cb5b146107a75780639113a7b5146107fe578063966dae0e14610829578063a2fb117514610880578063a319d143146108cf578063a7fcba22146108e6578063a947d05014610981578063af0b4b27146109b0578063b7c5936114610a07578063c64facb514610a1e578063f2fde38b14610a61575b600080fd5b34801561014f57600080fd5b50610158610aa4565b6040518082815260200191505060405180910390f35b34801561017a57600080fd5b50610183610aaa565b6040518082815260200191505060405180910390f35b3480156101a557600080fd5b506101e1600480360381019080803579ffffffffffffffffffffffffffffffffffffffffffffffffffff19169060200190929190505050610ab0565b6040518080602001828103825283818151815260200191508051906020019060200280838360005b83811015610224578082015181840152602081019050610209565b505050509050019250505060405180910390f35b34801561024457600080fd5b5061024d610b8b565b60405180898152602001888152602001878152602001868152602001851515151581526020018473ffffffffffffffffffffffffffffffffffffffff1673ffffffffffffffffffffffffffffffffffffffff1681526020018373ffffffffffffffffffffffffffffffffffffffff1673ffffffffffffffffffffffffffffffffffffffff1681526020018273ffffffffffffffffffffffffffffffffffffffff1673ffffffffffffffffffffffffffffffffffffffff1681526020019850505050505050505060405180910390f35b34801561032857600080fd5b50610367600480360381019080803573ffffffffffffffffffffffffffffffffffffffff16906020019092919080359060200190929190505050610c38565b604051808879ffffffffffffffffffffffffffffffffffffffffffffffffffff191679ffffffffffffffffffffffffffffffffffffffffffffffffffff191681526020018773ffffffffffffffffffffffffffffffffffffffff1673ffffffffffffffffffffffffffffffffffffffff168152602001861515151581526020018515151515815260200184151515158152602001831515151581526020018215151515815260200197505050505050505060405180910390f35b34801561042d57600080fd5b50610436610d1a565b604051808279ffffffffffffffffffffffffffffffffffffffffffffffffffff191679ffffffffffffffffffffffffffffffffffffffffffffffffffff1916815260200191505060405180910390f35b34801561049257600080fd5b5061049b610d47565b6040518082815260200191505060405180910390f35b3480156104bd57600080fd5b506104dc60048036038101908080359060200190929190505050610d4d565b604051808879ffffffffffffffffffffffffffffffffffffffffffffffffffff191679ffffffffffffffffffffffffffffffffffffffffffffffffffff191681526020018773ffffffffffffffffffffffffffffffffffffffff1673ffffffffffffffffffffffffffffffffffffffff168152602001861515151581526020018515151515815260200184151515158152602001831515151581526020018215151515815260200197505050505050505060405180910390f35b61059e610e22565b005b3480156105ac57600080fd5b506105f2600480360381019080803579ffffffffffffffffffffffffffffffffffffffffffffffffffff1916906020019092919080359060200190929190505050610f85565b604051808273ffffffffffffffffffffffffffffffffffffffff1673ffffffffffffffffffffffffffffffffffffffff16815260200191505060405180910390f35b34801561064057600080fd5b5061065f60048036038101908080359060200190929190505050610fd2565b604051808681526020018581526020018481526020018060200180602001838103835285818151815260200191508051906020019060200280838360005b838110156106b857808201518184015260208101905061069d565b50505050905001838103825284818151815260200191508051906020019060200280838360005b838110156106fa5780820151818401526020810190506106df565b5050505090500197505050505050505060405180910390f35b61074e600480360381019080803579ffffffffffffffffffffffffffffffffffffffffffffffffffff191690602001909291905050506111b7565b005b34801561075c57600080fd5b50610791600480360381019080803573ffffffffffffffffffffffffffffffffffffffff16906020019092919050505061184d565b6040518082815260200191505060405180910390f35b3480156107b357600080fd5b506107bc611899565b604051808273ffffffffffffffffffffffffffffffffffffffff1673ffffffffffffffffffffffffffffffffffffffff16815260200191505060405180910390f35b34801561080a57600080fd5b506108136118be565b6040518082815260200191505060405180910390f35b34801561083557600080fd5b5061083e6118c4565b604051808273ffffffffffffffffffffffffffffffffffffffff1673ffffffffffffffffffffffffffffffffffffffff16815260200191505060405180910390f35b34801561088c57600080fd5b506108ab600480360381019080803590602001909291905050506118ea565b60405180848152602001838152602001828152602001935050505060405180910390f35b3480156108db57600080fd5b506108e4611919565b005b3480156108f257600080fd5b50610931600480360381019080803573ffffffffffffffffffffffffffffffffffffffff16906020019092919080359060200190929190505050611c56565b604051808279ffffffffffffffffffffffffffffffffffffffffffffffffffff191679ffffffffffffffffffffffffffffffffffffffffffffffffffff1916815260200191505060405180910390f35b34801561098d57600080fd5b50610996611ce1565b604051808215151515815260200191505060405180910390f35b3480156109bc57600080fd5b506109c5611cf4565b604051808273ffffffffffffffffffffffffffffffffffffffff1673ffffffffffffffffffffffffffffffffffffffff16815260200191505060405180910390f35b348015610a1357600080fd5b50610a1c611d1a565b005b348015610a2a57600080fd5b50610a5f600480360381019080803573ffffffffffffffffffffffffffffffffffffffff1690602001909291905050506123d7565b005b348015610a6d57600080fd5b50610aa2600480360381019080803573ffffffffffffffffffffffffffffffffffffffff169060200190929190505050612691565b005b60045481565b60015481565b6060600760008379ffffffffffffffffffffffffffffffffffffffffffffffffffff191679ffffffffffffffffffffffffffffffffffffffffffffffffffff19168152602001908152602001600020805480602002602001604051908101604052809291908181526020018280548015610b7f57602002820191906000526020600020905b8160009054906101000a900473ffffffffffffffffffffffffffffffffffffffff1673ffffffffffffffffffffffffffffffffffffffff1681526020019060010190808311610b35575b50505050509050919050565b600080600080600080600080600254600154600354600880549050601d60009054906101000a900460ff16601d60019054906101000a900473ffffffffffffffffffffffffffffffffffffffff16601e60009054906101000a900473ffffffffffffffffffffffffffffffffffffffff166000809054906101000a900473ffffffffffffffffffffffffffffffffffffffff16975097509750975097509750975097509091929394959697565b600660205281600052604060002081815481101515610c5357fe5b90600052602060002001600091509150508060000160009054906101000a90047a01000000000000000000000000000000000000000000000000000002908060000160069054906101000a900473ffffffffffffffffffffffffffffffffffffffff169080600001601a9054906101000a900460ff169080600001601b9054906101000a900460ff169080600001601c9054906101000a900460ff169080600001601d9054906101000a900460ff169080600001601e9054906101000a900460ff16905087565b600560009054906101000a90047a0100000000000000000000000000000000000000000000000000000281565b60035481565b600881815481101515610d5c57fe5b906000526020600020016000915090508060000160009054906101000a90047a01000000000000000000000000000000000000000000000000000002908060000160069054906101000a900473ffffffffffffffffffffffffffffffffffffffff169080600001601a9054906101000a900460ff169080600001601b9054906101000a900460ff169080600001601c9054906101000a900460ff169080600001601d9054906101000a900460ff169080600001601e9054906101000a900460ff16905087565b601d60009054906101000a900460ff16151515610ea7576040517f08c379a000000000000000000000000000000000000000000000000000000000815260040180806020018281038252601c8152602001807f6c6f747465727920686173207374696c6c206e6f7420706c617965640000000081525060200191505060405180910390fd5b42600154111515610f20576040517f08c379a00000000000000000000000000000000000000000000000000000000081526004018080602001828103825260108152602001807f646561646c696e65206973206f7665720000000000000000000000000000000081525060200191505060405180910390fd5b600034111515610f2f57600080fd5b610f443460035461282390919063ffffffff16565b6003819055507fc2c48fe60b23268064613cbca1898c1871bae36909b3f33467dd82c6fe2cb2e36003546040518082815260200191505060405180910390a1565b600760205281600052604060002081815481101515610fa057fe5b906000526020600020016000915091509054906101000a900473ffffffffffffffffffffffffffffffffffffffff1681565b60008060006060806000806000606080600960038c03600481101515610ff457fe5b60050201600001549450600960038c0360048110151561101057fe5b60050201600101549350600960038c0360048110151561102c57fe5b60050201600201549250600960038c0360048110151561104857fe5b600502016003018054806020026020016040519081016040528092919081815260200182805480156110cf57602002820191906000526020600020905b8160009054906101000a900473ffffffffffffffffffffffffffffffffffffffff1673ffffffffffffffffffffffffffffffffffffffff1681526020019060010190808311611085575b50505050509150600960038c036004811015156110e857fe5b6005020160040180548060200260200160405190810160405280929190818152602001828054801561119357602002820191906000526020600020906000905b82829054906101000a90047a0100000000000000000000000000000000000000000000000000000279ffffffffffffffffffffffffffffffffffffffffffffffffffff1916815260200190600601906020826005010492830192600103820291508084116111285790505b50505050509050848484848499509950995099509950505050505091939590929450565b6111bf613028565b6002543414151561125e576040517f08c379a000000000000000000000000000000000000000000000000000000000815260040180806020018281038252602c8152602001807f76616c7565207265636569766564206973206c657373207468616e207468652081526020017f6c6f747465727956616c7565000000000000000000000000000000000000000081525060400191505060405180910390fd5b600154421015156112d7576040517f08c379a00000000000000000000000000000000000000000000000000000000081526004018080602001828103825260158152602001807f4c6f7474657279206861732066696e616c697a6564000000000000000000000081525060200191505060405180910390fd5b601d60009054906101000a900460ff1615151561135c576040517f08c379a000000000000000000000000000000000000000000000000000000000815260040180806020018281038252601a8152602001807f4c6f74746572792068617320616c726561647920706c6179656400000000000081525060200191505060405180910390fd5b6113828279ffffffffffffffffffffffffffffffffffffffffffffffffffff191661283f565b151561141c576040517f08c379a00000000000000000000000000000000000000000000000000000000081526004018080602001828103825260258152602001807f4e6f207265706561746564206e756d6265727320696e7369646520746865207481526020017f69636b657400000000000000000000000000000000000000000000000000000081525060400191505060405180910390fd5b61143360025460035461282390919063ffffffff16565b60038190555060e0604051908101604052808379ffffffffffffffffffffffffffffffffffffffffffffffffffff191681526020013373ffffffffffffffffffffffffffffffffffffffff168152602001600015158152602001600015158152602001600015158152602001600015158152602001600015158152509050600660003373ffffffffffffffffffffffffffffffffffffffff1673ffffffffffffffffffffffffffffffffffffffff1681526020019081526020016000208190806001815401808255809150509060018203906000526020600020016000909192909190915060008201518160000160006101000a81548165ffffffffffff02191690837a0100000000000000000000000000000000000000000000000000009004021790555060208201518160000160066101000a81548173ffffffffffffffffffffffffffffffffffffffff021916908373ffffffffffffffffffffffffffffffffffffffff160217905550604082015181600001601a6101000a81548160ff021916908315150217905550606082015181600001601b6101000a81548160ff021916908315150217905550608082015181600001601c6101000a81548160ff02191690831515021790555060a082015181600001601d6101000a81548160ff02191690831515021790555060c082015181600001601e6101000a81548160ff021916908315150217905550505050600760008379ffffffffffffffffffffffffffffffffffffffffffffffffffff191679ffffffffffffffffffffffffffffffffffffffffffffffffffff191681526020019081526020016000203390806001815401808255809150509060018203906000526020600020016000909192909190916101000a81548173ffffffffffffffffffffffffffffffffffffffff021916908373ffffffffffffffffffffffffffffffffffffffff1602179055505060088190806001815401808255809150509060018203906000526020600020016000909192909190915060008201518160000160006101000a81548165ffffffffffff02191690837a0100000000000000000000000000000000000000000000000000009004021790555060208201518160000160066101000a81548173ffffffffffffffffffffffffffffffffffffffff021916908373ffffffffffffffffffffffffffffffffffffffff160217905550604082015181600001601a6101000a81548160ff021916908315150217905550606082015181600001601b6101000a81548160ff021916908315150217905550608082015181600001601c6101000a81548160ff02191690831515021790555060a082015181600001601d6101000a81548160ff02191690831515021790555060c082015181600001601e6101000a81548160ff0219169083151502179055505050505050565b6000600660008373ffffffffffffffffffffffffffffffffffffffff1673ffffffffffffffffffffffffffffffffffffffff168152602001908152602001600020805490509050919050565b6000809054906101000a900473ffffffffffffffffffffffffffffffffffffffff1681565b60025481565b601e60009054906101000a900473ffffffffffffffffffffffffffffffffffffffff1681565b6009816004811015156118f957fe5b600502016000915090508060000154908060010154908060020154905083565b600060606000806000809054906101000a900473ffffffffffffffffffffffffffffffffffffffff1673ffffffffffffffffffffffffffffffffffffffff163373ffffffffffffffffffffffffffffffffffffffff1614151561197b57600080fd5b426001541115156119f4576040517f08c379a00000000000000000000000000000000000000000000000000000000081526004018080602001828103825260178152602001807f646561646c696e652068617320746f206265206f76657200000000000000000081525060200191505060405180910390fd5b601d60009054906101000a900460ff16151515611a79576040517f08c379a00000000000000000000000000000000000000000000000000000000081526004018080602001828103825260128152602001807f6c6f74746572792068617320706c61796564000000000000000000000000000081525060200191505060405180910390fd5b6001601d60006101000a81548160ff02191690831515021790555042604051808281526020019150506040518091039020935060066040519080825280601f01601f191660200182016040528015611ae05781602001602082028038833980820191505090505b509250600091505b6006821015611c02576006821415611aff57611c02565b602d847e010000000000000000000000000000000000000000000000000000000000009004811515611b2d57fe5b0690506000811415611b3e57602d90505b611b73817f010000000000000000000000000000000000000000000000000000000000000002846129c390919063ffffffff16565b8015611b80575060008114155b15611bef57807f0100000000000000000000000000000000000000000000000000000000000000028383815181101515611bb657fe5b9060200101907effffffffffffffffffffffffffffffffffffffffffffffffffffffffffffff1916908160001a90535081806001019250505b601084600019169060020a029350611ae8565b611c0b83612a9a565b9250611c1683612d16565b600560006101000a81548165ffffffffffff02191690837a0100000000000000000000000000000000000000000000000000009004021790555050505050565b6000600660008473ffffffffffffffffffffffffffffffffffffffff1673ffffffffffffffffffffffffffffffffffffffff16815260200190815260200160002082815481101515611ca457fe5b9060005260206000200160000160009054906101000a90047a01000000000000000000000000000000000000000000000000000002905092915050565b601d60009054906101000a900460ff1681565b601d60019054906101000a900473ffffffffffffffffffffffffffffffffffffffff1681565b6000806000806000806000806000809054906101000a900473ffffffffffffffffffffffffffffffffffffffff1673ffffffffffffffffffffffffffffffffffffffff163373ffffffffffffffffffffffffffffffffffffffff16141515611d8157600080fd5b42600154111515611dfa576040517f08c379a00000000000000000000000000000000000000000000000000000000081526004018080602001828103825260178152602001807f646561646c696e652068617320746f206265206f76657200000000000000000081525060200191505060405180910390fd5b601d60009054906101000a900460ff161515611e7e576040517f08c379a00000000000000000000000000000000000000000000000000000000081526004018080602001828103825260128152602001807f6c6f74746572792068617320706c61796564000000000000000000000000000081525060200191505060405180910390fd5b5b60088054905060045410156121b9576008600454815481101515611e9f57fe5b9060005260206000200197508760000160009054906101000a90047a0100000000000000000000000000000000000000000000000000000296506000955060009450600093505b600560009054906101000a905050600660ff1684101561204857600560009054906101000a90047a0100000000000000000000000000000000000000000000000000000284600681101515611f3757fe5b1a7f01000000000000000000000000000000000000000000000000000000000000000292508491505b600660ff1682101561203b57600086148015611f7d575060038210155b80611f955750600186148015611f94575060048210155b5b15611f9f5761203b565b8682600681101515611fad57fe5b1a7f0100000000000000000000000000000000000000000000000000000000000000027effffffffffffffffffffffffffffffffffffffffffffffffffffffffffffff1916837effffffffffffffffffffffffffffffffffffffffffffffffffffffffffffff1916141561202e57600182019450858060010196505061203b565b8180600101925050611f60565b8380600101945050611ee6565b60038610158015612068575087600001601a9054906101000a900460ff16155b1561209657600188600001601a6101000a81548160ff021916908315150217905550612095600088612de8565b5b600486101580156120b6575087600001601b9054906101000a900460ff16155b156120e457600188600001601b6101000a81548160ff0219169083151502179055506120e3600188612de8565b5b60058610158015612104575087600001601c9054906101000a900460ff16155b1561213257600188600001601c6101000a81548160ff021916908315150217905550612131600288612de8565b5b600686148015612151575087600001601d9054906101000a900460ff16155b1561217f57600188600001601d6101000a81548160ff02191690831515021790555061217e600388612de8565b5b600460008154809291906001019190505550620493e05a111580156121aa5750600880549050600454105b156121b4576121b9565b611e7f565b6121cf6004600354612ff990919063ffffffff16565b905060088054905060045414156123cd576000600960006004811015156121f257fe5b600502016000015411801561221e575060006009600060048110151561221457fe5b6005020160010154145b1561225b576122388160035461300f90919063ffffffff16565b600381905550806009600060048110151561224f57fe5b60050201600101819055505b60006009600160048110151561226d57fe5b6005020160000154118015612299575060006009600160048110151561228f57fe5b6005020160010154145b156122d6576122b38160035461300f90919063ffffffff16565b60038190555080600960016004811015156122ca57fe5b60050201600101819055505b6000600960026004811015156122e857fe5b6005020160000154118015612314575060006009600260048110151561230a57fe5b6005020160010154145b156123515761232e8160035461300f90919063ffffffff16565b600381905550806009600260048110151561234557fe5b60050201600101819055505b60006009600360048110151561236357fe5b600502016000015411801561238f575060006009600360048110151561238557fe5b6005020160010154145b156123cc576123a98160035461300f90919063ffffffff16565b60038190555080600960036004811015156123c057fe5b60050201600101819055505b5b5050505050505050565b600080601e60009054906101000a900473ffffffffffffffffffffffffffffffffffffffff1673ffffffffffffffffffffffffffffffffffffffff163373ffffffffffffffffffffffffffffffffffffffff1614151561243657600080fd5b60006003541115156124b0576040517f08c379a000000000000000000000000000000000000000000000000000000000815260040180806020018281038252601d8152602001807f4a61636b706f7420736f68756c64206265206d6f7265207468616e203000000081525060200191505060405180910390fd5b601d60009054906101000a900460ff161515612534576040517f08c379a00000000000000000000000000000000000000000000000000000000081526004018080602001828103825260128152602001807f6c6f74746572792068617320706c61796564000000000000000000000000000081525060200191505060405180910390fd5b600073ffffffffffffffffffffffffffffffffffffffff168373ffffffffffffffffffffffffffffffffffffffff16141515156125ff576040517f08c379a00000000000000000000000000000000000000000000000000000000081526004018080602001828103825260238152602001807f6e6577206c6f747465727920616464726573732073686f756c64206e6f74206281526020017f652030000000000000000000000000000000000000000000000000000000000081525060400191505060405180910390fd5b600354915060006003819055508290508073ffffffffffffffffffffffffffffffffffffffff1663642e8fef836040518263ffffffff167c01000000000000000000000000000000000000000000000000000000000281526004016000604051808303818588803b15801561267357600080fd5b505af1158015612687573d6000803e3d6000fd5b5050505050505050565b6000809054906101000a900473ffffffffffffffffffffffffffffffffffffffff1673ffffffffffffffffffffffffffffffffffffffff163373ffffffffffffffffffffffffffffffffffffffff161415156126ec57600080fd5b600073ffffffffffffffffffffffffffffffffffffffff168173ffffffffffffffffffffffffffffffffffffffff161415151561272857600080fd5b7f8be0079c531659141344cd1fd0a4f28419497f9722a3daafe3b4186f6b6457e06000809054906101000a900473ffffffffffffffffffffffffffffffffffffffff1682604051808373ffffffffffffffffffffffffffffffffffffffff1673ffffffffffffffffffffffffffffffffffffffff1681526020018273ffffffffffffffffffffffffffffffffffffffff1673ffffffffffffffffffffffffffffffffffffffff1681526020019250505060405180910390a1806000806101000a81548173ffffffffffffffffffffffffffffffffffffffff021916908373ffffffffffffffffffffffffffffffffffffffff16021790555050565b6000818301905082811015151561283657fe5b80905092915050565b60008060008060068060ff1614151561285b57600093506129bb565b600092505b600660ff168310156129b657848360068110151561287a57fe5b1a7f01000000000000000000000000000000000000000000000000000000000000000291506000827f010000000000000000000000000000000000000000000000000000000000000090041115806128f55750602d827f01000000000000000000000000000000000000000000000000000000000000009004115b1561290357600093506129bb565b6001830190505b600660ff168110156129a957848160068110151561292457fe5b1a7f0100000000000000000000000000000000000000000000000000000000000000027effffffffffffffffffffffffffffffffffffffffffffffffffffffffffffff1916827effffffffffffffffffffffffffffffffffffffffffffffffffffffffffffff191610151561299c57600093506129bb565b808060010191505061290a565b8280600101935050612860565b600193505b505050919050565b600080600090505b8351811015612a8e5783818151811015156129e257fe5b9060200101517f010000000000000000000000000000000000000000000000000000000000000090047f0100000000000000000000000000000000000000000000000000000000000000027effffffffffffffffffffffffffffffffffffffffffffffffffffffffffffff1916837effffffffffffffffffffffffffffffffffffffffffffffffffffffffffffff19161415612a815760009150612a93565b80806001019150506129cb565b600191505b5092915050565b606060008060008085519350600092505b83831015612d0a576001830191505b83821015612cfd578582815181101515612ad057fe5b9060200101517f010000000000000000000000000000000000000000000000000000000000000090047f0100000000000000000000000000000000000000000000000000000000000000027effffffffffffffffffffffffffffffffffffffffffffffffffffffffffffff19168684815181101515612b4b57fe5b9060200101517f010000000000000000000000000000000000000000000000000000000000000090047f0100000000000000000000000000000000000000000000000000000000000000027effffffffffffffffffffffffffffffffffffffffffffffffffffffffffffff19161115612cf0578583815181101515612bcc57fe5b9060200101517f010000000000000000000000000000000000000000000000000000000000000090047f01000000000000000000000000000000000000000000000000000000000000000290508582815181101515612c2757fe5b9060200101517f010000000000000000000000000000000000000000000000000000000000000090047f0100000000000000000000000000000000000000000000000000000000000000028684815181101515612c8057fe5b9060200101907effffffffffffffffffffffffffffffffffffffffffffffffffffffffffffff1916908160001a905350808683815181101515612cbf57fe5b9060200101907effffffffffffffffffffffffffffffffffffffffffffffffffffffffffffff1916908160001a9053505b8180600101925050612aba565b8280600101935050612aab565b85945050505050919050565b60008060008091505b8351821015612de1578382815181101515612d3657fe5b9060200101517f010000000000000000000000000000000000000000000000000000000000000090047f0100000000000000000000000000000000000000000000000000000000000000027effffffffffffffffffffffffffffffffffffffffffffffffffffffffffffff19169050816008028179ffffffffffffffffffffffffffffffffffffffffffffffffffff19169060020a9004905080831792508180600101925050612d1f565b5050919050565b600060606000600985600481101515612dfd57fe5b60050201925082600001600081548092919060010191905055508260040184908060018154018082558091505090600182039060005260206000209060059182820401919006600602909192909190916101000a81548165ffffffffffff02191690837a0100000000000000000000000000000000000000000000000000009004021790555050600760008579ffffffffffffffffffffffffffffffffffffffffffffffffffff191679ffffffffffffffffffffffffffffffffffffffffffffffffffff19168152602001908152602001600020805480602002602001604051908101604052809291908181526020018280548015612f5157602002820191906000526020600020905b8160009054906101000a900473ffffffffffffffffffffffffffffffffffffffff1673ffffffffffffffffffffffffffffffffffffffff1681526020019060010190808311612f07575b50505050509150600090505b8151811015612ff257826003018282815181101515612f7857fe5b9060200190602002015190806001815401808255809150509060018203906000526020600020016000909192909190916101000a81548173ffffffffffffffffffffffffffffffffffffffff021916908373ffffffffffffffffffffffffffffffffffffffff160217905550508080600101915050612f5d565b5050505050565b6000818381151561300657fe5b04905092915050565b600082821115151561301d57fe5b818303905092915050565b60e060405190810160405280600079ffffffffffffffffffffffffffffffffffffffffffffffffffff19168152602001600073ffffffffffffffffffffffffffffffffffffffff16815260200160001515815260200160001515815260200160001515815260200160001515815260200160001515815250905600a165627a7a723058204d47223146ce5ad0f3d9c7bb02d5dcf6b9d96cc81c4a859cb5395a2fcf6d7a060029",
  "source": "pragma solidity ^0.4.23;\r\n\r\nimport \"./ownership/Ownable.sol\";\r\nimport \"./math/SafeMath.sol\";\r\nimport \"./LotteryFactory.sol\";\r\nimport \"./BytesConvertLib.sol\";\r\n\r\n/**\r\n * @title Lottery\r\n * @dev Lottery with 6 numbers between 01-45. for each bet we store:\r\n * 1 bytes6 [ 14, 15, 16, 19, 32, 35 ] = 0x0e0f10132023\r\n */\r\n\r\ncontract Lottery is Ownable {\r\n    using SafeMath for uint256; \r\n    using BytesConvertLib for bytes;\r\n    using BytesConvertLib for bytes6;\r\n\r\n    event TransferJackPot(uint256 value);\r\n\r\n    struct Ticket {\r\n        bytes6 ticket;\r\n        address user;\r\n        bool number3;\r\n        bool number4;\r\n        bool number5;\r\n        bool number6;\r\n        bool processed;\r\n    }\r\n\r\n    struct Winners {\r\n        uint256 numberOfWinners;\r\n        uint256 allocated;\r\n        uint256 payed;\r\n        address[] winners;\r\n        bytes6[] tickets;\r\n    }\r\n\r\n    uint256 public deadline;\r\n    uint256 public lotteryValue;\r\n    uint256 public jackPot;\r\n    uint256 public index = 0;\r\n\r\n    bytes6 public winningNumber;\r\n\r\n    // @dev mapping of the sender => tickets, when user enters the lottery we save his tickets\r\n    mapping(address => Ticket[]) public playerTickets;\r\n    mapping(bytes6 => address[]) public ticketPlayers;\r\n\r\n    Ticket[] public tickets;\r\n    Winners[4] public winners;\r\n\r\n    bool public lotteryHasPlayed = false;\r\n\r\n    // @dev we keep a reference of the last lottery\r\n    address public lastLottery;\r\n\r\n    // @dev the address of the factory which deployed this lottery\r\n    address public factoryAddress;\r\n\r\n    // @dev modifier to check if sender is the factoryAddress\r\n    modifier onlyFactory() {\r\n        require(msg.sender == factoryAddress);\r\n        _;\r\n    }\r\n    /** \r\n    * @dev we set the lotteryFactory as the creator of this lottery\r\n    * @param _duration how long will the lottery be open to enter\r\n    * @param _lotteryValue sets the value of the lottery\r\n    * @param _lastLotteryAddress address of the previous lottery\r\n    */\r\n    constructor(uint256 _duration, uint256 _lotteryValue, address _lastLotteryAddress) public {\r\n        require(_duration > 0);\r\n        require(_lotteryValue > 0);\r\n        factoryAddress = msg.sender;\r\n        deadline = now + _duration;\r\n        lotteryValue = _lotteryValue;\r\n        lastLottery = _lastLotteryAddress;\r\n    }\r\n\r\n    /** \r\n    * @notice allows the player to enter (200000 gas in testing)\r\n    * @param _ticket the ticket in bytes [ 14, 15, 16, 19, 32, 35 ] = 0x0e0f10132023\r\n    */\r\n    function enter(bytes6 _ticket) external payable {\r\n        require(msg.value == lotteryValue, \"value received is less than the lotteryValue\");\r\n        require(now < deadline, \"Lottery has finalized\");\r\n        require(!lotteryHasPlayed, \"Lottery has already played\");\r\n        require(_ticket.areValidNumbers(), \"No repeated numbers inside the ticket\");\r\n        jackPot = jackPot.add(lotteryValue);\r\n        Ticket memory newTicket = Ticket({\r\n            ticket: _ticket,\r\n            user: msg.sender,\r\n            number3: false,\r\n            number4: false,\r\n            number5: false,\r\n            number6: false,\r\n            processed: false \r\n        });\r\n        playerTickets[msg.sender].push(newTicket);\r\n        ticketPlayers[_ticket].push(msg.sender);\r\n        tickets.push(newTicket);\r\n    }\r\n\r\n    /** \r\n    * @notice play the lottery when is finished (70k gas test), we get a bytes32 keccak256 of the \r\n    * random number, first 2 bytes are divided by 45 and we take the residous\r\n    * if the number is ok we put it in the first place of _number6, then we take\r\n    * the subsequent 2 bytes and do the same to put it in the second slot of _number6\r\n    * at the end _number 6 is the winning number\r\n    */\r\n    function playTheLottery() external onlyOwner {\r\n        require(deadline > now, \"deadline has to be over\");\r\n        require(!lotteryHasPlayed, \"lottery has played\");\r\n        lotteryHasPlayed = true;\r\n        bytes32 random = keccak256(now);\r\n        bytes memory winner = new bytes(6);\r\n        uint256 size = 0;\r\n        while(size < 6){\r\n            if(size==6) break;\r\n            uint256 pair = uint256(bytes2(random)) % 45;\r\n            if(pair == 0) pair = 45;\r\n            if(winner.isNotRepeated(bytes1(pair)) && pair != 0){\r\n                winner[size] = bytes1(pair);\r\n                size++;\r\n            } \r\n            random = random << 16;\r\n        }\r\n        winner = winner.sortArray();\r\n        winningNumber = winner.convertBytesToBytes6();\r\n    }\r\n\r\n    /**\r\n    * @dev this function can consume a lot of gas, this is why we set an\r\n    * index as global if we run out of gas during this call\r\n    * We go through each ticket that was bought and we check if\r\n    * each byte of each ticket is equal to each bytes of the winning \r\n    * number, if we get more than 3 results we have a winner, then we\r\n    * call the _saveValues method for each winner found\r\n    * After this, we check if all of the tickets have been checked\r\n    * if so, we allocated the corresponding to each winner struct, \r\n    * the first position of winners is a struct defining the number\r\n    * of winners who scored 3 numbers, the second is for 4 numbers\r\n    * and so on.\r\n    */\r\n    function setWinners() external onlyOwner {\r\n        require(deadline > now, \"deadline has to be over\");\r\n        require(lotteryHasPlayed, \"lottery has played\");\r\n        while(index < tickets.length) {\r\n            Ticket storage savedTicket = tickets[index];\r\n            bytes6 ticket = savedTicket.ticket;\r\n            uint256 found = 0;\r\n            uint256 offset = 0;\r\n            for(uint256 j = 0; j < winningNumber.length; j++) {\r\n                bytes1 chunk = winningNumber[j];\r\n                for(uint256 k = offset; k < ticket.length; k++){\r\n                    if((found == 0 && k >= 3) || (found == 1 && k >= 4)) break;\r\n                    if(chunk == ticket[k]) {\r\n                        offset = k + 1;\r\n                        found++;\r\n                        break;\r\n                    } \r\n                }\r\n            }\r\n            if(found >= 3 && !savedTicket.number3) {\r\n                savedTicket.number3 = true;\r\n                _saveValues(0, ticket);\r\n            } \r\n            if(found >= 4 && !savedTicket.number4) {\r\n                savedTicket.number4 = true;\r\n                _saveValues(1, ticket);\r\n            } \r\n            if(found >= 5 && !savedTicket.number5) {\r\n                savedTicket.number5 = true;\r\n                _saveValues(2, ticket);        \r\n            } \r\n            if(found == 6 && !savedTicket.number6) {\r\n                savedTicket.number6 = true;\r\n                _saveValues(3, ticket);              \r\n            }\r\n            index ++;\r\n            if(gasleft() <= 300000 && index < tickets.length) break;\r\n        }\r\n        uint256 allocation = jackPot.div(4);\r\n        if(index == tickets.length) {\r\n            if(winners[0].numberOfWinners > 0 && winners[0].allocated == 0){\r\n                jackPot = jackPot.sub(allocation);\r\n                winners[0].allocated = allocation;\r\n            }\r\n            if(winners[1].numberOfWinners > 0 && winners[1].allocated == 0){\r\n                jackPot = jackPot.sub(allocation);\r\n                winners[1].allocated = allocation;\r\n            }\r\n            if(winners[2].numberOfWinners > 0 && winners[2].allocated == 0){\r\n                jackPot = jackPot.sub(allocation);\r\n                winners[2].allocated = allocation;\r\n            }\r\n            if(winners[3].numberOfWinners > 0 && winners[3].allocated == 0){\r\n                jackPot = jackPot.sub(allocation);\r\n                winners[3].allocated = allocation;\r\n            }\r\n        }\r\n    }\r\n\r\n    /**\r\n    * @dev we save the ticket if scored more than 3 numbers\r\n    * @param _pos the position of the winner struct, 0 for 3 numbers,\r\n    * 1 for 4 numbers, and so on\r\n    * @param _ticket the winner ticket\r\n    */\r\n    function _saveValues(uint256 _pos, bytes6 _ticket) private {\r\n        Winners storage _winners = winners[_pos];\r\n        _winners.numberOfWinners ++;\r\n        _winners.tickets.push(_ticket);\r\n        address[] memory players = ticketPlayers[_ticket];\r\n        for(uint256 l = 0; l < players.length; l++){\r\n            _winners.winners.push(players[l]);\r\n        }\r\n    }\r\n\r\n    /**     \r\n    * @dev is called when player enters the lottery, we use this to allocate the money\r\n    */\r\n    function addJackPot() public payable {\r\n        require(!lotteryHasPlayed, \"lottery has still not played\");\r\n        require(deadline > now, \"deadline is over\");\r\n        require(msg.value>0);\r\n        jackPot = jackPot.add(msg.value);\r\n        emit TransferJackPot(jackPot);\r\n    }\r\n\r\n     /** \r\n    * @notice Transfer the jackpot nobody won the lottery to a the newLottery \r\n    */\r\n    function transferJackPot(address _newLottery) external onlyFactory {\r\n        //require(winners.length == 0, \"Must not be winners in order to transfer\");\r\n        require(jackPot > 0, \"Jackpot sohuld be more than 0\");\r\n        require(lotteryHasPlayed, \"lottery has played\");\r\n        require(_newLottery != address(0), \"new lottery address should not be 0\");\r\n        uint256 _jackPot = jackPot;\r\n        jackPot = 0;\r\n        Lottery lottery = Lottery(_newLottery);\r\n        lottery.addJackPot.value(_jackPot)();  \r\n    }\r\n\r\n    //@dev Getters\r\n    function getSummary() external view returns (\r\n        uint256, uint256, uint256, uint256, bool, address, address, address) {\r\n        return (\r\n            lotteryValue,\r\n            deadline,\r\n            jackPot,\r\n            tickets.length,\r\n            lotteryHasPlayed,\r\n            lastLottery,\r\n            factoryAddress, \r\n            owner\r\n        );\r\n    }\r\n\r\n    function getWinners(uint256 _n) external view returns (\r\n        uint256, uint256, uint256, address[],bytes6[]) {\r\n        uint256 _numberOfWinners = winners[_n - 3].numberOfWinners;\r\n        uint256 _allocated = winners[_n - 3].allocated;\r\n        uint256 _payed = winners[_n - 3].payed;\r\n        address[] memory _winners = winners[_n - 3].winners;\r\n        bytes6[] memory _tickets = winners[_n - 3].tickets;\r\n        return(\r\n            _numberOfWinners, \r\n            _allocated, \r\n            _payed,\r\n            _winners,\r\n            _tickets\r\n            );\r\n    }\r\n\r\n    function getPlayerTicket(address _address, uint256 _index) external view returns (bytes6 outTicket){\r\n        outTicket = playerTickets[_address][_index].ticket;\r\n    }\r\n\r\n    function getNumberOfTickets(address _address) external view returns (uint256 size) {\r\n        size = playerTickets[_address].length;\r\n    }\r\n\r\n    function getPlayers(bytes6 _ticket) external view returns (address[]) {\r\n        return ticketPlayers[_ticket];\r\n    }\r\n\r\n/*\r\nbytes6 ticket;\r\n        address user;\r\n        bool number3;\r\n        bool number4;\r\n        bool number5;\r\n        bool number6;\r\n        bool processed;\r\n    function getWinner() external view returns(bytes6 winningNumber6) {\r\n        winningNumber6 = winningNumbers.winningNumber;\r\n    }\r\n\r\n    function getWinner5(uint256 index) external view returns(bytes5) {\r\n        return  winningNumbers.winningNumbers5[index];\r\n    }\r\n\r\n    function getWinner4(uint256 index) external view returns(bytes4) {\r\n        return  winningNumbers.winningNumbers4[index];\r\n    }\r\n\r\n    function getWinner3(uint256 index) external view returns(bytes3) {\r\n        return  winningNumbers.winningNumbers3[index];\r\n    }\r\n    */\r\n}\r\n\r\n\r\n\r\n",
  "sourcePath": "E:\\Ethereum\\Worldpay\\lottery-contract\\ethereum\\contracts\\Lottery.sol",
  "compiler": {
    "name": "solc",
    "version": "0.4.23+commit.124ca40d.Emscripten.clang"
  },
  "schemaVersion": "2.0.0",
  "updatedAt": "2018-06-08T11:16:39.809Z"
}