{
  "contractName": "LotteryFactory",
  "abi": [
    {
      "constant": true,
      "inputs": [
        {
          "name": "",
          "type": "uint256"
        }
      ],
      "name": "lotteries",
      "outputs": [
        {
          "name": "",
          "type": "address"
        }
      ],
      "payable": false,
      "stateMutability": "view",
      "type": "function"
    },
    {
      "constant": true,
      "inputs": [],
      "name": "owner",
      "outputs": [
        {
          "name": "",
          "type": "address"
        }
      ],
      "payable": false,
      "stateMutability": "view",
      "type": "function"
    },
    {
      "constant": false,
      "inputs": [
        {
          "name": "newOwner",
          "type": "address"
        }
      ],
      "name": "transferOwnership",
      "outputs": [],
      "payable": false,
      "stateMutability": "nonpayable",
      "type": "function"
    },
    {
      "anonymous": false,
      "inputs": [
        {
          "indexed": false,
          "name": "deployedLottery",
          "type": "address"
        }
      ],
      "name": "LotteryDeployed",
      "type": "event"
    },
    {
      "anonymous": false,
      "inputs": [
        {
          "indexed": false,
          "name": "previousOwner",
          "type": "address"
        },
        {
          "indexed": false,
          "name": "newOwner",
          "type": "address"
        }
      ],
      "name": "OwnershipTransferred",
      "type": "event"
    },
    {
      "constant": false,
      "inputs": [
        {
          "name": "_duration",
          "type": "uint256"
        },
        {
          "name": "_lotteryValue",
          "type": "uint256"
        }
      ],
      "name": "createNewLottery",
      "outputs": [],
      "payable": false,
      "stateMutability": "nonpayable",
      "type": "function"
    },
    {
      "constant": true,
      "inputs": [],
      "name": "getLotteries",
      "outputs": [
        {
          "name": "",
          "type": "address[]"
        }
      ],
      "payable": false,
      "stateMutability": "view",
      "type": "function"
    }
  ],
  "bytecode": "0x6080604052336000806101000a81548173ffffffffffffffffffffffffffffffffffffffff021916908373ffffffffffffffffffffffffffffffffffffffff16021790555061495d806100536000396000f30060806040526004361061006d576000357c0100000000000000000000000000000000000000000000000000000000900463ffffffff1680631398e076146100725780638da5cb5b146100df578063a99a690714610136578063bcc82ec41461016d578063f2fde38b146101d9575b600080fd5b34801561007e57600080fd5b5061009d6004803603810190808035906020019092919050505061021c565b604051808273ffffffffffffffffffffffffffffffffffffffff1673ffffffffffffffffffffffffffffffffffffffff16815260200191505060405180910390f35b3480156100eb57600080fd5b506100f461025a565b604051808273ffffffffffffffffffffffffffffffffffffffff1673ffffffffffffffffffffffffffffffffffffffff16815260200191505060405180910390f35b34801561014257600080fd5b5061016b600480360381019080803590602001909291908035906020019092919050505061027f565b005b34801561017957600080fd5b5061018261049a565b6040518080602001828103825283818151815260200191508051906020019060200280838360005b838110156101c55780820151818401526020810190506101aa565b505050509050019250505060405180910390f35b3480156101e557600080fd5b5061021a600480360381019080803573ffffffffffffffffffffffffffffffffffffffff169060200190929190505050610528565b005b60018181548110151561022b57fe5b906000526020600020016000915054906101000a900473ffffffffffffffffffffffffffffffffffffffff1681565b6000809054906101000a900473ffffffffffffffffffffffffffffffffffffffff1681565b6000806000600180549050141561030d578383600061029c610a57565b808481526020018381526020018273ffffffffffffffffffffffffffffffffffffffff1673ffffffffffffffffffffffffffffffffffffffff1681526020019350505050604051809103906000f0801580156102fc573d6000803e3d6000fd5b509150610308826106ba565b610494565b60018080805490500381548110151561032257fe5b9060005260206000200160009054906101000a900473ffffffffffffffffffffffffffffffffffffffff1690508073ffffffffffffffffffffffffffffffffffffffff1663a947d0506040518163ffffffff167c0100000000000000000000000000000000000000000000000000000000028152600401602060405180830381600087803b1580156103b357600080fd5b505af11580156103c7573d6000803e3d6000fd5b505050506040513d60208110156103dd57600080fd5b81019080805190602001909291905050501515610488576040517f08c379a00000000000000000000000000000000000000000000000000000000081526004018080602001828103825260318152602001807f436865636b73206966207468652070726576696f7573206c6f7474657279206881526020017f617320616c726561647920706c6179656400000000000000000000000000000081525060400191505060405180910390fd5b61049384848361085a565b5b50505050565b6060600180548060200260200160405190810160405280929190818152602001828054801561051e57602002820191906000526020600020905b8160009054906101000a900473ffffffffffffffffffffffffffffffffffffffff1673ffffffffffffffffffffffffffffffffffffffff16815260200190600101908083116104d4575b5050505050905090565b6000809054906101000a900473ffffffffffffffffffffffffffffffffffffffff1673ffffffffffffffffffffffffffffffffffffffff163373ffffffffffffffffffffffffffffffffffffffff1614151561058357600080fd5b600073ffffffffffffffffffffffffffffffffffffffff168173ffffffffffffffffffffffffffffffffffffffff16141515156105bf57600080fd5b7f8be0079c531659141344cd1fd0a4f28419497f9722a3daafe3b4186f6b6457e06000809054906101000a900473ffffffffffffffffffffffffffffffffffffffff1682604051808373ffffffffffffffffffffffffffffffffffffffff1673ffffffffffffffffffffffffffffffffffffffff1681526020018273ffffffffffffffffffffffffffffffffffffffff1673ffffffffffffffffffffffffffffffffffffffff1681526020019250505060405180910390a1806000806101000a81548173ffffffffffffffffffffffffffffffffffffffff021916908373ffffffffffffffffffffffffffffffffffffffff16021790555050565b8073ffffffffffffffffffffffffffffffffffffffff1663f2fde38b6000809054906101000a900473ffffffffffffffffffffffffffffffffffffffff166040518263ffffffff167c0100000000000000000000000000000000000000000000000000000000028152600401808273ffffffffffffffffffffffffffffffffffffffff1673ffffffffffffffffffffffffffffffffffffffff168152602001915050600060405180830381600087803b15801561077657600080fd5b505af115801561078a573d6000803e3d6000fd5b5050505060018190806001815401808255809150509060018203906000526020600020016000909192909190916101000a81548173ffffffffffffffffffffffffffffffffffffffff021916908373ffffffffffffffffffffffffffffffffffffffff160217905550507f06445d049f06d8e336db6cb614dc874b6e09880c1ee7418f27a58fddc1ed9be381604051808273ffffffffffffffffffffffffffffffffffffffff1673ffffffffffffffffffffffffffffffffffffffff16815260200191505060405180910390a150565b6000838383610867610a57565b808481526020018381526020018273ffffffffffffffffffffffffffffffffffffffff1673ffffffffffffffffffffffffffffffffffffffff1681526020019350505050604051809103906000f0801580156108c7573d6000803e3d6000fd5b5090506108d3816106ba565b60008273ffffffffffffffffffffffffffffffffffffffff1614158015610998575060008273ffffffffffffffffffffffffffffffffffffffff16634a78cdba6040518163ffffffff167c0100000000000000000000000000000000000000000000000000000000028152600401602060405180830381600087803b15801561095b57600080fd5b505af115801561096f573d6000803e3d6000fd5b505050506040513d602081101561098557600080fd5b8101908080519060200190929190505050115b15610a51578173ffffffffffffffffffffffffffffffffffffffff1663c64facb5826040518263ffffffff167c0100000000000000000000000000000000000000000000000000000000028152600401808273ffffffffffffffffffffffffffffffffffffffff1673ffffffffffffffffffffffffffffffffffffffff168152602001915050600060405180830381600087803b158015610a3857600080fd5b505af1158015610a4c573d6000803e3d6000fd5b505050505b50505050565b604051613eca80610a6883390190560060806040526000601060006101000a81548160ff02191690831515021790555034801561002b57600080fd5b5060405160608062003eca833981018060405281019080805190602001909291908051906020019092919080519060200190929190505050336000806101000a81548173ffffffffffffffffffffffffffffffffffffffff021916908373ffffffffffffffffffffffffffffffffffffffff1602179055506000831115156100b257600080fd5b6000821115156100c157600080fd5b33601160006101000a81548173ffffffffffffffffffffffffffffffffffffffff021916908373ffffffffffffffffffffffffffffffffffffffff1602179055508242016001819055508160028190555080601060016101000a81548173ffffffffffffffffffffffffffffffffffffffff021916908373ffffffffffffffffffffffffffffffffffffffff16021790555042600681905550505050613d5d806200016d6000396000f30060806040526004361061018b576000357c0100000000000000000000000000000000000000000000000000000000900463ffffffff16806321e0f2281461019057806328435506146101f957806329dcb0cf14610224578063347fc7181461024f5780634051ddac146102e557806347f234c91461042a5780634a78cdba146104815780634c39775e146104ac5780635337448e1461054e578063558f38531461056557806360de93ab146105d1578063638f657514610672578063642e8fef1461069d57806384350e1d146106a75780638b5b9ccc1461082c5780638da5cb5b14610898578063900f46c6146108ef5780639113a7b51461098e578063966dae0e146109b9578063a0b29f7e14610a10578063a2fb117514610a59578063a319d14314610ac6578063a947d05014610add578063af0b4b2714610b0c578063aff9d40714610b63578063c64facb514610bfa578063cdbddca014610c3d578063e3ac5d2614610ca9578063f2fde38b14610cd4578063f5256f3b14610d17578063f71d96cb14610db8575b600080fd5b34801561019c57600080fd5b506101a5610e25565b60405180827bffffffffffffffffffffffffffffffffffffffffffffffffffffffff19167bffffffffffffffffffffffffffffffffffffffffffffffffffffffff1916815260200191505060405180910390f35b34801561020557600080fd5b5061020e610e5a565b6040518082815260200191505060405180910390f35b34801561023057600080fd5b50610239610e60565b6040518082815260200191505060405180910390f35b34801561025b57600080fd5b506102a360048036038101908080357bffffffffffffffffffffffffffffffffffffffffffffffffffffffff1916906020019092919080359060200190929190505050610e66565b604051808273ffffffffffffffffffffffffffffffffffffffff1673ffffffffffffffffffffffffffffffffffffffff16815260200191505060405180910390f35b3480156102f157600080fd5b506102fa610eb3565b604051808e81526020018d81526020018c81526020018b81526020018a8152602001898152602001888152602001871515151581526020018673ffffffffffffffffffffffffffffffffffffffff1673ffffffffffffffffffffffffffffffffffffffff1681526020018573ffffffffffffffffffffffffffffffffffffffff1673ffffffffffffffffffffffffffffffffffffffff1681526020018473ffffffffffffffffffffffffffffffffffffffff1673ffffffffffffffffffffffffffffffffffffffff168152602001837bffffffffffffffffffffffffffffffffffffffffffffffffffffffff19167bffffffffffffffffffffffffffffffffffffffffffffffffffffffff191681526020018281526020019d505050505050505050505050505060405180910390f35b34801561043657600080fd5b5061046b600480360381019080803573ffffffffffffffffffffffffffffffffffffffff169060200190929190505050610fb5565b6040518082815260200191505060405180910390f35b34801561048d57600080fd5b50610496610fcd565b6040518082815260200191505060405180910390f35b3480156104b857600080fd5b506104f760048036038101908080357cffffffffffffffffffffffffffffffffffffffffffffffffffffffffff19169060200190929190505050610fd3565b6040518080602001828103825283818151815260200191508051906020019060200280838360005b8381101561053a57808201518184015260208101905061051f565b505050509050019250505060405180910390f35b34801561055a57600080fd5b506105636110b4565b005b34801561057157600080fd5b5061057a6112a1565b6040518080602001828103825283818151815260200191508051906020019060200280838360005b838110156105bd5780820151818401526020810190506105a2565b505050509050019250505060405180910390f35b3480156105dd57600080fd5b5061061c600480360381019080803573ffffffffffffffffffffffffffffffffffffffff16906020019092919080359060200190929190505050611394565b60405180827cffffffffffffffffffffffffffffffffffffffffffffffffffffffffff19167cffffffffffffffffffffffffffffffffffffffffffffffffffffffffff1916815260200191505060405180910390f35b34801561067e57600080fd5b506106876113f6565b6040518082815260200191505060405180910390f35b6106a56113fc565b005b3480156106b357600080fd5b506106bc61155f565b60405180867bffffffffffffffffffffffffffffffffffffffffffffffffffffffff19167bffffffffffffffffffffffffffffffffffffffffffffffffffffffff19168152602001857cffffffffffffffffffffffffffffffffffffffffffffffffffffffffff19167cffffffffffffffffffffffffffffffffffffffffffffffffffffffffff19168152602001847cffffffffffffffffffffffffffffffffffffffffffffffffffffffffff19167cffffffffffffffffffffffffffffffffffffffffffffffffffffffffff19168152602001837cffffffffffffffffffffffffffffffffffffffffffffffffffffffffff19167cffffffffffffffffffffffffffffffffffffffffffffffffffffffffff19168152602001827cffffffffffffffffffffffffffffffffffffffffffffffffffffffffff19167cffffffffffffffffffffffffffffffffffffffffffffffffffffffffff191681526020019550505050505060405180910390f35b34801561083857600080fd5b506108416116cb565b6040518080602001828103825283818151815260200191508051906020019060200280838360005b83811015610884578082015181840152602081019050610869565b505050509050019250505060405180910390f35b3480156108a457600080fd5b506108ad611759565b604051808273ffffffffffffffffffffffffffffffffffffffff1673ffffffffffffffffffffffffffffffffffffffff16815260200191505060405180910390f35b3480156108fb57600080fd5b5061093a600480360381019080803573ffffffffffffffffffffffffffffffffffffffff1690602001909291908035906020019092919050505061177e565b60405180827bffffffffffffffffffffffffffffffffffffffffffffffffffffffff19167bffffffffffffffffffffffffffffffffffffffffffffffffffffffff1916815260200191505060405180910390f35b34801561099a57600080fd5b506109a36117df565b6040518082815260200191505060405180910390f35b3480156109c557600080fd5b506109ce6117e5565b604051808273ffffffffffffffffffffffffffffffffffffffff1673ffffffffffffffffffffffffffffffffffffffff16815260200191505060405180910390f35b610a5760048036038101908080357bffffffffffffffffffffffffffffffffffffffffffffffffffffffff191690602001909291908060800190919291929050505061180b565b005b348015610a6557600080fd5b50610a8460048036038101908080359060200190929190505050611bdf565b604051808273ffffffffffffffffffffffffffffffffffffffff1673ffffffffffffffffffffffffffffffffffffffff16815260200191505060405180910390f35b348015610ad257600080fd5b50610adb611c1d565b005b348015610ae957600080fd5b50610af2611fa2565b604051808215151515815260200191505060405180910390f35b348015610b1857600080fd5b50610b21611fb5565b604051808273ffffffffffffffffffffffffffffffffffffffff1673ffffffffffffffffffffffffffffffffffffffff16815260200191505060405180910390f35b348015610b6f57600080fd5b50610bb860048036038101908080357cffffffffffffffffffffffffffffffffffffffffffffffffffffffffff1916906020019092919080359060200190929190505050611fdb565b604051808273ffffffffffffffffffffffffffffffffffffffff1673ffffffffffffffffffffffffffffffffffffffff16815260200191505060405180910390f35b348015610c0657600080fd5b50610c3b600480360381019080803573ffffffffffffffffffffffffffffffffffffffff169060200190929190505050612028565b005b348015610c4957600080fd5b50610c526122e2565b6040518080602001828103825283818151815260200191508051906020019060200280838360005b83811015610c95578082015181840152602081019050610c7a565b505050509050019250505060405180910390f35b348015610cb557600080fd5b50610cbe6123d7565b6040518082815260200191505060405180910390f35b348015610ce057600080fd5b50610d15600480360381019080803573ffffffffffffffffffffffffffffffffffffffff1690602001909291905050506123dd565b005b348015610d2357600080fd5b50610d6160048036038101908080357bffffffffffffffffffffffffffffffffffffffffffffffffffffffff1916906020019092919050505061256f565b6040518080602001828103825283818151815260200191508051906020019060200280838360005b83811015610da4578082015181840152602081019050610d89565b505050509050019250505060405180910390f35b348015610dc457600080fd5b50610de36004803603810190808035906020019092919050505061264e565b604051808273ffffffffffffffffffffffffffffffffffffffff1673ffffffffffffffffffffffffffffffffffffffff16815260200191505060405180910390f35b60078060000160009054906101000a90047c010000000000000000000000000000000000000000000000000000000002905081565b60045481565b60015481565b600b60205281600052604060002081815481101515610e8157fe5b906000526020600020016000915091509054906101000a900473ffffffffffffffffffffffffffffffffffffffff1681565b6000806000806000806000806000806000806000600254600154600354600e80549050600554600f80549050600454601060009054906101000a900460ff16601060019054906101000a900473ffffffffffffffffffffffffffffffffffffffff16601160009054906101000a900473ffffffffffffffffffffffffffffffffffffffff166000809054906101000a900473ffffffffffffffffffffffffffffffffffffffff16600760000160009054906101000a90047c0100000000000000000000000000000000000000000000000000000000026006549c509c509c509c509c509c509c509c509c509c509c509c509c50909192939495969798999a9b9c565b600d6020528060005260406000206000915090505481565b60035481565b6060600c6000837cffffffffffffffffffffffffffffffffffffffffffffffffffffffffff19167cffffffffffffffffffffffffffffffffffffffffffffffffffffffffff191681526020019081526020016000208054806020026020016040519081016040528092919081815260200182805480156110a857602002820191906000526020600020905b8160009054906101000a900473ffffffffffffffffffffffffffffffffffffffff1673ffffffffffffffffffffffffffffffffffffffff168152602001906001019080831161105e575b50505050509050919050565b60008060008060009054906101000a900473ffffffffffffffffffffffffffffffffffffffff1673ffffffffffffffffffffffffffffffffffffffff163373ffffffffffffffffffffffffffffffffffffffff1614151561111457600080fd5b601060009054906101000a900460ff16151561112f57600080fd5b60003073ffffffffffffffffffffffffffffffffffffffff163111151561115557600080fd5b6000600f8054905011151561116957600080fd5b600092505b600f8054905083101561129c57600f8381548110151561118a57fe5b9060005260206000200160009054906101000a900473ffffffffffffffffffffffffffffffffffffffff169150600d60008373ffffffffffffffffffffffffffffffffffffffff1673ffffffffffffffffffffffffffffffffffffffff168152602001908152602001600020549050600081111561128f576000600d60008473ffffffffffffffffffffffffffffffffffffffff1673ffffffffffffffffffffffffffffffffffffffff168152602001908152602001600020819055508173ffffffffffffffffffffffffffffffffffffffff166108fc829081150290604051600060405180830381858888f1935050505015801561128d573d6000803e3d6000fd5b505b828060010193505061116e565b505050565b6060600960003373ffffffffffffffffffffffffffffffffffffffff1673ffffffffffffffffffffffffffffffffffffffff16815260200190815260200160002080548060200260200160405190810160405280929190818152602001828054801561138a57602002820191906000526020600020906000905b82829054906101000a90047c0100000000000000000000000000000000000000000000000000000000027bffffffffffffffffffffffffffffffffffffffffffffffffffffffff19168152602001906004019060208260030104928301926001038202915080841161131b5790505b5050505050905090565b600a602052816000526040600020818154811015156113af57fe5b90600052602060002090600a9182820401919006600302915091509054906101000a90047d0100000000000000000000000000000000000000000000000000000000000281565b60065481565b601060009054906101000a900460ff16151515611481576040517f08c379a000000000000000000000000000000000000000000000000000000000815260040180806020018281038252601c8152602001807f6c6f747465727920686173207374696c6c206e6f7420706c617965640000000081525060200191505060405180910390fd5b426001541115156114fa576040517f08c379a00000000000000000000000000000000000000000000000000000000081526004018080602001828103825260108152602001807f646561646c696e65206973206f7665720000000000000000000000000000000081525060200191505060405180910390fd5b60003411151561150957600080fd5b61151e3460035461268c90919063ffffffff16565b6003819055507fc2c48fe60b23268064613cbca1898c1871bae36909b3f33467dd82c6fe2cb2e36003546040518082815260200191505060405180910390a1565b6000806000806000600760000160009054906101000a90047c010000000000000000000000000000000000000000000000000000000002600760010160006004811015156115a957fe5b600a91828204019190066003029054906101000a90047d01000000000000000000000000000000000000000000000000000000000002600760010160016004811015156115f257fe5b600a91828204019190066003029054906101000a90047d010000000000000000000000000000000000000000000000000000000000026007600101600260048110151561163b57fe5b600a91828204019190066003029054906101000a90047d010000000000000000000000000000000000000000000000000000000000026007600101600360048110151561168457fe5b600a91828204019190066003029054906101000a90047d01000000000000000000000000000000000000000000000000000000000002945094509450945094509091929394565b6060600e80548060200260200160405190810160405280929190818152602001828054801561174f57602002820191906000526020600020905b8160009054906101000a900473ffffffffffffffffffffffffffffffffffffffff1673ffffffffffffffffffffffffffffffffffffffff1681526020019060010190808311611705575b5050505050905090565b6000809054906101000a900473ffffffffffffffffffffffffffffffffffffffff1681565b60096020528160005260406000208181548110151561179957fe5b9060005260206000209060089182820401919006600402915091509054906101000a90047c01000000000000000000000000000000000000000000000000000000000281565b60025481565b601160009054906101000a900473ffffffffffffffffffffffffffffffffffffffff1681565b600254341415156118aa576040517f08c379a000000000000000000000000000000000000000000000000000000000815260040180806020018281038252602c8152602001807f76616c7565207265636569766564206973206c657373207468616e207468652081526020017f6c6f747465727956616c7565000000000000000000000000000000000000000081525060400191505060405180910390fd5b60015442101515611923576040517f08c379a00000000000000000000000000000000000000000000000000000000081526004018080602001828103825260158152602001807f4c6f7474657279206861732066696e616c697a6564000000000000000000000081525060200191505060405180910390fd5b601060009054906101000a900460ff161515156119a8576040517f08c379a000000000000000000000000000000000000000000000000000000000815260040180806020018281038252601a8152602001807f4c6f74746572792068617320616c726561647920706c6179656400000000000081525060200191505060405180910390fd5b6119d0827bffffffffffffffffffffffffffffffffffffffffffffffffffffffff19166126a8565b1515611a6a576040517f08c379a00000000000000000000000000000000000000000000000000000000081526004018080602001828103825260228152602001807f4e6f207265706561746564206e756d6265727320696e7369646520746865206281526020017f657400000000000000000000000000000000000000000000000000000000000081525060400191505060405180910390fd5b611ac18160048060200260405190810160405280929190826004602002808284378201915050505050837bffffffffffffffffffffffffffffffffffffffffffffffffffffffff191661282c90919063ffffffff16565b1515611acc57600080fd5b611ae360025460035461268c90919063ffffffff16565b600381905550600e3390806001815401808255809150509060018203906000526020600020016000909192909190916101000a81548173ffffffffffffffffffffffffffffffffffffffff021916908373ffffffffffffffffffffffffffffffffffffffff16021790555050611b7e8282600480602002604051908101604052809291908260046020028082843782019150505050506129ae565b3373ffffffffffffffffffffffffffffffffffffffff167f7161ae8ed1d6afc002ada852faaf7f77973bd0d83165acda81a927674acc058d600354600e80549050604051808381526020018281526020019250505060405180910390a25050565b600f81815481101515611bee57fe5b906000526020600020016000915054906101000a900473ffffffffffffffffffffffffffffffffffffffff1681565b600060606000806000809054906101000a900473ffffffffffffffffffffffffffffffffffffffff1673ffffffffffffffffffffffffffffffffffffffff163373ffffffffffffffffffffffffffffffffffffffff16141515611c7f57600080fd5b42600154101515611cf8576040517f08c379a00000000000000000000000000000000000000000000000000000000081526004018080602001828103825260178152602001807f646561646c696e652068617320746f206265206f76657200000000000000000081525060200191505060405180910390fd5b601060009054906101000a900460ff16151515611d7d576040517f08c379a00000000000000000000000000000000000000000000000000000000081526004018080602001828103825260128152602001807f6c6f74746572792068617320706c61796564000000000000000000000000000081525060200191505060405180910390fd5b6001601060006101000a81548160ff02191690831515021790555060405180807f310000000000000000000000000000000000000000000000000000000000000081525060010190506040518091039020935060046040519080825280601f01601f191660200182016040528015611e045781602001602082028038833980820191505090505b509250600091505b6004821015611f26576004821415611e2357611f26565b6063847e010000000000000000000000000000000000000000000000000000000000009004811515611e5157fe5b0690506000811415611e6257606390505b611e97817f01000000000000000000000000000000000000000000000000000000000000000284612ca390919063ffffffff16565b8015611ea4575060008114155b15611f1357807f0100000000000000000000000000000000000000000000000000000000000000028383815181101515611eda57fe5b9060200101907effffffffffffffffffffffffffffffffffffffffffffffffffffffffffffff1916908160001a90535081806001019250505b601084600019169060020a029350611e0c565b611f2f83612d7a565b9250611f3a83612ff6565b600760000160006101000a81548163ffffffff02191690837c010000000000000000000000000000000000000000000000000000000090040217905550611f80836130ca565b6007600101906004611f93929190613c20565b50611f9c613388565b50505050565b601060009054906101000a900460ff1681565b601060019054906101000a900473ffffffffffffffffffffffffffffffffffffffff1681565b600c60205281600052604060002081815481101515611ff657fe5b906000526020600020016000915091509054906101000a900473ffffffffffffffffffffffffffffffffffffffff1681565b600080601160009054906101000a900473ffffffffffffffffffffffffffffffffffffffff1673ffffffffffffffffffffffffffffffffffffffff163373ffffffffffffffffffffffffffffffffffffffff1614151561208757600080fd5b6000600354111515612101576040517f08c379a000000000000000000000000000000000000000000000000000000000815260040180806020018281038252601d8152602001807f4a61636b706f7420736f68756c64206265206d6f7265207468616e203000000081525060200191505060405180910390fd5b601060009054906101000a900460ff161515612185576040517f08c379a00000000000000000000000000000000000000000000000000000000081526004018080602001828103825260128152602001807f6c6f74746572792068617320706c61796564000000000000000000000000000081525060200191505060405180910390fd5b600073ffffffffffffffffffffffffffffffffffffffff168373ffffffffffffffffffffffffffffffffffffffff1614151515612250576040517f08c379a00000000000000000000000000000000000000000000000000000000081526004018080602001828103825260238152602001807f6e6577206c6f747465727920616464726573732073686f756c64206e6f74206281526020017f652030000000000000000000000000000000000000000000000000000000000081525060400191505060405180910390fd5b600354915060006003819055508290508073ffffffffffffffffffffffffffffffffffffffff1663642e8fef836040518263ffffffff167c01000000000000000000000000000000000000000000000000000000000281526004016000604051808303818588803b1580156122c457600080fd5b505af11580156122d8573d6000803e3d6000fd5b5050505050505050565b6060600a60003373ffffffffffffffffffffffffffffffffffffffff1673ffffffffffffffffffffffffffffffffffffffff1681526020019081526020016000208054806020026020016040519081016040528092919081815260200182805480156123cd57602002820191906000526020600020906000905b82829054906101000a90047d010000000000000000000000000000000000000000000000000000000000027cffffffffffffffffffffffffffffffffffffffffffffffffffffffffff19168152602001906003019060208260020104928301926001038202915080841161235c5790505b5050505050905090565b60055481565b6000809054906101000a900473ffffffffffffffffffffffffffffffffffffffff1673ffffffffffffffffffffffffffffffffffffffff163373ffffffffffffffffffffffffffffffffffffffff1614151561243857600080fd5b600073ffffffffffffffffffffffffffffffffffffffff168173ffffffffffffffffffffffffffffffffffffffff161415151561247457600080fd5b7f8be0079c531659141344cd1fd0a4f28419497f9722a3daafe3b4186f6b6457e06000809054906101000a900473ffffffffffffffffffffffffffffffffffffffff1682604051808373ffffffffffffffffffffffffffffffffffffffff1673ffffffffffffffffffffffffffffffffffffffff1681526020018273ffffffffffffffffffffffffffffffffffffffff1673ffffffffffffffffffffffffffffffffffffffff1681526020019250505060405180910390a1806000806101000a81548173ffffffffffffffffffffffffffffffffffffffff021916908373ffffffffffffffffffffffffffffffffffffffff16021790555050565b6060600b6000837bffffffffffffffffffffffffffffffffffffffffffffffffffffffff19167bffffffffffffffffffffffffffffffffffffffffffffffffffffffff1916815260200190815260200160002080548060200260200160405190810160405280929190818152602001828054801561264257602002820191906000526020600020905b8160009054906101000a900473ffffffffffffffffffffffffffffffffffffffff1673ffffffffffffffffffffffffffffffffffffffff16815260200190600101908083116125f8575b50505050509050919050565b600e8181548110151561265d57fe5b906000526020600020016000915054906101000a900473ffffffffffffffffffffffffffffffffffffffff1681565b6000818301905082811015151561269f57fe5b80905092915050565b60008060008060048060ff161415156126c45760009350612824565b600092505b600460ff1683101561281f5784836004811015156126e357fe5b1a7f01000000000000000000000000000000000000000000000000000000000000000291506000827f0100000000000000000000000000000000000000000000000000000000000000900411158061275e57506063827f01000000000000000000000000000000000000000000000000000000000000009004115b1561276c5760009350612824565b6001830190505b600460ff1681101561281257848160048110151561278d57fe5b1a7f0100000000000000000000000000000000000000000000000000000000000000027effffffffffffffffffffffffffffffffffffffffffffffffffffffffffffff1916827effffffffffffffffffffffffffffffffffffffffffffffffffffffffffffff19161015156128055760009350612824565b8080600101915050612773565b82806001019350506126c9565b600193505b505050919050565b6000806000806000806000806000809750600096505b600487101561299957898760048110151561285957fe5b602002015195506128698661371c565b151561287857600098506129a0565b6000945060009350600092505b600360ff1683101561297a57858360038110151561289f57fe5b1a7f01000000000000000000000000000000000000000000000000000000000000000291508490505b600460ff1681101561296d57817effffffffffffffffffffffffffffffffffffffffffffffffffffffffffffff19168b8260048110151561290557fe5b1a7f0100000000000000000000000000000000000000000000000000000000000000027effffffffffffffffffffffffffffffffffffffffffffffffffffffffffffff1916141561296057809450838060010194505061296d565b80806001019150506128c8565b8280600101935050612885565b600384141561298c5787806001019850505b8680600101975050612842565b6004881498505b505050505050505092915050565b600080600960003373ffffffffffffffffffffffffffffffffffffffff1673ffffffffffffffffffffffffffffffffffffffff16815260200190815260200160002084908060018154018082558091505090600182039060005260206000209060089182820401919006600402909192909190916101000a81548163ffffffff02191690837c01000000000000000000000000000000000000000000000000000000009004021790555050600b6000857bffffffffffffffffffffffffffffffffffffffffffffffffffffffff19167bffffffffffffffffffffffffffffffffffffffffffffffffffffffff191681526020019081526020016000203390806001815401808255809150509060018203906000526020600020016000909192909190916101000a81548173ffffffffffffffffffffffffffffffffffffffff021916908373ffffffffffffffffffffffffffffffffffffffff16021790555050600091505b6004821015612c9d578282600481101515612b2a57fe5b60200201519050600a60003373ffffffffffffffffffffffffffffffffffffffff1673ffffffffffffffffffffffffffffffffffffffff168152602001908152602001600020819080600181540180825580915050906001820390600052602060002090600a9182820401919006600302909192909190916101000a81548162ffffff02191690837d0100000000000000000000000000000000000000000000000000000000009004021790555050600c6000827cffffffffffffffffffffffffffffffffffffffffffffffffffffffffff19167cffffffffffffffffffffffffffffffffffffffffffffffffffffffffff191681526020019081526020016000203390806001815401808255809150509060018203906000526020600020016000909192909190916101000a81548173ffffffffffffffffffffffffffffffffffffffff021916908373ffffffffffffffffffffffffffffffffffffffff160217905550508180600101925050612b13565b50505050565b600080600090505b8351811015612d6e578381815181101515612cc257fe5b9060200101517f010000000000000000000000000000000000000000000000000000000000000090047f0100000000000000000000000000000000000000000000000000000000000000027effffffffffffffffffffffffffffffffffffffffffffffffffffffffffffff1916837effffffffffffffffffffffffffffffffffffffffffffffffffffffffffffff19161415612d615760009150612d73565b8080600101915050612cab565b600191505b5092915050565b606060008060008085519350600092505b83831015612fea576001830191505b83821015612fdd578582815181101515612db057fe5b9060200101517f010000000000000000000000000000000000000000000000000000000000000090047f0100000000000000000000000000000000000000000000000000000000000000027effffffffffffffffffffffffffffffffffffffffffffffffffffffffffffff19168684815181101515612e2b57fe5b9060200101517f010000000000000000000000000000000000000000000000000000000000000090047f0100000000000000000000000000000000000000000000000000000000000000027effffffffffffffffffffffffffffffffffffffffffffffffffffffffffffff19161115612fd0578583815181101515612eac57fe5b9060200101517f010000000000000000000000000000000000000000000000000000000000000090047f01000000000000000000000000000000000000000000000000000000000000000290508582815181101515612f0757fe5b9060200101517f010000000000000000000000000000000000000000000000000000000000000090047f0100000000000000000000000000000000000000000000000000000000000000028684815181101515612f6057fe5b9060200101907effffffffffffffffffffffffffffffffffffffffffffffffffffffffffffff1916908160001a905350808683815181101515612f9f57fe5b9060200101907effffffffffffffffffffffffffffffffffffffffffffffffffffffffffffff1916908160001a9053505b8180600101925050612d9a565b8280600101935050612d8b565b85945050505050919050565b60008060008091505b83518210156130c357838281518110151561301657fe5b9060200101517f010000000000000000000000000000000000000000000000000000000000000090047f0100000000000000000000000000000000000000000000000000000000000000027effffffffffffffffffffffffffffffffffffffffffffffffffffffffffffff1916905081600802817bffffffffffffffffffffffffffffffffffffffffffffffffffffffff19169060020a9004905080831792508180600101925050612fff565b5050919050565b6130d2613cdc565b600080606060008060006130e4613cdc565b6060600060039850600497508860405190808252806020026020018201604052801561311f5781602001602082028038833980820191505090505b5096506000955060009450600093505b600086101515613379578886038801851115156133205784878781518110151561315557fe5b9060200190602002018181525050600189038614156132f557886040519080825280601f01601f1916602001820160405280156131a15781602001602082028038833980820191505090505b509150600090505b865181101561326d578a87828151811015156131c157fe5b906020019060200201518151811015156131d757fe5b9060200101517f010000000000000000000000000000000000000000000000000000000000000090047f010000000000000000000000000000000000000000000000000000000000000002828281518110151561323057fe5b9060200101907effffffffffffffffffffffffffffffffffffffffffffffffffffffffffffff1916908160001a90535080806001019150506131a9565b613276826138a0565b838560048110151561328457fe5b60200201907cffffffffffffffffffffffffffffffffffffffffffffffffffffffffff191690817cffffffffffffffffffffffffffffffffffffffffffffffffffffffffff1916815250508380600101945050848060010195505060048414156132f05782995061337a565b61331b565b6001878781518110151561330557fe5b9060200190602002015101945085806001019650505b613374565b8580600190039650506000861115613354576001878781518110151561334257fe5b90602001906020020151019450613373565b600187600081518110151561336557fe5b906020019060200201510194505b5b61312f565b5b505050505050505050919050565b600060606000806000806000606060006133ae600260035461397590919063ffffffff16565b9850600b6000600760000160009054906101000a90047c0100000000000000000000000000000000000000000000000000000000027bffffffffffffffffffffffffffffffffffffffffffffffffffffffff19167bffffffffffffffffffffffffffffffffffffffffffffffffffffffff191681526020019081526020016000208054806020026020016040519081016040528092919081815260200182805480156134af57602002820191906000526020600020905b8160009054906101000a900473ffffffffffffffffffffffffffffffffffffffff1673ffffffffffffffffffffffffffffffffffffffff1681526020019060010190808311613465575b50505050509750600088511115613549576134d58960055461268c90919063ffffffff16565b6005819055506134f08960035461398b90919063ffffffff16565b60038190555061350a88518a61397590919063ffffffff16565b9650600095505b87518610156135485761353b888781518110151561352b57fe5b90602001906020020151886139a4565b8580600101965050613511565b5b600093505b60048410156135825761357361356385613aec565b518661268c90919063ffffffff16565b9450838060010194505061354e565b6000851115613644576135a08960055461268c90919063ffffffff16565b6005819055506135bb8960035461398b90919063ffffffff16565b6003819055506135d4858a61397590919063ffffffff16565b9650600092505b6004831015613643576135ed83613aec565b915060008251111561363657600090505b815181101561363557613628828281518110151561361857fe5b90602001906020020151886139a4565b80806001019150506135fe565b5b82806001019350506135db565b5b6003546004819055507f72ca82fd72ba775f1994326b46d5c3a81d11d0cc24325df07fa8939f8a2c3d07600f80549050600554600760000160009054906101000a90047c01000000000000000000000000000000000000000000000000000000000260045460405180858152602001848152602001837bffffffffffffffffffffffffffffffffffffffffffffffffffffffff19167bffffffffffffffffffffffffffffffffffffffffffffffffffffffff1916815260200182815260200194505050505060405180910390a1505050505050505050565b60008060008060038060ff161415156137385760009350613898565b600092505b600360ff1683101561389357848360038110151561375757fe5b1a7f01000000000000000000000000000000000000000000000000000000000000000291506000827f010000000000000000000000000000000000000000000000000000000000000090041115806137d257506063827f01000000000000000000000000000000000000000000000000000000000000009004115b156137e05760009350613898565b6001830190505b600360ff1681101561388657848160038110151561380157fe5b1a7f0100000000000000000000000000000000000000000000000000000000000000027effffffffffffffffffffffffffffffffffffffffffffffffffffffffffffff1916827effffffffffffffffffffffffffffffffffffffffffffffffffffffffffffff19161015156138795760009350613898565b80806001019150506137e7565b828060010193505061373d565b600193505b505050919050565b60008060008091505b835182101561396e5783828151811015156138c057fe5b9060200101517f010000000000000000000000000000000000000000000000000000000000000090047f0100000000000000000000000000000000000000000000000000000000000000027effffffffffffffffffffffffffffffffffffffffffffffffffffffffffffff1916905081600802817cffffffffffffffffffffffffffffffffffffffffffffffffffffffffff19169060020a90049050808317925081806001019250506138a9565b5050919050565b6000818381151561398257fe5b04905092915050565b600082821115151561399957fe5b818303905092915050565b6000600d60008473ffffffffffffffffffffffffffffffffffffffff1673ffffffffffffffffffffffffffffffffffffffff168152602001908152602001600020541415613a5357600f8290806001815401808255809150509060018203906000526020600020016000909192909190916101000a81548173ffffffffffffffffffffffffffffffffffffffff021916908373ffffffffffffffffffffffffffffffffffffffff160217905550505b613aa581600d60008573ffffffffffffffffffffffffffffffffffffffff1673ffffffffffffffffffffffffffffffffffffffff1681526020019081526020016000205461268c90919063ffffffff16565b600d60008473ffffffffffffffffffffffffffffffffffffffff1673ffffffffffffffffffffffffffffffffffffffff168152602001908152602001600020819055505050565b606060006060600760010184600481101515613b0457fe5b600a91828204019190066003029054906101000a90047d010000000000000000000000000000000000000000000000000000000000029150600c6000837cffffffffffffffffffffffffffffffffffffffffffffffffffffffffff19167cffffffffffffffffffffffffffffffffffffffffffffffffffffffffff19168152602001908152602001600020805480602002602001604051908101604052809291908181526020018280548015613c0f57602002820191906000526020600020905b8160009054906101000a900473ffffffffffffffffffffffffffffffffffffffff1673ffffffffffffffffffffffffffffffffffffffff1681526020019060010190808311613bc5575b505050505090508092505050919050565b826004600901600a90048101928215613ccb5791602002820160005b83821115613c9a57835183826101000a81548162ffffff02191690837d010000000000000000000000000000000000000000000000000000000000900402179055509260200192600301602081600201049283019260010302613c3c565b8015613cc95782816101000a81549062ffffff0219169055600301602081600201049283019260010302613c9a565b505b509050613cd89190613cff565b5090565b608060405190810160405280600490602082028038833980820191505090505090565b613d2e91905b80821115613d2a57600081816101000a81549062ffffff021916905550600101613d05565b5090565b905600a165627a7a72305820d0c02dc4caf0836d940fbf6026a39f22a84708a42669cc83786d689c5f6d298b0029a165627a7a7230582003037899b12c3ef98350ffa980b30682d1019d3be46544a750b344e4a80bf1950029",
  "source": "pragma solidity ^0.4.23;\r\n\r\nimport \"./ownership/Ownable.sol\";\r\nimport \"./Lottery.sol\"; \r\n\r\n/**\r\n * @title LotteryFactory\r\n * @dev This is the lottery creator\r\n */\r\ncontract LotteryFactory is Ownable { \r\n    event LotteryDeployed(address deployedLottery);\r\n    \r\n    address[] public lotteries;\r\n\r\n    /** \r\n    * @notice (2600000 gas) To create a new Lottery\r\n    * first checks if there was lotteries created, if so creates the first lottery\r\n    * if there was lottery before created, then checks if lastLottery has already played\r\n    * to then create the newLottery\r\n    * @param _duration duration of the lottery\r\n    * @param _lotteryValue value of the lottery\r\n    */\r\n    function createNewLottery(uint256 _duration, uint256 _lotteryValue) external { \r\n        if (lotteries.length==0) {\r\n            Lottery newLottery = new Lottery(_duration, _lotteryValue, address(0));        \r\n            _setLotteryData(newLottery);\r\n        } else { \r\n            Lottery lottery = Lottery(lotteries[lotteries.length-1]);\r\n            require(lottery.lotteryHasPlayed(), \"Checks if the previous lottery has already played\");\r\n            _createLottery(_duration, _lotteryValue, lottery);\r\n        }\r\n    }\r\n\r\n    /** \r\n    * @notice create the new lottery, checks if last lottery has jackpot to transfer\r\n    * @param _duration duration of the lottery\r\n    * @param _lotteryValue value of the lottery\r\n    * @param _lastLottery the last deployed lottery\r\n    */\r\n    function _createLottery(uint256 _duration, uint256 _lotteryValue, Lottery _lastLottery) private {\r\n        Lottery newLottery = new Lottery(_duration, _lotteryValue, address(_lastLottery));\r\n        _setLotteryData(newLottery);\r\n        \r\n        if (address(_lastLottery) != 0 && _lastLottery.jackPot() > 0) {\r\n            _lastLottery.transferJackPot(address(newLottery)); \r\n        } \r\n        \r\n    }\r\n\r\n    /** \r\n    * @notice transfers ownership and push the new lottery\r\n    * @param _newLottery recently deployed lottery\r\n    */\r\n    function _setLotteryData(Lottery _newLottery) private {\r\n        _newLottery.transferOwnership(owner);\r\n        lotteries.push(address(_newLottery));\r\n        emit LotteryDeployed(address(_newLottery)); \r\n    }\r\n\r\n    /**\r\n    * @notice getter for all deployed lotteries\r\n     */\r\n    function getLotteries() external view returns (address[]){\r\n        return lotteries;\r\n    }\r\n}",
  "sourcePath": "E:\\Ethereum\\Worldpay\\lottery-contract\\ethereum\\contracts\\LotteryFactory.sol",
  "compiler": {
    "name": "solc",
    "version": "0.4.23+commit.124ca40d.Emscripten.clang"
  },
  "schemaVersion": "2.0.0",
  "updatedAt": "2018-07-09T09:09:32.871Z"
}