{
  "contractName": "LotteryMock",
  "abi": [
    {
      "constant": true,
      "inputs": [],
      "name": "index",
      "outputs": [
        {
          "name": "",
          "type": "uint256"
        }
      ],
      "payable": false,
      "stateMutability": "view",
      "type": "function"
    },
    {
      "constant": true,
      "inputs": [],
      "name": "deadline",
      "outputs": [
        {
          "name": "",
          "type": "uint256"
        }
      ],
      "payable": false,
      "stateMutability": "view",
      "type": "function"
    },
    {
      "constant": true,
      "inputs": [
        {
          "name": "_ticket",
          "type": "bytes6"
        }
      ],
      "name": "getPlayers",
      "outputs": [
        {
          "name": "",
          "type": "address[]"
        }
      ],
      "payable": false,
      "stateMutability": "view",
      "type": "function"
    },
    {
      "constant": true,
      "inputs": [],
      "name": "getSummary",
      "outputs": [
        {
          "name": "",
          "type": "uint256"
        },
        {
          "name": "",
          "type": "uint256"
        },
        {
          "name": "",
          "type": "uint256"
        },
        {
          "name": "",
          "type": "uint256"
        },
        {
          "name": "",
          "type": "bool"
        },
        {
          "name": "",
          "type": "address"
        },
        {
          "name": "",
          "type": "address"
        },
        {
          "name": "",
          "type": "address"
        },
        {
          "name": "",
          "type": "bytes6"
        }
      ],
      "payable": false,
      "stateMutability": "view",
      "type": "function"
    },
    {
      "constant": true,
      "inputs": [
        {
          "name": "",
          "type": "address"
        },
        {
          "name": "",
          "type": "uint256"
        }
      ],
      "name": "playerTickets",
      "outputs": [
        {
          "name": "ticket",
          "type": "bytes6"
        },
        {
          "name": "user",
          "type": "address"
        },
        {
          "name": "number3",
          "type": "bool"
        },
        {
          "name": "number4",
          "type": "bool"
        },
        {
          "name": "number5",
          "type": "bool"
        },
        {
          "name": "number6",
          "type": "bool"
        },
        {
          "name": "processed",
          "type": "bool"
        }
      ],
      "payable": false,
      "stateMutability": "view",
      "type": "function"
    },
    {
      "constant": true,
      "inputs": [],
      "name": "winningNumber",
      "outputs": [
        {
          "name": "",
          "type": "bytes6"
        }
      ],
      "payable": false,
      "stateMutability": "view",
      "type": "function"
    },
    {
      "constant": true,
      "inputs": [],
      "name": "jackPot",
      "outputs": [
        {
          "name": "",
          "type": "uint256"
        }
      ],
      "payable": false,
      "stateMutability": "view",
      "type": "function"
    },
    {
      "constant": true,
      "inputs": [
        {
          "name": "",
          "type": "uint256"
        }
      ],
      "name": "tickets",
      "outputs": [
        {
          "name": "ticket",
          "type": "bytes6"
        },
        {
          "name": "user",
          "type": "address"
        },
        {
          "name": "number3",
          "type": "bool"
        },
        {
          "name": "number4",
          "type": "bool"
        },
        {
          "name": "number5",
          "type": "bool"
        },
        {
          "name": "number6",
          "type": "bool"
        },
        {
          "name": "processed",
          "type": "bool"
        }
      ],
      "payable": false,
      "stateMutability": "view",
      "type": "function"
    },
    {
      "constant": false,
      "inputs": [],
      "name": "addJackPot",
      "outputs": [],
      "payable": true,
      "stateMutability": "payable",
      "type": "function"
    },
    {
      "constant": true,
      "inputs": [
        {
          "name": "",
          "type": "bytes6"
        },
        {
          "name": "",
          "type": "uint256"
        }
      ],
      "name": "ticketPlayers",
      "outputs": [
        {
          "name": "",
          "type": "address"
        }
      ],
      "payable": false,
      "stateMutability": "view",
      "type": "function"
    },
    {
      "constant": true,
      "inputs": [
        {
          "name": "_n",
          "type": "uint256"
        }
      ],
      "name": "getWinners",
      "outputs": [
        {
          "name": "",
          "type": "uint256"
        },
        {
          "name": "",
          "type": "uint256"
        },
        {
          "name": "",
          "type": "uint256"
        },
        {
          "name": "",
          "type": "address[]"
        },
        {
          "name": "",
          "type": "bytes6[]"
        }
      ],
      "payable": false,
      "stateMutability": "view",
      "type": "function"
    },
    {
      "constant": false,
      "inputs": [
        {
          "name": "_ticket",
          "type": "bytes6"
        }
      ],
      "name": "enter",
      "outputs": [],
      "payable": true,
      "stateMutability": "payable",
      "type": "function"
    },
    {
      "constant": true,
      "inputs": [
        {
          "name": "_address",
          "type": "address"
        }
      ],
      "name": "getNumberOfTickets",
      "outputs": [
        {
          "name": "size",
          "type": "uint256"
        }
      ],
      "payable": false,
      "stateMutability": "view",
      "type": "function"
    },
    {
      "constant": true,
      "inputs": [],
      "name": "owner",
      "outputs": [
        {
          "name": "",
          "type": "address"
        }
      ],
      "payable": false,
      "stateMutability": "view",
      "type": "function"
    },
    {
      "constant": true,
      "inputs": [],
      "name": "lotteryValue",
      "outputs": [
        {
          "name": "",
          "type": "uint256"
        }
      ],
      "payable": false,
      "stateMutability": "view",
      "type": "function"
    },
    {
      "constant": true,
      "inputs": [],
      "name": "factoryAddress",
      "outputs": [
        {
          "name": "",
          "type": "address"
        }
      ],
      "payable": false,
      "stateMutability": "view",
      "type": "function"
    },
    {
      "constant": true,
      "inputs": [
        {
          "name": "",
          "type": "uint256"
        }
      ],
      "name": "winners",
      "outputs": [
        {
          "name": "numberOfWinners",
          "type": "uint256"
        },
        {
          "name": "allocated",
          "type": "uint256"
        },
        {
          "name": "payed",
          "type": "uint256"
        }
      ],
      "payable": false,
      "stateMutability": "view",
      "type": "function"
    },
    {
      "constant": true,
      "inputs": [
        {
          "name": "_address",
          "type": "address"
        },
        {
          "name": "_index",
          "type": "uint256"
        }
      ],
      "name": "getPlayerTicket",
      "outputs": [
        {
          "name": "outTicket",
          "type": "bytes6"
        }
      ],
      "payable": false,
      "stateMutability": "view",
      "type": "function"
    },
    {
      "constant": true,
      "inputs": [],
      "name": "lotteryHasPlayed",
      "outputs": [
        {
          "name": "",
          "type": "bool"
        }
      ],
      "payable": false,
      "stateMutability": "view",
      "type": "function"
    },
    {
      "constant": true,
      "inputs": [],
      "name": "lastLottery",
      "outputs": [
        {
          "name": "",
          "type": "address"
        }
      ],
      "payable": false,
      "stateMutability": "view",
      "type": "function"
    },
    {
      "constant": false,
      "inputs": [
        {
          "name": "_newLottery",
          "type": "address"
        }
      ],
      "name": "transferJackPot",
      "outputs": [],
      "payable": false,
      "stateMutability": "nonpayable",
      "type": "function"
    },
    {
      "constant": false,
      "inputs": [
        {
          "name": "newOwner",
          "type": "address"
        }
      ],
      "name": "transferOwnership",
      "outputs": [],
      "payable": false,
      "stateMutability": "nonpayable",
      "type": "function"
    },
    {
      "inputs": [
        {
          "name": "_duration",
          "type": "uint256"
        },
        {
          "name": "_lotteryValue",
          "type": "uint256"
        },
        {
          "name": "_lastLotteryAddress",
          "type": "address"
        }
      ],
      "payable": false,
      "stateMutability": "nonpayable",
      "type": "constructor"
    },
    {
      "anonymous": false,
      "inputs": [
        {
          "indexed": false,
          "name": "value",
          "type": "uint256"
        }
      ],
      "name": "TransferJackPot",
      "type": "event"
    },
    {
      "anonymous": false,
      "inputs": [
        {
          "indexed": true,
          "name": "buyer",
          "type": "address"
        }
      ],
      "name": "TicketBuy",
      "type": "event"
    },
    {
      "anonymous": false,
      "inputs": [
        {
          "indexed": false,
          "name": "previousOwner",
          "type": "address"
        },
        {
          "indexed": false,
          "name": "newOwner",
          "type": "address"
        }
      ],
      "name": "OwnershipTransferred",
      "type": "event"
    },
    {
      "constant": false,
      "inputs": [],
      "name": "playTheLottery",
      "outputs": [],
      "payable": false,
      "stateMutability": "nonpayable",
      "type": "function"
    },
    {
      "constant": false,
      "inputs": [],
      "name": "setWinners",
      "outputs": [],
      "payable": false,
      "stateMutability": "nonpayable",
      "type": "function"
    },
    {
      "constant": true,
      "inputs": [],
      "name": "getTicketsLength",
      "outputs": [
        {
          "name": "",
          "type": "uint256"
        }
      ],
      "payable": false,
      "stateMutability": "view",
      "type": "function"
    }
  ],
  "bytecode": "0x608060405260006004556000601d60006101000a81548160ff02191690831515021790555034801561003057600080fd5b506040516060806130e3833981018060405281019080805190602001909291908051906020019092919080519060200190929190505050828282336000806101000a81548173ffffffffffffffffffffffffffffffffffffffff021916908373ffffffffffffffffffffffffffffffffffffffff1602179055506000831115156100b957600080fd5b6000821115156100c857600080fd5b33601e60006101000a81548173ffffffffffffffffffffffffffffffffffffffff021916908373ffffffffffffffffffffffffffffffffffffffff1602179055508242016001819055508160028190555080601d60016101000a81548173ffffffffffffffffffffffffffffffffffffffff021916908373ffffffffffffffffffffffffffffffffffffffff160217905550505050505050612f748061016f6000396000f300608060405260043610610149576000357c0100000000000000000000000000000000000000000000000000000000900463ffffffff1680632986c0e51461014e57806329dcb0cf1461017957806335097fbc146101a45780634051ddac1461024357806344d855f1146103685780634664611e1461046d5780634a78cdba146104d257806350b44712146104fd578063642e8fef146105e257806365d2f71c146105ec5780636b1426a41461068057806371ff37811461075f5780637c73255c1461079c5780638da5cb5b146107f35780639113a7b51461084a578063966dae0e14610875578063983d7f45146108cc578063a2fb1175146108f7578063a319d14314610946578063a7fcba221461095d578063a947d050146109f8578063af0b4b2714610a27578063b7c5936114610a7e578063c64facb514610a95578063f2fde38b14610ad8575b600080fd5b34801561015a57600080fd5b50610163610b1b565b6040518082815260200191505060405180910390f35b34801561018557600080fd5b5061018e610b21565b6040518082815260200191505060405180910390f35b3480156101b057600080fd5b506101ec600480360381019080803579ffffffffffffffffffffffffffffffffffffffffffffffffffff19169060200190929190505050610b27565b6040518080602001828103825283818151815260200191508051906020019060200280838360005b8381101561022f578082015181840152602081019050610214565b505050509050019250505060405180910390f35b34801561024f57600080fd5b50610258610c02565b604051808a8152602001898152602001888152602001878152602001861515151581526020018573ffffffffffffffffffffffffffffffffffffffff1673ffffffffffffffffffffffffffffffffffffffff1681526020018473ffffffffffffffffffffffffffffffffffffffff1673ffffffffffffffffffffffffffffffffffffffff1681526020018373ffffffffffffffffffffffffffffffffffffffff1673ffffffffffffffffffffffffffffffffffffffff1681526020018279ffffffffffffffffffffffffffffffffffffffffffffffffffff191679ffffffffffffffffffffffffffffffffffffffffffffffffffff19168152602001995050505050505050505060405180910390f35b34801561037457600080fd5b506103b3600480360381019080803573ffffffffffffffffffffffffffffffffffffffff16906020019092919080359060200190929190505050610cde565b604051808879ffffffffffffffffffffffffffffffffffffffffffffffffffff191679ffffffffffffffffffffffffffffffffffffffffffffffffffff191681526020018773ffffffffffffffffffffffffffffffffffffffff1673ffffffffffffffffffffffffffffffffffffffff168152602001861515151581526020018515151515815260200184151515158152602001831515151581526020018215151515815260200197505050505050505060405180910390f35b34801561047957600080fd5b50610482610dc0565b604051808279ffffffffffffffffffffffffffffffffffffffffffffffffffff191679ffffffffffffffffffffffffffffffffffffffffffffffffffff1916815260200191505060405180910390f35b3480156104de57600080fd5b506104e7610ded565b6040518082815260200191505060405180910390f35b34801561050957600080fd5b5061052860048036038101908080359060200190929190505050610df3565b604051808879ffffffffffffffffffffffffffffffffffffffffffffffffffff191679ffffffffffffffffffffffffffffffffffffffffffffffffffff191681526020018773ffffffffffffffffffffffffffffffffffffffff1673ffffffffffffffffffffffffffffffffffffffff168152602001861515151581526020018515151515815260200184151515158152602001831515151581526020018215151515815260200197505050505050505060405180910390f35b6105ea610ec8565b005b3480156105f857600080fd5b5061063e600480360381019080803579ffffffffffffffffffffffffffffffffffffffffffffffffffff191690602001909291908035906020019092919050505061102b565b604051808273ffffffffffffffffffffffffffffffffffffffff1673ffffffffffffffffffffffffffffffffffffffff16815260200191505060405180910390f35b34801561068c57600080fd5b506106ab60048036038101908080359060200190929190505050611078565b604051808681526020018581526020018481526020018060200180602001838103835285818151815260200191508051906020019060200280838360005b838110156107045780820151818401526020810190506106e9565b50505050905001838103825284818151815260200191508051906020019060200280838360005b8381101561074657808201518184015260208101905061072b565b5050505090500197505050505050505060405180910390f35b61079a600480360381019080803579ffffffffffffffffffffffffffffffffffffffffffffffffffff1916906020019092919050505061125d565b005b3480156107a857600080fd5b506107dd600480360381019080803573ffffffffffffffffffffffffffffffffffffffff169060200190929190505050611936565b6040518082815260200191505060405180910390f35b3480156107ff57600080fd5b50610808611982565b604051808273ffffffffffffffffffffffffffffffffffffffff1673ffffffffffffffffffffffffffffffffffffffff16815260200191505060405180910390f35b34801561085657600080fd5b5061085f6119a7565b6040518082815260200191505060405180910390f35b34801561088157600080fd5b5061088a6119ad565b604051808273ffffffffffffffffffffffffffffffffffffffff1673ffffffffffffffffffffffffffffffffffffffff16815260200191505060405180910390f35b3480156108d857600080fd5b506108e16119d3565b6040518082815260200191505060405180910390f35b34801561090357600080fd5b50610922600480360381019080803590602001909291905050506119e0565b60405180848152602001838152602001828152602001935050505060405180910390f35b34801561095257600080fd5b5061095b611a0f565b005b34801561096957600080fd5b506109a8600480360381019080803573ffffffffffffffffffffffffffffffffffffffff16906020019092919080359060200190929190505050611c53565b604051808279ffffffffffffffffffffffffffffffffffffffffffffffffffff191679ffffffffffffffffffffffffffffffffffffffffffffffffffff1916815260200191505060405180910390f35b348015610a0457600080fd5b50610a0d611cde565b604051808215151515815260200191505060405180910390f35b348015610a3357600080fd5b50610a3c611cf1565b604051808273ffffffffffffffffffffffffffffffffffffffff1673ffffffffffffffffffffffffffffffffffffffff16815260200191505060405180910390f35b348015610a8a57600080fd5b50610a93611d17565b005b348015610aa157600080fd5b50610ad6600480360381019080803573ffffffffffffffffffffffffffffffffffffffff16906020019092919050505061227c565b005b348015610ae457600080fd5b50610b19600480360381019080803573ffffffffffffffffffffffffffffffffffffffff169060200190929190505050612536565b005b60045481565b60015481565b6060600760008379ffffffffffffffffffffffffffffffffffffffffffffffffffff191679ffffffffffffffffffffffffffffffffffffffffffffffffffff19168152602001908152602001600020805480602002602001604051908101604052809291908181526020018280548015610bf657602002820191906000526020600020905b8160009054906101000a900473ffffffffffffffffffffffffffffffffffffffff1673ffffffffffffffffffffffffffffffffffffffff1681526020019060010190808311610bac575b50505050509050919050565b6000806000806000806000806000600254600154600354600880549050601d60009054906101000a900460ff16601d60019054906101000a900473ffffffffffffffffffffffffffffffffffffffff16601e60009054906101000a900473ffffffffffffffffffffffffffffffffffffffff166000809054906101000a900473ffffffffffffffffffffffffffffffffffffffff16600560009054906101000a90047a01000000000000000000000000000000000000000000000000000002985098509850985098509850985098509850909192939495969798565b600660205281600052604060002081815481101515610cf957fe5b90600052602060002001600091509150508060000160009054906101000a90047a01000000000000000000000000000000000000000000000000000002908060000160069054906101000a900473ffffffffffffffffffffffffffffffffffffffff169080600001601a9054906101000a900460ff169080600001601b9054906101000a900460ff169080600001601c9054906101000a900460ff169080600001601d9054906101000a900460ff169080600001601e9054906101000a900460ff16905087565b600560009054906101000a90047a0100000000000000000000000000000000000000000000000000000281565b60035481565b600881815481101515610e0257fe5b906000526020600020016000915090508060000160009054906101000a90047a01000000000000000000000000000000000000000000000000000002908060000160069054906101000a900473ffffffffffffffffffffffffffffffffffffffff169080600001601a9054906101000a900460ff169080600001601b9054906101000a900460ff169080600001601c9054906101000a900460ff169080600001601d9054906101000a900460ff169080600001601e9054906101000a900460ff16905087565b601d60009054906101000a900460ff16151515610f4d576040517f08c379a000000000000000000000000000000000000000000000000000000000815260040180806020018281038252601c8152602001807f6c6f747465727920686173207374696c6c206e6f7420706c617965640000000081525060200191505060405180910390fd5b42600154111515610fc6576040517f08c379a00000000000000000000000000000000000000000000000000000000081526004018080602001828103825260108152602001807f646561646c696e65206973206f7665720000000000000000000000000000000081525060200191505060405180910390fd5b600034111515610fd557600080fd5b610fea346003546126c890919063ffffffff16565b6003819055507fc2c48fe60b23268064613cbca1898c1871bae36909b3f33467dd82c6fe2cb2e36003546040518082815260200191505060405180910390a1565b60076020528160005260406000208181548110151561104657fe5b906000526020600020016000915091509054906101000a900473ffffffffffffffffffffffffffffffffffffffff1681565b60008060006060806000806000606080600960038c0360048110151561109a57fe5b60050201600001549450600960038c036004811015156110b657fe5b60050201600101549350600960038c036004811015156110d257fe5b60050201600201549250600960038c036004811015156110ee57fe5b6005020160030180548060200260200160405190810160405280929190818152602001828054801561117557602002820191906000526020600020905b8160009054906101000a900473ffffffffffffffffffffffffffffffffffffffff1673ffffffffffffffffffffffffffffffffffffffff168152602001906001019080831161112b575b50505050509150600960038c0360048110151561118e57fe5b6005020160040180548060200260200160405190810160405280929190818152602001828054801561123957602002820191906000526020600020906000905b82829054906101000a90047a0100000000000000000000000000000000000000000000000000000279ffffffffffffffffffffffffffffffffffffffffffffffffffff1916815260200190600601906020826005010492830192600103820291508084116111ce5790505b50505050509050848484848499509950995099509950505050505091939590929450565b611265612ecd565b60025434141515611304576040517f08c379a000000000000000000000000000000000000000000000000000000000815260040180806020018281038252602c8152602001807f76616c7565207265636569766564206973206c657373207468616e207468652081526020017f6c6f747465727956616c7565000000000000000000000000000000000000000081525060400191505060405180910390fd5b6001544210151561137d576040517f08c379a00000000000000000000000000000000000000000000000000000000081526004018080602001828103825260158152602001807f4c6f7474657279206861732066696e616c697a6564000000000000000000000081525060200191505060405180910390fd5b601d60009054906101000a900460ff16151515611402576040517f08c379a000000000000000000000000000000000000000000000000000000000815260040180806020018281038252601a8152602001807f4c6f74746572792068617320616c726561647920706c6179656400000000000081525060200191505060405180910390fd5b6114288279ffffffffffffffffffffffffffffffffffffffffffffffffffff19166126e4565b15156114c2576040517f08c379a00000000000000000000000000000000000000000000000000000000081526004018080602001828103825260258152602001807f4e6f207265706561746564206e756d6265727320696e7369646520746865207481526020017f69636b657400000000000000000000000000000000000000000000000000000081525060400191505060405180910390fd5b6114d96002546003546126c890919063ffffffff16565b60038190555060e0604051908101604052808379ffffffffffffffffffffffffffffffffffffffffffffffffffff191681526020013373ffffffffffffffffffffffffffffffffffffffff168152602001600015158152602001600015158152602001600015158152602001600015158152602001600015158152509050600660003373ffffffffffffffffffffffffffffffffffffffff1673ffffffffffffffffffffffffffffffffffffffff1681526020019081526020016000208190806001815401808255809150509060018203906000526020600020016000909192909190915060008201518160000160006101000a81548165ffffffffffff02191690837a0100000000000000000000000000000000000000000000000000009004021790555060208201518160000160066101000a81548173ffffffffffffffffffffffffffffffffffffffff021916908373ffffffffffffffffffffffffffffffffffffffff160217905550604082015181600001601a6101000a81548160ff021916908315150217905550606082015181600001601b6101000a81548160ff021916908315150217905550608082015181600001601c6101000a81548160ff02191690831515021790555060a082015181600001601d6101000a81548160ff02191690831515021790555060c082015181600001601e6101000a81548160ff021916908315150217905550505050600760008379ffffffffffffffffffffffffffffffffffffffffffffffffffff191679ffffffffffffffffffffffffffffffffffffffffffffffffffff191681526020019081526020016000203390806001815401808255809150509060018203906000526020600020016000909192909190916101000a81548173ffffffffffffffffffffffffffffffffffffffff021916908373ffffffffffffffffffffffffffffffffffffffff1602179055505060088190806001815401808255809150509060018203906000526020600020016000909192909190915060008201518160000160006101000a81548165ffffffffffff02191690837a0100000000000000000000000000000000000000000000000000009004021790555060208201518160000160066101000a81548173ffffffffffffffffffffffffffffffffffffffff021916908373ffffffffffffffffffffffffffffffffffffffff160217905550604082015181600001601a6101000a81548160ff021916908315150217905550606082015181600001601b6101000a81548160ff021916908315150217905550608082015181600001601c6101000a81548160ff02191690831515021790555060a082015181600001601d6101000a81548160ff02191690831515021790555060c082015181600001601e6101000a81548160ff0219169083151502179055505050503373ffffffffffffffffffffffffffffffffffffffff167f9875bf6542c2014989299f148a85c737de0a367ad67725e0e52bb4a70129657a60405160405180910390a25050565b6000600660008373ffffffffffffffffffffffffffffffffffffffff1673ffffffffffffffffffffffffffffffffffffffff168152602001908152602001600020805490509050919050565b6000809054906101000a900473ffffffffffffffffffffffffffffffffffffffff1681565b60025481565b601e60009054906101000a900473ffffffffffffffffffffffffffffffffffffffff1681565b6000600880549050905090565b6009816004811015156119ef57fe5b600502016000915090508060000154908060010154908060020154905083565b600060606000806000809054906101000a900473ffffffffffffffffffffffffffffffffffffffff1673ffffffffffffffffffffffffffffffffffffffff163373ffffffffffffffffffffffffffffffffffffffff16141515611a7157600080fd5b60405180807f310000000000000000000000000000000000000000000000000000000000000081525060010190506040518091039020935060066040519080825280601f01601f191660200182016040528015611add5781602001602082028038833980820191505090505b509250600091505b6006821015611bff576006821415611afc57611bff565b602d847e010000000000000000000000000000000000000000000000000000000000009004811515611b2a57fe5b0690506000811415611b3b57602d90505b611b70817f0100000000000000000000000000000000000000000000000000000000000000028461286890919063ffffffff16565b8015611b7d575060008114155b15611bec57807f0100000000000000000000000000000000000000000000000000000000000000028383815181101515611bb357fe5b9060200101907effffffffffffffffffffffffffffffffffffffffffffffffffffffffffffff1916908160001a90535081806001019250505b601084600019169060020a029350611ae5565b611c088361293f565b9250611c1383612bbb565b600560006101000a81548165ffffffffffff02191690837a0100000000000000000000000000000000000000000000000000009004021790555050505050565b6000600660008473ffffffffffffffffffffffffffffffffffffffff1673ffffffffffffffffffffffffffffffffffffffff16815260200190815260200160002082815481101515611ca157fe5b9060005260206000200160000160009054906101000a90047a01000000000000000000000000000000000000000000000000000002905092915050565b601d60009054906101000a900460ff1681565b601d60019054906101000a900473ffffffffffffffffffffffffffffffffffffffff1681565b6000806000806000806000805b600880549050600454101561205e576008600454815481101515611d4457fe5b9060005260206000200197508760000160009054906101000a90047a0100000000000000000000000000000000000000000000000000000296506000955060009450600093505b600560009054906101000a905050600660ff16841015611eed57600560009054906101000a90047a0100000000000000000000000000000000000000000000000000000284600681101515611ddc57fe5b1a7f01000000000000000000000000000000000000000000000000000000000000000292508491505b600660ff16821015611ee057600086148015611e22575060038210155b80611e3a5750600186148015611e39575060048210155b5b15611e4457611ee0565b8682600681101515611e5257fe5b1a7f0100000000000000000000000000000000000000000000000000000000000000027effffffffffffffffffffffffffffffffffffffffffffffffffffffffffffff1916837effffffffffffffffffffffffffffffffffffffffffffffffffffffffffffff19161415611ed3576001820194508580600101965050611ee0565b8180600101925050611e05565b8380600101945050611d8b565b60038610158015611f0d575087600001601a9054906101000a900460ff16155b15611f3b57600188600001601a6101000a81548160ff021916908315150217905550611f3a600088612c8d565b5b60048610158015611f5b575087600001601b9054906101000a900460ff16155b15611f8957600188600001601b6101000a81548160ff021916908315150217905550611f88600188612c8d565b5b60058610158015611fa9575087600001601c9054906101000a900460ff16155b15611fd757600188600001601c6101000a81548160ff021916908315150217905550611fd6600288612c8d565b5b600686148015611ff6575087600001601d9054906101000a900460ff16155b1561202457600188600001601d6101000a81548160ff021916908315150217905550612023600388612c8d565b5b600460008154809291906001019190505550620493e05a1115801561204f5750600880549050600454105b156120595761205e565b611d24565b6120746004600354612e9e90919063ffffffff16565b905060088054905060045414156122725760006009600060048110151561209757fe5b60050201600001541180156120c357506000600960006004811015156120b957fe5b6005020160010154145b15612100576120dd81600354612eb490919063ffffffff16565b60038190555080600960006004811015156120f457fe5b60050201600101819055505b60006009600160048110151561211257fe5b600502016000015411801561213e575060006009600160048110151561213457fe5b6005020160010154145b1561217b5761215881600354612eb490919063ffffffff16565b600381905550806009600160048110151561216f57fe5b60050201600101819055505b60006009600260048110151561218d57fe5b60050201600001541180156121b957506000600960026004811015156121af57fe5b6005020160010154145b156121f6576121d381600354612eb490919063ffffffff16565b60038190555080600960026004811015156121ea57fe5b60050201600101819055505b60006009600360048110151561220857fe5b6005020160000154118015612234575060006009600360048110151561222a57fe5b6005020160010154145b156122715761224e81600354612eb490919063ffffffff16565b600381905550806009600360048110151561226557fe5b60050201600101819055505b5b5050505050505050565b600080601e60009054906101000a900473ffffffffffffffffffffffffffffffffffffffff1673ffffffffffffffffffffffffffffffffffffffff163373ffffffffffffffffffffffffffffffffffffffff161415156122db57600080fd5b6000600354111515612355576040517f08c379a000000000000000000000000000000000000000000000000000000000815260040180806020018281038252601d8152602001807f4a61636b706f7420736f68756c64206265206d6f7265207468616e203000000081525060200191505060405180910390fd5b601d60009054906101000a900460ff1615156123d9576040517f08c379a00000000000000000000000000000000000000000000000000000000081526004018080602001828103825260128152602001807f6c6f74746572792068617320706c61796564000000000000000000000000000081525060200191505060405180910390fd5b600073ffffffffffffffffffffffffffffffffffffffff168373ffffffffffffffffffffffffffffffffffffffff16141515156124a4576040517f08c379a00000000000000000000000000000000000000000000000000000000081526004018080602001828103825260238152602001807f6e6577206c6f747465727920616464726573732073686f756c64206e6f74206281526020017f652030000000000000000000000000000000000000000000000000000000000081525060400191505060405180910390fd5b600354915060006003819055508290508073ffffffffffffffffffffffffffffffffffffffff1663642e8fef836040518263ffffffff167c01000000000000000000000000000000000000000000000000000000000281526004016000604051808303818588803b15801561251857600080fd5b505af115801561252c573d6000803e3d6000fd5b5050505050505050565b6000809054906101000a900473ffffffffffffffffffffffffffffffffffffffff1673ffffffffffffffffffffffffffffffffffffffff163373ffffffffffffffffffffffffffffffffffffffff1614151561259157600080fd5b600073ffffffffffffffffffffffffffffffffffffffff168173ffffffffffffffffffffffffffffffffffffffff16141515156125cd57600080fd5b7f8be0079c531659141344cd1fd0a4f28419497f9722a3daafe3b4186f6b6457e06000809054906101000a900473ffffffffffffffffffffffffffffffffffffffff1682604051808373ffffffffffffffffffffffffffffffffffffffff1673ffffffffffffffffffffffffffffffffffffffff1681526020018273ffffffffffffffffffffffffffffffffffffffff1673ffffffffffffffffffffffffffffffffffffffff1681526020019250505060405180910390a1806000806101000a81548173ffffffffffffffffffffffffffffffffffffffff021916908373ffffffffffffffffffffffffffffffffffffffff16021790555050565b600081830190508281101515156126db57fe5b80905092915050565b60008060008060068060ff161415156127005760009350612860565b600092505b600660ff1683101561285b57848360068110151561271f57fe5b1a7f01000000000000000000000000000000000000000000000000000000000000000291506000827f0100000000000000000000000000000000000000000000000000000000000000900411158061279a5750602d827f01000000000000000000000000000000000000000000000000000000000000009004115b156127a85760009350612860565b6001830190505b600660ff1681101561284e5784816006811015156127c957fe5b1a7f0100000000000000000000000000000000000000000000000000000000000000027effffffffffffffffffffffffffffffffffffffffffffffffffffffffffffff1916827effffffffffffffffffffffffffffffffffffffffffffffffffffffffffffff19161015156128415760009350612860565b80806001019150506127af565b8280600101935050612705565b600193505b505050919050565b600080600090505b835181101561293357838181518110151561288757fe5b9060200101517f010000000000000000000000000000000000000000000000000000000000000090047f0100000000000000000000000000000000000000000000000000000000000000027effffffffffffffffffffffffffffffffffffffffffffffffffffffffffffff1916837effffffffffffffffffffffffffffffffffffffffffffffffffffffffffffff191614156129265760009150612938565b8080600101915050612870565b600191505b5092915050565b606060008060008085519350600092505b83831015612baf576001830191505b83821015612ba257858281518110151561297557fe5b9060200101517f010000000000000000000000000000000000000000000000000000000000000090047f0100000000000000000000000000000000000000000000000000000000000000027effffffffffffffffffffffffffffffffffffffffffffffffffffffffffffff191686848151811015156129f057fe5b9060200101517f010000000000000000000000000000000000000000000000000000000000000090047f0100000000000000000000000000000000000000000000000000000000000000027effffffffffffffffffffffffffffffffffffffffffffffffffffffffffffff19161115612b95578583815181101515612a7157fe5b9060200101517f010000000000000000000000000000000000000000000000000000000000000090047f01000000000000000000000000000000000000000000000000000000000000000290508582815181101515612acc57fe5b9060200101517f010000000000000000000000000000000000000000000000000000000000000090047f0100000000000000000000000000000000000000000000000000000000000000028684815181101515612b2557fe5b9060200101907effffffffffffffffffffffffffffffffffffffffffffffffffffffffffffff1916908160001a905350808683815181101515612b6457fe5b9060200101907effffffffffffffffffffffffffffffffffffffffffffffffffffffffffffff1916908160001a9053505b818060010192505061295f565b8280600101935050612950565b85945050505050919050565b60008060008091505b8351821015612c86578382815181101515612bdb57fe5b9060200101517f010000000000000000000000000000000000000000000000000000000000000090047f0100000000000000000000000000000000000000000000000000000000000000027effffffffffffffffffffffffffffffffffffffffffffffffffffffffffffff19169050816008028179ffffffffffffffffffffffffffffffffffffffffffffffffffff19169060020a9004905080831792508180600101925050612bc4565b5050919050565b600060606000600985600481101515612ca257fe5b60050201925082600001600081548092919060010191905055508260040184908060018154018082558091505090600182039060005260206000209060059182820401919006600602909192909190916101000a81548165ffffffffffff02191690837a0100000000000000000000000000000000000000000000000000009004021790555050600760008579ffffffffffffffffffffffffffffffffffffffffffffffffffff191679ffffffffffffffffffffffffffffffffffffffffffffffffffff19168152602001908152602001600020805480602002602001604051908101604052809291908181526020018280548015612df657602002820191906000526020600020905b8160009054906101000a900473ffffffffffffffffffffffffffffffffffffffff1673ffffffffffffffffffffffffffffffffffffffff1681526020019060010190808311612dac575b50505050509150600090505b8151811015612e9757826003018282815181101515612e1d57fe5b9060200190602002015190806001815401808255809150509060018203906000526020600020016000909192909190916101000a81548173ffffffffffffffffffffffffffffffffffffffff021916908373ffffffffffffffffffffffffffffffffffffffff160217905550508080600101915050612e02565b5050505050565b60008183811515612eab57fe5b04905092915050565b6000828211151515612ec257fe5b818303905092915050565b60e060405190810160405280600079ffffffffffffffffffffffffffffffffffffffffffffffffffff19168152602001600073ffffffffffffffffffffffffffffffffffffffff16815260200160001515815260200160001515815260200160001515815260200160001515815260200160001515815250905600a165627a7a72305820c7ee37d275f1ff439a9c71eb08c390ef2cc873d7b85ee8e94a081e6cd5b684750029",
  "source": "pragma solidity ^0.4.23;\r\n\r\nimport \"../Lottery.sol\";\r\n\r\ncontract LotteryMock is Lottery {\r\n\r\n    constructor(uint256 _duration, uint256 _lotteryValue, address _lastLotteryAddress) public \r\n    Lottery(_duration,  _lotteryValue,  _lastLotteryAddress){\r\n        \r\n    }\r\n\r\n    function playTheLottery() external onlyOwner {\r\n        bytes32 random = keccak256(\"1\");\r\n        bytes memory winner = new bytes(6);\r\n        uint256 size = 0;\r\n        while(size < 6){\r\n            if(size==6) break;\r\n            uint256 pair = uint256(bytes2(random)) % 45;\r\n            if(pair == 0) pair = 45;\r\n            if(winner.isNotRepeated(bytes1(pair)) && pair != 0){\r\n                winner[size] = bytes1(pair);\r\n                size++;\r\n            } \r\n            random = random << 16;\r\n        }\r\n        winner = winner.sortArray();\r\n        winningNumber = winner.convertBytesToBytes6();\r\n    }\r\n\r\n    function setWinners() external {\r\n        while(index < tickets.length) {\r\n            Ticket storage savedTicket = tickets[index];\r\n            bytes6 ticket = savedTicket.ticket;\r\n            uint256 found = 0;\r\n            uint256 offset = 0;\r\n            for(uint256 j = 0; j < winningNumber.length; j++) {\r\n                bytes1 chunk = winningNumber[j];\r\n                for(uint256 k = offset; k < ticket.length; k++){\r\n                    if((found == 0 && k >= 3) || (found == 1 && k >= 4)) break;\r\n                    if(chunk == ticket[k]) {\r\n                        offset = k + 1;\r\n                        found++;\r\n                        break;\r\n                    } \r\n                }\r\n            }\r\n            if(found >= 3 && !savedTicket.number3) {\r\n                savedTicket.number3 = true;\r\n                _saveValues(0, ticket);\r\n            } \r\n            if(found >= 4 && !savedTicket.number4) {\r\n                savedTicket.number4 = true;\r\n                _saveValues(1, ticket);\r\n            } \r\n            if(found >= 5 && !savedTicket.number5) {\r\n                savedTicket.number5 = true;\r\n                _saveValues(2, ticket);        \r\n            } \r\n            if(found == 6 && !savedTicket.number6) {\r\n                savedTicket.number6 = true;\r\n                _saveValues(3, ticket);              \r\n            }\r\n            index ++;\r\n            if(gasleft() <= 300000 && index < tickets.length) break;\r\n        }\r\n        uint256 allocation = jackPot.div(4);\r\n        if(index == tickets.length) {\r\n            if(winners[0].numberOfWinners > 0 && winners[0].allocated == 0){\r\n                jackPot = jackPot.sub(allocation);\r\n                winners[0].allocated = allocation;\r\n            }\r\n            if(winners[1].numberOfWinners > 0 && winners[1].allocated == 0){\r\n                jackPot = jackPot.sub(allocation);\r\n                winners[1].allocated = allocation;\r\n            }\r\n            if(winners[2].numberOfWinners > 0 && winners[2].allocated == 0){\r\n                jackPot = jackPot.sub(allocation);\r\n                winners[2].allocated = allocation;\r\n            }\r\n            if(winners[3].numberOfWinners > 0 && winners[3].allocated == 0){\r\n                jackPot = jackPot.sub(allocation);\r\n                winners[3].allocated = allocation;\r\n            }\r\n        }\r\n    }\r\n\r\n    function _saveValues(uint256 _pos, bytes6 _ticket) private {\r\n        Winners storage _winners = winners[_pos];\r\n        _winners.numberOfWinners ++;\r\n        _winners.tickets.push(_ticket);\r\n        address[] memory players = ticketPlayers[_ticket];\r\n        for(uint256 l = 0; l < players.length; l++){\r\n            _winners.winners.push(players[l]);\r\n        }\r\n    }\r\n\r\n    function getTicketsLength() external view returns (uint256) {\r\n        return tickets.length;\r\n    }\r\n}",
  "sourcePath": "E:\\Ethereum\\Worldpay\\lottery-contract\\ethereum\\contracts\\mocks\\LotteryMock.sol",
  "compiler": {
    "name": "solc",
    "version": "0.4.23+commit.124ca40d.Emscripten.clang"
  },
  "schemaVersion": "2.0.0",
  "updatedAt": "2018-06-08T13:17:16.461Z"
}