{
  "contractName": "Lottery",
  "abi": [
    {
      "constant": true,
      "inputs": [],
      "name": "deadline",
      "outputs": [
        {
          "name": "",
          "type": "uint256"
        }
      ],
      "payable": false,
      "stateMutability": "view",
      "type": "function"
    },
    {
      "constant": true,
      "inputs": [],
      "name": "winningNumber",
      "outputs": [
        {
          "name": "",
          "type": "uint256"
        }
      ],
      "payable": false,
      "stateMutability": "view",
      "type": "function"
    },
    {
      "constant": true,
      "inputs": [],
      "name": "probability",
      "outputs": [
        {
          "name": "",
          "type": "uint256"
        }
      ],
      "payable": false,
      "stateMutability": "view",
      "type": "function"
    },
    {
      "constant": true,
      "inputs": [],
      "name": "jackPot",
      "outputs": [
        {
          "name": "",
          "type": "uint256"
        }
      ],
      "payable": false,
      "stateMutability": "view",
      "type": "function"
    },
    {
      "constant": true,
      "inputs": [
        {
          "name": "",
          "type": "uint256"
        },
        {
          "name": "",
          "type": "uint256"
        }
      ],
      "name": "contest",
      "outputs": [
        {
          "name": "",
          "type": "address"
        }
      ],
      "payable": false,
      "stateMutability": "view",
      "type": "function"
    },
    {
      "constant": true,
      "inputs": [],
      "name": "owner",
      "outputs": [
        {
          "name": "",
          "type": "address"
        }
      ],
      "payable": false,
      "stateMutability": "view",
      "type": "function"
    },
    {
      "constant": true,
      "inputs": [],
      "name": "lotteryValue",
      "outputs": [
        {
          "name": "",
          "type": "uint256"
        }
      ],
      "payable": false,
      "stateMutability": "view",
      "type": "function"
    },
    {
      "constant": true,
      "inputs": [
        {
          "name": "",
          "type": "uint256"
        }
      ],
      "name": "winners",
      "outputs": [
        {
          "name": "",
          "type": "address"
        }
      ],
      "payable": false,
      "stateMutability": "view",
      "type": "function"
    },
    {
      "constant": true,
      "inputs": [],
      "name": "lotteryHasPlayed",
      "outputs": [
        {
          "name": "",
          "type": "bool"
        }
      ],
      "payable": false,
      "stateMutability": "view",
      "type": "function"
    },
    {
      "constant": true,
      "inputs": [],
      "name": "lastLottery",
      "outputs": [
        {
          "name": "",
          "type": "address"
        }
      ],
      "payable": false,
      "stateMutability": "view",
      "type": "function"
    },
    {
      "constant": true,
      "inputs": [
        {
          "name": "",
          "type": "address"
        }
      ],
      "name": "refunds",
      "outputs": [
        {
          "name": "",
          "type": "uint256"
        }
      ],
      "payable": false,
      "stateMutability": "view",
      "type": "function"
    },
    {
      "constant": false,
      "inputs": [
        {
          "name": "newOwner",
          "type": "address"
        }
      ],
      "name": "transferOwnership",
      "outputs": [],
      "payable": false,
      "stateMutability": "nonpayable",
      "type": "function"
    },
    {
      "constant": true,
      "inputs": [
        {
          "name": "",
          "type": "uint256"
        }
      ],
      "name": "players",
      "outputs": [
        {
          "name": "",
          "type": "address"
        }
      ],
      "payable": false,
      "stateMutability": "view",
      "type": "function"
    },
    {
      "inputs": [
        {
          "name": "_duration",
          "type": "uint256"
        },
        {
          "name": "_lotteryValue",
          "type": "uint256"
        },
        {
          "name": "_lastLottery",
          "type": "address"
        }
      ],
      "payable": false,
      "stateMutability": "nonpayable",
      "type": "constructor"
    },
    {
      "anonymous": false,
      "inputs": [
        {
          "indexed": false,
          "name": "player",
          "type": "address"
        },
        {
          "indexed": false,
          "name": "amount",
          "type": "uint256"
        }
      ],
      "name": "RefundAdded",
      "type": "event"
    },
    {
      "anonymous": false,
      "inputs": [
        {
          "indexed": false,
          "name": "winners",
          "type": "address[]"
        },
        {
          "indexed": false,
          "name": "jackPot",
          "type": "uint256"
        }
      ],
      "name": "Winners",
      "type": "event"
    },
    {
      "anonymous": false,
      "inputs": [
        {
          "indexed": false,
          "name": "value",
          "type": "uint256"
        }
      ],
      "name": "TransferJackPot",
      "type": "event"
    },
    {
      "anonymous": false,
      "inputs": [
        {
          "indexed": false,
          "name": "previousOwner",
          "type": "address"
        },
        {
          "indexed": false,
          "name": "newOwner",
          "type": "address"
        }
      ],
      "name": "OwnershipTransferred",
      "type": "event"
    },
    {
      "constant": false,
      "inputs": [
        {
          "name": "_number",
          "type": "uint256"
        }
      ],
      "name": "enter",
      "outputs": [],
      "payable": true,
      "stateMutability": "payable",
      "type": "function"
    },
    {
      "constant": false,
      "inputs": [],
      "name": "pickWinner",
      "outputs": [],
      "payable": false,
      "stateMutability": "nonpayable",
      "type": "function"
    },
    {
      "constant": false,
      "inputs": [
        {
          "name": "_newLottery",
          "type": "address"
        }
      ],
      "name": "transferJackPot",
      "outputs": [],
      "payable": false,
      "stateMutability": "nonpayable",
      "type": "function"
    },
    {
      "constant": false,
      "inputs": [],
      "name": "withdraw",
      "outputs": [],
      "payable": false,
      "stateMutability": "nonpayable",
      "type": "function"
    },
    {
      "constant": false,
      "inputs": [],
      "name": "addJackPot",
      "outputs": [],
      "payable": true,
      "stateMutability": "payable",
      "type": "function"
    },
    {
      "constant": true,
      "inputs": [],
      "name": "getPlayers",
      "outputs": [
        {
          "name": "",
          "type": "address[]"
        }
      ],
      "payable": false,
      "stateMutability": "view",
      "type": "function"
    },
    {
      "constant": true,
      "inputs": [
        {
          "name": "_number",
          "type": "uint256"
        }
      ],
      "name": "getPlayersByLotteryNumber",
      "outputs": [
        {
          "name": "",
          "type": "address[]"
        }
      ],
      "payable": false,
      "stateMutability": "view",
      "type": "function"
    },
    {
      "constant": true,
      "inputs": [],
      "name": "getWinners",
      "outputs": [
        {
          "name": "",
          "type": "address[]"
        }
      ],
      "payable": false,
      "stateMutability": "view",
      "type": "function"
    },
    {
      "constant": true,
      "inputs": [],
      "name": "getRefundValue",
      "outputs": [
        {
          "name": "",
          "type": "uint256"
        }
      ],
      "payable": false,
      "stateMutability": "view",
      "type": "function"
    },
    {
      "constant": false,
      "inputs": [
        {
          "name": "_winningNumber",
          "type": "uint256"
        }
      ],
      "name": "setWinningNumber",
      "outputs": [],
      "payable": false,
      "stateMutability": "nonpayable",
      "type": "function"
    },
    {
      "constant": false,
      "inputs": [
        {
          "name": "_probability",
          "type": "uint256"
        }
      ],
      "name": "setProbability",
      "outputs": [],
      "payable": false,
      "stateMutability": "nonpayable",
      "type": "function"
    }
  ],
  "bytecode": "0x6080604052600a6005556000600a60006101000a81548160ff02191690831515021790555034801561003057600080fd5b50604051606080611b3c833981018060405281019080805190602001909291908051906020019092919080519060200190929190505050336000806101000a81548173ffffffffffffffffffffffffffffffffffffffff021916908373ffffffffffffffffffffffffffffffffffffffff1602179055508242016001819055508160028190555080600a60016101000a81548173ffffffffffffffffffffffffffffffffffffffff021916908373ffffffffffffffffffffffffffffffffffffffff160217905550505050611a328061010a6000396000f30060806040526004361061013e576000357c0100000000000000000000000000000000000000000000000000000000900463ffffffff16806329dcb0cf146101435780633ccfd60b1461016e5780634664611e14610185578063481456f9146101b05780634a78cdba146101db57806359e54095146102065780635d495aea14610231578063642e8fef146102485780636a8f5678146102525780638b5b9ccc146102c95780638da5cb5b146103355780639113a7b51461038c5780639c8ccc78146103b7578063a2fb117514610439578063a3e3d2e4146104a6578063a59f3e0c146104d3578063a947d050146104f3578063af0b4b2714610522578063bc3da53514610579578063c64facb5146105d0578063d2c42de114610613578063df15c37e14610640578063f2fde38b146106ac578063f71d96cb146106ef575b600080fd5b34801561014f57600080fd5b5061015861075c565b6040518082815260200191505060405180910390f35b34801561017a57600080fd5b50610183610762565b005b34801561019157600080fd5b5061019a610835565b6040518082815260200191505060405180910390f35b3480156101bc57600080fd5b506101c561083b565b6040518082815260200191505060405180910390f35b3480156101e757600080fd5b506101f0610841565b6040518082815260200191505060405180910390f35b34801561021257600080fd5b5061021b610847565b6040518082815260200191505060405180910390f35b34801561023d57600080fd5b5061024661088e565b005b610250610b98565b005b34801561025e57600080fd5b506102876004803603810190808035906020019092919080359060200190929190505050610bfd565b604051808273ffffffffffffffffffffffffffffffffffffffff1673ffffffffffffffffffffffffffffffffffffffff16815260200191505060405180910390f35b3480156102d557600080fd5b506102de610c4a565b6040518080602001828103825283818151815260200191508051906020019060200280838360005b83811015610321578082015181840152602081019050610306565b505050509050019250505060405180910390f35b34801561034157600080fd5b5061034a610cd8565b604051808273ffffffffffffffffffffffffffffffffffffffff1673ffffffffffffffffffffffffffffffffffffffff16815260200191505060405180910390f35b34801561039857600080fd5b506103a1610cfd565b6040518082815260200191505060405180910390f35b3480156103c357600080fd5b506103e260048036038101908080359060200190929190505050610d03565b6040518080602001828103825283818151815260200191508051906020019060200280838360005b8381101561042557808201518184015260208101905061040a565b505050509050019250505060405180910390f35b34801561044557600080fd5b5061046460048036038101908080359060200190929190505050610da4565b604051808273ffffffffffffffffffffffffffffffffffffffff1673ffffffffffffffffffffffffffffffffffffffff16815260200191505060405180910390f35b3480156104b257600080fd5b506104d160048036038101908080359060200190929190505050610de2565b005b6104f160048036038101908080359060200190929190505050610e73565b005b3480156104ff57600080fd5b506105086111c5565b604051808215151515815260200191505060405180910390f35b34801561052e57600080fd5b506105376111d8565b604051808273ffffffffffffffffffffffffffffffffffffffff1673ffffffffffffffffffffffffffffffffffffffff16815260200191505060405180910390f35b34801561058557600080fd5b506105ba600480360381019080803573ffffffffffffffffffffffffffffffffffffffff1690602001909291905050506111fe565b6040518082815260200191505060405180910390f35b3480156105dc57600080fd5b50610611600480360381019080803573ffffffffffffffffffffffffffffffffffffffff169060200190929190505050611216565b005b34801561061f57600080fd5b5061063e60048036038101908080359060200190929190505050611382565b005b34801561064c57600080fd5b50610655611417565b6040518080602001828103825283818151815260200191508051906020019060200280838360005b8381101561069857808201518184015260208101905061067d565b505050509050019250505060405180910390f35b3480156106b857600080fd5b506106ed600480360381019080803573ffffffffffffffffffffffffffffffffffffffff1690602001909291905050506114a5565b005b3480156106fb57600080fd5b5061071a60048036038101908080359060200190929190505050611637565b604051808273ffffffffffffffffffffffffffffffffffffffff1673ffffffffffffffffffffffffffffffffffffffff16815260200191505060405180910390f35b60015481565b6000600760003373ffffffffffffffffffffffffffffffffffffffff1673ffffffffffffffffffffffffffffffffffffffff1681526020019081526020016000205490506000600760003373ffffffffffffffffffffffffffffffffffffffff1673ffffffffffffffffffffffffffffffffffffffff168152602001908152602001600020819055503373ffffffffffffffffffffffffffffffffffffffff166108fc829081150290604051600060405180830381858888f19350505050158015610831573d6000803e3d6000fd5b5050565b60045481565b60055481565b60035481565b6000600760003373ffffffffffffffffffffffffffffffffffffffff1673ffffffffffffffffffffffffffffffffffffffff16815260200190815260200160002054905090565b6000806000809054906101000a900473ffffffffffffffffffffffffffffffffffffffff1673ffffffffffffffffffffffffffffffffffffffff163373ffffffffffffffffffffffffffffffffffffffff161415156108ec57600080fd5b60015442111515610965576040517f08c379a00000000000000000000000000000000000000000000000000000000081526004018080602001828103825260198152602001807f546865206c6f7474657279206973207374696c6c206f70656e0000000000000081525060200191505060405180910390fd5b600a60009054906101000a900460ff161515156109ea576040517f08c379a000000000000000000000000000000000000000000000000000000000815260040180806020018281038252601e8152602001807f546865206c6f74746572792068617320616c726561647920706c61796564000081525060200191505060405180910390fd5b6001600a60006101000a81548160ff02191690831515021790555060006004541415610a1f57610a18611675565b6004819055505b6006600060045481526020019081526020016000206009908054610a44929190611971565b5060006009805490501115610b9457610a6d60098054905060035461172d90919063ffffffff16565b91506000600381905550600090505b6009805490508160ff161015610adf57610ad260098260ff16815481101515610aa157fe5b9060005260206000200160009054906101000a900473ffffffffffffffffffffffffffffffffffffffff1683611743565b8080600101915050610a7c565b7f413cf1e17d70833c017de9b3c64d0104e3e37a7191d95b3d0d6276de992a0b4d60098360405180806020018381526020018281038252848181548152602001915080548015610b8457602002820191906000526020600020905b8160009054906101000a900473ffffffffffffffffffffffffffffffffffffffff1673ffffffffffffffffffffffffffffffffffffffff1681526020019060010190808311610b3a575b5050935050505060405180910390a15b5050565b600034111515610ba757600080fd5b610bbc346003546117dc90919063ffffffff16565b6003819055507fc2c48fe60b23268064613cbca1898c1871bae36909b3f33467dd82c6fe2cb2e36003546040518082815260200191505060405180910390a1565b600660205281600052604060002081815481101515610c1857fe5b906000526020600020016000915091509054906101000a900473ffffffffffffffffffffffffffffffffffffffff1681565b60606008805480602002602001604051908101604052809291908181526020018280548015610cce57602002820191906000526020600020905b8160009054906101000a900473ffffffffffffffffffffffffffffffffffffffff1673ffffffffffffffffffffffffffffffffffffffff1681526020019060010190808311610c84575b5050505050905090565b6000809054906101000a900473ffffffffffffffffffffffffffffffffffffffff1681565b60025481565b606060066000838152602001908152602001600020805480602002602001604051908101604052809291908181526020018280548015610d9857602002820191906000526020600020905b8160009054906101000a900473ffffffffffffffffffffffffffffffffffffffff1673ffffffffffffffffffffffffffffffffffffffff1681526020019060010190808311610d4e575b50505050509050919050565b600981815481101515610db357fe5b906000526020600020016000915054906101000a900473ffffffffffffffffffffffffffffffffffffffff1681565b6000809054906101000a900473ffffffffffffffffffffffffffffffffffffffff1673ffffffffffffffffffffffffffffffffffffffff163373ffffffffffffffffffffffffffffffffffffffff16141515610e3d57600080fd5b600a60009054906101000a900460ff16151515610e5957600080fd5b42600154101515610e6957600080fd5b8060048190555050565b6002543410151515610f13576040517f08c379a000000000000000000000000000000000000000000000000000000000815260040180806020018281038252602c8152602001807f76616c7565207265636569766564206973206c657373207468616e207468652081526020017f6c6f747465727956616c7565000000000000000000000000000000000000000081525060400191505060405180910390fd5b60015442101515610f8c576040517f08c379a00000000000000000000000000000000000000000000000000000000081526004018080602001828103825260158152602001807f4c6f7474657279206861732066696e616c697a6564000000000000000000000081525060200191505060405180910390fd5b6005548111151515611006576040517f08c379a000000000000000000000000000000000000000000000000000000000815260040180806020018281038252601f8152602001807f6e756d626572206973206c657373207468616e2070726f626162696c6974790081525060200191505060405180910390fd5b6000811115156110a4576040517f08c379a00000000000000000000000000000000000000000000000000000000081526004018080602001828103825260228152602001807f6e756d6265722069732067726561746572207468616e2070726f626162696c6981526020017f747900000000000000000000000000000000000000000000000000000000000081525060400191505060405180910390fd5b600a60009054906101000a900460ff161515156110c057600080fd5b6110d76002546003546117dc90919063ffffffff16565b60038190555060083390806001815401808255809150509060018203906000526020600020016000909192909190916101000a81548173ffffffffffffffffffffffffffffffffffffffff021916908373ffffffffffffffffffffffffffffffffffffffff16021790555050600660008281526020019081526020016000203390806001815401808255809150509060018203906000526020600020016000909192909190916101000a81548173ffffffffffffffffffffffffffffffffffffffff021916908373ffffffffffffffffffffffffffffffffffffffff160217905550506111c26117f8565b50565b600a60009054906101000a900460ff1681565b600a60019054906101000a900473ffffffffffffffffffffffffffffffffffffffff1681565b60076020528060005260406000206000915090505481565b6000806000809054906101000a900473ffffffffffffffffffffffffffffffffffffffff1673ffffffffffffffffffffffffffffffffffffffff163373ffffffffffffffffffffffffffffffffffffffff1614151561127457600080fd5b600060098054905014151561128857600080fd5b600060035411151561129957600080fd5b600a60009054906101000a900460ff1615156112b457600080fd5b600073ffffffffffffffffffffffffffffffffffffffff168373ffffffffffffffffffffffffffffffffffffffff16141515156112f057600080fd5b600354915060006003819055508290508073ffffffffffffffffffffffffffffffffffffffff1663642e8fef836040518263ffffffff167c01000000000000000000000000000000000000000000000000000000000281526004016000604051808303818588803b15801561136457600080fd5b505af1158015611378573d6000803e3d6000fd5b5050505050505050565b6000809054906101000a900473ffffffffffffffffffffffffffffffffffffffff1673ffffffffffffffffffffffffffffffffffffffff163373ffffffffffffffffffffffffffffffffffffffff161415156113dd57600080fd5b60006008805490501415156113f157600080fd5b600a60009054906101000a900460ff1615151561140d57600080fd5b8060058190555050565b6060600980548060200260200160405190810160405280929190818152602001828054801561149b57602002820191906000526020600020905b8160009054906101000a900473ffffffffffffffffffffffffffffffffffffffff1673ffffffffffffffffffffffffffffffffffffffff1681526020019060010190808311611451575b5050505050905090565b6000809054906101000a900473ffffffffffffffffffffffffffffffffffffffff1673ffffffffffffffffffffffffffffffffffffffff163373ffffffffffffffffffffffffffffffffffffffff1614151561150057600080fd5b600073ffffffffffffffffffffffffffffffffffffffff168173ffffffffffffffffffffffffffffffffffffffff161415151561153c57600080fd5b7f8be0079c531659141344cd1fd0a4f28419497f9722a3daafe3b4186f6b6457e06000809054906101000a900473ffffffffffffffffffffffffffffffffffffffff1682604051808373ffffffffffffffffffffffffffffffffffffffff1673ffffffffffffffffffffffffffffffffffffffff1681526020018273ffffffffffffffffffffffffffffffffffffffff1673ffffffffffffffffffffffffffffffffffffffff1681526020019250505060405180910390a1806000806101000a81548173ffffffffffffffffffffffffffffffffffffffff021916908373ffffffffffffffffffffffffffffffffffffffff16021790555050565b60088181548110151561164657fe5b906000526020600020016000915054906101000a900473ffffffffffffffffffffffffffffffffffffffff1681565b600080444360086040518084815260200183815260200182805480156116f057602002820191906000526020600020905b8160009054906101000a900473ffffffffffffffffffffffffffffffffffffffff1673ffffffffffffffffffffffffffffffffffffffff16815260200190600101908083116116a6575b5050935050505060405180910390206001900490506005548110156117155780611727565b60016005548281151561172457fe5b06015b91505090565b6000818381151561173a57fe5b04905092915050565b61179581600760008573ffffffffffffffffffffffffffffffffffffffff1673ffffffffffffffffffffffffffffffffffffffff168152602001908152602001600020546117dc90919063ffffffff16565b600760008473ffffffffffffffffffffffffffffffffffffffff1673ffffffffffffffffffffffffffffffffffffffff168152602001908152602001600020819055505050565b600081830190508281101515156117ef57fe5b80905092915050565b6002543411156119565761186861181a6002543461195890919063ffffffff16565b600760003373ffffffffffffffffffffffffffffffffffffffff1673ffffffffffffffffffffffffffffffffffffffff168152602001908152602001600020546117dc90919063ffffffff16565b600760003373ffffffffffffffffffffffffffffffffffffffff1673ffffffffffffffffffffffffffffffffffffffff168152602001908152602001600020819055507f38dec0fa11e2eca35d2f1ae0dc1933f1c4de2a271f3ab480f29de14010fe9f8933600760003373ffffffffffffffffffffffffffffffffffffffff1673ffffffffffffffffffffffffffffffffffffffff16815260200190815260200160002054604051808373ffffffffffffffffffffffffffffffffffffffff1673ffffffffffffffffffffffffffffffffffffffff1681526020018281526020019250505060405180910390a15b565b600082821115151561196657fe5b818303905092915050565b8280548282559060005260206000209081019282156119b25760005260206000209182015b828111156119b1578254825591600101919060010190611996565b5b5090506119bf91906119c3565b5090565b611a0391905b808211156119ff57600081816101000a81549073ffffffffffffffffffffffffffffffffffffffff0219169055506001016119c9565b5090565b905600a165627a7a72305820270e94c114d33053be93483eeb6a65e8704fb7d689336824336b113754f14fdf0029",
  "source": "pragma solidity ^0.4.23;\r\n\r\nimport \"./ownership/Ownable.sol\";\r\nimport \"./math/SafeMath.sol\";\r\nimport \"./LotteryFactory.sol\";\r\n\r\n/**\r\n * @title Lottery\r\n * @dev Lottery with 6 numbers between 01-99.\r\n */\r\ncontract Lottery is Ownable {\r\n    using SafeMath for uint256; \r\n\r\n    event RefundAdded(address player, uint256 amount);\r\n    event Winners(address[] winners, uint256 jackPot);\r\n    event TransferJackPot(uint256 value);\r\n\r\n    uint256 public deadline;\r\n    uint256 public lotteryValue;\r\n    uint256 public jackPot;\r\n    uint256 public winningNumber;\r\n    // @dev probability is (99*98*97*96*95*94)/6! = 1.120'529.256\r\n    uint256 public probability = 10; //\r\n    \r\n    // @dev mapping of the LotteryNumber => users who chose that number\r\n    mapping(uint256 => address[]) public contest;\r\n\r\n    // @dev mapping of the sender => amount, if user sends more than the value of the lottery\r\n    mapping(address => uint256) public refunds;\r\n    address[] public players;\r\n    address[] public winners;\r\n\r\n    bool public lotteryHasPlayed = false;\r\n\r\n    // @dev we keep a reference of the last lottery\r\n    address public lastLottery;\r\n\r\n    /**\r\n    * @dev constructor\r\n    * @param _duration how long will the lottery be open to enter\r\n    * @param _lotteryValue sets the value of the lottery\r\n    * @param _lastLottery we keep a reference of the creator of this lottery\r\n    */\r\n    constructor(uint256 _duration, uint256 _lotteryValue, address _lastLottery) public {\r\n        deadline = now + _duration;\r\n        lotteryValue = _lotteryValue;\r\n        lastLottery = _lastLottery;\r\n    }\r\n\r\n    /** \r\n    * @notice allows the player to enter, chacking amount and deadline and refund \r\n    * if the value sent is more than the lotteryValue\r\n    * @param _number inside the probability \r\n    */\r\n    function enter(uint256 _number) external payable {\r\n        require(msg.value >= lotteryValue, \"value received is less than the lotteryValue\");\r\n        require(now < deadline, \"Lottery has finalized\");\r\n        require(_number <= probability, \"number is less than probability\");\r\n        require(_number > 0, \"number is greater than probability\");\r\n        require(!lotteryHasPlayed);\r\n        jackPot = jackPot.add(lotteryValue);\r\n        players.push(msg.sender);\r\n        contest[_number].push(msg.sender);    \r\n        _refundIfValueExceedsPrice();\r\n    }\r\n\r\n    /** \r\n    * @notice add the refunded value to the sender\r\n    */\r\n    function _refundIfValueExceedsPrice() private {\r\n        if (msg.value > lotteryValue) {\r\n            refunds[msg.sender] = refunds[msg.sender].add(msg.value.sub(lotteryValue));\r\n            emit RefundAdded(msg.sender, refunds[msg.sender]);\r\n        } \r\n    }\r\n\r\n    /** \r\n    * @notice pickWinner can only be called by the owner and requires\r\n    * the lottery to be closed, still waiting for a good source \r\n    * of random generator, we will use the blockhash for the moment\r\n    * check if there are winners, if yes, divide the jackpot between\r\n    * winners and add it to the refund mapping\r\n    */\r\n    function pickWinner() external onlyOwner {\r\n        require(now > deadline, \"The lottery is still open\");\r\n        require(!lotteryHasPlayed, \"The lottery has already played\");\r\n        lotteryHasPlayed = true;\r\n        if(winningNumber == 0){\r\n            winningNumber = _setResult();\r\n        }\r\n        //require(winningNumber != 0, \"Winnning number has to be greater than 0\");\r\n        winners = contest[winningNumber];\r\n        if (winners.length > 0) {\r\n            uint256 prizePerPlayer = jackPot.div(winners.length);\r\n            jackPot = 0;\r\n            for (uint8 i = 0; i < winners.length; i++) {\r\n                _refund(winners[i], prizePerPlayer);\r\n            }\r\n            emit Winners(winners, prizePerPlayer);\r\n        }         \r\n    }\r\n\r\n    /** \r\n    * @notice we just using blockhash fro the moment to set the lottery result\r\n    */\r\n    function _setResult() private view returns(uint256) {\r\n        uint256 result = uint256(keccak256(block.difficulty, block.number, players));\r\n        return result >= probability ? (result % probability)+1 : result;        \r\n    }\r\n\r\n    /** \r\n    * @notice add  amount won to the @param winner into the refund mapping\r\n    * @param winner the winner of the lottery\r\n    * @param amount to be refunded\r\n    */\r\n    function _refund(address winner, uint256 amount) internal {\r\n        refunds[winner] = refunds[winner].add(amount);\r\n    }\r\n\r\n     /** \r\n    * @notice Transfer the jackpot nobody won the lottery to a the newLottery \r\n    */\r\n    function transferJackPot(address _newLottery) external onlyOwner  {\r\n        require(winners.length == 0);\r\n        require(jackPot > 0);\r\n        require(lotteryHasPlayed);\r\n        require(_newLottery != address(0));\r\n        uint256 _jackPot = jackPot;\r\n        jackPot = 0;\r\n        Lottery lottery = Lottery(_newLottery);\r\n        lottery.addJackPot.value(_jackPot)();  \r\n    }\r\n\r\n\r\n    /** \r\n    * @notice withdraw the whole amount stored in the refunds mapping\r\n    */\r\n    function withdraw() external {\r\n        uint256 amount = refunds[msg.sender];\r\n        refunds[msg.sender] = 0;\r\n        msg.sender.transfer(amount);\r\n    }\r\n\r\n    function addJackPot() public payable {\r\n        require(msg.value>0);\r\n        jackPot = jackPot.add(msg.value);\r\n        emit TransferJackPot(jackPot);\r\n    }\r\n\r\n    /** \r\n    * @notice All getters\r\n    */\r\n    function getPlayers() external view returns(address[]) {\r\n        return players;\r\n    }\r\n\r\n    function getPlayersByLotteryNumber(uint256 _number) external view returns(address[]) {\r\n        return contest[_number];\r\n    }\r\n\r\n    function getWinners() external view returns(address[]){\r\n        return winners;\r\n    }\r\n\r\n    function getRefundValue() external view returns(uint256) {\r\n        return refunds[msg.sender];\r\n    } \r\n\r\n/////////////////////////////////////////////////////////////////////\r\n/////////////////////////////////////////////////////////////////////\r\n/////////////////////////////////////////////////////////////////////\r\n/////////////////////////////////////////////////////////////////////\r\n/////////////////////////////////////////////////////////////////////\r\n/////////////////////////////////////////////////////////////////////\r\n    /** \r\n    * @notice This is used only for testing purpose, has to be deleted \r\n    */\r\n    function setWinningNumber(uint256 _winningNumber) external onlyOwner {\r\n        require(!lotteryHasPlayed);\r\n        require(deadline < now);\r\n        winningNumber = _winningNumber;\r\n    }\r\n\r\n    /** \r\n    * @notice This is used only for testing purpose, has to be deleted \r\n    */\r\n    function setProbability(uint256 _probability) external onlyOwner {\r\n        require(players.length == 0);\r\n        require(!lotteryHasPlayed);\r\n        probability = _probability;\r\n    }\r\n}\r\n\r\n\r\n\r\n",
  "sourcePath": "E:\\Ethereum\\Worldpay\\lottery-contract\\ethereum\\contracts\\Lottery.sol",
  "compiler": {
    "name": "solc",
    "version": "0.4.23+commit.124ca40d.Emscripten.clang"
  },
  "schemaVersion": "2.0.0",
  "updatedAt": "2018-05-21T11:17:28.783Z"
}