{
  "contractName": "Lottery",
  "abi": [
    {
      "constant": true,
      "inputs": [],
      "name": "finalJackPot",
      "outputs": [
        {
          "name": "",
          "type": "uint256"
        }
      ],
      "payable": false,
      "stateMutability": "view",
      "type": "function"
    },
    {
      "constant": true,
      "inputs": [],
      "name": "index",
      "outputs": [
        {
          "name": "",
          "type": "uint256"
        }
      ],
      "payable": false,
      "stateMutability": "view",
      "type": "function"
    },
    {
      "constant": true,
      "inputs": [],
      "name": "deadline",
      "outputs": [
        {
          "name": "",
          "type": "uint256"
        }
      ],
      "payable": false,
      "stateMutability": "view",
      "type": "function"
    },
    {
      "constant": true,
      "inputs": [
        {
          "name": "",
          "type": "address"
        },
        {
          "name": "",
          "type": "uint256"
        }
      ],
      "name": "playerTickets",
      "outputs": [
        {
          "name": "ticket",
          "type": "bytes6"
        },
        {
          "name": "user",
          "type": "address"
        },
        {
          "name": "number3",
          "type": "bool"
        },
        {
          "name": "number4",
          "type": "bool"
        },
        {
          "name": "number5",
          "type": "bool"
        },
        {
          "name": "number6",
          "type": "bool"
        },
        {
          "name": "processed",
          "type": "bool"
        }
      ],
      "payable": false,
      "stateMutability": "view",
      "type": "function"
    },
    {
      "constant": true,
      "inputs": [],
      "name": "winningNumber",
      "outputs": [
        {
          "name": "",
          "type": "bytes6"
        }
      ],
      "payable": false,
      "stateMutability": "view",
      "type": "function"
    },
    {
      "constant": true,
      "inputs": [],
      "name": "jackPot",
      "outputs": [
        {
          "name": "",
          "type": "uint256"
        }
      ],
      "payable": false,
      "stateMutability": "view",
      "type": "function"
    },
    {
      "constant": true,
      "inputs": [
        {
          "name": "",
          "type": "uint256"
        }
      ],
      "name": "tickets",
      "outputs": [
        {
          "name": "ticket",
          "type": "bytes6"
        },
        {
          "name": "user",
          "type": "address"
        },
        {
          "name": "number3",
          "type": "bool"
        },
        {
          "name": "number4",
          "type": "bool"
        },
        {
          "name": "number5",
          "type": "bool"
        },
        {
          "name": "number6",
          "type": "bool"
        },
        {
          "name": "processed",
          "type": "bool"
        }
      ],
      "payable": false,
      "stateMutability": "view",
      "type": "function"
    },
    {
      "constant": true,
      "inputs": [
        {
          "name": "",
          "type": "bytes6"
        },
        {
          "name": "",
          "type": "uint256"
        }
      ],
      "name": "ticketPlayers",
      "outputs": [
        {
          "name": "",
          "type": "address"
        }
      ],
      "payable": false,
      "stateMutability": "view",
      "type": "function"
    },
    {
      "constant": true,
      "inputs": [],
      "name": "owner",
      "outputs": [
        {
          "name": "",
          "type": "address"
        }
      ],
      "payable": false,
      "stateMutability": "view",
      "type": "function"
    },
    {
      "constant": true,
      "inputs": [],
      "name": "lotteryValue",
      "outputs": [
        {
          "name": "",
          "type": "uint256"
        }
      ],
      "payable": false,
      "stateMutability": "view",
      "type": "function"
    },
    {
      "constant": true,
      "inputs": [],
      "name": "factoryAddress",
      "outputs": [
        {
          "name": "",
          "type": "address"
        }
      ],
      "payable": false,
      "stateMutability": "view",
      "type": "function"
    },
    {
      "constant": true,
      "inputs": [
        {
          "name": "",
          "type": "uint256"
        }
      ],
      "name": "winners",
      "outputs": [
        {
          "name": "numberOfWinners",
          "type": "uint256"
        },
        {
          "name": "allocated",
          "type": "uint256"
        },
        {
          "name": "payed",
          "type": "uint256"
        }
      ],
      "payable": false,
      "stateMutability": "view",
      "type": "function"
    },
    {
      "constant": true,
      "inputs": [],
      "name": "lotteryHasPlayed",
      "outputs": [
        {
          "name": "",
          "type": "bool"
        }
      ],
      "payable": false,
      "stateMutability": "view",
      "type": "function"
    },
    {
      "constant": true,
      "inputs": [],
      "name": "lastLottery",
      "outputs": [
        {
          "name": "",
          "type": "address"
        }
      ],
      "payable": false,
      "stateMutability": "view",
      "type": "function"
    },
    {
      "constant": false,
      "inputs": [
        {
          "name": "newOwner",
          "type": "address"
        }
      ],
      "name": "transferOwnership",
      "outputs": [],
      "payable": false,
      "stateMutability": "nonpayable",
      "type": "function"
    },
    {
      "inputs": [
        {
          "name": "_duration",
          "type": "uint256"
        },
        {
          "name": "_lotteryValue",
          "type": "uint256"
        },
        {
          "name": "_lastLotteryAddress",
          "type": "address"
        }
      ],
      "payable": false,
      "stateMutability": "nonpayable",
      "type": "constructor"
    },
    {
      "anonymous": false,
      "inputs": [
        {
          "indexed": true,
          "name": "buyer",
          "type": "address"
        },
        {
          "indexed": false,
          "name": "jackPot",
          "type": "uint256"
        },
        {
          "indexed": false,
          "name": "playersLength",
          "type": "uint256"
        }
      ],
      "name": "TicketBuy",
      "type": "event"
    },
    {
      "anonymous": false,
      "inputs": [
        {
          "indexed": false,
          "name": "winningNumber",
          "type": "bytes6"
        }
      ],
      "name": "WinningNumber",
      "type": "event"
    },
    {
      "anonymous": false,
      "inputs": [],
      "name": "WinnersResult",
      "type": "event"
    },
    {
      "anonymous": false,
      "inputs": [
        {
          "indexed": false,
          "name": "previousOwner",
          "type": "address"
        },
        {
          "indexed": false,
          "name": "newOwner",
          "type": "address"
        }
      ],
      "name": "OwnershipTransferred",
      "type": "event"
    },
    {
      "constant": false,
      "inputs": [
        {
          "name": "_ticket",
          "type": "bytes6"
        }
      ],
      "name": "enter",
      "outputs": [],
      "payable": true,
      "stateMutability": "payable",
      "type": "function"
    },
    {
      "constant": false,
      "inputs": [],
      "name": "playTheLottery",
      "outputs": [],
      "payable": false,
      "stateMutability": "nonpayable",
      "type": "function"
    },
    {
      "constant": false,
      "inputs": [],
      "name": "setWinners",
      "outputs": [],
      "payable": false,
      "stateMutability": "nonpayable",
      "type": "function"
    },
    {
      "constant": false,
      "inputs": [],
      "name": "addJackPot",
      "outputs": [],
      "payable": true,
      "stateMutability": "payable",
      "type": "function"
    },
    {
      "constant": false,
      "inputs": [
        {
          "name": "_newLottery",
          "type": "address"
        }
      ],
      "name": "transferJackPot",
      "outputs": [],
      "payable": false,
      "stateMutability": "nonpayable",
      "type": "function"
    },
    {
      "constant": true,
      "inputs": [],
      "name": "getSummary",
      "outputs": [
        {
          "name": "",
          "type": "uint256"
        },
        {
          "name": "",
          "type": "uint256"
        },
        {
          "name": "",
          "type": "uint256"
        },
        {
          "name": "",
          "type": "uint256"
        },
        {
          "name": "",
          "type": "bool"
        },
        {
          "name": "",
          "type": "address"
        },
        {
          "name": "",
          "type": "address"
        },
        {
          "name": "",
          "type": "address"
        },
        {
          "name": "",
          "type": "bytes6"
        }
      ],
      "payable": false,
      "stateMutability": "view",
      "type": "function"
    },
    {
      "constant": true,
      "inputs": [
        {
          "name": "_n",
          "type": "uint256"
        }
      ],
      "name": "getWinners",
      "outputs": [
        {
          "name": "",
          "type": "uint256"
        },
        {
          "name": "",
          "type": "uint256"
        },
        {
          "name": "",
          "type": "uint256"
        },
        {
          "name": "",
          "type": "address[]"
        },
        {
          "name": "",
          "type": "bytes6[]"
        }
      ],
      "payable": false,
      "stateMutability": "view",
      "type": "function"
    },
    {
      "constant": true,
      "inputs": [
        {
          "name": "_address",
          "type": "address"
        },
        {
          "name": "_index",
          "type": "uint256"
        }
      ],
      "name": "getPlayerTicket",
      "outputs": [
        {
          "name": "outTicket",
          "type": "bytes6"
        }
      ],
      "payable": false,
      "stateMutability": "view",
      "type": "function"
    },
    {
      "constant": true,
      "inputs": [
        {
          "name": "_address",
          "type": "address"
        }
      ],
      "name": "getNumberOfTickets",
      "outputs": [
        {
          "name": "size",
          "type": "uint256"
        }
      ],
      "payable": false,
      "stateMutability": "view",
      "type": "function"
    },
    {
      "constant": true,
      "inputs": [
        {
          "name": "_ticket",
          "type": "bytes6"
        }
      ],
      "name": "getPlayers",
      "outputs": [
        {
          "name": "",
          "type": "address[]"
        }
      ],
      "payable": false,
      "stateMutability": "view",
      "type": "function"
    },
    {
      "constant": true,
      "inputs": [],
      "name": "getNumberOfPlayers",
      "outputs": [
        {
          "name": "",
          "type": "uint256"
        }
      ],
      "payable": false,
      "stateMutability": "view",
      "type": "function"
    }
  ],
  "bytecode": "0x608060405260006005556000601e60006101000a81548160ff02191690831515021790555034801561003057600080fd5b5060405160608061341e833981018060405281019080805190602001909291908051906020019092919080519060200190929190505050336000806101000a81548173ffffffffffffffffffffffffffffffffffffffff021916908373ffffffffffffffffffffffffffffffffffffffff1602179055506000831115156100b657600080fd5b6000821115156100c557600080fd5b33601f60006101000a81548173ffffffffffffffffffffffffffffffffffffffff021916908373ffffffffffffffffffffffffffffffffffffffff1602179055508242016001819055508160028190555080601e60016101000a81548173ffffffffffffffffffffffffffffffffffffffff021916908373ffffffffffffffffffffffffffffffffffffffff1602179055505050506132b5806101696000396000f300608060405260043610610154576000357c0100000000000000000000000000000000000000000000000000000000900463ffffffff16806328435506146101595780632986c0e51461018457806329dcb0cf146101af57806335097fbc146101da5780634051ddac1461027957806344d855f11461039e5780634664611e146104a35780634a78cdba1461050857806350b4471214610533578063642e8fef1461061857806365d2f71c146106225780636b1426a4146106b657806371ff3781146107955780637c73255c146107d25780638da5cb5b146108295780639113a7b514610880578063966dae0e146108ab578063a2fb117514610902578063a319d14314610951578063a7fcba2214610968578063a947d05014610a03578063af0b4b2714610a32578063b7c5936114610a89578063c64facb514610aa0578063f2fde38b14610ae3578063fd6673f514610b26575b600080fd5b34801561016557600080fd5b5061016e610b51565b6040518082815260200191505060405180910390f35b34801561019057600080fd5b50610199610b57565b6040518082815260200191505060405180910390f35b3480156101bb57600080fd5b506101c4610b5d565b6040518082815260200191505060405180910390f35b3480156101e657600080fd5b50610222600480360381019080803579ffffffffffffffffffffffffffffffffffffffffffffffffffff19169060200190929190505050610b63565b6040518080602001828103825283818151815260200191508051906020019060200280838360005b8381101561026557808201518184015260208101905061024a565b505050509050019250505060405180910390f35b34801561028557600080fd5b5061028e610c3e565b604051808a8152602001898152602001888152602001878152602001861515151581526020018573ffffffffffffffffffffffffffffffffffffffff1673ffffffffffffffffffffffffffffffffffffffff1681526020018473ffffffffffffffffffffffffffffffffffffffff1673ffffffffffffffffffffffffffffffffffffffff1681526020018373ffffffffffffffffffffffffffffffffffffffff1673ffffffffffffffffffffffffffffffffffffffff1681526020018279ffffffffffffffffffffffffffffffffffffffffffffffffffff191679ffffffffffffffffffffffffffffffffffffffffffffffffffff19168152602001995050505050505050505060405180910390f35b3480156103aa57600080fd5b506103e9600480360381019080803573ffffffffffffffffffffffffffffffffffffffff16906020019092919080359060200190929190505050610d1a565b604051808879ffffffffffffffffffffffffffffffffffffffffffffffffffff191679ffffffffffffffffffffffffffffffffffffffffffffffffffff191681526020018773ffffffffffffffffffffffffffffffffffffffff1673ffffffffffffffffffffffffffffffffffffffff168152602001861515151581526020018515151515815260200184151515158152602001831515151581526020018215151515815260200197505050505050505060405180910390f35b3480156104af57600080fd5b506104b8610dfc565b604051808279ffffffffffffffffffffffffffffffffffffffffffffffffffff191679ffffffffffffffffffffffffffffffffffffffffffffffffffff1916815260200191505060405180910390f35b34801561051457600080fd5b5061051d610e29565b6040518082815260200191505060405180910390f35b34801561053f57600080fd5b5061055e60048036038101908080359060200190929190505050610e2f565b604051808879ffffffffffffffffffffffffffffffffffffffffffffffffffff191679ffffffffffffffffffffffffffffffffffffffffffffffffffff191681526020018773ffffffffffffffffffffffffffffffffffffffff1673ffffffffffffffffffffffffffffffffffffffff168152602001861515151581526020018515151515815260200184151515158152602001831515151581526020018215151515815260200197505050505050505060405180910390f35b610620610f04565b005b34801561062e57600080fd5b50610674600480360381019080803579ffffffffffffffffffffffffffffffffffffffffffffffffffff191690602001909291908035906020019092919050505061102e565b604051808273ffffffffffffffffffffffffffffffffffffffff1673ffffffffffffffffffffffffffffffffffffffff16815260200191505060405180910390f35b3480156106c257600080fd5b506106e16004803603810190808035906020019092919050505061107b565b604051808681526020018581526020018481526020018060200180602001838103835285818151815260200191508051906020019060200280838360005b8381101561073a57808201518184015260208101905061071f565b50505050905001838103825284818151815260200191508051906020019060200280838360005b8381101561077c578082015181840152602081019050610761565b5050505090500197505050505050505060405180910390f35b6107d0600480360381019080803579ffffffffffffffffffffffffffffffffffffffffffffffffffff19169060200190929190505050611260565b005b3480156107de57600080fd5b50610813600480360381019080803573ffffffffffffffffffffffffffffffffffffffff16906020019092919050505061195c565b6040518082815260200191505060405180910390f35b34801561083557600080fd5b5061083e6119a8565b604051808273ffffffffffffffffffffffffffffffffffffffff1673ffffffffffffffffffffffffffffffffffffffff16815260200191505060405180910390f35b34801561088c57600080fd5b506108956119cd565b6040518082815260200191505060405180910390f35b3480156108b757600080fd5b506108c06119d3565b604051808273ffffffffffffffffffffffffffffffffffffffff1673ffffffffffffffffffffffffffffffffffffffff16815260200191505060405180910390f35b34801561090e57600080fd5b5061092d600480360381019080803590602001909291905050506119f9565b60405180848152602001838152602001828152602001935050505060405180910390f35b34801561095d57600080fd5b50610966611a28565b005b34801561097457600080fd5b506109b3600480360381019080803573ffffffffffffffffffffffffffffffffffffffff16906020019092919080359060200190929190505050611dff565b604051808279ffffffffffffffffffffffffffffffffffffffffffffffffffff191679ffffffffffffffffffffffffffffffffffffffffffffffffffff1916815260200191505060405180910390f35b348015610a0f57600080fd5b50610a18611e8a565b604051808215151515815260200191505060405180910390f35b348015610a3e57600080fd5b50610a47611e9d565b604051808273ffffffffffffffffffffffffffffffffffffffff1673ffffffffffffffffffffffffffffffffffffffff16815260200191505060405180910390f35b348015610a9557600080fd5b50610a9e611ec3565b005b348015610aac57600080fd5b50610ae1600480360381019080803573ffffffffffffffffffffffffffffffffffffffff1690602001909291905050506125ac565b005b348015610aef57600080fd5b50610b24600480360381019080803573ffffffffffffffffffffffffffffffffffffffff16906020019092919050505061286a565b005b348015610b3257600080fd5b50610b3b6129fc565b6040518082815260200191505060405180910390f35b60045481565b60055481565b60015481565b6060600860008379ffffffffffffffffffffffffffffffffffffffffffffffffffff191679ffffffffffffffffffffffffffffffffffffffffffffffffffff19168152602001908152602001600020805480602002602001604051908101604052809291908181526020018280548015610c3257602002820191906000526020600020905b8160009054906101000a900473ffffffffffffffffffffffffffffffffffffffff1673ffffffffffffffffffffffffffffffffffffffff1681526020019060010190808311610be8575b50505050509050919050565b6000806000806000806000806000600254600154600454600980549050601e60009054906101000a900460ff16601e60019054906101000a900473ffffffffffffffffffffffffffffffffffffffff16601f60009054906101000a900473ffffffffffffffffffffffffffffffffffffffff166000809054906101000a900473ffffffffffffffffffffffffffffffffffffffff16600660009054906101000a90047a01000000000000000000000000000000000000000000000000000002985098509850985098509850985098509850909192939495969798565b600760205281600052604060002081815481101515610d3557fe5b90600052602060002001600091509150508060000160009054906101000a90047a01000000000000000000000000000000000000000000000000000002908060000160069054906101000a900473ffffffffffffffffffffffffffffffffffffffff169080600001601a9054906101000a900460ff169080600001601b9054906101000a900460ff169080600001601c9054906101000a900460ff169080600001601d9054906101000a900460ff169080600001601e9054906101000a900460ff16905087565b600660009054906101000a90047a0100000000000000000000000000000000000000000000000000000281565b60035481565b600981815481101515610e3e57fe5b906000526020600020016000915090508060000160009054906101000a90047a01000000000000000000000000000000000000000000000000000002908060000160069054906101000a900473ffffffffffffffffffffffffffffffffffffffff169080600001601a9054906101000a900460ff169080600001601b9054906101000a900460ff169080600001601c9054906101000a900460ff169080600001601d9054906101000a900460ff169080600001601e9054906101000a900460ff16905087565b601e60009054906101000a900460ff16151515610f89576040517f08c379a000000000000000000000000000000000000000000000000000000000815260040180806020018281038252601c8152602001807f6c6f747465727920686173207374696c6c206e6f7420706c617965640000000081525060200191505060405180910390fd5b42600154111515611002576040517f08c379a00000000000000000000000000000000000000000000000000000000081526004018080602001828103825260108152602001807f646561646c696e65206973206f7665720000000000000000000000000000000081525060200191505060405180910390fd5b60003411151561101157600080fd5b61102634600354612a0990919063ffffffff16565b600381905550565b60086020528160005260406000208181548110151561104957fe5b906000526020600020016000915091509054906101000a900473ffffffffffffffffffffffffffffffffffffffff1681565b60008060006060806000806000606080600a60038c0360048110151561109d57fe5b60050201600001549450600a60038c036004811015156110b957fe5b60050201600101549350600a60038c036004811015156110d557fe5b60050201600201549250600a60038c036004811015156110f157fe5b6005020160030180548060200260200160405190810160405280929190818152602001828054801561117857602002820191906000526020600020905b8160009054906101000a900473ffffffffffffffffffffffffffffffffffffffff1673ffffffffffffffffffffffffffffffffffffffff168152602001906001019080831161112e575b50505050509150600a60038c0360048110151561119157fe5b6005020160040180548060200260200160405190810160405280929190818152602001828054801561123c57602002820191906000526020600020906000905b82829054906101000a90047a0100000000000000000000000000000000000000000000000000000279ffffffffffffffffffffffffffffffffffffffffffffffffffff1916815260200190600601906020826005010492830192600103820291508084116111d15790505b50505050509050848484848499509950995099509950505050505091939590929450565b61126861320e565b60025434141515611307576040517f08c379a000000000000000000000000000000000000000000000000000000000815260040180806020018281038252602c8152602001807f76616c7565207265636569766564206973206c657373207468616e207468652081526020017f6c6f747465727956616c7565000000000000000000000000000000000000000081525060400191505060405180910390fd5b60015442101515611380576040517f08c379a00000000000000000000000000000000000000000000000000000000081526004018080602001828103825260158152602001807f4c6f7474657279206861732066696e616c697a6564000000000000000000000081525060200191505060405180910390fd5b601e60009054906101000a900460ff16151515611405576040517f08c379a000000000000000000000000000000000000000000000000000000000815260040180806020018281038252601a8152602001807f4c6f74746572792068617320616c726561647920706c6179656400000000000081525060200191505060405180910390fd5b61142b8279ffffffffffffffffffffffffffffffffffffffffffffffffffff1916612a25565b15156114c5576040517f08c379a00000000000000000000000000000000000000000000000000000000081526004018080602001828103825260258152602001807f4e6f207265706561746564206e756d6265727320696e7369646520746865207481526020017f69636b657400000000000000000000000000000000000000000000000000000081525060400191505060405180910390fd5b6114dc600254600354612a0990919063ffffffff16565b60038190555060035460048190555060e0604051908101604052808379ffffffffffffffffffffffffffffffffffffffffffffffffffff191681526020013373ffffffffffffffffffffffffffffffffffffffff168152602001600015158152602001600015158152602001600015158152602001600015158152602001600015158152509050600760003373ffffffffffffffffffffffffffffffffffffffff1673ffffffffffffffffffffffffffffffffffffffff1681526020019081526020016000208190806001815401808255809150509060018203906000526020600020016000909192909190915060008201518160000160006101000a81548165ffffffffffff02191690837a0100000000000000000000000000000000000000000000000000009004021790555060208201518160000160066101000a81548173ffffffffffffffffffffffffffffffffffffffff021916908373ffffffffffffffffffffffffffffffffffffffff160217905550604082015181600001601a6101000a81548160ff021916908315150217905550606082015181600001601b6101000a81548160ff021916908315150217905550608082015181600001601c6101000a81548160ff02191690831515021790555060a082015181600001601d6101000a81548160ff02191690831515021790555060c082015181600001601e6101000a81548160ff021916908315150217905550505050600860008379ffffffffffffffffffffffffffffffffffffffffffffffffffff191679ffffffffffffffffffffffffffffffffffffffffffffffffffff191681526020019081526020016000203390806001815401808255809150509060018203906000526020600020016000909192909190916101000a81548173ffffffffffffffffffffffffffffffffffffffff021916908373ffffffffffffffffffffffffffffffffffffffff1602179055505060098190806001815401808255809150509060018203906000526020600020016000909192909190915060008201518160000160006101000a81548165ffffffffffff02191690837a0100000000000000000000000000000000000000000000000000009004021790555060208201518160000160066101000a81548173ffffffffffffffffffffffffffffffffffffffff021916908373ffffffffffffffffffffffffffffffffffffffff160217905550604082015181600001601a6101000a81548160ff021916908315150217905550606082015181600001601b6101000a81548160ff021916908315150217905550608082015181600001601c6101000a81548160ff02191690831515021790555060a082015181600001601d6101000a81548160ff02191690831515021790555060c082015181600001601e6101000a81548160ff0219169083151502179055505050503373ffffffffffffffffffffffffffffffffffffffff167f7161ae8ed1d6afc002ada852faaf7f77973bd0d83165acda81a927674acc058d600354600980549050604051808381526020018281526020019250505060405180910390a25050565b6000600760008373ffffffffffffffffffffffffffffffffffffffff1673ffffffffffffffffffffffffffffffffffffffff168152602001908152602001600020805490509050919050565b6000809054906101000a900473ffffffffffffffffffffffffffffffffffffffff1681565b60025481565b601f60009054906101000a900473ffffffffffffffffffffffffffffffffffffffff1681565b600a81600481101515611a0857fe5b600502016000915090508060000154908060010154908060020154905083565b600060606000806000809054906101000a900473ffffffffffffffffffffffffffffffffffffffff1673ffffffffffffffffffffffffffffffffffffffff163373ffffffffffffffffffffffffffffffffffffffff16141515611a8a57600080fd5b42600154111515611b03576040517f08c379a00000000000000000000000000000000000000000000000000000000081526004018080602001828103825260178152602001807f646561646c696e652068617320746f206265206f76657200000000000000000081525060200191505060405180910390fd5b601e60009054906101000a900460ff16151515611b88576040517f08c379a00000000000000000000000000000000000000000000000000000000081526004018080602001828103825260128152602001807f6c6f74746572792068617320706c61796564000000000000000000000000000081525060200191505060405180910390fd5b6001601e60006101000a81548160ff02191690831515021790555042604051808281526020019150506040518091039020935060066040519080825280601f01601f191660200182016040528015611bef5781602001602082028038833980820191505090505b509250600091505b6006821015611d11576006821415611c0e57611d11565b602d847e010000000000000000000000000000000000000000000000000000000000009004811515611c3c57fe5b0690506000811415611c4d57602d90505b611c82817f01000000000000000000000000000000000000000000000000000000000000000284612ba990919063ffffffff16565b8015611c8f575060008114155b15611cfe57807f0100000000000000000000000000000000000000000000000000000000000000028383815181101515611cc557fe5b9060200101907effffffffffffffffffffffffffffffffffffffffffffffffffffffffffffff1916908160001a90535081806001019250505b601084600019169060020a029350611bf7565b611d1a83612c80565b9250611d2583612efc565b600660006101000a81548165ffffffffffff02191690837a010000000000000000000000000000000000000000000000000000900402179055507f4985da49863680458b7b3b206d3fdf8bc0dbc27b67eb7436b9770405ef53a7ea600660009054906101000a90047a01000000000000000000000000000000000000000000000000000002604051808279ffffffffffffffffffffffffffffffffffffffffffffffffffff191679ffffffffffffffffffffffffffffffffffffffffffffffffffff1916815260200191505060405180910390a150505050565b6000600760008473ffffffffffffffffffffffffffffffffffffffff1673ffffffffffffffffffffffffffffffffffffffff16815260200190815260200160002082815481101515611e4d57fe5b9060005260206000200160000160009054906101000a90047a01000000000000000000000000000000000000000000000000000002905092915050565b601e60009054906101000a900460ff1681565b601e60019054906101000a900473ffffffffffffffffffffffffffffffffffffffff1681565b6000806000806000806000806000809054906101000a900473ffffffffffffffffffffffffffffffffffffffff1673ffffffffffffffffffffffffffffffffffffffff163373ffffffffffffffffffffffffffffffffffffffff16141515611f2a57600080fd5b42600154111515611fa3576040517f08c379a00000000000000000000000000000000000000000000000000000000081526004018080602001828103825260178152602001807f646561646c696e652068617320746f206265206f76657200000000000000000081525060200191505060405180910390fd5b601e60009054906101000a900460ff161515612027576040517f08c379a00000000000000000000000000000000000000000000000000000000081526004018080602001828103825260128152602001807f6c6f74746572792068617320706c61796564000000000000000000000000000081525060200191505060405180910390fd5b5b600980549050600554101561236257600960055481548110151561204857fe5b9060005260206000200197508760000160009054906101000a90047a0100000000000000000000000000000000000000000000000000000296506000955060009450600093505b600660009054906101000a905050600660ff168410156121f157600660009054906101000a90047a01000000000000000000000000000000000000000000000000000002846006811015156120e057fe5b1a7f01000000000000000000000000000000000000000000000000000000000000000292508491505b600660ff168210156121e457600086148015612126575060038210155b8061213e575060018614801561213d575060048210155b5b15612148576121e4565b868260068110151561215657fe5b1a7f0100000000000000000000000000000000000000000000000000000000000000027effffffffffffffffffffffffffffffffffffffffffffffffffffffffffffff1916837effffffffffffffffffffffffffffffffffffffffffffffffffffffffffffff191614156121d75760018201945085806001019650506121e4565b8180600101925050612109565b838060010194505061208f565b60038610158015612211575087600001601a9054906101000a900460ff16155b1561223f57600188600001601a6101000a81548160ff02191690831515021790555061223e600088612fce565b5b6004861015801561225f575087600001601b9054906101000a900460ff16155b1561228d57600188600001601b6101000a81548160ff02191690831515021790555061228c600188612fce565b5b600586101580156122ad575087600001601c9054906101000a900460ff16155b156122db57600188600001601c6101000a81548160ff0219169083151502179055506122da600288612fce565b5b6006861480156122fa575087600001601d9054906101000a900460ff16155b1561232857600188600001601d6101000a81548160ff021916908315150217905550612327600388612fce565b5b600560008154809291906001019190505550620493e05a111580156123535750600980549050600554105b1561235d57612362565b612028565b61237860046003546131df90919063ffffffff16565b90506009805490506005541415612576576000600a600060048110151561239b57fe5b60050201600001541180156123c757506000600a60006004811015156123bd57fe5b6005020160010154145b15612404576123e1816003546131f590919063ffffffff16565b60038190555080600a60006004811015156123f857fe5b60050201600101819055505b6000600a600160048110151561241657fe5b600502016000015411801561244257506000600a600160048110151561243857fe5b6005020160010154145b1561247f5761245c816003546131f590919063ffffffff16565b60038190555080600a600160048110151561247357fe5b60050201600101819055505b6000600a600260048110151561249157fe5b60050201600001541180156124bd57506000600a60026004811015156124b357fe5b6005020160010154145b156124fa576124d7816003546131f590919063ffffffff16565b60038190555080600a60026004811015156124ee57fe5b60050201600101819055505b6000600a600360048110151561250c57fe5b600502016000015411801561253857506000600a600360048110151561252e57fe5b6005020160010154145b1561257557612552816003546131f590919063ffffffff16565b60038190555080600a600360048110151561256957fe5b60050201600101819055505b5b7fd0328327c8df1afef76a0bf4b29757f9016a0b79de1bd4cd259a21c439b7f93260405160405180910390a15050505050505050565b6000601f60009054906101000a900473ffffffffffffffffffffffffffffffffffffffff1673ffffffffffffffffffffffffffffffffffffffff163373ffffffffffffffffffffffffffffffffffffffff1614151561260a57600080fd5b6000600354111515612684576040517f08c379a000000000000000000000000000000000000000000000000000000000815260040180806020018281038252601d8152602001807f4a61636b706f7420736f68756c64206265206d6f7265207468616e203000000081525060200191505060405180910390fd5b601e60009054906101000a900460ff161515612708576040517f08c379a00000000000000000000000000000000000000000000000000000000081526004018080602001828103825260128152602001807f6c6f74746572792068617320706c61796564000000000000000000000000000081525060200191505060405180910390fd5b600073ffffffffffffffffffffffffffffffffffffffff168273ffffffffffffffffffffffffffffffffffffffff16141515156127d3576040517f08c379a00000000000000000000000000000000000000000000000000000000081526004018080602001828103825260238152602001807f6e6577206c6f747465727920616464726573732073686f756c64206e6f74206281526020017f652030000000000000000000000000000000000000000000000000000000000081525060400191505060405180910390fd5b60035460048190555060006003819055508190508073ffffffffffffffffffffffffffffffffffffffff1663642e8fef6004546040518263ffffffff167c01000000000000000000000000000000000000000000000000000000000281526004016000604051808303818588803b15801561284d57600080fd5b505af1158015612861573d6000803e3d6000fd5b50505050505050565b6000809054906101000a900473ffffffffffffffffffffffffffffffffffffffff1673ffffffffffffffffffffffffffffffffffffffff163373ffffffffffffffffffffffffffffffffffffffff161415156128c557600080fd5b600073ffffffffffffffffffffffffffffffffffffffff168173ffffffffffffffffffffffffffffffffffffffff161415151561290157600080fd5b7f8be0079c531659141344cd1fd0a4f28419497f9722a3daafe3b4186f6b6457e06000809054906101000a900473ffffffffffffffffffffffffffffffffffffffff1682604051808373ffffffffffffffffffffffffffffffffffffffff1673ffffffffffffffffffffffffffffffffffffffff1681526020018273ffffffffffffffffffffffffffffffffffffffff1673ffffffffffffffffffffffffffffffffffffffff1681526020019250505060405180910390a1806000806101000a81548173ffffffffffffffffffffffffffffffffffffffff021916908373ffffffffffffffffffffffffffffffffffffffff16021790555050565b6000600980549050905090565b60008183019050828110151515612a1c57fe5b80905092915050565b60008060008060068060ff16141515612a415760009350612ba1565b600092505b600660ff16831015612b9c578483600681101515612a6057fe5b1a7f01000000000000000000000000000000000000000000000000000000000000000291506000827f01000000000000000000000000000000000000000000000000000000000000009004111580612adb5750602d827f01000000000000000000000000000000000000000000000000000000000000009004115b15612ae95760009350612ba1565b6001830190505b600660ff16811015612b8f578481600681101515612b0a57fe5b1a7f0100000000000000000000000000000000000000000000000000000000000000027effffffffffffffffffffffffffffffffffffffffffffffffffffffffffffff1916827effffffffffffffffffffffffffffffffffffffffffffffffffffffffffffff1916101515612b825760009350612ba1565b8080600101915050612af0565b8280600101935050612a46565b600193505b505050919050565b600080600090505b8351811015612c74578381815181101515612bc857fe5b9060200101517f010000000000000000000000000000000000000000000000000000000000000090047f0100000000000000000000000000000000000000000000000000000000000000027effffffffffffffffffffffffffffffffffffffffffffffffffffffffffffff1916837effffffffffffffffffffffffffffffffffffffffffffffffffffffffffffff19161415612c675760009150612c79565b8080600101915050612bb1565b600191505b5092915050565b606060008060008085519350600092505b83831015612ef0576001830191505b83821015612ee3578582815181101515612cb657fe5b9060200101517f010000000000000000000000000000000000000000000000000000000000000090047f0100000000000000000000000000000000000000000000000000000000000000027effffffffffffffffffffffffffffffffffffffffffffffffffffffffffffff19168684815181101515612d3157fe5b9060200101517f010000000000000000000000000000000000000000000000000000000000000090047f0100000000000000000000000000000000000000000000000000000000000000027effffffffffffffffffffffffffffffffffffffffffffffffffffffffffffff19161115612ed6578583815181101515612db257fe5b9060200101517f010000000000000000000000000000000000000000000000000000000000000090047f01000000000000000000000000000000000000000000000000000000000000000290508582815181101515612e0d57fe5b9060200101517f010000000000000000000000000000000000000000000000000000000000000090047f0100000000000000000000000000000000000000000000000000000000000000028684815181101515612e6657fe5b9060200101907effffffffffffffffffffffffffffffffffffffffffffffffffffffffffffff1916908160001a905350808683815181101515612ea557fe5b9060200101907effffffffffffffffffffffffffffffffffffffffffffffffffffffffffffff1916908160001a9053505b8180600101925050612ca0565b8280600101935050612c91565b85945050505050919050565b60008060008091505b8351821015612fc7578382815181101515612f1c57fe5b9060200101517f010000000000000000000000000000000000000000000000000000000000000090047f0100000000000000000000000000000000000000000000000000000000000000027effffffffffffffffffffffffffffffffffffffffffffffffffffffffffffff19169050816008028179ffffffffffffffffffffffffffffffffffffffffffffffffffff19169060020a9004905080831792508180600101925050612f05565b5050919050565b600060606000600a85600481101515612fe357fe5b60050201925082600001600081548092919060010191905055508260040184908060018154018082558091505090600182039060005260206000209060059182820401919006600602909192909190916101000a81548165ffffffffffff02191690837a0100000000000000000000000000000000000000000000000000009004021790555050600860008579ffffffffffffffffffffffffffffffffffffffffffffffffffff191679ffffffffffffffffffffffffffffffffffffffffffffffffffff1916815260200190815260200160002080548060200260200160405190810160405280929190818152602001828054801561313757602002820191906000526020600020905b8160009054906101000a900473ffffffffffffffffffffffffffffffffffffffff1673ffffffffffffffffffffffffffffffffffffffff16815260200190600101908083116130ed575b50505050509150600090505b81518110156131d85782600301828281518110151561315e57fe5b9060200190602002015190806001815401808255809150509060018203906000526020600020016000909192909190916101000a81548173ffffffffffffffffffffffffffffffffffffffff021916908373ffffffffffffffffffffffffffffffffffffffff160217905550508080600101915050613143565b5050505050565b600081838115156131ec57fe5b04905092915050565b600082821115151561320357fe5b818303905092915050565b60e060405190810160405280600079ffffffffffffffffffffffffffffffffffffffffffffffffffff19168152602001600073ffffffffffffffffffffffffffffffffffffffff16815260200160001515815260200160001515815260200160001515815260200160001515815260200160001515815250905600a165627a7a723058205d93d9b1f7878a1872adc54678d68e32d2ac8a544516c5b9143cc422d37c4ad00029",
  "source": "pragma solidity ^0.4.23;\r\n\r\nimport \"./ownership/Ownable.sol\";\r\nimport \"./math/SafeMath.sol\";\r\nimport \"./LotteryFactory.sol\";\r\nimport \"./BytesConvertLib.sol\";\r\n\r\n/**\r\n * @title Lottery\r\n * @dev Lottery with 6 numbers between 01-45. for each bet we store:\r\n * 1 bytes6 [ 14, 15, 16, 19, 32, 35 ] = 0x0e0f10132023\r\n */\r\n\r\ncontract Lottery is Ownable {\r\n    using SafeMath for uint256; \r\n    using BytesConvertLib for bytes;\r\n    using BytesConvertLib for bytes6;\r\n\r\n    event TicketBuy(address indexed buyer, uint256 jackPot, uint256 playersLength);\r\n    event WinningNumber(bytes6 winningNumber);\r\n    event WinnersResult();\r\n\r\n    struct Ticket {\r\n        bytes6 ticket;\r\n        address user;\r\n        bool number3;\r\n        bool number4;\r\n        bool number5;\r\n        bool number6;\r\n        bool processed;\r\n    }\r\n\r\n    struct Winners {\r\n        uint256 numberOfWinners;\r\n        uint256 allocated;\r\n        uint256 payed;\r\n        address[] winners;\r\n        bytes6[] tickets;\r\n    }\r\n\r\n    uint256 public deadline;\r\n    uint256 public lotteryValue;\r\n    uint256 public jackPot;\r\n    uint256 public finalJackPot;\r\n    uint256 public index = 0;\r\n    bytes6 public winningNumber;\r\n\r\n    // @dev mapping of the sender => tickets, when user enters the lottery we save his tickets\r\n    mapping(address => Ticket[]) public playerTickets;\r\n    mapping(bytes6 => address[]) public ticketPlayers;\r\n\r\n    Ticket[] public tickets;\r\n    Winners[4] public winners;\r\n\r\n    bool public lotteryHasPlayed = false;\r\n\r\n    // @dev we keep a reference of the last lottery\r\n    address public lastLottery;\r\n\r\n    // @dev the address of the factory which deployed this lottery\r\n    address public factoryAddress;\r\n\r\n    // @dev modifier to check if sender is the factoryAddress\r\n    modifier onlyFactory() {\r\n        require(msg.sender == factoryAddress);\r\n        _;\r\n    }\r\n    /** \r\n    * @dev we set the lotteryFactory as the creator of this lottery\r\n    * @param _duration how long will the lottery be open to enter\r\n    * @param _lotteryValue sets the value of the lottery\r\n    * @param _lastLotteryAddress address of the previous lottery\r\n    */\r\n    constructor(uint256 _duration, uint256 _lotteryValue, address _lastLotteryAddress) public {\r\n        require(_duration > 0);\r\n        require(_lotteryValue > 0);\r\n        factoryAddress = msg.sender;\r\n        deadline = now + _duration;\r\n        lotteryValue = _lotteryValue;\r\n        lastLottery = _lastLotteryAddress;\r\n    }\r\n\r\n    /** \r\n    * @notice allows the player to enter (200000 gas in testing)\r\n    * @param _ticket the ticket in bytes [ 14, 15, 16, 19, 32, 35 ] = 0x0e0f10132023\r\n    */\r\n    function enter(bytes6 _ticket) external payable {\r\n        require(msg.value == lotteryValue, \"value received is less than the lotteryValue\");\r\n        require(now < deadline, \"Lottery has finalized\");\r\n        require(!lotteryHasPlayed, \"Lottery has already played\");\r\n        require(_ticket.areValidNumbers(), \"No repeated numbers inside the ticket\");\r\n        jackPot = jackPot.add(lotteryValue);\r\n        finalJackPot = jackPot;\r\n        Ticket memory newTicket = Ticket({\r\n            ticket: _ticket,\r\n            user: msg.sender,\r\n            number3: false,\r\n            number4: false,\r\n            number5: false,\r\n            number6: false,\r\n            processed: false \r\n        });\r\n        playerTickets[msg.sender].push(newTicket);\r\n        ticketPlayers[_ticket].push(msg.sender);\r\n        tickets.push(newTicket);\r\n        emit TicketBuy(msg.sender, jackPot, tickets.length);\r\n    }\r\n\r\n    /** \r\n    * @notice play the lottery when is finished (70k gas test), we get a bytes32 keccak256 of the \r\n    * random number, first 2 bytes are divided by 45 and we take the residous\r\n    * if the number is ok we put it in the first place of _number6, then we take\r\n    * the subsequent 2 bytes and do the same to put it in the second slot of _number6\r\n    * at the end _number 6 is the winning number\r\n    */\r\n    function playTheLottery() external onlyOwner {\r\n        require(deadline > now, \"deadline has to be over\");\r\n        require(!lotteryHasPlayed, \"lottery has played\");\r\n        lotteryHasPlayed = true;\r\n        bytes32 random = keccak256(now);\r\n        bytes memory winner = new bytes(6);\r\n        uint256 size = 0;\r\n        while(size < 6){\r\n            if(size==6) break;\r\n            uint256 pair = uint256(bytes2(random)) % 45;\r\n            if(pair == 0) pair = 45;\r\n            if(winner.isNotRepeated(bytes1(pair)) && pair != 0){\r\n                winner[size] = bytes1(pair);\r\n                size++;\r\n            } \r\n            random = random << 16;\r\n        }\r\n        winner = winner.sortArray();\r\n        winningNumber = winner.convertBytesToBytes6();\r\n        emit WinningNumber(winningNumber);\r\n    }\r\n\r\n    /**\r\n    * @dev this function can consume a lot of gas, this is why we set an\r\n    * index as global if we run out of gas during this call\r\n    * We go through each ticket that was bought and we check if\r\n    * each byte of each ticket is equal to each bytes of the winning \r\n    * number, if we get more than 3 results we have a winner, then we\r\n    * call the _saveValues method for each winner found\r\n    * After this, we check if all of the tickets have been checked\r\n    * if so, we allocated the corresponding to each winner struct, \r\n    * the first position of winners is a struct defining the number\r\n    * of winners who scored 3 numbers, the second is for 4 numbers\r\n    * and so on.\r\n    */\r\n    function setWinners() external onlyOwner {\r\n        require(deadline > now, \"deadline has to be over\");\r\n        require(lotteryHasPlayed, \"lottery has played\");\r\n        while(index < tickets.length) {\r\n            Ticket storage savedTicket = tickets[index];\r\n            bytes6 ticket = savedTicket.ticket;\r\n            uint256 found = 0;\r\n            uint256 offset = 0;\r\n            for(uint256 j = 0; j < winningNumber.length; j++) {\r\n                bytes1 chunk = winningNumber[j];\r\n                for(uint256 k = offset; k < ticket.length; k++){\r\n                    if((found == 0 && k >= 3) || (found == 1 && k >= 4)) break;\r\n                    if(chunk == ticket[k]) {\r\n                        offset = k + 1;\r\n                        found++;\r\n                        break;\r\n                    } \r\n                }\r\n            }\r\n            if(found >= 3 && !savedTicket.number3) {\r\n                savedTicket.number3 = true;\r\n                _saveValues(0, ticket);\r\n            } \r\n            if(found >= 4 && !savedTicket.number4) {\r\n                savedTicket.number4 = true;\r\n                _saveValues(1, ticket);\r\n            } \r\n            if(found >= 5 && !savedTicket.number5) {\r\n                savedTicket.number5 = true;\r\n                _saveValues(2, ticket);        \r\n            } \r\n            if(found == 6 && !savedTicket.number6) {\r\n                savedTicket.number6 = true;\r\n                _saveValues(3, ticket);              \r\n            }\r\n            index ++;\r\n            if(gasleft() <= 300000 && index < tickets.length) break;\r\n        }\r\n        uint256 allocation = jackPot.div(4);\r\n        if(index == tickets.length) {\r\n            if(winners[0].numberOfWinners > 0 && winners[0].allocated == 0){\r\n                jackPot = jackPot.sub(allocation);\r\n                winners[0].allocated = allocation;\r\n            }\r\n            if(winners[1].numberOfWinners > 0 && winners[1].allocated == 0){\r\n                jackPot = jackPot.sub(allocation);\r\n                winners[1].allocated = allocation;\r\n            }\r\n            if(winners[2].numberOfWinners > 0 && winners[2].allocated == 0){\r\n                jackPot = jackPot.sub(allocation);\r\n                winners[2].allocated = allocation;\r\n            }\r\n            if(winners[3].numberOfWinners > 0 && winners[3].allocated == 0){\r\n                jackPot = jackPot.sub(allocation);\r\n                winners[3].allocated = allocation;\r\n            }\r\n        }\r\n        emit WinnersResult();\r\n    }\r\n\r\n    /**\r\n    * @dev we save the ticket if scored more than 3 numbers\r\n    * @param _pos the position of the winner struct, 0 for 3 numbers,\r\n    * 1 for 4 numbers, and so on\r\n    * @param _ticket the winner ticket\r\n    */\r\n    function _saveValues(uint256 _pos, bytes6 _ticket) private {\r\n        Winners storage _winners = winners[_pos];\r\n        _winners.numberOfWinners ++;\r\n        _winners.tickets.push(_ticket);\r\n        address[] memory players = ticketPlayers[_ticket];\r\n        for(uint256 l = 0; l < players.length; l++){\r\n            _winners.winners.push(players[l]);\r\n        }\r\n    }\r\n\r\n    /**     \r\n    * @dev is called when player enters the lottery, we use this to allocate the money\r\n    */\r\n    function addJackPot() public payable {\r\n        require(!lotteryHasPlayed, \"lottery has still not played\");\r\n        require(deadline > now, \"deadline is over\");\r\n        require(msg.value>0);\r\n        jackPot = jackPot.add(msg.value);\r\n    }\r\n\r\n     /** \r\n    * @notice Transfer the jackpot nobody won the lottery to a the newLottery \r\n    */\r\n    function transferJackPot(address _newLottery) external onlyFactory {\r\n        //require(winners.length == 0, \"Must not be winners in order to transfer\");\r\n        require(jackPot > 0, \"Jackpot sohuld be more than 0\");\r\n        require(lotteryHasPlayed, \"lottery has played\");\r\n        require(_newLottery != address(0), \"new lottery address should not be 0\");\r\n        finalJackPot = jackPot;\r\n        jackPot = 0;\r\n        Lottery lottery = Lottery(_newLottery);\r\n        lottery.addJackPot.value(finalJackPot)();  \r\n    }\r\n\r\n    //@dev Getters\r\n    function getSummary() external view returns (\r\n        uint256, uint256, uint256, uint256, bool, \r\n        address, address, address, bytes6) {\r\n        return (\r\n            lotteryValue,\r\n            deadline,\r\n            finalJackPot,\r\n            tickets.length,\r\n            lotteryHasPlayed,\r\n            lastLottery,\r\n            factoryAddress, \r\n            owner,\r\n            winningNumber\r\n        );\r\n    }\r\n\r\n    function getWinners(uint256 _n) external view returns (\r\n        uint256, uint256, uint256, address[],bytes6[]) {\r\n        uint256 _numberOfWinners = winners[_n - 3].numberOfWinners;\r\n        uint256 _allocated = winners[_n - 3].allocated;\r\n        uint256 _payed = winners[_n - 3].payed;\r\n        address[] memory _winners = winners[_n - 3].winners;\r\n        bytes6[] memory _tickets = winners[_n - 3].tickets;\r\n        return(\r\n            _numberOfWinners, \r\n            _allocated, \r\n            _payed,\r\n            _winners,\r\n            _tickets\r\n            );\r\n    }\r\n\r\n    function getPlayerTicket(address _address, uint256 _index) external view returns (bytes6 outTicket){\r\n        outTicket = playerTickets[_address][_index].ticket;\r\n    }\r\n\r\n    function getNumberOfTickets(address _address) external view returns (uint256 size) {\r\n        size = playerTickets[_address].length;\r\n    }\r\n\r\n    function getPlayers(bytes6 _ticket) external view returns (address[]) {\r\n        return ticketPlayers[_ticket];\r\n    }\r\n\r\n    function getNumberOfPlayers() public view returns (uint256) {\r\n        return tickets.length;\r\n    }\r\n\r\n/*\r\nbytes6 ticket;\r\n        address user;\r\n        bool number3;\r\n        bool number4;\r\n        bool number5;\r\n        bool number6;\r\n        bool processed;\r\n    function getWinner() external view returns(bytes6 winningNumber6) {\r\n        winningNumber6 = winningNumbers.winningNumber;\r\n    }\r\n\r\n    function getWinner5(uint256 index) external view returns(bytes5) {\r\n        return  winningNumbers.winningNumbers5[index];\r\n    }\r\n\r\n    function getWinner4(uint256 index) external view returns(bytes4) {\r\n        return  winningNumbers.winningNumbers4[index];\r\n    }\r\n\r\n    function getWinner3(uint256 index) external view returns(bytes3) {\r\n        return  winningNumbers.winningNumbers3[index];\r\n    }\r\n    */\r\n}\r\n\r\n\r\n\r\n",
  "sourcePath": "E:\\Ethereum\\Worldpay\\lottery-contract\\ethereum\\contracts\\Lottery.sol",
  "compiler": {
    "name": "solc",
    "version": "0.4.23+commit.124ca40d.Emscripten.clang"
  },
  "schemaVersion": "2.0.0",
  "updatedAt": "2018-06-09T09:47:34.079Z"
}