{
  "contractName": "LotteryMock",
  "abi": [
    {
      "constant": false,
      "inputs": [
        {
          "name": "_number6",
          "type": "bytes6"
        },
        {
          "name": "_numbers5",
          "type": "bytes5[6]"
        },
        {
          "name": "_numbers4",
          "type": "bytes4[15]"
        }
      ],
      "name": "enter",
      "outputs": [],
      "payable": true,
      "stateMutability": "payable",
      "type": "function"
    },
    {
      "constant": true,
      "inputs": [],
      "name": "winningNumbers",
      "outputs": [
        {
          "name": "winningNumber",
          "type": "bytes6"
        }
      ],
      "payable": false,
      "stateMutability": "view",
      "type": "function"
    },
    {
      "constant": true,
      "inputs": [],
      "name": "deadline",
      "outputs": [
        {
          "name": "",
          "type": "uint256"
        }
      ],
      "payable": false,
      "stateMutability": "view",
      "type": "function"
    },
    {
      "constant": true,
      "inputs": [
        {
          "name": "",
          "type": "bytes4"
        },
        {
          "name": "",
          "type": "uint256"
        }
      ],
      "name": "numbers4",
      "outputs": [
        {
          "name": "",
          "type": "address"
        }
      ],
      "payable": false,
      "stateMutability": "view",
      "type": "function"
    },
    {
      "constant": true,
      "inputs": [],
      "name": "getSummary",
      "outputs": [
        {
          "name": "",
          "type": "uint256"
        },
        {
          "name": "",
          "type": "uint256"
        },
        {
          "name": "",
          "type": "uint256"
        },
        {
          "name": "",
          "type": "uint256"
        },
        {
          "name": "",
          "type": "uint256"
        },
        {
          "name": "",
          "type": "bool"
        },
        {
          "name": "",
          "type": "address"
        },
        {
          "name": "",
          "type": "address"
        },
        {
          "name": "",
          "type": "address"
        }
      ],
      "payable": false,
      "stateMutability": "view",
      "type": "function"
    },
    {
      "constant": true,
      "inputs": [
        {
          "name": "_numbers4",
          "type": "bytes4"
        },
        {
          "name": "user",
          "type": "address"
        }
      ],
      "name": "getStoredNumbers4",
      "outputs": [
        {
          "name": "",
          "type": "uint256"
        },
        {
          "name": "",
          "type": "uint256"
        }
      ],
      "payable": false,
      "stateMutability": "view",
      "type": "function"
    },
    {
      "constant": true,
      "inputs": [
        {
          "name": "_number6",
          "type": "bytes6"
        },
        {
          "name": "user",
          "type": "address"
        }
      ],
      "name": "getStoredNumbers6",
      "outputs": [
        {
          "name": "",
          "type": "uint256"
        },
        {
          "name": "",
          "type": "uint256"
        }
      ],
      "payable": false,
      "stateMutability": "view",
      "type": "function"
    },
    {
      "constant": true,
      "inputs": [],
      "name": "jackPot",
      "outputs": [
        {
          "name": "",
          "type": "uint256"
        }
      ],
      "payable": false,
      "stateMutability": "view",
      "type": "function"
    },
    {
      "constant": true,
      "inputs": [
        {
          "name": "",
          "type": "bytes6"
        },
        {
          "name": "",
          "type": "uint256"
        }
      ],
      "name": "numbers6",
      "outputs": [
        {
          "name": "",
          "type": "address"
        }
      ],
      "payable": false,
      "stateMutability": "view",
      "type": "function"
    },
    {
      "constant": false,
      "inputs": [],
      "name": "addJackPot",
      "outputs": [],
      "payable": true,
      "stateMutability": "payable",
      "type": "function"
    },
    {
      "constant": true,
      "inputs": [
        {
          "name": "",
          "type": "bytes5"
        },
        {
          "name": "",
          "type": "uint256"
        }
      ],
      "name": "numbers5",
      "outputs": [
        {
          "name": "",
          "type": "address"
        }
      ],
      "payable": false,
      "stateMutability": "view",
      "type": "function"
    },
    {
      "constant": true,
      "inputs": [
        {
          "name": "",
          "type": "address"
        },
        {
          "name": "",
          "type": "uint256"
        }
      ],
      "name": "playerNumbers6",
      "outputs": [
        {
          "name": "",
          "type": "bytes6"
        }
      ],
      "payable": false,
      "stateMutability": "view",
      "type": "function"
    },
    {
      "constant": true,
      "inputs": [],
      "name": "getPlayers",
      "outputs": [
        {
          "name": "",
          "type": "address[]"
        }
      ],
      "payable": false,
      "stateMutability": "view",
      "type": "function"
    },
    {
      "constant": true,
      "inputs": [
        {
          "name": "",
          "type": "address"
        },
        {
          "name": "",
          "type": "uint256"
        }
      ],
      "name": "playerNumbers5",
      "outputs": [
        {
          "name": "",
          "type": "bytes5"
        }
      ],
      "payable": false,
      "stateMutability": "view",
      "type": "function"
    },
    {
      "constant": true,
      "inputs": [],
      "name": "owner",
      "outputs": [
        {
          "name": "",
          "type": "address"
        }
      ],
      "payable": false,
      "stateMutability": "view",
      "type": "function"
    },
    {
      "constant": true,
      "inputs": [
        {
          "name": "",
          "type": "address"
        },
        {
          "name": "",
          "type": "uint256"
        }
      ],
      "name": "playerNumbers4",
      "outputs": [
        {
          "name": "",
          "type": "bytes4"
        }
      ],
      "payable": false,
      "stateMutability": "view",
      "type": "function"
    },
    {
      "constant": true,
      "inputs": [],
      "name": "lotteryValue",
      "outputs": [
        {
          "name": "",
          "type": "uint256"
        }
      ],
      "payable": false,
      "stateMutability": "view",
      "type": "function"
    },
    {
      "constant": true,
      "inputs": [],
      "name": "factoryAddress",
      "outputs": [
        {
          "name": "",
          "type": "address"
        }
      ],
      "payable": false,
      "stateMutability": "view",
      "type": "function"
    },
    {
      "constant": true,
      "inputs": [],
      "name": "lotteryHasPlayed",
      "outputs": [
        {
          "name": "",
          "type": "bool"
        }
      ],
      "payable": false,
      "stateMutability": "view",
      "type": "function"
    },
    {
      "constant": true,
      "inputs": [],
      "name": "lastLottery",
      "outputs": [
        {
          "name": "",
          "type": "address"
        }
      ],
      "payable": false,
      "stateMutability": "view",
      "type": "function"
    },
    {
      "constant": true,
      "inputs": [
        {
          "name": "_number5",
          "type": "bytes5"
        },
        {
          "name": "user",
          "type": "address"
        }
      ],
      "name": "getStoredNumbers5",
      "outputs": [
        {
          "name": "",
          "type": "uint256"
        },
        {
          "name": "",
          "type": "uint256"
        }
      ],
      "payable": false,
      "stateMutability": "view",
      "type": "function"
    },
    {
      "constant": false,
      "inputs": [
        {
          "name": "_newLottery",
          "type": "address"
        }
      ],
      "name": "transferJackPot",
      "outputs": [],
      "payable": false,
      "stateMutability": "nonpayable",
      "type": "function"
    },
    {
      "constant": false,
      "inputs": [
        {
          "name": "newOwner",
          "type": "address"
        }
      ],
      "name": "transferOwnership",
      "outputs": [],
      "payable": false,
      "stateMutability": "nonpayable",
      "type": "function"
    },
    {
      "constant": true,
      "inputs": [
        {
          "name": "",
          "type": "uint256"
        }
      ],
      "name": "players",
      "outputs": [
        {
          "name": "",
          "type": "address"
        }
      ],
      "payable": false,
      "stateMutability": "view",
      "type": "function"
    },
    {
      "inputs": [
        {
          "name": "_duration",
          "type": "uint256"
        },
        {
          "name": "_lotteryValue",
          "type": "uint256"
        },
        {
          "name": "_lastLotteryAddress",
          "type": "address"
        }
      ],
      "payable": false,
      "stateMutability": "nonpayable",
      "type": "constructor"
    },
    {
      "anonymous": false,
      "inputs": [
        {
          "indexed": false,
          "name": "winners",
          "type": "address[]"
        },
        {
          "indexed": false,
          "name": "jackPot",
          "type": "uint256"
        }
      ],
      "name": "Winners",
      "type": "event"
    },
    {
      "anonymous": false,
      "inputs": [
        {
          "indexed": false,
          "name": "value",
          "type": "uint256"
        }
      ],
      "name": "TransferJackPot",
      "type": "event"
    },
    {
      "anonymous": false,
      "inputs": [
        {
          "indexed": false,
          "name": "val",
          "type": "uint256"
        }
      ],
      "name": "Debug",
      "type": "event"
    },
    {
      "anonymous": false,
      "inputs": [
        {
          "indexed": false,
          "name": "previousOwner",
          "type": "address"
        },
        {
          "indexed": false,
          "name": "newOwner",
          "type": "address"
        }
      ],
      "name": "OwnershipTransferred",
      "type": "event"
    },
    {
      "constant": false,
      "inputs": [
        {
          "name": "_winningNumbers",
          "type": "bytes6"
        }
      ],
      "name": "playTheLottery",
      "outputs": [],
      "payable": false,
      "stateMutability": "nonpayable",
      "type": "function"
    },
    {
      "constant": false,
      "inputs": [],
      "name": "playTheLottery",
      "outputs": [],
      "payable": false,
      "stateMutability": "nonpayable",
      "type": "function"
    }
  ],
  "bytecode": "0x60806040526000600f60006101000a81548160ff02191690831515021790555034801561002b57600080fd5b50604051606080613204833981018060405281019080805190602001909291908051906020019092919080519060200190929190505050828282336000806101000a81548173ffffffffffffffffffffffffffffffffffffffff021916908373ffffffffffffffffffffffffffffffffffffffff1602179055506000831115156100b457600080fd5b6000821115156100c357600080fd5b33601060006101000a81548173ffffffffffffffffffffffffffffffffffffffff021916908373ffffffffffffffffffffffffffffffffffffffff1602179055508242016001819055508160028190555080600f60016101000a81548173ffffffffffffffffffffffffffffffffffffffff021916908373ffffffffffffffffffffffffffffffffffffffff16021790555050505050505061309a8061016a6000396000f300608060405260043610610154576000357c0100000000000000000000000000000000000000000000000000000000900463ffffffff168063091b967c146101595780631ddfab6c146101a357806321e0f228146101f557806329dcb0cf1461025a578063347fc718146102855780634051ddac1461031b578063443c208d14610406578063473479c91461048d5780634a78cdba146105125780635ce4a1131461053d578063642e8fef146105d15780636893b9d2146105db57806380fe3007146106705780638b5b9ccc1461070b5780638d443e84146107775780638da5cb5b14610814578063900f46c61461086b5780639113a7b51461090a578063966dae0e14610935578063a319d1431461098c578063a947d050146109a3578063af0b4b27146109d2578063bef6f1b414610a29578063c64facb514610aaf578063f2fde38b14610af2578063f71d96cb14610b35575b600080fd5b34801561016557600080fd5b506101a1600480360381019080803579ffffffffffffffffffffffffffffffffffffffffffffffffffff19169060200190929190505050610ba2565b005b6101f3600480360381019080803579ffffffffffffffffffffffffffffffffffffffffffffffffffff191690602001909291908060c001909192919290806101e001909192919290505050610d66565b005b34801561020157600080fd5b5061020a6110f7565b604051808279ffffffffffffffffffffffffffffffffffffffffffffffffffff191679ffffffffffffffffffffffffffffffffffffffffffffffffffff1916815260200191505060405180910390f35b34801561026657600080fd5b5061026f61112a565b6040518082815260200191505060405180910390f35b34801561029157600080fd5b506102d960048036038101908080357bffffffffffffffffffffffffffffffffffffffffffffffffffffffff1916906020019092919080359060200190929190505050611130565b604051808273ffffffffffffffffffffffffffffffffffffffff1673ffffffffffffffffffffffffffffffffffffffff16815260200191505060405180910390f35b34801561032757600080fd5b5061033061117d565b604051808a8152602001898152602001888152602001878152602001868152602001851515151581526020018473ffffffffffffffffffffffffffffffffffffffff1673ffffffffffffffffffffffffffffffffffffffff1681526020018373ffffffffffffffffffffffffffffffffffffffff1673ffffffffffffffffffffffffffffffffffffffff1681526020018273ffffffffffffffffffffffffffffffffffffffff1673ffffffffffffffffffffffffffffffffffffffff168152602001995050505050505050505060405180910390f35b34801561041257600080fd5b5061047060048036038101908080357bffffffffffffffffffffffffffffffffffffffffffffffffffffffff19169060200190929190803573ffffffffffffffffffffffffffffffffffffffff169060200190929190505050611235565b604051808381526020018281526020019250505060405180910390f35b34801561049957600080fd5b506104f5600480360381019080803579ffffffffffffffffffffffffffffffffffffffffffffffffffff19169060200190929190803573ffffffffffffffffffffffffffffffffffffffff1690602001909291905050506112db565b604051808381526020018281526020019250505060405180910390f35b34801561051e57600080fd5b5061052761137d565b6040518082815260200191505060405180910390f35b34801561054957600080fd5b5061058f600480360381019080803579ffffffffffffffffffffffffffffffffffffffffffffffffffff1916906020019092919080359060200190929190505050611383565b604051808273ffffffffffffffffffffffffffffffffffffffff1673ffffffffffffffffffffffffffffffffffffffff16815260200191505060405180910390f35b6105d96113d0565b005b3480156105e757600080fd5b5061062e60048036038101908080357affffffffffffffffffffffffffffffffffffffffffffffffffffff1916906020019092919080359060200190929190505050611533565b604051808273ffffffffffffffffffffffffffffffffffffffff1673ffffffffffffffffffffffffffffffffffffffff16815260200191505060405180910390f35b34801561067c57600080fd5b506106bb600480360381019080803573ffffffffffffffffffffffffffffffffffffffff16906020019092919080359060200190929190505050611580565b604051808279ffffffffffffffffffffffffffffffffffffffffffffffffffff191679ffffffffffffffffffffffffffffffffffffffffffffffffffff1916815260200191505060405180910390f35b34801561071757600080fd5b506107206115df565b6040518080602001828103825283818151815260200191508051906020019060200280838360005b83811015610763578082015181840152602081019050610748565b505050509050019250505060405180910390f35b34801561078357600080fd5b506107c2600480360381019080803573ffffffffffffffffffffffffffffffffffffffff1690602001909291908035906020019092919050505061166d565b60405180827affffffffffffffffffffffffffffffffffffffffffffffffffffff19167affffffffffffffffffffffffffffffffffffffffffffffffffffff1916815260200191505060405180910390f35b34801561082057600080fd5b506108296116cd565b604051808273ffffffffffffffffffffffffffffffffffffffff1673ffffffffffffffffffffffffffffffffffffffff16815260200191505060405180910390f35b34801561087757600080fd5b506108b6600480360381019080803573ffffffffffffffffffffffffffffffffffffffff169060200190929190803590602001909291905050506116f2565b60405180827bffffffffffffffffffffffffffffffffffffffffffffffffffffffff19167bffffffffffffffffffffffffffffffffffffffffffffffffffffffff1916815260200191505060405180910390f35b34801561091657600080fd5b5061091f611753565b6040518082815260200191505060405180910390f35b34801561094157600080fd5b5061094a611759565b604051808273ffffffffffffffffffffffffffffffffffffffff1673ffffffffffffffffffffffffffffffffffffffff16815260200191505060405180910390f35b34801561099857600080fd5b506109a161177f565b005b3480156109af57600080fd5b506109b8611ab6565b604051808215151515815260200191505060405180910390f35b3480156109de57600080fd5b506109e7611ac9565b604051808273ffffffffffffffffffffffffffffffffffffffff1673ffffffffffffffffffffffffffffffffffffffff16815260200191505060405180910390f35b348015610a3557600080fd5b50610a9260048036038101908080357affffffffffffffffffffffffffffffffffffffffffffffffffffff19169060200190929190803573ffffffffffffffffffffffffffffffffffffffff169060200190929190505050611aef565b604051808381526020018281526020019250505060405180910390f35b348015610abb57600080fd5b50610af0600480360381019080803573ffffffffffffffffffffffffffffffffffffffff169060200190929190505050611b93565b005b348015610afe57600080fd5b50610b33600480360381019080803573ffffffffffffffffffffffffffffffffffffffff169060200190929190505050611e4d565b005b348015610b4157600080fd5b50610b6060048036038101908080359060200190929190505050611fdf565b604051808273ffffffffffffffffffffffffffffffffffffffff1673ffffffffffffffffffffffffffffffffffffffff16815260200191505060405180910390f35b6000606060008042604051808281526020019150506040518091039020935060066040519080825280601f01601f191660200182016040528015610bf55781602001602082028038833980820191505090505b509250600091505b6006821015610d0e576006821415610c1457610d0e565b602d847e010000000000000000000000000000000000000000000000000000000000009004811515610c4257fe5b0690506000811415610c5357602d90505b610c7f817f0100000000000000000000000000000000000000000000000000000000000000028461201d565b8015610c8c575060008114155b15610cfb57807f0100000000000000000000000000000000000000000000000000000000000000028383815181101515610cc257fe5b9060200101907effffffffffffffffffffffffffffffffffffffffffffffffffffffffffffff1916908160001a90535081806001019250505b601084600019169060020a029350610bfd565b610d17836120f4565b9250610d2283612370565b600460000160006101000a81548165ffffffffffff02191690837a010000000000000000000000000000000000000000000000000000900402179055505050505050565b60025434141515610e05576040517f08c379a000000000000000000000000000000000000000000000000000000000815260040180806020018281038252602c8152602001807f76616c7565207265636569766564206973206c657373207468616e207468652081526020017f6c6f747465727956616c7565000000000000000000000000000000000000000081525060400191505060405180910390fd5b60015442101515610e7e576040517f08c379a00000000000000000000000000000000000000000000000000000000081526004018080602001828103825260158152602001807f4c6f7474657279206861732066696e616c697a6564000000000000000000000081525060200191505060405180910390fd5b600f60009054906101000a900460ff16151515610f03576040517f08c379a000000000000000000000000000000000000000000000000000000000815260040180806020018281038252601a8152602001807f4c6f74746572792068617320616c726561647920706c6179656400000000000081525060200191505060405180910390fd5b610f0c83612442565b1515610fa6576040517f08c379a00000000000000000000000000000000000000000000000000000000081526004018080602001828103825260228152602001807f4e6f207265706561746564206e756d6265727320696e7369646520746865206281526020017f657400000000000000000000000000000000000000000000000000000000000081525060400191505060405180910390fd5b610fd58383600680602002604051908101604052809291908260066020028082843782019150505050506125c6565b1515610fe057600080fd5b61100f8382600f806020026040519081016040528092919082600f602002808284378201915050505050612748565b151561101a57600080fd5b6110316002546003546128ca90919063ffffffff16565b600381905550600e3390806001815401808255809150509060018203906000526020600020016000909192909190916101000a81548173ffffffffffffffffffffffffffffffffffffffff021916908373ffffffffffffffffffffffffffffffffffffffff160217905550506110f283836006806020026040519081016040528092919082600660200280828437820191505050505083600f806020026040519081016040528092919082600f6020028082843782019150505050506128e6565b505050565b60048060000160009054906101000a90047a01000000000000000000000000000000000000000000000000000002905081565b60015481565b600d6020528160005260406000208181548110151561114b57fe5b906000526020600020016000915091509054906101000a900473ffffffffffffffffffffffffffffffffffffffff1681565b6000806000806000806000806000600254600154600354600e80549050600e80549050600f60009054906101000a900460ff16600f60019054906101000a900473ffffffffffffffffffffffffffffffffffffffff16601060009054906101000a900473ffffffffffffffffffffffffffffffffffffffff166000809054906101000a900473ffffffffffffffffffffffffffffffffffffffff16985098509850985098509850985098509850909192939495969798565b600080600a60008473ffffffffffffffffffffffffffffffffffffffff1673ffffffffffffffffffffffffffffffffffffffff16815260200190815260200160002080549050600d6000867bffffffffffffffffffffffffffffffffffffffffffffffffffffffff19167bffffffffffffffffffffffffffffffffffffffffffffffffffffffff1916815260200190815260200160002080549050915091509250929050565b600080600860008473ffffffffffffffffffffffffffffffffffffffff1673ffffffffffffffffffffffffffffffffffffffff16815260200190815260200160002080549050600b60008679ffffffffffffffffffffffffffffffffffffffffffffffffffff191679ffffffffffffffffffffffffffffffffffffffffffffffffffff1916815260200190815260200160002080549050915091509250929050565b60035481565b600b6020528160005260406000208181548110151561139e57fe5b906000526020600020016000915091509054906101000a900473ffffffffffffffffffffffffffffffffffffffff1681565b600f60009054906101000a900460ff16151515611455576040517f08c379a000000000000000000000000000000000000000000000000000000000815260040180806020018281038252601c8152602001807f6c6f747465727920686173207374696c6c206e6f7420706c617965640000000081525060200191505060405180910390fd5b426001541115156114ce576040517f08c379a00000000000000000000000000000000000000000000000000000000081526004018080602001828103825260108152602001807f646561646c696e65206973206f7665720000000000000000000000000000000081525060200191505060405180910390fd5b6000341115156114dd57600080fd5b6114f2346003546128ca90919063ffffffff16565b6003819055507fc2c48fe60b23268064613cbca1898c1871bae36909b3f33467dd82c6fe2cb2e36003546040518082815260200191505060405180910390a1565b600c6020528160005260406000208181548110151561154e57fe5b906000526020600020016000915091509054906101000a900473ffffffffffffffffffffffffffffffffffffffff1681565b60086020528160005260406000208181548110151561159b57fe5b9060005260206000209060059182820401919006600602915091509054906101000a90047a0100000000000000000000000000000000000000000000000000000281565b6060600e80548060200260200160405190810160405280929190818152602001828054801561166357602002820191906000526020600020905b8160009054906101000a900473ffffffffffffffffffffffffffffffffffffffff1673ffffffffffffffffffffffffffffffffffffffff1681526020019060010190808311611619575b5050505050905090565b60096020528160005260406000208181548110151561168857fe5b9060005260206000209060069182820401919006600502915091509054906101000a90047b010000000000000000000000000000000000000000000000000000000281565b6000809054906101000a900473ffffffffffffffffffffffffffffffffffffffff1681565b600a6020528160005260406000208181548110151561170d57fe5b9060005260206000209060089182820401919006600402915091509054906101000a90047c01000000000000000000000000000000000000000000000000000000000281565b60025481565b601060009054906101000a900473ffffffffffffffffffffffffffffffffffffffff1681565b600060606000806000809054906101000a900473ffffffffffffffffffffffffffffffffffffffff1673ffffffffffffffffffffffffffffffffffffffff163373ffffffffffffffffffffffffffffffffffffffff161415156117e157600080fd5b4260015411151561185a576040517f08c379a00000000000000000000000000000000000000000000000000000000081526004018080602001828103825260178152602001807f646561646c696e652068617320746f206265206f76657200000000000000000081525060200191505060405180910390fd5b600f60009054906101000a900460ff161515156118df576040517f08c379a00000000000000000000000000000000000000000000000000000000081526004018080602001828103825260128152602001807f6c6f74746572792068617320706c61796564000000000000000000000000000081525060200191505060405180910390fd5b6001600f60006101000a81548160ff02191690831515021790555042604051808281526020019150506040518091039020935060066040519080825280601f01601f1916602001820160405280156119465781602001602082028038833980820191505090505b509250600091505b6006821015611a5f57600682141561196557611a5f565b602d847e01000000000000000000000000000000000000000000000000000000000000900481151561199357fe5b06905060008114156119a457602d90505b6119d0817f0100000000000000000000000000000000000000000000000000000000000000028461201d565b80156119dd575060008114155b15611a4c57807f0100000000000000000000000000000000000000000000000000000000000000028383815181101515611a1357fe5b9060200101907effffffffffffffffffffffffffffffffffffffffffffffffffffffffffffff1916908160001a90535081806001019250505b601084600019169060020a02935061194e565b611a68836120f4565b9250611a7383612370565b600460000160006101000a81548165ffffffffffff02191690837a0100000000000000000000000000000000000000000000000000009004021790555050505050565b600f60009054906101000a900460ff1681565b600f60019054906101000a900473ffffffffffffffffffffffffffffffffffffffff1681565b600080600960008473ffffffffffffffffffffffffffffffffffffffff1673ffffffffffffffffffffffffffffffffffffffff16815260200190815260200160002080549050600c6000867affffffffffffffffffffffffffffffffffffffffffffffffffffff19167affffffffffffffffffffffffffffffffffffffffffffffffffffff1916815260200190815260200160002080549050915091509250929050565b600080601060009054906101000a900473ffffffffffffffffffffffffffffffffffffffff1673ffffffffffffffffffffffffffffffffffffffff163373ffffffffffffffffffffffffffffffffffffffff16141515611bf257600080fd5b6000600354111515611c6c576040517f08c379a000000000000000000000000000000000000000000000000000000000815260040180806020018281038252601d8152602001807f4a61636b706f7420736f68756c64206265206d6f7265207468616e203000000081525060200191505060405180910390fd5b600f60009054906101000a900460ff161515611cf0576040517f08c379a00000000000000000000000000000000000000000000000000000000081526004018080602001828103825260128152602001807f6c6f74746572792068617320706c61796564000000000000000000000000000081525060200191505060405180910390fd5b600073ffffffffffffffffffffffffffffffffffffffff168373ffffffffffffffffffffffffffffffffffffffff1614151515611dbb576040517f08c379a00000000000000000000000000000000000000000000000000000000081526004018080602001828103825260238152602001807f6e6577206c6f747465727920616464726573732073686f756c64206e6f74206281526020017f652030000000000000000000000000000000000000000000000000000000000081525060400191505060405180910390fd5b600354915060006003819055508290508073ffffffffffffffffffffffffffffffffffffffff1663642e8fef836040518263ffffffff167c01000000000000000000000000000000000000000000000000000000000281526004016000604051808303818588803b158015611e2f57600080fd5b505af1158015611e43573d6000803e3d6000fd5b5050505050505050565b6000809054906101000a900473ffffffffffffffffffffffffffffffffffffffff1673ffffffffffffffffffffffffffffffffffffffff163373ffffffffffffffffffffffffffffffffffffffff16141515611ea857600080fd5b600073ffffffffffffffffffffffffffffffffffffffff168173ffffffffffffffffffffffffffffffffffffffff1614151515611ee457600080fd5b7f8be0079c531659141344cd1fd0a4f28419497f9722a3daafe3b4186f6b6457e06000809054906101000a900473ffffffffffffffffffffffffffffffffffffffff1682604051808373ffffffffffffffffffffffffffffffffffffffff1673ffffffffffffffffffffffffffffffffffffffff1681526020018273ffffffffffffffffffffffffffffffffffffffff1673ffffffffffffffffffffffffffffffffffffffff1681526020019250505060405180910390a1806000806101000a81548173ffffffffffffffffffffffffffffffffffffffff021916908373ffffffffffffffffffffffffffffffffffffffff16021790555050565b600e81815481101515611fee57fe5b906000526020600020016000915054906101000a900473ffffffffffffffffffffffffffffffffffffffff1681565b600080600090505b82518110156120e857828181518110151561203c57fe5b9060200101517f010000000000000000000000000000000000000000000000000000000000000090047f0100000000000000000000000000000000000000000000000000000000000000027effffffffffffffffffffffffffffffffffffffffffffffffffffffffffffff1916847effffffffffffffffffffffffffffffffffffffffffffffffffffffffffffff191614156120db57600091506120ed565b8080600101915050612025565b600191505b5092915050565b606060008060008085519350600092505b83831015612364576001830191505b8382101561235757858281518110151561212a57fe5b9060200101517f010000000000000000000000000000000000000000000000000000000000000090047f0100000000000000000000000000000000000000000000000000000000000000027effffffffffffffffffffffffffffffffffffffffffffffffffffffffffffff191686848151811015156121a557fe5b9060200101517f010000000000000000000000000000000000000000000000000000000000000090047f0100000000000000000000000000000000000000000000000000000000000000027effffffffffffffffffffffffffffffffffffffffffffffffffffffffffffff1916111561234a57858381518110151561222657fe5b9060200101517f010000000000000000000000000000000000000000000000000000000000000090047f0100000000000000000000000000000000000000000000000000000000000000029050858281518110151561228157fe5b9060200101517f010000000000000000000000000000000000000000000000000000000000000090047f01000000000000000000000000000000000000000000000000000000000000000286848151811015156122da57fe5b9060200101907effffffffffffffffffffffffffffffffffffffffffffffffffffffffffffff1916908160001a90535080868381518110151561231957fe5b9060200101907effffffffffffffffffffffffffffffffffffffffffffffffffffffffffffff1916908160001a9053505b8180600101925050612114565b8280600101935050612105565b85945050505050919050565b60008060008091505b835182101561243b57838281518110151561239057fe5b9060200101517f010000000000000000000000000000000000000000000000000000000000000090047f0100000000000000000000000000000000000000000000000000000000000000027effffffffffffffffffffffffffffffffffffffffffffffffffffffffffffff19169050816008028179ffffffffffffffffffffffffffffffffffffffffffffffffffff19169060020a9004905080831792508180600101925050612379565b5050919050565b60008060008060068060ff1614151561245e57600093506125be565b600092505b600660ff168310156125b957848360068110151561247d57fe5b1a7f01000000000000000000000000000000000000000000000000000000000000000291506000827f010000000000000000000000000000000000000000000000000000000000000090041115806124f85750602d827f01000000000000000000000000000000000000000000000000000000000000009004115b1561250657600093506125be565b6001830190505b600660ff168110156125ac57848160068110151561252757fe5b1a7f0100000000000000000000000000000000000000000000000000000000000000027effffffffffffffffffffffffffffffffffffffffffffffffffffffffffffff1916827effffffffffffffffffffffffffffffffffffffffffffffffffffffffffffff191610151561259f57600093506125be565b808060010191505061250d565b8280600101935050612463565b600193505b505050919050565b6000806000806000806000806000809750600096505b60068710156127335789876006811015156125f357fe5b6020020151955061260386612d66565b1515612612576000985061273a565b6000945060009350600092505b600560ff1683101561271457858360058110151561263957fe5b1a7f01000000000000000000000000000000000000000000000000000000000000000291508490505b600660ff1681101561270757817effffffffffffffffffffffffffffffffffffffffffffffffffffffffffffff19168b8260068110151561269f57fe5b1a7f0100000000000000000000000000000000000000000000000000000000000000027effffffffffffffffffffffffffffffffffffffffffffffffffffffffffffff191614156126fa578094508380600101945050612707565b8080600101915050612662565b828060010193505061261f565b60058414156127265787806001019850505b86806001019750506125dc565b6006881498505b505050505050505092915050565b6000806000806000806000806000809750600096505b600f8710156128b5578987600f8110151561277557fe5b6020020151955061278586612eea565b151561279457600098506128bc565b6000945060009350600092505b600460ff168310156128965785836004811015156127bb57fe5b1a7f01000000000000000000000000000000000000000000000000000000000000000291508490505b600660ff1681101561288957817effffffffffffffffffffffffffffffffffffffffffffffffffffffffffffff19168b8260068110151561282157fe5b1a7f0100000000000000000000000000000000000000000000000000000000000000027effffffffffffffffffffffffffffffffffffffffffffffffffffffffffffff1916141561287c578094508380600101945050612889565b80806001019150506127e4565b82806001019350506127a1565b60048414156128a85787806001019850505b868060010197505061275e565b600f881498505b505050505050505092915050565b600081830190508281101515156128dd57fe5b80905092915050565b600080600080600860003373ffffffffffffffffffffffffffffffffffffffff1673ffffffffffffffffffffffffffffffffffffffff16815260200190815260200160002087908060018154018082558091505090600182039060005260206000209060059182820401919006600602909192909190916101000a81548165ffffffffffff02191690837a0100000000000000000000000000000000000000000000000000009004021790555050600b60008879ffffffffffffffffffffffffffffffffffffffffffffffffffff191679ffffffffffffffffffffffffffffffffffffffffffffffffffff191681526020019081526020016000203390806001815401808255809150509060018203906000526020600020016000909192909190916101000a81548173ffffffffffffffffffffffffffffffffffffffff021916908373ffffffffffffffffffffffffffffffffffffffff16021790555050600093505b6006841015612bd0578584600681101515612a6157fe5b60200201519250600960003373ffffffffffffffffffffffffffffffffffffffff1673ffffffffffffffffffffffffffffffffffffffff16815260200190815260200160002083908060018154018082558091505090600182039060005260206000209060069182820401919006600502909192909190916101000a81548164ffffffffff02191690837b010000000000000000000000000000000000000000000000000000009004021790555050600c6000847affffffffffffffffffffffffffffffffffffffffffffffffffffff19167affffffffffffffffffffffffffffffffffffffffffffffffffffff191681526020019081526020016000203390806001815401808255809150509060018203906000526020600020016000909192909190916101000a81548173ffffffffffffffffffffffffffffffffffffffff021916908373ffffffffffffffffffffffffffffffffffffffff160217905550508380600101945050612a4a565b600091505b600f821015612d5d578482600f81101515612bec57fe5b60200201519050600a60003373ffffffffffffffffffffffffffffffffffffffff1673ffffffffffffffffffffffffffffffffffffffff16815260200190815260200160002081908060018154018082558091505090600182039060005260206000209060089182820401919006600402909192909190916101000a81548163ffffffff02191690837c01000000000000000000000000000000000000000000000000000000009004021790555050600d6000827bffffffffffffffffffffffffffffffffffffffffffffffffffffffff19167bffffffffffffffffffffffffffffffffffffffffffffffffffffffff191681526020019081526020016000203390806001815401808255809150509060018203906000526020600020016000909192909190916101000a81548173ffffffffffffffffffffffffffffffffffffffff021916908373ffffffffffffffffffffffffffffffffffffffff160217905550508180600101925050612bd5565b50505050505050565b60008060008060058060ff16141515612d825760009350612ee2565b600092505b600560ff16831015612edd578483600581101515612da157fe5b1a7f01000000000000000000000000000000000000000000000000000000000000000291506000827f01000000000000000000000000000000000000000000000000000000000000009004111580612e1c5750602d827f01000000000000000000000000000000000000000000000000000000000000009004115b15612e2a5760009350612ee2565b6001830190505b600560ff16811015612ed0578481600581101515612e4b57fe5b1a7f0100000000000000000000000000000000000000000000000000000000000000027effffffffffffffffffffffffffffffffffffffffffffffffffffffffffffff1916827effffffffffffffffffffffffffffffffffffffffffffffffffffffffffffff1916101515612ec35760009350612ee2565b8080600101915050612e31565b8280600101935050612d87565b600193505b505050919050565b60008060008060048060ff16141515612f065760009350613066565b600092505b600460ff16831015613061578483600481101515612f2557fe5b1a7f01000000000000000000000000000000000000000000000000000000000000000291506000827f01000000000000000000000000000000000000000000000000000000000000009004111580612fa05750602d827f01000000000000000000000000000000000000000000000000000000000000009004115b15612fae5760009350613066565b6001830190505b600460ff16811015613054578481600481101515612fcf57fe5b1a7f0100000000000000000000000000000000000000000000000000000000000000027effffffffffffffffffffffffffffffffffffffffffffffffffffffffffffff1916827effffffffffffffffffffffffffffffffffffffffffffffffffffffffffffff19161015156130475760009350613066565b8080600101915050612fb5565b8280600101935050612f0b565b600193505b5050509190505600a165627a7a72305820e4eb0ac63326bfc092ceac66cf1902ebc1136f50d28a105fd942e40e9d1d24230029",
  "source": "pragma solidity ^0.4.23;\r\n\r\nimport \"../Lottery.sol\";\r\n\r\ncontract LotteryMock is Lottery {\r\n\r\n    constructor(uint256 _duration, uint256 _lotteryValue, address _lastLotteryAddress) public \r\n    Lottery(_duration,  _lotteryValue,  _lastLotteryAddress){\r\n        \r\n    }\r\n\r\n    function playTheLottery(bytes6 _winningNumbers) external {\r\n        bytes32 random = keccak256(now);        \r\n        bytes memory _number6 = new bytes(6);\r\n        uint256 size = 0;\r\n        while(size < 6){\r\n            if(size==6) break;\r\n            uint256 pair = uint256(bytes2(random)) % 45;\r\n            if(pair == 0) pair = 45;\r\n            if(_isNotRepeated(bytes1(pair), _number6) && pair != 0){\r\n                _number6[size] = bytes1(pair);\r\n                size++;\r\n            } \r\n            random = random << 16;\r\n        }\r\n        _number6 = _sortArray(_number6);\r\n        winningNumbers.winningNumber = convertBytesToBytes6(_number6);\r\n        //WinningNumbers.winningNumbers5 = setCombinations5();\r\n        //WinningNumbers.winningNumbers4 = setCombinations4(); \r\n    }\r\n\r\n    function _isNotRepeated(bytes1 _pair, bytes memory _number6) private pure returns(bool) {\r\n        for(uint256 i = 0; i < _number6.length; i++){\r\n            if(_pair == _number6[i]) return false;\r\n        }\r\n        return true;\r\n    }\r\n\r\n    function _sortArray(bytes memory _number6) private pure returns (bytes) {\r\n        uint256 l = _number6.length;\r\n        for(uint256 i = 0; i < l; i++) {\r\n            for(uint256 j = i+1; j < l ;j++) {\r\n                if(_number6[i] > _number6[j]) {\r\n                    bytes1 temp = _number6[i];\r\n                    _number6[i] = _number6[j];\r\n                    _number6[j] = temp;\r\n                }\r\n            }\r\n        }\r\n        return _number6;\r\n    }\r\n\r\n    function convertBytesToBytes6(bytes memory _number6) private pure returns (bytes6 outBytes6) {\r\n        for (uint256 i = 0; i < _number6.length; i++) {\r\n            bytes6 tempBytes6 = _number6[i];\r\n            tempBytes6 = tempBytes6 >> (8 * i);\r\n            outBytes6 = outBytes6 | tempBytes6;\r\n        }\r\n    }\r\n}",
  "sourcePath": "E:\\Ethereum\\Worldpay\\lottery-contract\\ethereum\\contracts\\mocks\\LotteryMock.sol",
  "compiler": {
    "name": "solc",
    "version": "0.4.23+commit.124ca40d.Emscripten.clang"
  },
  "schemaVersion": "2.0.0",
  "updatedAt": "2018-06-05T03:38:00.657Z"
}