{
  "contractName": "Lottery",
  "abi": [
    {
      "constant": true,
      "inputs": [],
      "name": "winningNumbers",
      "outputs": [
        {
          "name": "winningNumber",
          "type": "bytes4"
        }
      ],
      "payable": false,
      "stateMutability": "view",
      "type": "function"
    },
    {
      "constant": true,
      "inputs": [],
      "name": "finalJackPot",
      "outputs": [
        {
          "name": "",
          "type": "uint256"
        }
      ],
      "payable": false,
      "stateMutability": "view",
      "type": "function"
    },
    {
      "constant": true,
      "inputs": [],
      "name": "deadline",
      "outputs": [
        {
          "name": "",
          "type": "uint256"
        }
      ],
      "payable": false,
      "stateMutability": "view",
      "type": "function"
    },
    {
      "constant": true,
      "inputs": [
        {
          "name": "",
          "type": "bytes4"
        },
        {
          "name": "",
          "type": "uint256"
        }
      ],
      "name": "numbers4",
      "outputs": [
        {
          "name": "",
          "type": "address"
        }
      ],
      "payable": false,
      "stateMutability": "view",
      "type": "function"
    },
    {
      "constant": true,
      "inputs": [
        {
          "name": "",
          "type": "address"
        }
      ],
      "name": "winnersAllocation",
      "outputs": [
        {
          "name": "",
          "type": "uint256"
        }
      ],
      "payable": false,
      "stateMutability": "view",
      "type": "function"
    },
    {
      "constant": true,
      "inputs": [],
      "name": "jackPot",
      "outputs": [
        {
          "name": "",
          "type": "uint256"
        }
      ],
      "payable": false,
      "stateMutability": "view",
      "type": "function"
    },
    {
      "constant": true,
      "inputs": [
        {
          "name": "",
          "type": "address"
        },
        {
          "name": "",
          "type": "uint256"
        }
      ],
      "name": "playerNumbers3",
      "outputs": [
        {
          "name": "",
          "type": "bytes3"
        }
      ],
      "payable": false,
      "stateMutability": "view",
      "type": "function"
    },
    {
      "constant": true,
      "inputs": [],
      "name": "timeStarted",
      "outputs": [
        {
          "name": "",
          "type": "uint256"
        }
      ],
      "payable": false,
      "stateMutability": "view",
      "type": "function"
    },
    {
      "constant": true,
      "inputs": [],
      "name": "owner",
      "outputs": [
        {
          "name": "",
          "type": "address"
        }
      ],
      "payable": false,
      "stateMutability": "view",
      "type": "function"
    },
    {
      "constant": true,
      "inputs": [
        {
          "name": "",
          "type": "address"
        },
        {
          "name": "",
          "type": "uint256"
        }
      ],
      "name": "playerNumbers4",
      "outputs": [
        {
          "name": "",
          "type": "bytes4"
        }
      ],
      "payable": false,
      "stateMutability": "view",
      "type": "function"
    },
    {
      "constant": true,
      "inputs": [],
      "name": "lotteryValue",
      "outputs": [
        {
          "name": "",
          "type": "uint256"
        }
      ],
      "payable": false,
      "stateMutability": "view",
      "type": "function"
    },
    {
      "constant": true,
      "inputs": [],
      "name": "factoryAddress",
      "outputs": [
        {
          "name": "",
          "type": "address"
        }
      ],
      "payable": false,
      "stateMutability": "view",
      "type": "function"
    },
    {
      "constant": true,
      "inputs": [
        {
          "name": "",
          "type": "uint256"
        }
      ],
      "name": "winners",
      "outputs": [
        {
          "name": "",
          "type": "address"
        }
      ],
      "payable": false,
      "stateMutability": "view",
      "type": "function"
    },
    {
      "constant": true,
      "inputs": [],
      "name": "lotteryHasPlayed",
      "outputs": [
        {
          "name": "",
          "type": "bool"
        }
      ],
      "payable": false,
      "stateMutability": "view",
      "type": "function"
    },
    {
      "constant": true,
      "inputs": [],
      "name": "lastLottery",
      "outputs": [
        {
          "name": "",
          "type": "address"
        }
      ],
      "payable": false,
      "stateMutability": "view",
      "type": "function"
    },
    {
      "constant": true,
      "inputs": [
        {
          "name": "",
          "type": "bytes3"
        },
        {
          "name": "",
          "type": "uint256"
        }
      ],
      "name": "numbers3",
      "outputs": [
        {
          "name": "",
          "type": "address"
        }
      ],
      "payable": false,
      "stateMutability": "view",
      "type": "function"
    },
    {
      "constant": true,
      "inputs": [],
      "name": "winnersPaid",
      "outputs": [
        {
          "name": "",
          "type": "bool"
        }
      ],
      "payable": false,
      "stateMutability": "view",
      "type": "function"
    },
    {
      "constant": true,
      "inputs": [],
      "name": "prize",
      "outputs": [
        {
          "name": "",
          "type": "uint256"
        }
      ],
      "payable": false,
      "stateMutability": "view",
      "type": "function"
    },
    {
      "constant": false,
      "inputs": [
        {
          "name": "newOwner",
          "type": "address"
        }
      ],
      "name": "transferOwnership",
      "outputs": [],
      "payable": false,
      "stateMutability": "nonpayable",
      "type": "function"
    },
    {
      "constant": true,
      "inputs": [
        {
          "name": "",
          "type": "uint256"
        }
      ],
      "name": "players",
      "outputs": [
        {
          "name": "",
          "type": "address"
        }
      ],
      "payable": false,
      "stateMutability": "view",
      "type": "function"
    },
    {
      "inputs": [
        {
          "name": "_duration",
          "type": "uint256"
        },
        {
          "name": "_lotteryValue",
          "type": "uint256"
        },
        {
          "name": "_lastLotteryAddress",
          "type": "address"
        }
      ],
      "payable": false,
      "stateMutability": "nonpayable",
      "type": "constructor"
    },
    {
      "anonymous": false,
      "inputs": [
        {
          "indexed": false,
          "name": "value",
          "type": "uint256"
        }
      ],
      "name": "TransferJackPot",
      "type": "event"
    },
    {
      "anonymous": false,
      "inputs": [
        {
          "indexed": true,
          "name": "buyer",
          "type": "address"
        },
        {
          "indexed": false,
          "name": "jackPot",
          "type": "uint256"
        },
        {
          "indexed": false,
          "name": "numOfPlayers",
          "type": "uint256"
        }
      ],
      "name": "TicketBuy",
      "type": "event"
    },
    {
      "anonymous": false,
      "inputs": [
        {
          "indexed": false,
          "name": "numOfWinners",
          "type": "uint256"
        },
        {
          "indexed": false,
          "name": "prize",
          "type": "uint256"
        },
        {
          "indexed": false,
          "name": "winningNumber",
          "type": "bytes4"
        },
        {
          "indexed": false,
          "name": "finalJackPot",
          "type": "uint256"
        }
      ],
      "name": "LotteryHasPlayed",
      "type": "event"
    },
    {
      "anonymous": false,
      "inputs": [],
      "name": "WinnersPaid",
      "type": "event"
    },
    {
      "anonymous": false,
      "inputs": [
        {
          "indexed": false,
          "name": "previousOwner",
          "type": "address"
        },
        {
          "indexed": false,
          "name": "newOwner",
          "type": "address"
        }
      ],
      "name": "OwnershipTransferred",
      "type": "event"
    },
    {
      "constant": false,
      "inputs": [
        {
          "name": "_number4",
          "type": "bytes4"
        },
        {
          "name": "_numbers3",
          "type": "bytes3[4]"
        }
      ],
      "name": "enter",
      "outputs": [],
      "payable": true,
      "stateMutability": "payable",
      "type": "function"
    },
    {
      "constant": false,
      "inputs": [],
      "name": "addJackPot",
      "outputs": [],
      "payable": true,
      "stateMutability": "payable",
      "type": "function"
    },
    {
      "constant": false,
      "inputs": [],
      "name": "playTheLottery",
      "outputs": [],
      "payable": false,
      "stateMutability": "nonpayable",
      "type": "function"
    },
    {
      "constant": false,
      "inputs": [],
      "name": "payWinners",
      "outputs": [],
      "payable": false,
      "stateMutability": "nonpayable",
      "type": "function"
    },
    {
      "constant": false,
      "inputs": [
        {
          "name": "_newLottery",
          "type": "address"
        }
      ],
      "name": "transferJackPot",
      "outputs": [],
      "payable": false,
      "stateMutability": "nonpayable",
      "type": "function"
    },
    {
      "constant": true,
      "inputs": [],
      "name": "getPlayers",
      "outputs": [
        {
          "name": "",
          "type": "address[]"
        }
      ],
      "payable": false,
      "stateMutability": "view",
      "type": "function"
    },
    {
      "constant": true,
      "inputs": [],
      "name": "getSummary",
      "outputs": [
        {
          "name": "",
          "type": "uint256"
        },
        {
          "name": "",
          "type": "uint256"
        },
        {
          "name": "",
          "type": "uint256"
        },
        {
          "name": "",
          "type": "uint256"
        },
        {
          "name": "",
          "type": "uint256"
        },
        {
          "name": "",
          "type": "uint256"
        },
        {
          "name": "",
          "type": "uint256"
        },
        {
          "name": "",
          "type": "bool"
        },
        {
          "name": "",
          "type": "address"
        },
        {
          "name": "",
          "type": "address"
        },
        {
          "name": "",
          "type": "address"
        },
        {
          "name": "",
          "type": "bytes4"
        },
        {
          "name": "",
          "type": "uint256"
        },
        {
          "name": "",
          "type": "bool"
        }
      ],
      "payable": false,
      "stateMutability": "view",
      "type": "function"
    },
    {
      "constant": true,
      "inputs": [],
      "name": "getWinningNumbers",
      "outputs": [
        {
          "name": "",
          "type": "bytes4"
        },
        {
          "name": "",
          "type": "bytes3"
        },
        {
          "name": "",
          "type": "bytes3"
        },
        {
          "name": "",
          "type": "bytes3"
        },
        {
          "name": "",
          "type": "bytes3"
        }
      ],
      "payable": false,
      "stateMutability": "view",
      "type": "function"
    },
    {
      "constant": true,
      "inputs": [],
      "name": "getNumbers4ByPlayer",
      "outputs": [
        {
          "name": "",
          "type": "bytes4[]"
        }
      ],
      "payable": false,
      "stateMutability": "view",
      "type": "function"
    },
    {
      "constant": true,
      "inputs": [],
      "name": "getNumbers3ByPlayer",
      "outputs": [
        {
          "name": "",
          "type": "bytes3[]"
        }
      ],
      "payable": false,
      "stateMutability": "view",
      "type": "function"
    },
    {
      "constant": true,
      "inputs": [
        {
          "name": "_number",
          "type": "bytes4"
        }
      ],
      "name": "getPlayersByNumber4",
      "outputs": [
        {
          "name": "",
          "type": "address[]"
        }
      ],
      "payable": false,
      "stateMutability": "view",
      "type": "function"
    },
    {
      "constant": true,
      "inputs": [
        {
          "name": "_number3",
          "type": "bytes3"
        }
      ],
      "name": "getPlayersByNumber3",
      "outputs": [
        {
          "name": "",
          "type": "address[]"
        }
      ],
      "payable": false,
      "stateMutability": "view",
      "type": "function"
    }
  ],
  "bytecode": "0x608060405234801561001057600080fd5b5060405160608062003f62833981018060405281019080805190602001909291908051906020019092919080519060200190929190505050336000806101000a81548173ffffffffffffffffffffffffffffffffffffffff021916908373ffffffffffffffffffffffffffffffffffffffff16021790555060008311151561009757600080fd5b6000821115156100a657600080fd5b33601160006101000a81548173ffffffffffffffffffffffffffffffffffffffff021916908373ffffffffffffffffffffffffffffffffffffffff1602179055508242016001819055508160028190555080601060026101000a81548173ffffffffffffffffffffffffffffffffffffffff021916908373ffffffffffffffffffffffffffffffffffffffff16021790555042600681905550505050613e1080620001526000396000f300608060405260043610610196576000357c0100000000000000000000000000000000000000000000000000000000900463ffffffff16806321e0f2281461019b578063284355061461020457806329dcb0cf1461022f578063347fc7181461025a5780634051ddac146102f057806347f234c9146104405780634a78cdba146104975780634c39775e146104c25780635337448e14610564578063558f38531461057b57806360de93ab146105e7578063638f657514610688578063642e8fef146106b357806384350e1d146106bd5780638b5b9ccc146108425780638da5cb5b146108ae578063900f46c6146109055780639113a7b5146109a4578063966dae0e146109cf578063a0b29f7e14610a26578063a2fb117514610a6f578063a319d14314610adc578063a947d05014610af3578063af0b4b2714610b22578063aff9d40714610b79578063c64facb514610c10578063cdbddca014610c53578063da9cdb3014610cbf578063e3ac5d2614610cee578063f2fde38b14610d19578063f5256f3b14610d5c578063f71d96cb14610dfd575b600080fd5b3480156101a757600080fd5b506101b0610e6a565b60405180827bffffffffffffffffffffffffffffffffffffffffffffffffffffffff19167bffffffffffffffffffffffffffffffffffffffffffffffffffffffff1916815260200191505060405180910390f35b34801561021057600080fd5b50610219610e9f565b6040518082815260200191505060405180910390f35b34801561023b57600080fd5b50610244610ea5565b6040518082815260200191505060405180910390f35b34801561026657600080fd5b506102ae60048036038101908080357bffffffffffffffffffffffffffffffffffffffffffffffffffffffff1916906020019092919080359060200190929190505050610eab565b604051808273ffffffffffffffffffffffffffffffffffffffff1673ffffffffffffffffffffffffffffffffffffffff16815260200191505060405180910390f35b3480156102fc57600080fd5b50610305610ef8565b604051808f81526020018e81526020018d81526020018c81526020018b81526020018a8152602001898152602001881515151581526020018773ffffffffffffffffffffffffffffffffffffffff1673ffffffffffffffffffffffffffffffffffffffff1681526020018673ffffffffffffffffffffffffffffffffffffffff1673ffffffffffffffffffffffffffffffffffffffff1681526020018573ffffffffffffffffffffffffffffffffffffffff1673ffffffffffffffffffffffffffffffffffffffff168152602001847bffffffffffffffffffffffffffffffffffffffffffffffffffffffff19167bffffffffffffffffffffffffffffffffffffffffffffffffffffffff19168152602001838152602001821515151581526020019e50505050505050505050505050505060405180910390f35b34801561044c57600080fd5b50610481600480360381019080803573ffffffffffffffffffffffffffffffffffffffff16906020019092919050505061100e565b6040518082815260200191505060405180910390f35b3480156104a357600080fd5b506104ac611026565b6040518082815260200191505060405180910390f35b3480156104ce57600080fd5b5061050d60048036038101908080357cffffffffffffffffffffffffffffffffffffffffffffffffffffffffff1916906020019092919050505061102c565b6040518080602001828103825283818151815260200191508051906020019060200280838360005b83811015610550578082015181840152602081019050610535565b505050509050019250505060405180910390f35b34801561057057600080fd5b5061057961110d565b005b34801561058757600080fd5b50610590611341565b6040518080602001828103825283818151815260200191508051906020019060200280838360005b838110156105d35780820151818401526020810190506105b8565b505050509050019250505060405180910390f35b3480156105f357600080fd5b50610632600480360381019080803573ffffffffffffffffffffffffffffffffffffffff16906020019092919080359060200190929190505050611434565b60405180827cffffffffffffffffffffffffffffffffffffffffffffffffffffffffff19167cffffffffffffffffffffffffffffffffffffffffffffffffffffffffff1916815260200191505060405180910390f35b34801561069457600080fd5b5061069d611496565b6040518082815260200191505060405180910390f35b6106bb61149c565b005b3480156106c957600080fd5b506106d26115ff565b60405180867bffffffffffffffffffffffffffffffffffffffffffffffffffffffff19167bffffffffffffffffffffffffffffffffffffffffffffffffffffffff19168152602001857cffffffffffffffffffffffffffffffffffffffffffffffffffffffffff19167cffffffffffffffffffffffffffffffffffffffffffffffffffffffffff19168152602001847cffffffffffffffffffffffffffffffffffffffffffffffffffffffffff19167cffffffffffffffffffffffffffffffffffffffffffffffffffffffffff19168152602001837cffffffffffffffffffffffffffffffffffffffffffffffffffffffffff19167cffffffffffffffffffffffffffffffffffffffffffffffffffffffffff19168152602001827cffffffffffffffffffffffffffffffffffffffffffffffffffffffffff19167cffffffffffffffffffffffffffffffffffffffffffffffffffffffffff191681526020019550505050505060405180910390f35b34801561084e57600080fd5b5061085761176b565b6040518080602001828103825283818151815260200191508051906020019060200280838360005b8381101561089a57808201518184015260208101905061087f565b505050509050019250505060405180910390f35b3480156108ba57600080fd5b506108c36117f9565b604051808273ffffffffffffffffffffffffffffffffffffffff1673ffffffffffffffffffffffffffffffffffffffff16815260200191505060405180910390f35b34801561091157600080fd5b50610950600480360381019080803573ffffffffffffffffffffffffffffffffffffffff1690602001909291908035906020019092919050505061181e565b60405180827bffffffffffffffffffffffffffffffffffffffffffffffffffffffff19167bffffffffffffffffffffffffffffffffffffffffffffffffffffffff1916815260200191505060405180910390f35b3480156109b057600080fd5b506109b961187f565b6040518082815260200191505060405180910390f35b3480156109db57600080fd5b506109e4611885565b604051808273ffffffffffffffffffffffffffffffffffffffff1673ffffffffffffffffffffffffffffffffffffffff16815260200191505060405180910390f35b610a6d60048036038101908080357bffffffffffffffffffffffffffffffffffffffffffffffffffffffff19169060200190929190806080019091929192905050506118ab565b005b348015610a7b57600080fd5b50610a9a60048036038101908080359060200190929190505050611c7f565b604051808273ffffffffffffffffffffffffffffffffffffffff1673ffffffffffffffffffffffffffffffffffffffff16815260200191505060405180910390f35b348015610ae857600080fd5b50610af1611cbd565b005b348015610aff57600080fd5b50610b08612042565b604051808215151515815260200191505060405180910390f35b348015610b2e57600080fd5b50610b37612055565b604051808273ffffffffffffffffffffffffffffffffffffffff1673ffffffffffffffffffffffffffffffffffffffff16815260200191505060405180910390f35b348015610b8557600080fd5b50610bce60048036038101908080357cffffffffffffffffffffffffffffffffffffffffffffffffffffffffff191690602001909291908035906020019092919050505061207b565b604051808273ffffffffffffffffffffffffffffffffffffffff1673ffffffffffffffffffffffffffffffffffffffff16815260200191505060405180910390f35b348015610c1c57600080fd5b50610c51600480360381019080803573ffffffffffffffffffffffffffffffffffffffff1690602001909291905050506120c8565b005b348015610c5f57600080fd5b50610c68612382565b6040518080602001828103825283818151815260200191508051906020019060200280838360005b83811015610cab578082015181840152602081019050610c90565b505050509050019250505060405180910390f35b348015610ccb57600080fd5b50610cd4612477565b604051808215151515815260200191505060405180910390f35b348015610cfa57600080fd5b50610d0361248a565b6040518082815260200191505060405180910390f35b348015610d2557600080fd5b50610d5a600480360381019080803573ffffffffffffffffffffffffffffffffffffffff169060200190929190505050612490565b005b348015610d6857600080fd5b50610da660048036038101908080357bffffffffffffffffffffffffffffffffffffffffffffffffffffffff19169060200190929190505050612622565b6040518080602001828103825283818151815260200191508051906020019060200280838360005b83811015610de9578082015181840152602081019050610dce565b505050509050019250505060405180910390f35b348015610e0957600080fd5b50610e2860048036038101908080359060200190929190505050612701565b604051808273ffffffffffffffffffffffffffffffffffffffff1673ffffffffffffffffffffffffffffffffffffffff16815260200191505060405180910390f35b60078060000160009054906101000a90047c010000000000000000000000000000000000000000000000000000000002905081565b60045481565b60015481565b600b60205281600052604060002081815481101515610ec657fe5b906000526020600020016000915091509054906101000a900473ffffffffffffffffffffffffffffffffffffffff1681565b600080600080600080600080600080600080600080600254600154600354600e80549050600554600f80549050600454601060009054906101000a900460ff16601060029054906101000a900473ffffffffffffffffffffffffffffffffffffffff16601160009054906101000a900473ffffffffffffffffffffffffffffffffffffffff166000809054906101000a900473ffffffffffffffffffffffffffffffffffffffff16600760000160009054906101000a90047c010000000000000000000000000000000000000000000000000000000002600654601060019054906101000a900460ff169d509d509d509d509d509d509d509d509d509d509d509d509d509d50909192939495969798999a9b9c9d565b600d6020528060005260406000206000915090505481565b60035481565b6060600c6000837cffffffffffffffffffffffffffffffffffffffffffffffffffffffffff19167cffffffffffffffffffffffffffffffffffffffffffffffffffffffffff1916815260200190815260200160002080548060200260200160405190810160405280929190818152602001828054801561110157602002820191906000526020600020905b8160009054906101000a900473ffffffffffffffffffffffffffffffffffffffff1673ffffffffffffffffffffffffffffffffffffffff16815260200190600101908083116110b7575b50505050509050919050565b60008060008060009054906101000a900473ffffffffffffffffffffffffffffffffffffffff1673ffffffffffffffffffffffffffffffffffffffff163373ffffffffffffffffffffffffffffffffffffffff1614151561116d57600080fd5b601060009054906101000a900460ff16151561118857600080fd5b60003073ffffffffffffffffffffffffffffffffffffffff16311115156111ae57600080fd5b6000600f805490501115156111c257600080fd5b600092505b600f805490508310156112f557600f838154811015156111e357fe5b9060005260206000200160009054906101000a900473ffffffffffffffffffffffffffffffffffffffff169150600d60008373ffffffffffffffffffffffffffffffffffffffff1673ffffffffffffffffffffffffffffffffffffffff16815260200190815260200160002054905060008111156112e8576000600d60008473ffffffffffffffffffffffffffffffffffffffff1673ffffffffffffffffffffffffffffffffffffffff168152602001908152602001600020819055508173ffffffffffffffffffffffffffffffffffffffff166108fc829081150290604051600060405180830381858888f193505050501580156112e6573d6000803e3d6000fd5b505b82806001019350506111c7565b6001601060016101000a81548160ff0219169083151502179055507f886595e6712eca052a8a354eb1f78ae13d158e7c811d1315cea9603bd6f758c160405160405180910390a1505050565b6060600960003373ffffffffffffffffffffffffffffffffffffffff1673ffffffffffffffffffffffffffffffffffffffff16815260200190815260200160002080548060200260200160405190810160405280929190818152602001828054801561142a57602002820191906000526020600020906000905b82829054906101000a90047c0100000000000000000000000000000000000000000000000000000000027bffffffffffffffffffffffffffffffffffffffffffffffffffffffff1916815260200190600401906020826003010492830192600103820291508084116113bb5790505b5050505050905090565b600a6020528160005260406000208181548110151561144f57fe5b90600052602060002090600a9182820401919006600302915091509054906101000a90047d0100000000000000000000000000000000000000000000000000000000000281565b60065481565b601060009054906101000a900460ff16151515611521576040517f08c379a000000000000000000000000000000000000000000000000000000000815260040180806020018281038252601c8152602001807f6c6f747465727920686173207374696c6c206e6f7420706c617965640000000081525060200191505060405180910390fd5b4260015411151561159a576040517f08c379a00000000000000000000000000000000000000000000000000000000081526004018080602001828103825260108152602001807f646561646c696e65206973206f7665720000000000000000000000000000000081525060200191505060405180910390fd5b6000341115156115a957600080fd5b6115be3460035461273f90919063ffffffff16565b6003819055507fc2c48fe60b23268064613cbca1898c1871bae36909b3f33467dd82c6fe2cb2e36003546040518082815260200191505060405180910390a1565b6000806000806000600760000160009054906101000a90047c0100000000000000000000000000000000000000000000000000000000026007600101600060048110151561164957fe5b600a91828204019190066003029054906101000a90047d010000000000000000000000000000000000000000000000000000000000026007600101600160048110151561169257fe5b600a91828204019190066003029054906101000a90047d01000000000000000000000000000000000000000000000000000000000002600760010160026004811015156116db57fe5b600a91828204019190066003029054906101000a90047d010000000000000000000000000000000000000000000000000000000000026007600101600360048110151561172457fe5b600a91828204019190066003029054906101000a90047d01000000000000000000000000000000000000000000000000000000000002945094509450945094509091929394565b6060600e8054806020026020016040519081016040528092919081815260200182805480156117ef57602002820191906000526020600020905b8160009054906101000a900473ffffffffffffffffffffffffffffffffffffffff1673ffffffffffffffffffffffffffffffffffffffff16815260200190600101908083116117a5575b5050505050905090565b6000809054906101000a900473ffffffffffffffffffffffffffffffffffffffff1681565b60096020528160005260406000208181548110151561183957fe5b9060005260206000209060089182820401919006600402915091509054906101000a90047c01000000000000000000000000000000000000000000000000000000000281565b60025481565b601160009054906101000a900473ffffffffffffffffffffffffffffffffffffffff1681565b6002543414151561194a576040517f08c379a000000000000000000000000000000000000000000000000000000000815260040180806020018281038252602c8152602001807f76616c7565207265636569766564206973206c657373207468616e207468652081526020017f6c6f747465727956616c7565000000000000000000000000000000000000000081525060400191505060405180910390fd5b600154421015156119c3576040517f08c379a00000000000000000000000000000000000000000000000000000000081526004018080602001828103825260158152602001807f4c6f7474657279206861732066696e616c697a6564000000000000000000000081525060200191505060405180910390fd5b601060009054906101000a900460ff16151515611a48576040517f08c379a000000000000000000000000000000000000000000000000000000000815260040180806020018281038252601a8152602001807f4c6f74746572792068617320616c726561647920706c6179656400000000000081525060200191505060405180910390fd5b611a70827bffffffffffffffffffffffffffffffffffffffffffffffffffffffff191661275b565b1515611b0a576040517f08c379a00000000000000000000000000000000000000000000000000000000081526004018080602001828103825260228152602001807f4e6f207265706561746564206e756d6265727320696e7369646520746865206281526020017f657400000000000000000000000000000000000000000000000000000000000081525060400191505060405180910390fd5b611b618160048060200260405190810160405280929190826004602002808284378201915050505050837bffffffffffffffffffffffffffffffffffffffffffffffffffffffff19166128df90919063ffffffff16565b1515611b6c57600080fd5b611b8360025460035461273f90919063ffffffff16565b600381905550600e3390806001815401808255809150509060018203906000526020600020016000909192909190916101000a81548173ffffffffffffffffffffffffffffffffffffffff021916908373ffffffffffffffffffffffffffffffffffffffff16021790555050611c1e828260048060200260405190810160405280929190826004602002808284378201915050505050612a61565b3373ffffffffffffffffffffffffffffffffffffffff167f7161ae8ed1d6afc002ada852faaf7f77973bd0d83165acda81a927674acc058d600354600e80549050604051808381526020018281526020019250505060405180910390a25050565b600f81815481101515611c8e57fe5b906000526020600020016000915054906101000a900473ffffffffffffffffffffffffffffffffffffffff1681565b600060606000806000809054906101000a900473ffffffffffffffffffffffffffffffffffffffff1673ffffffffffffffffffffffffffffffffffffffff163373ffffffffffffffffffffffffffffffffffffffff16141515611d1f57600080fd5b42600154101515611d98576040517f08c379a00000000000000000000000000000000000000000000000000000000081526004018080602001828103825260178152602001807f646561646c696e652068617320746f206265206f76657200000000000000000081525060200191505060405180910390fd5b601060009054906101000a900460ff16151515611e1d576040517f08c379a00000000000000000000000000000000000000000000000000000000081526004018080602001828103825260128152602001807f6c6f74746572792068617320706c61796564000000000000000000000000000081525060200191505060405180910390fd5b6001601060006101000a81548160ff02191690831515021790555060405180807f310000000000000000000000000000000000000000000000000000000000000081525060010190506040518091039020935060046040519080825280601f01601f191660200182016040528015611ea45781602001602082028038833980820191505090505b509250600091505b6004821015611fc6576004821415611ec357611fc6565b6063847e010000000000000000000000000000000000000000000000000000000000009004811515611ef157fe5b0690506000811415611f0257606390505b611f37817f01000000000000000000000000000000000000000000000000000000000000000284612d5690919063ffffffff16565b8015611f44575060008114155b15611fb357807f0100000000000000000000000000000000000000000000000000000000000000028383815181101515611f7a57fe5b9060200101907effffffffffffffffffffffffffffffffffffffffffffffffffffffffffffff1916908160001a90535081806001019250505b601084600019169060020a029350611eac565b611fcf83612e2d565b9250611fda836130a9565b600760000160006101000a81548163ffffffff02191690837c0100000000000000000000000000000000000000000000000000000000900402179055506120208361317d565b6007600101906004612033929190613cd3565b5061203c61343b565b50505050565b601060009054906101000a900460ff1681565b601060029054906101000a900473ffffffffffffffffffffffffffffffffffffffff1681565b600c6020528160005260406000208181548110151561209657fe5b906000526020600020016000915091509054906101000a900473ffffffffffffffffffffffffffffffffffffffff1681565b600080601160009054906101000a900473ffffffffffffffffffffffffffffffffffffffff1673ffffffffffffffffffffffffffffffffffffffff163373ffffffffffffffffffffffffffffffffffffffff1614151561212757600080fd5b60006003541115156121a1576040517f08c379a000000000000000000000000000000000000000000000000000000000815260040180806020018281038252601d8152602001807f4a61636b706f7420736f68756c64206265206d6f7265207468616e203000000081525060200191505060405180910390fd5b601060009054906101000a900460ff161515612225576040517f08c379a00000000000000000000000000000000000000000000000000000000081526004018080602001828103825260128152602001807f6c6f74746572792068617320706c61796564000000000000000000000000000081525060200191505060405180910390fd5b600073ffffffffffffffffffffffffffffffffffffffff168373ffffffffffffffffffffffffffffffffffffffff16141515156122f0576040517f08c379a00000000000000000000000000000000000000000000000000000000081526004018080602001828103825260238152602001807f6e6577206c6f747465727920616464726573732073686f756c64206e6f74206281526020017f652030000000000000000000000000000000000000000000000000000000000081525060400191505060405180910390fd5b600354915060006003819055508290508073ffffffffffffffffffffffffffffffffffffffff1663642e8fef836040518263ffffffff167c01000000000000000000000000000000000000000000000000000000000281526004016000604051808303818588803b15801561236457600080fd5b505af1158015612378573d6000803e3d6000fd5b5050505050505050565b6060600a60003373ffffffffffffffffffffffffffffffffffffffff1673ffffffffffffffffffffffffffffffffffffffff16815260200190815260200160002080548060200260200160405190810160405280929190818152602001828054801561246d57602002820191906000526020600020906000905b82829054906101000a90047d010000000000000000000000000000000000000000000000000000000000027cffffffffffffffffffffffffffffffffffffffffffffffffffffffffff1916815260200190600301906020826002010492830192600103820291508084116123fc5790505b5050505050905090565b601060019054906101000a900460ff1681565b60055481565b6000809054906101000a900473ffffffffffffffffffffffffffffffffffffffff1673ffffffffffffffffffffffffffffffffffffffff163373ffffffffffffffffffffffffffffffffffffffff161415156124eb57600080fd5b600073ffffffffffffffffffffffffffffffffffffffff168173ffffffffffffffffffffffffffffffffffffffff161415151561252757600080fd5b7f8be0079c531659141344cd1fd0a4f28419497f9722a3daafe3b4186f6b6457e06000809054906101000a900473ffffffffffffffffffffffffffffffffffffffff1682604051808373ffffffffffffffffffffffffffffffffffffffff1673ffffffffffffffffffffffffffffffffffffffff1681526020018273ffffffffffffffffffffffffffffffffffffffff1673ffffffffffffffffffffffffffffffffffffffff1681526020019250505060405180910390a1806000806101000a81548173ffffffffffffffffffffffffffffffffffffffff021916908373ffffffffffffffffffffffffffffffffffffffff16021790555050565b6060600b6000837bffffffffffffffffffffffffffffffffffffffffffffffffffffffff19167bffffffffffffffffffffffffffffffffffffffffffffffffffffffff191681526020019081526020016000208054806020026020016040519081016040528092919081815260200182805480156126f557602002820191906000526020600020905b8160009054906101000a900473ffffffffffffffffffffffffffffffffffffffff1673ffffffffffffffffffffffffffffffffffffffff16815260200190600101908083116126ab575b50505050509050919050565b600e8181548110151561271057fe5b906000526020600020016000915054906101000a900473ffffffffffffffffffffffffffffffffffffffff1681565b6000818301905082811015151561275257fe5b80905092915050565b60008060008060048060ff1614151561277757600093506128d7565b600092505b600460ff168310156128d257848360048110151561279657fe5b1a7f01000000000000000000000000000000000000000000000000000000000000000291506000827f0100000000000000000000000000000000000000000000000000000000000000900411158061281157506063827f01000000000000000000000000000000000000000000000000000000000000009004115b1561281f57600093506128d7565b6001830190505b600460ff168110156128c557848160048110151561284057fe5b1a7f0100000000000000000000000000000000000000000000000000000000000000027effffffffffffffffffffffffffffffffffffffffffffffffffffffffffffff1916827effffffffffffffffffffffffffffffffffffffffffffffffffffffffffffff19161015156128b857600093506128d7565b8080600101915050612826565b828060010193505061277c565b600193505b505050919050565b6000806000806000806000806000809750600096505b6004871015612a4c57898760048110151561290c57fe5b6020020151955061291c866137cf565b151561292b5760009850612a53565b6000945060009350600092505b600360ff16831015612a2d57858360038110151561295257fe5b1a7f01000000000000000000000000000000000000000000000000000000000000000291508490505b600460ff16811015612a2057817effffffffffffffffffffffffffffffffffffffffffffffffffffffffffffff19168b826004811015156129b857fe5b1a7f0100000000000000000000000000000000000000000000000000000000000000027effffffffffffffffffffffffffffffffffffffffffffffffffffffffffffff19161415612a13578094508380600101945050612a20565b808060010191505061297b565b8280600101935050612938565b6003841415612a3f5787806001019850505b86806001019750506128f5565b6004881498505b505050505050505092915050565b600080600960003373ffffffffffffffffffffffffffffffffffffffff1673ffffffffffffffffffffffffffffffffffffffff16815260200190815260200160002084908060018154018082558091505090600182039060005260206000209060089182820401919006600402909192909190916101000a81548163ffffffff02191690837c01000000000000000000000000000000000000000000000000000000009004021790555050600b6000857bffffffffffffffffffffffffffffffffffffffffffffffffffffffff19167bffffffffffffffffffffffffffffffffffffffffffffffffffffffff191681526020019081526020016000203390806001815401808255809150509060018203906000526020600020016000909192909190916101000a81548173ffffffffffffffffffffffffffffffffffffffff021916908373ffffffffffffffffffffffffffffffffffffffff16021790555050600091505b6004821015612d50578282600481101515612bdd57fe5b60200201519050600a60003373ffffffffffffffffffffffffffffffffffffffff1673ffffffffffffffffffffffffffffffffffffffff168152602001908152602001600020819080600181540180825580915050906001820390600052602060002090600a9182820401919006600302909192909190916101000a81548162ffffff02191690837d0100000000000000000000000000000000000000000000000000000000009004021790555050600c6000827cffffffffffffffffffffffffffffffffffffffffffffffffffffffffff19167cffffffffffffffffffffffffffffffffffffffffffffffffffffffffff191681526020019081526020016000203390806001815401808255809150509060018203906000526020600020016000909192909190916101000a81548173ffffffffffffffffffffffffffffffffffffffff021916908373ffffffffffffffffffffffffffffffffffffffff160217905550508180600101925050612bc6565b50505050565b600080600090505b8351811015612e21578381815181101515612d7557fe5b9060200101517f010000000000000000000000000000000000000000000000000000000000000090047f0100000000000000000000000000000000000000000000000000000000000000027effffffffffffffffffffffffffffffffffffffffffffffffffffffffffffff1916837effffffffffffffffffffffffffffffffffffffffffffffffffffffffffffff19161415612e145760009150612e26565b8080600101915050612d5e565b600191505b5092915050565b606060008060008085519350600092505b8383101561309d576001830191505b83821015613090578582815181101515612e6357fe5b9060200101517f010000000000000000000000000000000000000000000000000000000000000090047f0100000000000000000000000000000000000000000000000000000000000000027effffffffffffffffffffffffffffffffffffffffffffffffffffffffffffff19168684815181101515612ede57fe5b9060200101517f010000000000000000000000000000000000000000000000000000000000000090047f0100000000000000000000000000000000000000000000000000000000000000027effffffffffffffffffffffffffffffffffffffffffffffffffffffffffffff19161115613083578583815181101515612f5f57fe5b9060200101517f010000000000000000000000000000000000000000000000000000000000000090047f01000000000000000000000000000000000000000000000000000000000000000290508582815181101515612fba57fe5b9060200101517f010000000000000000000000000000000000000000000000000000000000000090047f010000000000000000000000000000000000000000000000000000000000000002868481518110151561301357fe5b9060200101907effffffffffffffffffffffffffffffffffffffffffffffffffffffffffffff1916908160001a90535080868381518110151561305257fe5b9060200101907effffffffffffffffffffffffffffffffffffffffffffffffffffffffffffff1916908160001a9053505b8180600101925050612e4d565b8280600101935050612e3e565b85945050505050919050565b60008060008091505b83518210156131765783828151811015156130c957fe5b9060200101517f010000000000000000000000000000000000000000000000000000000000000090047f0100000000000000000000000000000000000000000000000000000000000000027effffffffffffffffffffffffffffffffffffffffffffffffffffffffffffff1916905081600802817bffffffffffffffffffffffffffffffffffffffffffffffffffffffff19169060020a90049050808317925081806001019250506130b2565b5050919050565b613185613d8f565b60008060606000806000613197613d8f565b606060006003985060049750886040519080825280602002602001820160405280156131d25781602001602082028038833980820191505090505b5096506000955060009450600093505b60008610151561342c578886038801851115156133d35784878781518110151561320857fe5b9060200190602002018181525050600189038614156133a857886040519080825280601f01601f1916602001820160405280156132545781602001602082028038833980820191505090505b509150600090505b8651811015613320578a878281518110151561327457fe5b9060200190602002015181518110151561328a57fe5b9060200101517f010000000000000000000000000000000000000000000000000000000000000090047f01000000000000000000000000000000000000000000000000000000000000000282828151811015156132e357fe5b9060200101907effffffffffffffffffffffffffffffffffffffffffffffffffffffffffffff1916908160001a905350808060010191505061325c565b61332982613953565b838560048110151561333757fe5b60200201907cffffffffffffffffffffffffffffffffffffffffffffffffffffffffff191690817cffffffffffffffffffffffffffffffffffffffffffffffffffffffffff1916815250508380600101945050848060010195505060048414156133a35782995061342d565b6133ce565b600187878151811015156133b857fe5b9060200190602002015101945085806001019650505b613427565b858060019003965050600086111561340757600187878151811015156133f557fe5b90602001906020020151019450613426565b600187600081518110151561341857fe5b906020019060200201510194505b5b6131e2565b5b505050505050505050919050565b600060606000806000806000606060006134616002600354613a2890919063ffffffff16565b9850600b6000600760000160009054906101000a90047c0100000000000000000000000000000000000000000000000000000000027bffffffffffffffffffffffffffffffffffffffffffffffffffffffff19167bffffffffffffffffffffffffffffffffffffffffffffffffffffffff1916815260200190815260200160002080548060200260200160405190810160405280929190818152602001828054801561356257602002820191906000526020600020905b8160009054906101000a900473ffffffffffffffffffffffffffffffffffffffff1673ffffffffffffffffffffffffffffffffffffffff1681526020019060010190808311613518575b505050505097506000885111156135fc576135888960055461273f90919063ffffffff16565b6005819055506135a389600354613a3e90919063ffffffff16565b6003819055506135bd88518a613a2890919063ffffffff16565b9650600095505b87518610156135fb576135ee88878151811015156135de57fe5b9060200190602002015188613a57565b85806001019650506135c4565b5b600093505b60048410156136355761362661361685613b9f565b518661273f90919063ffffffff16565b94508380600101945050613601565b60008511156136f7576136538960055461273f90919063ffffffff16565b60058190555061366e89600354613a3e90919063ffffffff16565b600381905550613687858a613a2890919063ffffffff16565b9650600092505b60048310156136f6576136a083613b9f565b91506000825111156136e957600090505b81518110156136e8576136db82828151811015156136cb57fe5b9060200190602002015188613a57565b80806001019150506136b1565b5b828060010193505061368e565b5b6003546004819055507f72ca82fd72ba775f1994326b46d5c3a81d11d0cc24325df07fa8939f8a2c3d07600f80549050600554600760000160009054906101000a90047c01000000000000000000000000000000000000000000000000000000000260045460405180858152602001848152602001837bffffffffffffffffffffffffffffffffffffffffffffffffffffffff19167bffffffffffffffffffffffffffffffffffffffffffffffffffffffff1916815260200182815260200194505050505060405180910390a1505050505050505050565b60008060008060038060ff161415156137eb576000935061394b565b600092505b600360ff1683101561394657848360038110151561380a57fe5b1a7f01000000000000000000000000000000000000000000000000000000000000000291506000827f0100000000000000000000000000000000000000000000000000000000000000900411158061388557506063827f01000000000000000000000000000000000000000000000000000000000000009004115b15613893576000935061394b565b6001830190505b600360ff168110156139395784816003811015156138b457fe5b1a7f0100000000000000000000000000000000000000000000000000000000000000027effffffffffffffffffffffffffffffffffffffffffffffffffffffffffffff1916827effffffffffffffffffffffffffffffffffffffffffffffffffffffffffffff191610151561392c576000935061394b565b808060010191505061389a565b82806001019350506137f0565b600193505b505050919050565b60008060008091505b8351821015613a2157838281518110151561397357fe5b9060200101517f010000000000000000000000000000000000000000000000000000000000000090047f0100000000000000000000000000000000000000000000000000000000000000027effffffffffffffffffffffffffffffffffffffffffffffffffffffffffffff1916905081600802817cffffffffffffffffffffffffffffffffffffffffffffffffffffffffff19169060020a900490508083179250818060010192505061395c565b5050919050565b60008183811515613a3557fe5b04905092915050565b6000828211151515613a4c57fe5b818303905092915050565b6000600d60008473ffffffffffffffffffffffffffffffffffffffff1673ffffffffffffffffffffffffffffffffffffffff168152602001908152602001600020541415613b0657600f8290806001815401808255809150509060018203906000526020600020016000909192909190916101000a81548173ffffffffffffffffffffffffffffffffffffffff021916908373ffffffffffffffffffffffffffffffffffffffff160217905550505b613b5881600d60008573ffffffffffffffffffffffffffffffffffffffff1673ffffffffffffffffffffffffffffffffffffffff1681526020019081526020016000205461273f90919063ffffffff16565b600d60008473ffffffffffffffffffffffffffffffffffffffff1673ffffffffffffffffffffffffffffffffffffffff168152602001908152602001600020819055505050565b606060006060600760010184600481101515613bb757fe5b600a91828204019190066003029054906101000a90047d010000000000000000000000000000000000000000000000000000000000029150600c6000837cffffffffffffffffffffffffffffffffffffffffffffffffffffffffff19167cffffffffffffffffffffffffffffffffffffffffffffffffffffffffff19168152602001908152602001600020805480602002602001604051908101604052809291908181526020018280548015613cc257602002820191906000526020600020905b8160009054906101000a900473ffffffffffffffffffffffffffffffffffffffff1673ffffffffffffffffffffffffffffffffffffffff1681526020019060010190808311613c78575b505050505090508092505050919050565b826004600901600a90048101928215613d7e5791602002820160005b83821115613d4d57835183826101000a81548162ffffff02191690837d010000000000000000000000000000000000000000000000000000000000900402179055509260200192600301602081600201049283019260010302613cef565b8015613d7c5782816101000a81549062ffffff0219169055600301602081600201049283019260010302613d4d565b505b509050613d8b9190613db2565b5090565b608060405190810160405280600490602082028038833980820191505090505090565b613de191905b80821115613ddd57600081816101000a81549062ffffff021916905550600101613db8565b5090565b905600a165627a7a723058204b7aec67ddeb9596b320fc94dd977a45f5b6daf75b64396f350fab12401f8aa10029",
  "source": "pragma solidity ^0.4.23;\r\n\r\nimport \"./ownership/Ownable.sol\";\r\nimport \"./math/SafeMath.sol\";\r\nimport \"./LotteryFactory.sol\";\r\nimport \"./BytesConvertLib.sol\";\r\n\r\n/**\r\n * @title Lottery\r\n * @dev Lottery with 4 numbers between 01-99. for each bet we store:\r\n * 1 bytes4 [ 16, 19, 66, 88 ] = 0x10134258\r\n * 4 bytes3 [ 16, 19, 66 ] = 0x101342,  0x101358,  0x104258,  134258\r\n * according to the formula (n!/(k!(n-k)!)) where\r\n * for 3 numbers n = 4 and k = 3\r\n */\r\n\r\ncontract Lottery is Ownable {\r\n    using SafeMath for uint256; \r\n    using BytesConvertLib for bytes;\r\n    using BytesConvertLib for bytes4;\r\n\r\n    event TransferJackPot(uint256 value);\r\n    event TicketBuy(address indexed buyer, uint256 jackPot, uint256 numOfPlayers);\r\n    event LotteryHasPlayed(uint256 numOfWinners, uint256 prize, bytes4 winningNumber, uint256 finalJackPot);\r\n    event WinnersPaid();\r\n\r\n    uint256 public deadline;\r\n    uint256 public lotteryValue;\r\n    uint256 public jackPot;\r\n    uint256 public finalJackPot;\r\n    uint256 public prize;\r\n    uint256 public timeStarted;\r\n\r\n    struct WinningNumbers { \r\n        bytes4 winningNumber; \r\n        bytes3[4] winningNumbers3;\r\n    } \r\n\r\n    WinningNumbers public winningNumbers;\r\n\r\n    // @dev mapping of the sender => numbers, when user enters the lottery we save his numbers\r\n    mapping(address => bytes4[]) public playerNumbers4;\r\n    mapping(address => bytes3[]) public playerNumbers3;\r\n\r\n    // @dev mapping of the numbers => players[], when user enters a number we save his \r\n    // number pointing to his address\r\n    mapping(bytes4 => address[]) public numbers4;\r\n    mapping(bytes3 => address[]) public numbers3;\r\n\r\n    // @dev mapping of player => allocation, when player is a winner we add the prize \r\n    mapping(address => uint256) public winnersAllocation;\r\n\r\n    address[] public players;\r\n    address[] public winners;\r\n\r\n    bool public lotteryHasPlayed;\r\n    bool public winnersPaid;\r\n\r\n    // @dev we keep a reference of the last lottery\r\n    address public lastLottery;\r\n\r\n    // @dev the address of the factory which deployed this lottery\r\n    address public factoryAddress;\r\n\r\n    // @dev modifier to check if sender is the factoryAddress\r\n    modifier onlyFactory() {\r\n        require(msg.sender == factoryAddress);\r\n        _;\r\n    }\r\n    /** \r\n    * @dev we set the lotteryFactory as the creator of this lottery\r\n    * @param _duration how long will the lottery be open to enter\r\n    * @param _lotteryValue sets the value of the lottery\r\n    * @param _lastLotteryAddress address of the previous lottery\r\n    */\r\n    constructor(uint256 _duration, uint256 _lotteryValue, address _lastLotteryAddress) public {\r\n        require(_duration > 0);\r\n        require(_lotteryValue > 0);\r\n        factoryAddress = msg.sender;\r\n        deadline = now + _duration;\r\n        lotteryValue = _lotteryValue;\r\n        lastLottery = _lastLotteryAddress;\r\n        timeStarted = now;\r\n    }\r\n\r\n    /** \r\n    * @notice allows the player to enter \r\n    * @param _number4 the main number in bytes [ 14, 15, 16, 19] = 0x0e0f1013\r\n    * @param _numbers3 array[4] of bytes3, 4 possible combinations of 3 numbers\r\n    * [ 14, 15, 16] = 0x0e0f10, ....\r\n    */\r\n    function enter(bytes4 _number4, bytes3[4] _numbers3) external payable {\r\n        require(msg.value == lotteryValue, \"value received is less than the lotteryValue\");\r\n        require(now < deadline, \"Lottery has finalized\");\r\n        require(!lotteryHasPlayed, \"Lottery has already played\"); \r\n        require(_number4.areValidNumbers4(), \"No repeated numbers inside the bet\");\r\n        require(_number4.areInsideNumber4(_numbers3));\r\n        jackPot = jackPot.add(lotteryValue);\r\n        players.push(msg.sender);\r\n        _storeNumbers(_number4, _numbers3);\r\n        emit TicketBuy(msg.sender, jackPot, players.length);\r\n    }\r\n\r\n    /** \r\n    * @notice we store one bytes4 and 4 bytes3 so when lottery plays\r\n    * we compare how many players played these numbers to know how much was won\r\n    * and separate this money from the jackpot\r\n    * @param _number4 4 bytes containing the numbers\r\n    * @param _numbers3 array[4] of bytes3 \r\n    */\r\n    function _storeNumbers(bytes4 _number4, bytes3[4] memory _numbers3) private {\r\n        playerNumbers4[msg.sender].push(_number4);\r\n        numbers4[_number4].push(msg.sender);\r\n        for(uint256 k = 0; k < 4; k++){\r\n            bytes3 _number3 = _numbers3[k];\r\n            playerNumbers3[msg.sender].push(_number3);\r\n            numbers3[_number3].push(msg.sender);\r\n        }\r\n    }\r\n\r\n    /**     \r\n    * @dev is called when player enters the lottery, we use this to allocate the money\r\n    */\r\n    function addJackPot() public payable {\r\n        require(!lotteryHasPlayed, \"lottery has still not played\");\r\n        require(deadline > now, \"deadline is over\");\r\n        require(msg.value>0);\r\n        jackPot = jackPot.add(msg.value);\r\n        emit TransferJackPot(jackPot);\r\n    }\r\n\r\n    /** \r\n    * @notice play the lottery when is finished, we get a bytes32 keccak256 of the \r\n    * random number, first 2 bytes are divided by 99 and we take the residous\r\n    * if the number is ok we put it in the first place of _number4, then we take\r\n    * the subsequent 2 bytes and do the same to put it in the second slot of _number4\r\n    * at the end _number 4 is the winning number\r\n    */\r\n    function playTheLottery() external onlyOwner {\r\n        require(deadline < now, \"deadline has to be over\");\r\n        require(!lotteryHasPlayed, \"lottery has played\");\r\n        lotteryHasPlayed = true;\r\n        bytes32 random = keccak256(\"1\");        \r\n        bytes memory _number4 = new bytes(4);\r\n        uint256 size = 0;\r\n        while(size < 4){\r\n            if(size==4) break;\r\n            uint256 pair = uint256(bytes2(random)) % 99;\r\n            if(pair == 0) pair = 99;\r\n            if(_number4.isNotRepeated(bytes1(pair)) && pair != 0){\r\n                _number4[size] = bytes1(pair);\r\n                size++;\r\n            } \r\n            random = random << 16;\r\n        }\r\n        _number4 = _number4.sortArray();\r\n        winningNumbers.winningNumber = _number4.convertBytesToBytes4();\r\n        winningNumbers.winningNumbers3 = _number4.setCombinations3();\r\n        _setWinners();\r\n    }\r\n\r\n    function _setWinners() private {\r\n        uint256 allocation = jackPot.div(2);\r\n        address[] memory number4Winners = numbers4[winningNumbers.winningNumber];\r\n        if(number4Winners.length > 0){\r\n            prize = prize.add(allocation);\r\n            jackPot = jackPot.sub(allocation);\r\n            uint256 allocationPerPlayer = allocation.div(number4Winners.length);\r\n            for(uint256 j = 0; j < number4Winners.length; j++) {\r\n                allocateEth(number4Winners[j], allocationPerPlayer);\r\n            }\r\n        }\r\n\r\n        uint256 numberOfWinners;\r\n        for(uint256 i = 0; i < 4; i++) {\r\n            numberOfWinners = numberOfWinners.add(_getWinners3(i).length);\r\n        }\r\n        if(numberOfWinners > 0) {\r\n            prize = prize.add(allocation);\r\n            jackPot = jackPot.sub(allocation);\r\n            allocationPerPlayer = allocation.div(numberOfWinners);\r\n            for(uint256 k = 0; k < 4; k++) {\r\n                address[] memory winners3 = _getWinners3(k); \r\n                if(winners3.length > 0) {\r\n                    for(uint256 h = 0; h < winners3.length; h++) {\r\n                        allocateEth(winners3[h], allocationPerPlayer);\r\n                    }\r\n                }\r\n                \r\n            } \r\n        }\r\n        finalJackPot = jackPot;\r\n        emit LotteryHasPlayed(winners.length, prize, winningNumbers.winningNumber, finalJackPot);    \r\n    }\r\n\r\n    function allocateEth(address _winner, uint256 _allocation) private {\r\n        if(winnersAllocation[_winner] == 0) winners.push(_winner);\r\n        winnersAllocation[_winner] = winnersAllocation[_winner].add(_allocation);\r\n    }\r\n\r\n    function payWinners() external onlyOwner {\r\n        require(lotteryHasPlayed);\r\n        require(address(this).balance > 0);\r\n        require(winners.length > 0);\r\n        \r\n        for(uint256 j = 0; j < winners.length; j++) {\r\n            address winner = winners[j];\r\n            uint256 amount = winnersAllocation[winner];\r\n            if(amount > 0) {\r\n                winnersAllocation[winner] = 0;\r\n                winner.transfer(amount);\r\n            }\r\n        }\r\n        winnersPaid = true;\r\n        emit WinnersPaid();\r\n    }\r\n\r\n    function _getWinners3(uint256 _index) private view returns(address[]) {\r\n        bytes3 thisNumber = winningNumbers.winningNumbers3[_index];\r\n        address[] memory theseWinners = numbers3[thisNumber];\r\n        return theseWinners;\r\n    }\r\n\r\n     /** \r\n    * @notice Transfer the jackpot after picking all winners\r\n    */\r\n    function transferJackPot(address _newLottery) external onlyFactory {\r\n        require(jackPot > 0, \"Jackpot sohuld be more than 0\");\r\n        require(lotteryHasPlayed, \"lottery has played\");\r\n        require(_newLottery != address(0), \"new lottery address should not be 0\");\r\n        uint256 _jackPot = jackPot;\r\n        jackPot = 0;\r\n        Lottery lottery = Lottery(_newLottery);\r\n        lottery.addJackPot.value(_jackPot)();  \r\n    } \r\n\r\n    //@dev Getters\r\n    \r\n    function getPlayers() external view returns(address[]){\r\n        return players;\r\n    }\r\n\r\n    function getSummary() external view returns (\r\n        uint256, uint256, uint256, uint256, uint256, uint256, \r\n        uint256, bool, address, address, address, bytes4, uint256,\r\n        bool\r\n    ) {\r\n        return (\r\n            lotteryValue, //0\r\n            deadline, //1\r\n            jackPot, //2\r\n            players.length, //3\r\n            prize, //4\r\n            winners.length, //5\r\n            finalJackPot, //6\r\n            lotteryHasPlayed, //7\r\n            lastLottery, //8\r\n            factoryAddress,  //9\r\n            owner, //10\r\n            winningNumbers.winningNumber, //11\r\n            timeStarted, //12\r\n            winnersPaid //13\r\n        );\r\n    }\r\n\r\n    function getWinningNumbers() external view returns(bytes4, bytes3, bytes3, bytes3, bytes3) {\r\n        return  (\r\n            winningNumbers.winningNumber,\r\n            winningNumbers.winningNumbers3[0],\r\n            winningNumbers.winningNumbers3[1],\r\n            winningNumbers.winningNumbers3[2],\r\n            winningNumbers.winningNumbers3[3]);\r\n    }\r\n\r\n    function getNumbers4ByPlayer() external view returns(bytes4[]) {\r\n        return playerNumbers4[msg.sender];\r\n    }\r\n\r\n    function getNumbers3ByPlayer() external view returns(bytes3[]) {\r\n        return playerNumbers3[msg.sender];\r\n    }\r\n\r\n    function getPlayersByNumber4(bytes4 _number) external view returns(address[]){\r\n        return numbers4[_number];\r\n    }\r\n\r\n    function getPlayersByNumber3(bytes3 _number3) external view returns(address[]){\r\n        return numbers3[_number3];\r\n    }\r\n}\r\n\r\n\r\n\r\n",
  "sourcePath": "E:\\Ethereum\\Worldpay\\lottery-contract\\ethereum\\contracts\\Lottery.sol",
  "compiler": {
    "name": "solc",
    "version": "0.4.24+commit.e67f0147.Emscripten.clang"
  },
  "schemaVersion": "2.0.1",
  "updatedAt": "2018-07-20T02:53:05.794Z"
}