{
  "contractName": "Lottery",
  "abi": [
    {
      "constant": true,
      "inputs": [],
      "name": "winningNumbers",
      "outputs": [
        {
          "name": "winningNumber",
          "type": "bytes6"
        }
      ],
      "payable": false,
      "stateMutability": "view",
      "type": "function"
    },
    {
      "constant": true,
      "inputs": [],
      "name": "deadline",
      "outputs": [
        {
          "name": "",
          "type": "uint256"
        }
      ],
      "payable": false,
      "stateMutability": "view",
      "type": "function"
    },
    {
      "constant": true,
      "inputs": [
        {
          "name": "",
          "type": "bytes4"
        },
        {
          "name": "",
          "type": "uint256"
        }
      ],
      "name": "numbers4",
      "outputs": [
        {
          "name": "",
          "type": "address"
        }
      ],
      "payable": false,
      "stateMutability": "view",
      "type": "function"
    },
    {
      "constant": true,
      "inputs": [],
      "name": "jackPot",
      "outputs": [
        {
          "name": "",
          "type": "uint256"
        }
      ],
      "payable": false,
      "stateMutability": "view",
      "type": "function"
    },
    {
      "constant": true,
      "inputs": [
        {
          "name": "",
          "type": "bytes6"
        },
        {
          "name": "",
          "type": "uint256"
        }
      ],
      "name": "numbers6",
      "outputs": [
        {
          "name": "",
          "type": "address"
        }
      ],
      "payable": false,
      "stateMutability": "view",
      "type": "function"
    },
    {
      "constant": true,
      "inputs": [
        {
          "name": "",
          "type": "bytes5"
        },
        {
          "name": "",
          "type": "uint256"
        }
      ],
      "name": "numbers5",
      "outputs": [
        {
          "name": "",
          "type": "address"
        }
      ],
      "payable": false,
      "stateMutability": "view",
      "type": "function"
    },
    {
      "constant": true,
      "inputs": [
        {
          "name": "",
          "type": "address"
        },
        {
          "name": "",
          "type": "uint256"
        }
      ],
      "name": "playerNumbers6",
      "outputs": [
        {
          "name": "",
          "type": "bytes6"
        }
      ],
      "payable": false,
      "stateMutability": "view",
      "type": "function"
    },
    {
      "constant": true,
      "inputs": [
        {
          "name": "",
          "type": "address"
        },
        {
          "name": "",
          "type": "uint256"
        }
      ],
      "name": "playerNumbers5",
      "outputs": [
        {
          "name": "",
          "type": "bytes5"
        }
      ],
      "payable": false,
      "stateMutability": "view",
      "type": "function"
    },
    {
      "constant": true,
      "inputs": [],
      "name": "owner",
      "outputs": [
        {
          "name": "",
          "type": "address"
        }
      ],
      "payable": false,
      "stateMutability": "view",
      "type": "function"
    },
    {
      "constant": true,
      "inputs": [
        {
          "name": "",
          "type": "address"
        },
        {
          "name": "",
          "type": "uint256"
        }
      ],
      "name": "playerNumbers4",
      "outputs": [
        {
          "name": "",
          "type": "bytes4"
        }
      ],
      "payable": false,
      "stateMutability": "view",
      "type": "function"
    },
    {
      "constant": true,
      "inputs": [],
      "name": "lotteryValue",
      "outputs": [
        {
          "name": "",
          "type": "uint256"
        }
      ],
      "payable": false,
      "stateMutability": "view",
      "type": "function"
    },
    {
      "constant": true,
      "inputs": [],
      "name": "factoryAddress",
      "outputs": [
        {
          "name": "",
          "type": "address"
        }
      ],
      "payable": false,
      "stateMutability": "view",
      "type": "function"
    },
    {
      "constant": true,
      "inputs": [],
      "name": "lotteryHasPlayed",
      "outputs": [
        {
          "name": "",
          "type": "bool"
        }
      ],
      "payable": false,
      "stateMutability": "view",
      "type": "function"
    },
    {
      "constant": true,
      "inputs": [],
      "name": "lastLottery",
      "outputs": [
        {
          "name": "",
          "type": "address"
        }
      ],
      "payable": false,
      "stateMutability": "view",
      "type": "function"
    },
    {
      "constant": false,
      "inputs": [
        {
          "name": "newOwner",
          "type": "address"
        }
      ],
      "name": "transferOwnership",
      "outputs": [],
      "payable": false,
      "stateMutability": "nonpayable",
      "type": "function"
    },
    {
      "constant": true,
      "inputs": [
        {
          "name": "",
          "type": "uint256"
        }
      ],
      "name": "players",
      "outputs": [
        {
          "name": "",
          "type": "address"
        }
      ],
      "payable": false,
      "stateMutability": "view",
      "type": "function"
    },
    {
      "inputs": [
        {
          "name": "_duration",
          "type": "uint256"
        },
        {
          "name": "_lotteryValue",
          "type": "uint256"
        },
        {
          "name": "_lastLotteryAddress",
          "type": "address"
        }
      ],
      "payable": false,
      "stateMutability": "nonpayable",
      "type": "constructor"
    },
    {
      "anonymous": false,
      "inputs": [
        {
          "indexed": false,
          "name": "winners",
          "type": "address[]"
        },
        {
          "indexed": false,
          "name": "jackPot",
          "type": "uint256"
        }
      ],
      "name": "Winners",
      "type": "event"
    },
    {
      "anonymous": false,
      "inputs": [
        {
          "indexed": false,
          "name": "value",
          "type": "uint256"
        }
      ],
      "name": "TransferJackPot",
      "type": "event"
    },
    {
      "anonymous": false,
      "inputs": [
        {
          "indexed": false,
          "name": "val",
          "type": "uint256"
        }
      ],
      "name": "Debug",
      "type": "event"
    },
    {
      "anonymous": false,
      "inputs": [
        {
          "indexed": false,
          "name": "previousOwner",
          "type": "address"
        },
        {
          "indexed": false,
          "name": "newOwner",
          "type": "address"
        }
      ],
      "name": "OwnershipTransferred",
      "type": "event"
    },
    {
      "constant": false,
      "inputs": [
        {
          "name": "_number6",
          "type": "bytes6"
        },
        {
          "name": "_numbers5",
          "type": "bytes5[6]"
        },
        {
          "name": "_numbers4",
          "type": "bytes4[15]"
        }
      ],
      "name": "enter",
      "outputs": [],
      "payable": true,
      "stateMutability": "payable",
      "type": "function"
    },
    {
      "constant": false,
      "inputs": [],
      "name": "addJackPot",
      "outputs": [],
      "payable": true,
      "stateMutability": "payable",
      "type": "function"
    },
    {
      "constant": false,
      "inputs": [],
      "name": "playTheLottery",
      "outputs": [],
      "payable": false,
      "stateMutability": "nonpayable",
      "type": "function"
    },
    {
      "constant": false,
      "inputs": [
        {
          "name": "_newLottery",
          "type": "address"
        }
      ],
      "name": "transferJackPot",
      "outputs": [],
      "payable": false,
      "stateMutability": "nonpayable",
      "type": "function"
    },
    {
      "constant": true,
      "inputs": [
        {
          "name": "_number6",
          "type": "bytes6"
        },
        {
          "name": "user",
          "type": "address"
        }
      ],
      "name": "getStoredNumbers6",
      "outputs": [
        {
          "name": "",
          "type": "uint256"
        },
        {
          "name": "",
          "type": "uint256"
        }
      ],
      "payable": false,
      "stateMutability": "view",
      "type": "function"
    },
    {
      "constant": true,
      "inputs": [
        {
          "name": "_number5",
          "type": "bytes5"
        },
        {
          "name": "user",
          "type": "address"
        }
      ],
      "name": "getStoredNumbers5",
      "outputs": [
        {
          "name": "",
          "type": "uint256"
        },
        {
          "name": "",
          "type": "uint256"
        }
      ],
      "payable": false,
      "stateMutability": "view",
      "type": "function"
    },
    {
      "constant": true,
      "inputs": [
        {
          "name": "_numbers4",
          "type": "bytes4"
        },
        {
          "name": "user",
          "type": "address"
        }
      ],
      "name": "getStoredNumbers4",
      "outputs": [
        {
          "name": "",
          "type": "uint256"
        },
        {
          "name": "",
          "type": "uint256"
        }
      ],
      "payable": false,
      "stateMutability": "view",
      "type": "function"
    },
    {
      "constant": true,
      "inputs": [],
      "name": "getPlayers",
      "outputs": [
        {
          "name": "",
          "type": "address[]"
        }
      ],
      "payable": false,
      "stateMutability": "view",
      "type": "function"
    },
    {
      "constant": true,
      "inputs": [],
      "name": "getSummary",
      "outputs": [
        {
          "name": "",
          "type": "uint256"
        },
        {
          "name": "",
          "type": "uint256"
        },
        {
          "name": "",
          "type": "uint256"
        },
        {
          "name": "",
          "type": "uint256"
        },
        {
          "name": "",
          "type": "uint256"
        },
        {
          "name": "",
          "type": "bool"
        },
        {
          "name": "",
          "type": "address"
        },
        {
          "name": "",
          "type": "address"
        },
        {
          "name": "",
          "type": "address"
        }
      ],
      "payable": false,
      "stateMutability": "view",
      "type": "function"
    }
  ],
  "bytecode": "0x60806040526000600f60006101000a81548160ff02191690831515021790555034801561002b57600080fd5b50604051606080612fe5833981018060405281019080805190602001909291908051906020019092919080519060200190929190505050336000806101000a81548173ffffffffffffffffffffffffffffffffffffffff021916908373ffffffffffffffffffffffffffffffffffffffff1602179055506000831115156100b157600080fd5b6000821115156100c057600080fd5b33601060006101000a81548173ffffffffffffffffffffffffffffffffffffffff021916908373ffffffffffffffffffffffffffffffffffffffff1602179055508242016001819055508160028190555080600f60016101000a81548173ffffffffffffffffffffffffffffffffffffffff021916908373ffffffffffffffffffffffffffffffffffffffff160217905550505050612e81806101646000396000f300608060405260043610610149576000357c0100000000000000000000000000000000000000000000000000000000900463ffffffff1680631ddfab6c1461014e57806321e0f228146101a057806329dcb0cf14610205578063347fc718146102305780634051ddac146102c6578063443c208d146103b1578063473479c9146104385780634a78cdba146104bd5780635ce4a113146104e8578063642e8fef1461057c5780636893b9d21461058657806380fe30071461061b5780638b5b9ccc146106b65780638d443e84146107225780638da5cb5b146107bf578063900f46c6146108165780639113a7b5146108b5578063966dae0e146108e0578063a319d14314610937578063a947d0501461094e578063af0b4b271461097d578063bef6f1b4146109d4578063c64facb514610a5a578063f2fde38b14610a9d578063f71d96cb14610ae0575b600080fd5b61019e600480360381019080803579ffffffffffffffffffffffffffffffffffffffffffffffffffff191690602001909291908060c001909192919290806101e001909192919290505050610b4d565b005b3480156101ac57600080fd5b506101b5610ede565b604051808279ffffffffffffffffffffffffffffffffffffffffffffffffffff191679ffffffffffffffffffffffffffffffffffffffffffffffffffff1916815260200191505060405180910390f35b34801561021157600080fd5b5061021a610f11565b6040518082815260200191505060405180910390f35b34801561023c57600080fd5b5061028460048036038101908080357bffffffffffffffffffffffffffffffffffffffffffffffffffffffff1916906020019092919080359060200190929190505050610f17565b604051808273ffffffffffffffffffffffffffffffffffffffff1673ffffffffffffffffffffffffffffffffffffffff16815260200191505060405180910390f35b3480156102d257600080fd5b506102db610f64565b604051808a8152602001898152602001888152602001878152602001868152602001851515151581526020018473ffffffffffffffffffffffffffffffffffffffff1673ffffffffffffffffffffffffffffffffffffffff1681526020018373ffffffffffffffffffffffffffffffffffffffff1673ffffffffffffffffffffffffffffffffffffffff1681526020018273ffffffffffffffffffffffffffffffffffffffff1673ffffffffffffffffffffffffffffffffffffffff168152602001995050505050505050505060405180910390f35b3480156103bd57600080fd5b5061041b60048036038101908080357bffffffffffffffffffffffffffffffffffffffffffffffffffffffff19169060200190929190803573ffffffffffffffffffffffffffffffffffffffff16906020019092919050505061101c565b604051808381526020018281526020019250505060405180910390f35b34801561044457600080fd5b506104a0600480360381019080803579ffffffffffffffffffffffffffffffffffffffffffffffffffff19169060200190929190803573ffffffffffffffffffffffffffffffffffffffff1690602001909291905050506110c2565b604051808381526020018281526020019250505060405180910390f35b3480156104c957600080fd5b506104d2611164565b6040518082815260200191505060405180910390f35b3480156104f457600080fd5b5061053a600480360381019080803579ffffffffffffffffffffffffffffffffffffffffffffffffffff191690602001909291908035906020019092919050505061116a565b604051808273ffffffffffffffffffffffffffffffffffffffff1673ffffffffffffffffffffffffffffffffffffffff16815260200191505060405180910390f35b6105846111b7565b005b34801561059257600080fd5b506105d960048036038101908080357affffffffffffffffffffffffffffffffffffffffffffffffffffff191690602001909291908035906020019092919050505061131a565b604051808273ffffffffffffffffffffffffffffffffffffffff1673ffffffffffffffffffffffffffffffffffffffff16815260200191505060405180910390f35b34801561062757600080fd5b50610666600480360381019080803573ffffffffffffffffffffffffffffffffffffffff16906020019092919080359060200190929190505050611367565b604051808279ffffffffffffffffffffffffffffffffffffffffffffffffffff191679ffffffffffffffffffffffffffffffffffffffffffffffffffff1916815260200191505060405180910390f35b3480156106c257600080fd5b506106cb6113c6565b6040518080602001828103825283818151815260200191508051906020019060200280838360005b8381101561070e5780820151818401526020810190506106f3565b505050509050019250505060405180910390f35b34801561072e57600080fd5b5061076d600480360381019080803573ffffffffffffffffffffffffffffffffffffffff16906020019092919080359060200190929190505050611454565b60405180827affffffffffffffffffffffffffffffffffffffffffffffffffffff19167affffffffffffffffffffffffffffffffffffffffffffffffffffff1916815260200191505060405180910390f35b3480156107cb57600080fd5b506107d46114b4565b604051808273ffffffffffffffffffffffffffffffffffffffff1673ffffffffffffffffffffffffffffffffffffffff16815260200191505060405180910390f35b34801561082257600080fd5b50610861600480360381019080803573ffffffffffffffffffffffffffffffffffffffff169060200190929190803590602001909291905050506114d9565b60405180827bffffffffffffffffffffffffffffffffffffffffffffffffffffffff19167bffffffffffffffffffffffffffffffffffffffffffffffffffffffff1916815260200191505060405180910390f35b3480156108c157600080fd5b506108ca61153a565b6040518082815260200191505060405180910390f35b3480156108ec57600080fd5b506108f5611540565b604051808273ffffffffffffffffffffffffffffffffffffffff1673ffffffffffffffffffffffffffffffffffffffff16815260200191505060405180910390f35b34801561094357600080fd5b5061094c611566565b005b34801561095a57600080fd5b5061096361189d565b604051808215151515815260200191505060405180910390f35b34801561098957600080fd5b506109926118b0565b604051808273ffffffffffffffffffffffffffffffffffffffff1673ffffffffffffffffffffffffffffffffffffffff16815260200191505060405180910390f35b3480156109e057600080fd5b50610a3d60048036038101908080357affffffffffffffffffffffffffffffffffffffffffffffffffffff19169060200190929190803573ffffffffffffffffffffffffffffffffffffffff1690602001909291905050506118d6565b604051808381526020018281526020019250505060405180910390f35b348015610a6657600080fd5b50610a9b600480360381019080803573ffffffffffffffffffffffffffffffffffffffff16906020019092919050505061197a565b005b348015610aa957600080fd5b50610ade600480360381019080803573ffffffffffffffffffffffffffffffffffffffff169060200190929190505050611c34565b005b348015610aec57600080fd5b50610b0b60048036038101908080359060200190929190505050611dc6565b604051808273ffffffffffffffffffffffffffffffffffffffff1673ffffffffffffffffffffffffffffffffffffffff16815260200191505060405180910390f35b60025434141515610bec576040517f08c379a000000000000000000000000000000000000000000000000000000000815260040180806020018281038252602c8152602001807f76616c7565207265636569766564206973206c657373207468616e207468652081526020017f6c6f747465727956616c7565000000000000000000000000000000000000000081525060400191505060405180910390fd5b60015442101515610c65576040517f08c379a00000000000000000000000000000000000000000000000000000000081526004018080602001828103825260158152602001807f4c6f7474657279206861732066696e616c697a6564000000000000000000000081525060200191505060405180910390fd5b600f60009054906101000a900460ff16151515610cea576040517f08c379a000000000000000000000000000000000000000000000000000000000815260040180806020018281038252601a8152602001807f4c6f74746572792068617320616c726561647920706c6179656400000000000081525060200191505060405180910390fd5b610cf383611e04565b1515610d8d576040517f08c379a00000000000000000000000000000000000000000000000000000000081526004018080602001828103825260228152602001807f4e6f207265706561746564206e756d6265727320696e7369646520746865206281526020017f657400000000000000000000000000000000000000000000000000000000000081525060400191505060405180910390fd5b610dbc838360068060200260405190810160405280929190826006602002808284378201915050505050611f88565b1515610dc757600080fd5b610df68382600f806020026040519081016040528092919082600f60200280828437820191505050505061210a565b1515610e0157600080fd5b610e1860025460035461228c90919063ffffffff16565b600381905550600e3390806001815401808255809150509060018203906000526020600020016000909192909190916101000a81548173ffffffffffffffffffffffffffffffffffffffff021916908373ffffffffffffffffffffffffffffffffffffffff16021790555050610ed983836006806020026040519081016040528092919082600660200280828437820191505050505083600f806020026040519081016040528092919082600f6020028082843782019150505050506122a8565b505050565b60048060000160009054906101000a90047a01000000000000000000000000000000000000000000000000000002905081565b60015481565b600d60205281600052604060002081815481101515610f3257fe5b906000526020600020016000915091509054906101000a900473ffffffffffffffffffffffffffffffffffffffff1681565b6000806000806000806000806000600254600154600354600e80549050600e80549050600f60009054906101000a900460ff16600f60019054906101000a900473ffffffffffffffffffffffffffffffffffffffff16601060009054906101000a900473ffffffffffffffffffffffffffffffffffffffff166000809054906101000a900473ffffffffffffffffffffffffffffffffffffffff16985098509850985098509850985098509850909192939495969798565b600080600a60008473ffffffffffffffffffffffffffffffffffffffff1673ffffffffffffffffffffffffffffffffffffffff16815260200190815260200160002080549050600d6000867bffffffffffffffffffffffffffffffffffffffffffffffffffffffff19167bffffffffffffffffffffffffffffffffffffffffffffffffffffffff1916815260200190815260200160002080549050915091509250929050565b600080600860008473ffffffffffffffffffffffffffffffffffffffff1673ffffffffffffffffffffffffffffffffffffffff16815260200190815260200160002080549050600b60008679ffffffffffffffffffffffffffffffffffffffffffffffffffff191679ffffffffffffffffffffffffffffffffffffffffffffffffffff1916815260200190815260200160002080549050915091509250929050565b60035481565b600b6020528160005260406000208181548110151561118557fe5b906000526020600020016000915091509054906101000a900473ffffffffffffffffffffffffffffffffffffffff1681565b600f60009054906101000a900460ff1615151561123c576040517f08c379a000000000000000000000000000000000000000000000000000000000815260040180806020018281038252601c8152602001807f6c6f747465727920686173207374696c6c206e6f7420706c617965640000000081525060200191505060405180910390fd5b426001541115156112b5576040517f08c379a00000000000000000000000000000000000000000000000000000000081526004018080602001828103825260108152602001807f646561646c696e65206973206f7665720000000000000000000000000000000081525060200191505060405180910390fd5b6000341115156112c457600080fd5b6112d93460035461228c90919063ffffffff16565b6003819055507fc2c48fe60b23268064613cbca1898c1871bae36909b3f33467dd82c6fe2cb2e36003546040518082815260200191505060405180910390a1565b600c6020528160005260406000208181548110151561133557fe5b906000526020600020016000915091509054906101000a900473ffffffffffffffffffffffffffffffffffffffff1681565b60086020528160005260406000208181548110151561138257fe5b9060005260206000209060059182820401919006600602915091509054906101000a90047a0100000000000000000000000000000000000000000000000000000281565b6060600e80548060200260200160405190810160405280929190818152602001828054801561144a57602002820191906000526020600020905b8160009054906101000a900473ffffffffffffffffffffffffffffffffffffffff1673ffffffffffffffffffffffffffffffffffffffff1681526020019060010190808311611400575b5050505050905090565b60096020528160005260406000208181548110151561146f57fe5b9060005260206000209060069182820401919006600502915091509054906101000a90047b010000000000000000000000000000000000000000000000000000000281565b6000809054906101000a900473ffffffffffffffffffffffffffffffffffffffff1681565b600a602052816000526040600020818154811015156114f457fe5b9060005260206000209060089182820401919006600402915091509054906101000a90047c01000000000000000000000000000000000000000000000000000000000281565b60025481565b601060009054906101000a900473ffffffffffffffffffffffffffffffffffffffff1681565b600060606000806000809054906101000a900473ffffffffffffffffffffffffffffffffffffffff1673ffffffffffffffffffffffffffffffffffffffff163373ffffffffffffffffffffffffffffffffffffffff161415156115c857600080fd5b42600154111515611641576040517f08c379a00000000000000000000000000000000000000000000000000000000081526004018080602001828103825260178152602001807f646561646c696e652068617320746f206265206f76657200000000000000000081525060200191505060405180910390fd5b600f60009054906101000a900460ff161515156116c6576040517f08c379a00000000000000000000000000000000000000000000000000000000081526004018080602001828103825260128152602001807f6c6f74746572792068617320706c61796564000000000000000000000000000081525060200191505060405180910390fd5b6001600f60006101000a81548160ff02191690831515021790555042604051808281526020019150506040518091039020935060066040519080825280601f01601f19166020018201604052801561172d5781602001602082028038833980820191505090505b509250600091505b600682101561184657600682141561174c57611846565b602d847e01000000000000000000000000000000000000000000000000000000000000900481151561177a57fe5b069050600081141561178b57602d90505b6117b7817f01000000000000000000000000000000000000000000000000000000000000000284612728565b80156117c4575060008114155b1561183357807f01000000000000000000000000000000000000000000000000000000000000000283838151811015156117fa57fe5b9060200101907effffffffffffffffffffffffffffffffffffffffffffffffffffffffffffff1916908160001a90535081806001019250505b601084600019169060020a029350611735565b61184f836127ff565b925061185a83612a7b565b600460000160006101000a81548165ffffffffffff02191690837a0100000000000000000000000000000000000000000000000000009004021790555050505050565b600f60009054906101000a900460ff1681565b600f60019054906101000a900473ffffffffffffffffffffffffffffffffffffffff1681565b600080600960008473ffffffffffffffffffffffffffffffffffffffff1673ffffffffffffffffffffffffffffffffffffffff16815260200190815260200160002080549050600c6000867affffffffffffffffffffffffffffffffffffffffffffffffffffff19167affffffffffffffffffffffffffffffffffffffffffffffffffffff1916815260200190815260200160002080549050915091509250929050565b600080601060009054906101000a900473ffffffffffffffffffffffffffffffffffffffff1673ffffffffffffffffffffffffffffffffffffffff163373ffffffffffffffffffffffffffffffffffffffff161415156119d957600080fd5b6000600354111515611a53576040517f08c379a000000000000000000000000000000000000000000000000000000000815260040180806020018281038252601d8152602001807f4a61636b706f7420736f68756c64206265206d6f7265207468616e203000000081525060200191505060405180910390fd5b600f60009054906101000a900460ff161515611ad7576040517f08c379a00000000000000000000000000000000000000000000000000000000081526004018080602001828103825260128152602001807f6c6f74746572792068617320706c61796564000000000000000000000000000081525060200191505060405180910390fd5b600073ffffffffffffffffffffffffffffffffffffffff168373ffffffffffffffffffffffffffffffffffffffff1614151515611ba2576040517f08c379a00000000000000000000000000000000000000000000000000000000081526004018080602001828103825260238152602001807f6e6577206c6f747465727920616464726573732073686f756c64206e6f74206281526020017f652030000000000000000000000000000000000000000000000000000000000081525060400191505060405180910390fd5b600354915060006003819055508290508073ffffffffffffffffffffffffffffffffffffffff1663642e8fef836040518263ffffffff167c01000000000000000000000000000000000000000000000000000000000281526004016000604051808303818588803b158015611c1657600080fd5b505af1158015611c2a573d6000803e3d6000fd5b5050505050505050565b6000809054906101000a900473ffffffffffffffffffffffffffffffffffffffff1673ffffffffffffffffffffffffffffffffffffffff163373ffffffffffffffffffffffffffffffffffffffff16141515611c8f57600080fd5b600073ffffffffffffffffffffffffffffffffffffffff168173ffffffffffffffffffffffffffffffffffffffff1614151515611ccb57600080fd5b7f8be0079c531659141344cd1fd0a4f28419497f9722a3daafe3b4186f6b6457e06000809054906101000a900473ffffffffffffffffffffffffffffffffffffffff1682604051808373ffffffffffffffffffffffffffffffffffffffff1673ffffffffffffffffffffffffffffffffffffffff1681526020018273ffffffffffffffffffffffffffffffffffffffff1673ffffffffffffffffffffffffffffffffffffffff1681526020019250505060405180910390a1806000806101000a81548173ffffffffffffffffffffffffffffffffffffffff021916908373ffffffffffffffffffffffffffffffffffffffff16021790555050565b600e81815481101515611dd557fe5b906000526020600020016000915054906101000a900473ffffffffffffffffffffffffffffffffffffffff1681565b60008060008060068060ff16141515611e205760009350611f80565b600092505b600660ff16831015611f7b578483600681101515611e3f57fe5b1a7f01000000000000000000000000000000000000000000000000000000000000000291506000827f01000000000000000000000000000000000000000000000000000000000000009004111580611eba5750602d827f01000000000000000000000000000000000000000000000000000000000000009004115b15611ec85760009350611f80565b6001830190505b600660ff16811015611f6e578481600681101515611ee957fe5b1a7f0100000000000000000000000000000000000000000000000000000000000000027effffffffffffffffffffffffffffffffffffffffffffffffffffffffffffff1916827effffffffffffffffffffffffffffffffffffffffffffffffffffffffffffff1916101515611f615760009350611f80565b8080600101915050611ecf565b8280600101935050611e25565b600193505b505050919050565b6000806000806000806000806000809750600096505b60068710156120f5578987600681101515611fb557fe5b60200201519550611fc586612b4d565b1515611fd457600098506120fc565b6000945060009350600092505b600560ff168310156120d6578583600581101515611ffb57fe5b1a7f01000000000000000000000000000000000000000000000000000000000000000291508490505b600660ff168110156120c957817effffffffffffffffffffffffffffffffffffffffffffffffffffffffffffff19168b8260068110151561206157fe5b1a7f0100000000000000000000000000000000000000000000000000000000000000027effffffffffffffffffffffffffffffffffffffffffffffffffffffffffffff191614156120bc5780945083806001019450506120c9565b8080600101915050612024565b8280600101935050611fe1565b60058414156120e85787806001019850505b8680600101975050611f9e565b6006881498505b505050505050505092915050565b6000806000806000806000806000809750600096505b600f871015612277578987600f8110151561213757fe5b6020020151955061214786612cd1565b1515612156576000985061227e565b6000945060009350600092505b600460ff1683101561225857858360048110151561217d57fe5b1a7f01000000000000000000000000000000000000000000000000000000000000000291508490505b600660ff1681101561224b57817effffffffffffffffffffffffffffffffffffffffffffffffffffffffffffff19168b826006811015156121e357fe5b1a7f0100000000000000000000000000000000000000000000000000000000000000027effffffffffffffffffffffffffffffffffffffffffffffffffffffffffffff1916141561223e57809450838060010194505061224b565b80806001019150506121a6565b8280600101935050612163565b600484141561226a5787806001019850505b8680600101975050612120565b600f881498505b505050505050505092915050565b6000818301905082811015151561229f57fe5b80905092915050565b600080600080600860003373ffffffffffffffffffffffffffffffffffffffff1673ffffffffffffffffffffffffffffffffffffffff16815260200190815260200160002087908060018154018082558091505090600182039060005260206000209060059182820401919006600602909192909190916101000a81548165ffffffffffff02191690837a0100000000000000000000000000000000000000000000000000009004021790555050600b60008879ffffffffffffffffffffffffffffffffffffffffffffffffffff191679ffffffffffffffffffffffffffffffffffffffffffffffffffff191681526020019081526020016000203390806001815401808255809150509060018203906000526020600020016000909192909190916101000a81548173ffffffffffffffffffffffffffffffffffffffff021916908373ffffffffffffffffffffffffffffffffffffffff16021790555050600093505b600684101561259257858460068110151561242357fe5b60200201519250600960003373ffffffffffffffffffffffffffffffffffffffff1673ffffffffffffffffffffffffffffffffffffffff16815260200190815260200160002083908060018154018082558091505090600182039060005260206000209060069182820401919006600502909192909190916101000a81548164ffffffffff02191690837b010000000000000000000000000000000000000000000000000000009004021790555050600c6000847affffffffffffffffffffffffffffffffffffffffffffffffffffff19167affffffffffffffffffffffffffffffffffffffffffffffffffffff191681526020019081526020016000203390806001815401808255809150509060018203906000526020600020016000909192909190916101000a81548173ffffffffffffffffffffffffffffffffffffffff021916908373ffffffffffffffffffffffffffffffffffffffff16021790555050838060010194505061240c565b600091505b600f82101561271f578482600f811015156125ae57fe5b60200201519050600a60003373ffffffffffffffffffffffffffffffffffffffff1673ffffffffffffffffffffffffffffffffffffffff16815260200190815260200160002081908060018154018082558091505090600182039060005260206000209060089182820401919006600402909192909190916101000a81548163ffffffff02191690837c01000000000000000000000000000000000000000000000000000000009004021790555050600d6000827bffffffffffffffffffffffffffffffffffffffffffffffffffffffff19167bffffffffffffffffffffffffffffffffffffffffffffffffffffffff191681526020019081526020016000203390806001815401808255809150509060018203906000526020600020016000909192909190916101000a81548173ffffffffffffffffffffffffffffffffffffffff021916908373ffffffffffffffffffffffffffffffffffffffff160217905550508180600101925050612597565b50505050505050565b600080600090505b82518110156127f357828181518110151561274757fe5b9060200101517f010000000000000000000000000000000000000000000000000000000000000090047f0100000000000000000000000000000000000000000000000000000000000000027effffffffffffffffffffffffffffffffffffffffffffffffffffffffffffff1916847effffffffffffffffffffffffffffffffffffffffffffffffffffffffffffff191614156127e657600091506127f8565b8080600101915050612730565b600191505b5092915050565b606060008060008085519350600092505b83831015612a6f576001830191505b83821015612a6257858281518110151561283557fe5b9060200101517f010000000000000000000000000000000000000000000000000000000000000090047f0100000000000000000000000000000000000000000000000000000000000000027effffffffffffffffffffffffffffffffffffffffffffffffffffffffffffff191686848151811015156128b057fe5b9060200101517f010000000000000000000000000000000000000000000000000000000000000090047f0100000000000000000000000000000000000000000000000000000000000000027effffffffffffffffffffffffffffffffffffffffffffffffffffffffffffff19161115612a5557858381518110151561293157fe5b9060200101517f010000000000000000000000000000000000000000000000000000000000000090047f0100000000000000000000000000000000000000000000000000000000000000029050858281518110151561298c57fe5b9060200101517f010000000000000000000000000000000000000000000000000000000000000090047f01000000000000000000000000000000000000000000000000000000000000000286848151811015156129e557fe5b9060200101907effffffffffffffffffffffffffffffffffffffffffffffffffffffffffffff1916908160001a905350808683815181101515612a2457fe5b9060200101907effffffffffffffffffffffffffffffffffffffffffffffffffffffffffffff1916908160001a9053505b818060010192505061281f565b8280600101935050612810565b85945050505050919050565b60008060008091505b8351821015612b46578382815181101515612a9b57fe5b9060200101517f010000000000000000000000000000000000000000000000000000000000000090047f0100000000000000000000000000000000000000000000000000000000000000027effffffffffffffffffffffffffffffffffffffffffffffffffffffffffffff19169050816008028179ffffffffffffffffffffffffffffffffffffffffffffffffffff19169060020a9004905080831792508180600101925050612a84565b5050919050565b60008060008060058060ff16141515612b695760009350612cc9565b600092505b600560ff16831015612cc4578483600581101515612b8857fe5b1a7f01000000000000000000000000000000000000000000000000000000000000000291506000827f01000000000000000000000000000000000000000000000000000000000000009004111580612c035750602d827f01000000000000000000000000000000000000000000000000000000000000009004115b15612c115760009350612cc9565b6001830190505b600560ff16811015612cb7578481600581101515612c3257fe5b1a7f0100000000000000000000000000000000000000000000000000000000000000027effffffffffffffffffffffffffffffffffffffffffffffffffffffffffffff1916827effffffffffffffffffffffffffffffffffffffffffffffffffffffffffffff1916101515612caa5760009350612cc9565b8080600101915050612c18565b8280600101935050612b6e565b600193505b505050919050565b60008060008060048060ff16141515612ced5760009350612e4d565b600092505b600460ff16831015612e48578483600481101515612d0c57fe5b1a7f01000000000000000000000000000000000000000000000000000000000000000291506000827f01000000000000000000000000000000000000000000000000000000000000009004111580612d875750602d827f01000000000000000000000000000000000000000000000000000000000000009004115b15612d955760009350612e4d565b6001830190505b600460ff16811015612e3b578481600481101515612db657fe5b1a7f0100000000000000000000000000000000000000000000000000000000000000027effffffffffffffffffffffffffffffffffffffffffffffffffffffffffffff1916827effffffffffffffffffffffffffffffffffffffffffffffffffffffffffffff1916101515612e2e5760009350612e4d565b8080600101915050612d9c565b8280600101935050612cf2565b600193505b5050509190505600a165627a7a723058202bc0371f63506b6a40d2af967be94c39bca3f9f05a83ea14925b84ad90c3625e0029",
  "source": "pragma solidity ^0.4.23;\r\n\r\nimport \"./ownership/Ownable.sol\";\r\nimport \"./math/SafeMath.sol\";\r\nimport \"./LotteryFactory.sol\";\r\n\r\n/**\r\n * @title Lottery\r\n * @dev Lottery with 6 numbers between 01-45. for each bet we store:\r\n * 1 bytes6 [ 14, 15, 16, 19, 32, 35 ] = 0x0e0f10132023\r\n * 6 bytes5 [ 14, 15, 16, 19, 35 ] = 0x0e0f101323, ..... \r\n * 15 bytes4 [ 14, 15, 16, 19, 35 ] = 0x0e0f101323, ..... \r\n * according to the formula (n!/(k!(n-k)!)) where\r\n * for 5 numbers n = 6 and k = 5, for 4 numbers n = 6 and k = 4\r\n */\r\n\r\ncontract Lottery is Ownable {\r\n    using SafeMath for uint256; \r\n\r\n    event Winners(address[] winners, uint256 jackPot);\r\n    event TransferJackPot(uint256 value);\r\n    event Debug(uint val);\r\n\r\n    uint256 public deadline;\r\n    uint256 public lotteryValue;\r\n    uint256 public jackPot;\r\n   \r\n    struct WinningNumbers { \r\n        bytes6 winningNumber; \r\n        bytes5[6] winningNumbers5;\r\n        bytes4[15] winningNumbers4;\r\n    } \r\n\r\n    WinningNumbers public winningNumbers;\r\n\r\n    // @dev mapping of the sender => numbers, when user enters the lottery we save his numbers\r\n    mapping(address => bytes6[]) public playerNumbers6;\r\n    mapping(address => bytes5[]) public playerNumbers5;\r\n    mapping(address => bytes4[]) public playerNumbers4;\r\n\r\n    // @dev mapping of the numbers => players[], when user enters a number we save his \r\n    // number pointing to his address\r\n    mapping(bytes6 => address[]) public numbers6;\r\n    mapping(bytes5 => address[]) public numbers5;\r\n    mapping(bytes4 => address[]) public numbers4;\r\n\r\n    address[] public players;\r\n\r\n    bool public lotteryHasPlayed = false;\r\n\r\n    // @dev we keep a reference of the last lottery\r\n    address public lastLottery;\r\n\r\n    // @dev the address of the factory which deployed this lottery\r\n    address public factoryAddress;\r\n\r\n    // @dev modifier to check if sender is the factoryAddress\r\n    modifier onlyFactory() {\r\n        require(msg.sender == factoryAddress);\r\n        _;\r\n    }\r\n    /** \r\n    * @dev we set the lotteryFactory as the creator of this lottery\r\n    * @param _duration how long will the lottery be open to enter\r\n    * @param _lotteryValue sets the value of the lottery\r\n    * @param _lastLotteryAddress address of the previous lottery\r\n    */\r\n    constructor(uint256 _duration, uint256 _lotteryValue, address _lastLotteryAddress) public {\r\n        require(_duration > 0);\r\n        require(_lotteryValue > 0);\r\n        factoryAddress = msg.sender;\r\n        deadline = now + _duration;\r\n        lotteryValue = _lotteryValue;\r\n        lastLottery = _lastLotteryAddress;\r\n    }\r\n\r\n    /** \r\n    * @notice allows the player to enter (1500000 gas in testing)\r\n    * @param _number6 the main numbers in bytes [ 14, 15, 16, 19, 32, 35 ] = 0x0e0f10132023\r\n    * @param _numbers5 array[6] of bytes5, 6 possible combinations of 5 numbers\r\n    * [ 14, 15, 16, 19, 35 ] = 0x0e0f101323, ....\r\n    * @param _numbers4 array[15] of bytes4, 15 possible combinations of 4 numbers\r\n    * [ 14, 15, 16, 19 ] = 0x0e0f1013, ....\r\n    */\r\n    function enter(bytes6 _number6, bytes5[6] _numbers5, bytes4[15] _numbers4) external payable {\r\n        require(msg.value == lotteryValue, \"value received is less than the lotteryValue\");\r\n        require(now < deadline, \"Lottery has finalized\");\r\n        require(!lotteryHasPlayed, \"Lottery has already played\");\r\n        require(_areValidNumbers6(_number6), \"No repeated numbers inside the bet\");\r\n        require(_areInsideNumber6(_number6, _numbers5));\r\n        require(_areInsideNumber6(_number6, _numbers4));\r\n        jackPot = jackPot.add(lotteryValue);\r\n        players.push(msg.sender);\r\n        _storeNumbers(_number6, _numbers5, _numbers4);\r\n    }\r\n\r\n    /** \r\n    * @notice checks if there is no numbers below 0 and above 45\r\n    * then checks if there is no repeated number and they are\r\n    * organized from lowest to highest\r\n    * @param _number6 6 bytes containing the numbers\r\n    */\r\n    function _areValidNumbers6(bytes6 _number6) private pure returns(bool) {\r\n        if(_number6.length!=6) return false;\r\n        for(uint256 i = 0; i < _number6.length; i++) {\r\n            bytes1 num = _number6[i];\r\n            if(uint256(num) <= 0 || uint256(num)>45) { \r\n                return false;\r\n            }\r\n            for(uint256 j = i+1; j < _number6.length; j++) {\r\n                if(num >= _number6[j]) return false;\r\n            }\r\n        }\r\n        return true;\r\n    }\r\n\r\n    /** \r\n    * @notice checks if there is no numbers below 0 and above 45\r\n    * then checks if there is no repeated number and they are\r\n    * organized from lowest to highest\r\n    * @param _number5 5 bytes containing the numbers\r\n    */\r\n    function _areValidNumbers5(bytes5 _number5) private pure returns(bool) {\r\n        if(_number5.length!=5) return false;\r\n        for(uint256 i = 0; i < _number5.length; i++) {\r\n            bytes1 num = _number5[i];\r\n            if(uint256(num) <= 0 || uint256(num)>45) { \r\n                return false;\r\n            }\r\n            for(uint256 j = i+1; j < _number5.length; j++) {\r\n                if(num >= _number5[j]) return false;\r\n            }\r\n        }\r\n        return true;\r\n    }\r\n\r\n    /** \r\n    * @notice checks if there is no numbers below 0 and above 45\r\n    * then checks if there is no repeated number and they are\r\n    * organized from lowest to highest\r\n    * @param _number4 4 bytes containing the numbers\r\n    */\r\n    function _areValidNumbers4(bytes4 _number4) private pure returns(bool) {\r\n        if(_number4.length!=4) return false;\r\n        for(uint256 i = 0; i < _number4.length; i++) {\r\n            bytes1 num = _number4[i];\r\n            if(uint256(num) <= 0 || uint256(num)>45) { \r\n                return false;\r\n            }\r\n            for(uint256 j = i+1; j < _number4.length; j++) {\r\n                if(num >= _number4[j]) return false;\r\n            }\r\n        }\r\n        return true;\r\n    }\r\n\r\n    /** \r\n    * @notice checks if each number(2nd for) inside each combination(1st for) is valid\r\n    * and is inside the main number(3rd for) or @param _number6 \r\n    * so, we check for example a number6 in integers is [ 14, 15, 16, 19, 32, 35 ]\r\n    * this in bytes is 0x0e0f10132023, so one of the possible 15 combinations of 4 \r\n    * numbers could be [ 14, 15, 16, 19, 35 ] where in bytes is 0x0e0f101323 \r\n    * @param _number6 6 bytes containing the numbers\r\n    * @param _numbers5 array[6] of bytes5\r\n    */\r\n    function _areInsideNumber6(bytes6 _number6, bytes5[6] memory _numbers5) private pure returns(bool) {\r\n        uint256 numbersLength = 0;\r\n        for(uint256 i = 0; i < _numbers5.length; i++){\r\n            bytes5 number5 = _numbers5[i];\r\n            if(!_areValidNumbers5(number5)) return false;\r\n            uint256 index = 0;\r\n            uint256 found = 0;\r\n            for(uint256 j = 0; j < number5.length; j++){\r\n                bytes1 each = number5[j];\r\n                for(uint256 k = index; k < _number6.length; k++){\r\n                    if(_number6[k] == each){\r\n                        index = k;\r\n                        found++;\r\n                        break;\r\n                    }\r\n                }\r\n            }\r\n            if(found==5) numbersLength++;\r\n        }\r\n        return numbersLength==6;\r\n    }\r\n\r\n    /** \r\n    * @notice checks if each number(2nd for) inside each combination(1st for) is valid\r\n    * and is inside the main number(3rd for) or @param _number6 \r\n    * so, we check for example a number6 in integers is [ 14, 15, 16, 19, 32, 35 ]\r\n    * this in bytes is 0x0e0f10132023, so one of the possible 15 combinations of 4 \r\n    * numbers could be [ 14, 15, 16, 35 ] where in bytes is 0x0e0f1023 \r\n    * @param _number6 6 bytes containing the numbers\r\n    * @param _numbers4 array[15]  of bytes4 \r\n    */\r\n    function _areInsideNumber6(bytes6 _number6, bytes4[15] memory _numbers4) private pure returns(bool) {\r\n        uint256 numbersLength = 0;\r\n        for(uint256 i = 0; i < _numbers4.length; i++){\r\n            bytes4 number4 = _numbers4[i];\r\n            if(!_areValidNumbers4(number4)) return false;\r\n            uint256 index = 0;\r\n            uint256 found = 0;\r\n            for(uint256 j = 0; j < number4.length; j++){\r\n                bytes1 each = number4[j];\r\n                for(uint256 k = index; k < _number6.length; k++){\r\n                    if(_number6[k] == each){\r\n                        index = k;\r\n                        found++;\r\n                        break;\r\n                    }\r\n                }\r\n            }\r\n            if(found==4) numbersLength++;\r\n        }\r\n        return numbersLength==15;\r\n    }\r\n\r\n    /** \r\n    * @notice we store one bytes6, 6 bytes5 and 15 bytes4, so when lottery plays\r\n    * we compare how many players played these numbers to know how much was won\r\n    * and separate this money from the jackpot\r\n    * @param _number6 6 bytes containing the numbers\r\n    * @param _numbers5 array[6]  of bytes5\r\n    * @param _numbers4 array[15]  of bytes4 \r\n    */\r\n    function _storeNumbers(bytes6 _number6, bytes5[6] memory _numbers5, bytes4[15] memory _numbers4) private {\r\n        playerNumbers6[msg.sender].push(_number6);\r\n        numbers6[_number6].push(msg.sender);\r\n        for(uint256 i = 0; i < _numbers5.length; i++){\r\n            bytes5 _number5 = _numbers5[i];\r\n            playerNumbers5[msg.sender].push(_number5);\r\n            numbers5[_number5].push(msg.sender);\r\n        }\r\n        for(uint256 j = 0; j < _numbers4.length; j++){\r\n            bytes4 _number4 = _numbers4[j];\r\n            playerNumbers4[msg.sender].push(_number4);\r\n            numbers4[_number4].push(msg.sender);\r\n        }\r\n    }\r\n\r\n    /**     \r\n    * @dev is called when player enters the lottery, we use this to allocate the money\r\n    */\r\n    function addJackPot() public payable {\r\n        require(!lotteryHasPlayed, \"lottery has still not played\");\r\n        require(deadline > now, \"deadline is over\");\r\n        require(msg.value>0);\r\n        jackPot = jackPot.add(msg.value);\r\n        emit TransferJackPot(jackPot);\r\n    }\r\n\r\n    /** \r\n    * @notice play the lottery when is finished, we get a bytes32 keccak256 of the \r\n    * random number, first 2 bytes are divided by 45 and we take the residous\r\n    * if the number is ok we put it in the first place of _number6, then we take\r\n    * the subsequent 2 bytes and do the same to put it in the second slot of _number6\r\n    * at the end _number 6 is the winning number\r\n    */\r\n    function playTheLottery() external onlyOwner {\r\n        require(deadline > now, \"deadline has to be over\");\r\n        require(!lotteryHasPlayed, \"lottery has played\");\r\n        lotteryHasPlayed = true;\r\n        bytes32 random = keccak256(now);        \r\n        bytes memory _number6 = new bytes(6);\r\n        uint256 size = 0;\r\n        while(size < 6){\r\n            if(size==6) break;\r\n            uint256 pair = uint256(bytes2(random)) % 45;\r\n            if(pair == 0) pair = 45;\r\n            if(_isNotRepeated(bytes1(pair), _number6) && pair != 0){\r\n                _number6[size] = bytes1(pair);\r\n                size++;\r\n            } \r\n            random = random << 16;\r\n        }\r\n        _number6 = _sortArray(_number6);\r\n        winningNumbers.winningNumber = convertBytesToBytes6(_number6);\r\n        //WinningNumbers.winningNumbers5 = setCombinations5();\r\n        //WinningNumbers.winningNumbers4 = setCombinations4(); \r\n    }\r\n\r\n    /** \r\n    * @notice we check there are no repeated numbers inside the future winning number\r\n    * @param _pair the byte to check if is not inside the array of bytes\r\n    * @param _number6 array of 6 bytes \r\n    */\r\n    function _isNotRepeated(bytes1 _pair, bytes memory _number6) private pure returns(bool) {\r\n        for(uint256 i = 0; i < _number6.length; i++){\r\n            if(_pair == _number6[i]) return false;\r\n        }\r\n        return true;\r\n    }\r\n\r\n    /** \r\n    * @notice sorts the array from the lowest to highest\r\n    * @param _number6 array of 6 bytes \r\n    */\r\n    function _sortArray(bytes memory _number6) private pure returns (bytes) {\r\n        uint256 l = _number6.length;\r\n        for(uint256 i = 0; i < l; i++) {\r\n            for(uint256 j = i+1; j < l ;j++) {\r\n                if(_number6[i] > _number6[j]) {\r\n                    bytes1 temp = _number6[i];\r\n                    _number6[i] = _number6[j];\r\n                    _number6[j] = temp;\r\n                }\r\n            }\r\n        }\r\n        return _number6;\r\n    }\r\n\r\n    /** \r\n    * @notice converts byte to readonly bytes6, this will be the final number\r\n    * @param _number6 array of 6 bytes \r\n    */\r\n    function convertBytesToBytes6(bytes memory _number6) private pure returns (bytes6 outBytes6) {\r\n        for (uint256 i = 0; i < _number6.length; i++) {\r\n            bytes6 tempBytes6 = _number6[i];\r\n            tempBytes6 = tempBytes6 >> (8 * i);\r\n            outBytes6 = outBytes6 | tempBytes6;\r\n        }\r\n    }\r\n\r\n    function setCombinations5() private view returns (bytes5[]) {\r\n        bytes6 winner = winningNumbers.winningNumber;\r\n\r\n\r\n    }\r\n\r\n    function setCombinations4() private view returns (bytes4[]) {\r\n        bytes6 winner = winningNumbers.winningNumber;\r\n\r\n    }\r\n\r\n     /** \r\n    * @notice Transfer the jackpot nobody won the lottery to a the newLottery \r\n    */\r\n    function transferJackPot(address _newLottery) external onlyFactory {\r\n        //require(winners.length == 0, \"Must not be winners in order to transfer\");\r\n        require(jackPot > 0, \"Jackpot sohuld be more than 0\");\r\n        require(lotteryHasPlayed, \"lottery has played\");\r\n        require(_newLottery != address(0), \"new lottery address should not be 0\");\r\n        uint256 _jackPot = jackPot;\r\n        jackPot = 0;\r\n        Lottery lottery = Lottery(_newLottery);\r\n        lottery.addJackPot.value(_jackPot)();  \r\n    }\r\n\r\n    //Getters\r\n    function getStoredNumbers6(bytes6 _number6, address user) public view returns(\r\n        uint256, uint256) {\r\n        return (\r\n            playerNumbers6[user].length,\r\n            numbers6[_number6].length\r\n        );\r\n    }\r\n\r\n    function getStoredNumbers5(bytes5 _number5, address user) public view returns(\r\n        uint256, uint256) {\r\n        return (\r\n            playerNumbers5[user].length,\r\n            numbers5[_number5].length\r\n        );\r\n    }\r\n\r\n    function getStoredNumbers4(bytes4 _numbers4, address user) public view returns(\r\n        uint256, uint256) {\r\n        return (\r\n            playerNumbers4[user].length,\r\n            numbers4[_numbers4].length\r\n        );\r\n    }\r\n\r\n    function getPlayers() external view returns(address[]){\r\n        return players;\r\n    }\r\n\r\n    function getSummary() external view returns (\r\n        uint256, uint256, uint256, uint256, uint256, bool, address, address, address\r\n    ) {\r\n        return (\r\n            lotteryValue,\r\n            deadline,\r\n            jackPot,\r\n            players.length,\r\n            players.length,\r\n            lotteryHasPlayed,\r\n            lastLottery,\r\n            factoryAddress, \r\n            owner\r\n        );\r\n    }\r\n    \r\n}\r\n\r\n\r\n\r\n",
  "sourcePath": "E:\\Ethereum\\Worldpay\\lottery-contract\\ethereum\\contracts\\Lottery.sol",
  "compiler": {
    "name": "solc",
    "version": "0.4.23+commit.124ca40d.Emscripten.clang"
  },
  "schemaVersion": "2.0.0",
  "updatedAt": "2018-06-05T03:38:00.632Z"
}