{
  "contractName": "LotteryFactory",
  "abi": [
    {
      "constant": true,
      "inputs": [
        {
          "name": "",
          "type": "uint256"
        }
      ],
      "name": "lotteries",
      "outputs": [
        {
          "name": "",
          "type": "address"
        }
      ],
      "payable": false,
      "stateMutability": "view",
      "type": "function"
    },
    {
      "constant": true,
      "inputs": [],
      "name": "owner",
      "outputs": [
        {
          "name": "",
          "type": "address"
        }
      ],
      "payable": false,
      "stateMutability": "view",
      "type": "function"
    },
    {
      "constant": false,
      "inputs": [
        {
          "name": "newOwner",
          "type": "address"
        }
      ],
      "name": "transferOwnership",
      "outputs": [],
      "payable": false,
      "stateMutability": "nonpayable",
      "type": "function"
    },
    {
      "anonymous": false,
      "inputs": [
        {
          "indexed": false,
          "name": "deployedLottery",
          "type": "address"
        }
      ],
      "name": "LotteryDeployed",
      "type": "event"
    },
    {
      "anonymous": false,
      "inputs": [
        {
          "indexed": false,
          "name": "previousOwner",
          "type": "address"
        },
        {
          "indexed": false,
          "name": "newOwner",
          "type": "address"
        }
      ],
      "name": "OwnershipTransferred",
      "type": "event"
    },
    {
      "constant": false,
      "inputs": [
        {
          "name": "_duration",
          "type": "uint256"
        },
        {
          "name": "_lotteryValue",
          "type": "uint256"
        }
      ],
      "name": "createNewLottery",
      "outputs": [],
      "payable": false,
      "stateMutability": "nonpayable",
      "type": "function"
    },
    {
      "constant": true,
      "inputs": [],
      "name": "getLotteries",
      "outputs": [
        {
          "name": "",
          "type": "address[]"
        }
      ],
      "payable": false,
      "stateMutability": "view",
      "type": "function"
    }
  ],
  "bytecode": "0x6080604052336000806101000a81548173ffffffffffffffffffffffffffffffffffffffff021916908373ffffffffffffffffffffffffffffffffffffffff160217905550612b66806100536000396000f30060806040526004361061006d576000357c0100000000000000000000000000000000000000000000000000000000900463ffffffff1680631398e076146100725780638da5cb5b146100df578063a99a690714610136578063bcc82ec41461016d578063f2fde38b146101d9575b600080fd5b34801561007e57600080fd5b5061009d6004803603810190808035906020019092919050505061021c565b604051808273ffffffffffffffffffffffffffffffffffffffff1673ffffffffffffffffffffffffffffffffffffffff16815260200191505060405180910390f35b3480156100eb57600080fd5b506100f461025a565b604051808273ffffffffffffffffffffffffffffffffffffffff1673ffffffffffffffffffffffffffffffffffffffff16815260200191505060405180910390f35b34801561014257600080fd5b5061016b600480360381019080803590602001909291908035906020019092919050505061027f565b005b34801561017957600080fd5b506101826104f5565b6040518080602001828103825283818151815260200191508051906020019060200280838360005b838110156101c55780820151818401526020810190506101aa565b505050509050019250505060405180910390f35b3480156101e557600080fd5b5061021a600480360381019080803573ffffffffffffffffffffffffffffffffffffffff169060200190929190505050610583565b005b60018181548110151561022b57fe5b906000526020600020016000915054906101000a900473ffffffffffffffffffffffffffffffffffffffff1681565b6000809054906101000a900473ffffffffffffffffffffffffffffffffffffffff1681565b6000806000809054906101000a900473ffffffffffffffffffffffffffffffffffffffff1673ffffffffffffffffffffffffffffffffffffffff163373ffffffffffffffffffffffffffffffffffffffff161415156102dd57600080fd5b6000600180549050141561036857838360006102f7610bb3565b808481526020018381526020018273ffffffffffffffffffffffffffffffffffffffff1673ffffffffffffffffffffffffffffffffffffffff1681526020019350505050604051809103906000f080158015610357573d6000803e3d6000fd5b50915061036382610715565b6104ef565b60018080805490500381548110151561037d57fe5b9060005260206000200160009054906101000a900473ffffffffffffffffffffffffffffffffffffffff1690508073ffffffffffffffffffffffffffffffffffffffff1663a947d0506040518163ffffffff167c0100000000000000000000000000000000000000000000000000000000028152600401602060405180830381600087803b15801561040e57600080fd5b505af1158015610422573d6000803e3d6000fd5b505050506040513d602081101561043857600080fd5b810190808051906020019092919050505015156104e3576040517f08c379a00000000000000000000000000000000000000000000000000000000081526004018080602001828103825260318152602001807f436865636b73206966207468652070726576696f7573206c6f7474657279206881526020017f617320616c726561647920706c6179656400000000000000000000000000000081525060400191505060405180910390fd5b6104ee8484836108b5565b5b50505050565b6060600180548060200260200160405190810160405280929190818152602001828054801561057957602002820191906000526020600020905b8160009054906101000a900473ffffffffffffffffffffffffffffffffffffffff1673ffffffffffffffffffffffffffffffffffffffff168152602001906001019080831161052f575b5050505050905090565b6000809054906101000a900473ffffffffffffffffffffffffffffffffffffffff1673ffffffffffffffffffffffffffffffffffffffff163373ffffffffffffffffffffffffffffffffffffffff161415156105de57600080fd5b600073ffffffffffffffffffffffffffffffffffffffff168173ffffffffffffffffffffffffffffffffffffffff161415151561061a57600080fd5b7f8be0079c531659141344cd1fd0a4f28419497f9722a3daafe3b4186f6b6457e06000809054906101000a900473ffffffffffffffffffffffffffffffffffffffff1682604051808373ffffffffffffffffffffffffffffffffffffffff1673ffffffffffffffffffffffffffffffffffffffff1681526020018273ffffffffffffffffffffffffffffffffffffffff1673ffffffffffffffffffffffffffffffffffffffff1681526020019250505060405180910390a1806000806101000a81548173ffffffffffffffffffffffffffffffffffffffff021916908373ffffffffffffffffffffffffffffffffffffffff16021790555050565b8073ffffffffffffffffffffffffffffffffffffffff1663f2fde38b6000809054906101000a900473ffffffffffffffffffffffffffffffffffffffff166040518263ffffffff167c0100000000000000000000000000000000000000000000000000000000028152600401808273ffffffffffffffffffffffffffffffffffffffff1673ffffffffffffffffffffffffffffffffffffffff168152602001915050600060405180830381600087803b1580156107d157600080fd5b505af11580156107e5573d6000803e3d6000fd5b5050505060018190806001815401808255809150509060018203906000526020600020016000909192909190916101000a81548173ffffffffffffffffffffffffffffffffffffffff021916908373ffffffffffffffffffffffffffffffffffffffff160217905550507f06445d049f06d8e336db6cb614dc874b6e09880c1ee7418f27a58fddc1ed9be381604051808273ffffffffffffffffffffffffffffffffffffffff1673ffffffffffffffffffffffffffffffffffffffff16815260200191505060405180910390a150565b60008383836108c2610bb3565b808481526020018381526020018273ffffffffffffffffffffffffffffffffffffffff1673ffffffffffffffffffffffffffffffffffffffff1681526020019350505050604051809103906000f080158015610922573d6000803e3d6000fd5b50905061092e81610715565b60008273ffffffffffffffffffffffffffffffffffffffff1614158015610a4a575060008273ffffffffffffffffffffffffffffffffffffffff1663df15c37e6040518163ffffffff167c0100000000000000000000000000000000000000000000000000000000028152600401600060405180830381600087803b1580156109b657600080fd5b505af11580156109ca573d6000803e3d6000fd5b505050506040513d6000823e3d601f19601f8201168201806040525060208110156109f457600080fd5b810190808051640100000000811115610a0c57600080fd5b82810190506020810184811115610a2257600080fd5b8151856020820283011164010000000082111715610a3f57600080fd5b505092919050505051145b8015610af4575060008273ffffffffffffffffffffffffffffffffffffffff16634a78cdba6040518163ffffffff167c0100000000000000000000000000000000000000000000000000000000028152600401602060405180830381600087803b158015610ab757600080fd5b505af1158015610acb573d6000803e3d6000fd5b505050506040513d6020811015610ae157600080fd5b8101908080519060200190929190505050115b15610bad578173ffffffffffffffffffffffffffffffffffffffff1663c64facb5826040518263ffffffff167c0100000000000000000000000000000000000000000000000000000000028152600401808273ffffffffffffffffffffffffffffffffffffffff1673ffffffffffffffffffffffffffffffffffffffff168152602001915050600060405180830381600087803b158015610b9457600080fd5b505af1158015610ba8573d6000803e3d6000fd5b505050505b50505050565b604051611f7780610bc48339019056006080604052600a6005556000600a60006101000a81548160ff02191690831515021790555034801561003057600080fd5b50604051606080611f77833981018060405281019080805190602001909291908051906020019092919080519060200190929190505050336000806101000a81548173ffffffffffffffffffffffffffffffffffffffff021916908373ffffffffffffffffffffffffffffffffffffffff1602179055506000831115156100b657600080fd5b6000821115156100c557600080fd5b33600b60006101000a81548173ffffffffffffffffffffffffffffffffffffffff021916908373ffffffffffffffffffffffffffffffffffffffff1602179055508242016001819055508160028190555080600a60016101000a81548173ffffffffffffffffffffffffffffffffffffffff021916908373ffffffffffffffffffffffffffffffffffffffff160217905550505050611e0e806101696000396000f300608060405260043610610154576000357c0100000000000000000000000000000000000000000000000000000000900463ffffffff16806329dcb0cf146101595780633ccfd60b146101845780634051ddac1461019b5780634664611e1461025a578063481456f9146102855780634a78cdba146102b057806359e54095146102db5780635d495aea14610306578063642e8fef1461031d5780636a8f5678146103275780638b5b9ccc1461039e5780638da5cb5b1461040a5780639113a7b514610461578063966dae0e1461048c5780639c8ccc78146104e3578063a2fb117514610565578063a3e3d2e4146105d2578063a59f3e0c146105ff578063a947d0501461061f578063af0b4b271461064e578063bc3da535146106a5578063c64facb5146106fc578063d2c42de11461073f578063df15c37e1461076c578063f2fde38b146107d8578063f71d96cb1461081b575b600080fd5b34801561016557600080fd5b5061016e610888565b6040518082815260200191505060405180910390f35b34801561019057600080fd5b5061019961088e565b005b3480156101a757600080fd5b506101b0610961565b604051808a8152602001898152602001888152602001878152602001868152602001858152602001841515151581526020018373ffffffffffffffffffffffffffffffffffffffff1673ffffffffffffffffffffffffffffffffffffffff1681526020018273ffffffffffffffffffffffffffffffffffffffff1673ffffffffffffffffffffffffffffffffffffffff168152602001995050505050505050505060405180910390f35b34801561026657600080fd5b5061026f6109fa565b6040518082815260200191505060405180910390f35b34801561029157600080fd5b5061029a610a00565b6040518082815260200191505060405180910390f35b3480156102bc57600080fd5b506102c5610a06565b6040518082815260200191505060405180910390f35b3480156102e757600080fd5b506102f0610a0c565b6040518082815260200191505060405180910390f35b34801561031257600080fd5b5061031b610a53565b005b610325610d5d565b005b34801561033357600080fd5b5061035c6004803603810190808035906020019092919080359060200190929190505050610dc2565b604051808273ffffffffffffffffffffffffffffffffffffffff1673ffffffffffffffffffffffffffffffffffffffff16815260200191505060405180910390f35b3480156103aa57600080fd5b506103b3610e0f565b6040518080602001828103825283818151815260200191508051906020019060200280838360005b838110156103f65780820151818401526020810190506103db565b505050509050019250505060405180910390f35b34801561041657600080fd5b5061041f610e9d565b604051808273ffffffffffffffffffffffffffffffffffffffff1673ffffffffffffffffffffffffffffffffffffffff16815260200191505060405180910390f35b34801561046d57600080fd5b50610476610ec2565b6040518082815260200191505060405180910390f35b34801561049857600080fd5b506104a1610ec8565b604051808273ffffffffffffffffffffffffffffffffffffffff1673ffffffffffffffffffffffffffffffffffffffff16815260200191505060405180910390f35b3480156104ef57600080fd5b5061050e60048036038101908080359060200190929190505050610eee565b6040518080602001828103825283818151815260200191508051906020019060200280838360005b83811015610551578082015181840152602081019050610536565b505050509050019250505060405180910390f35b34801561057157600080fd5b5061059060048036038101908080359060200190929190505050610f8f565b604051808273ffffffffffffffffffffffffffffffffffffffff1673ffffffffffffffffffffffffffffffffffffffff16815260200191505060405180910390f35b3480156105de57600080fd5b506105fd60048036038101908080359060200190929190505050610fcd565b005b61061d6004803603810190808035906020019092919050505061105e565b005b34801561062b57600080fd5b506106346113b0565b604051808215151515815260200191505060405180910390f35b34801561065a57600080fd5b506106636113c3565b604051808273ffffffffffffffffffffffffffffffffffffffff1673ffffffffffffffffffffffffffffffffffffffff16815260200191505060405180910390f35b3480156106b157600080fd5b506106e6600480360381019080803573ffffffffffffffffffffffffffffffffffffffff1690602001909291905050506113e9565b6040518082815260200191505060405180910390f35b34801561070857600080fd5b5061073d600480360381019080803573ffffffffffffffffffffffffffffffffffffffff169060200190929190505050611401565b005b34801561074b57600080fd5b5061076a6004803603810190808035906020019092919050505061175e565b005b34801561077857600080fd5b506107816117f3565b6040518080602001828103825283818151815260200191508051906020019060200280838360005b838110156107c45780820151818401526020810190506107a9565b505050509050019250505060405180910390f35b3480156107e457600080fd5b50610819600480360381019080803573ffffffffffffffffffffffffffffffffffffffff169060200190929190505050611881565b005b34801561082757600080fd5b5061084660048036038101908080359060200190929190505050611a13565b604051808273ffffffffffffffffffffffffffffffffffffffff1673ffffffffffffffffffffffffffffffffffffffff16815260200191505060405180910390f35b60015481565b6000600760003373ffffffffffffffffffffffffffffffffffffffff1673ffffffffffffffffffffffffffffffffffffffff1681526020019081526020016000205490506000600760003373ffffffffffffffffffffffffffffffffffffffff1673ffffffffffffffffffffffffffffffffffffffff168152602001908152602001600020819055503373ffffffffffffffffffffffffffffffffffffffff166108fc829081150290604051600060405180830381858888f1935050505015801561095d573d6000803e3d6000fd5b5050565b6000806000806000806000806000600254600154600354600454600880549050600980549050600a60009054906101000a900460ff16600a60019054906101000a900473ffffffffffffffffffffffffffffffffffffffff16600b60009054906101000a900473ffffffffffffffffffffffffffffffffffffffff16985098509850985098509850985098509850909192939495969798565b60045481565b60055481565b60035481565b6000600760003373ffffffffffffffffffffffffffffffffffffffff1673ffffffffffffffffffffffffffffffffffffffff16815260200190815260200160002054905090565b6000806000809054906101000a900473ffffffffffffffffffffffffffffffffffffffff1673ffffffffffffffffffffffffffffffffffffffff163373ffffffffffffffffffffffffffffffffffffffff16141515610ab157600080fd5b60015442111515610b2a576040517f08c379a00000000000000000000000000000000000000000000000000000000081526004018080602001828103825260198152602001807f546865206c6f7474657279206973207374696c6c206f70656e0000000000000081525060200191505060405180910390fd5b600a60009054906101000a900460ff16151515610baf576040517f08c379a000000000000000000000000000000000000000000000000000000000815260040180806020018281038252601e8152602001807f546865206c6f74746572792068617320616c726561647920706c61796564000081525060200191505060405180910390fd5b6001600a60006101000a81548160ff02191690831515021790555060006004541415610be457610bdd611a51565b6004819055505b6006600060045481526020019081526020016000206009908054610c09929190611d4d565b5060006009805490501115610d5957610c32600980549050600354611b0990919063ffffffff16565b91506000600381905550600090505b6009805490508160ff161015610ca457610c9760098260ff16815481101515610c6657fe5b9060005260206000200160009054906101000a900473ffffffffffffffffffffffffffffffffffffffff1683611b1f565b8080600101915050610c41565b7f413cf1e17d70833c017de9b3c64d0104e3e37a7191d95b3d0d6276de992a0b4d60098360405180806020018381526020018281038252848181548152602001915080548015610d4957602002820191906000526020600020905b8160009054906101000a900473ffffffffffffffffffffffffffffffffffffffff1673ffffffffffffffffffffffffffffffffffffffff1681526020019060010190808311610cff575b5050935050505060405180910390a15b5050565b600034111515610d6c57600080fd5b610d8134600354611bb890919063ffffffff16565b6003819055507fc2c48fe60b23268064613cbca1898c1871bae36909b3f33467dd82c6fe2cb2e36003546040518082815260200191505060405180910390a1565b600660205281600052604060002081815481101515610ddd57fe5b906000526020600020016000915091509054906101000a900473ffffffffffffffffffffffffffffffffffffffff1681565b60606008805480602002602001604051908101604052809291908181526020018280548015610e9357602002820191906000526020600020905b8160009054906101000a900473ffffffffffffffffffffffffffffffffffffffff1673ffffffffffffffffffffffffffffffffffffffff1681526020019060010190808311610e49575b5050505050905090565b6000809054906101000a900473ffffffffffffffffffffffffffffffffffffffff1681565b60025481565b600b60009054906101000a900473ffffffffffffffffffffffffffffffffffffffff1681565b606060066000838152602001908152602001600020805480602002602001604051908101604052809291908181526020018280548015610f8357602002820191906000526020600020905b8160009054906101000a900473ffffffffffffffffffffffffffffffffffffffff1673ffffffffffffffffffffffffffffffffffffffff1681526020019060010190808311610f39575b50505050509050919050565b600981815481101515610f9e57fe5b906000526020600020016000915054906101000a900473ffffffffffffffffffffffffffffffffffffffff1681565b6000809054906101000a900473ffffffffffffffffffffffffffffffffffffffff1673ffffffffffffffffffffffffffffffffffffffff163373ffffffffffffffffffffffffffffffffffffffff1614151561102857600080fd5b600a60009054906101000a900460ff1615151561104457600080fd5b4260015410151561105457600080fd5b8060048190555050565b60025434101515156110fe576040517f08c379a000000000000000000000000000000000000000000000000000000000815260040180806020018281038252602c8152602001807f76616c7565207265636569766564206973206c657373207468616e207468652081526020017f6c6f747465727956616c7565000000000000000000000000000000000000000081525060400191505060405180910390fd5b60015442101515611177576040517f08c379a00000000000000000000000000000000000000000000000000000000081526004018080602001828103825260158152602001807f4c6f7474657279206861732066696e616c697a6564000000000000000000000081525060200191505060405180910390fd5b60055481111515156111f1576040517f08c379a000000000000000000000000000000000000000000000000000000000815260040180806020018281038252601f8152602001807f6e756d626572206973206c657373207468616e2070726f626162696c6974790081525060200191505060405180910390fd5b60008111151561128f576040517f08c379a00000000000000000000000000000000000000000000000000000000081526004018080602001828103825260228152602001807f6e756d6265722069732067726561746572207468616e2070726f626162696c6981526020017f747900000000000000000000000000000000000000000000000000000000000081525060400191505060405180910390fd5b600a60009054906101000a900460ff161515156112ab57600080fd5b6112c2600254600354611bb890919063ffffffff16565b60038190555060083390806001815401808255809150509060018203906000526020600020016000909192909190916101000a81548173ffffffffffffffffffffffffffffffffffffffff021916908373ffffffffffffffffffffffffffffffffffffffff16021790555050600660008281526020019081526020016000203390806001815401808255809150509060018203906000526020600020016000909192909190916101000a81548173ffffffffffffffffffffffffffffffffffffffff021916908373ffffffffffffffffffffffffffffffffffffffff160217905550506113ad611bd4565b50565b600a60009054906101000a900460ff1681565b600a60019054906101000a900473ffffffffffffffffffffffffffffffffffffffff1681565b60076020528060005260406000206000915090505481565b600080600b60009054906101000a900473ffffffffffffffffffffffffffffffffffffffff1673ffffffffffffffffffffffffffffffffffffffff163373ffffffffffffffffffffffffffffffffffffffff1614151561146057600080fd5b6000600980549050141515611503576040517f08c379a00000000000000000000000000000000000000000000000000000000081526004018080602001828103825260288152602001807f4d757374206e6f742062652077696e6e65727320696e206f7264657220746f2081526020017f7472616e7366657200000000000000000000000000000000000000000000000081525060400191505060405180910390fd5b600060035411151561157d576040517f08c379a000000000000000000000000000000000000000000000000000000000815260040180806020018281038252601d8152602001807f4a61636b706f7420736f68756c64206265206d6f7265207468616e203000000081525060200191505060405180910390fd5b600a60009054906101000a900460ff161515611601576040517f08c379a00000000000000000000000000000000000000000000000000000000081526004018080602001828103825260128152602001807f6c6f74746572792068617320706c61796564000000000000000000000000000081525060200191505060405180910390fd5b600073ffffffffffffffffffffffffffffffffffffffff168373ffffffffffffffffffffffffffffffffffffffff16141515156116cc576040517f08c379a00000000000000000000000000000000000000000000000000000000081526004018080602001828103825260238152602001807f6e6577206c6f747465727920616464726573732073686f756c64206e6f74206281526020017f652030000000000000000000000000000000000000000000000000000000000081525060400191505060405180910390fd5b600354915060006003819055508290508073ffffffffffffffffffffffffffffffffffffffff1663642e8fef836040518263ffffffff167c01000000000000000000000000000000000000000000000000000000000281526004016000604051808303818588803b15801561174057600080fd5b505af1158015611754573d6000803e3d6000fd5b5050505050505050565b6000809054906101000a900473ffffffffffffffffffffffffffffffffffffffff1673ffffffffffffffffffffffffffffffffffffffff163373ffffffffffffffffffffffffffffffffffffffff161415156117b957600080fd5b60006008805490501415156117cd57600080fd5b600a60009054906101000a900460ff161515156117e957600080fd5b8060058190555050565b6060600980548060200260200160405190810160405280929190818152602001828054801561187757602002820191906000526020600020905b8160009054906101000a900473ffffffffffffffffffffffffffffffffffffffff1673ffffffffffffffffffffffffffffffffffffffff168152602001906001019080831161182d575b5050505050905090565b6000809054906101000a900473ffffffffffffffffffffffffffffffffffffffff1673ffffffffffffffffffffffffffffffffffffffff163373ffffffffffffffffffffffffffffffffffffffff161415156118dc57600080fd5b600073ffffffffffffffffffffffffffffffffffffffff168173ffffffffffffffffffffffffffffffffffffffff161415151561191857600080fd5b7f8be0079c531659141344cd1fd0a4f28419497f9722a3daafe3b4186f6b6457e06000809054906101000a900473ffffffffffffffffffffffffffffffffffffffff1682604051808373ffffffffffffffffffffffffffffffffffffffff1673ffffffffffffffffffffffffffffffffffffffff1681526020018273ffffffffffffffffffffffffffffffffffffffff1673ffffffffffffffffffffffffffffffffffffffff1681526020019250505060405180910390a1806000806101000a81548173ffffffffffffffffffffffffffffffffffffffff021916908373ffffffffffffffffffffffffffffffffffffffff16021790555050565b600881815481101515611a2257fe5b906000526020600020016000915054906101000a900473ffffffffffffffffffffffffffffffffffffffff1681565b60008044436008604051808481526020018381526020018280548015611acc57602002820191906000526020600020905b8160009054906101000a900473ffffffffffffffffffffffffffffffffffffffff1673ffffffffffffffffffffffffffffffffffffffff1681526020019060010190808311611a82575b505093505050506040518091039020600190049050600554811015611af15780611b03565b600160055482811515611b0057fe5b06015b91505090565b60008183811515611b1657fe5b04905092915050565b611b7181600760008573ffffffffffffffffffffffffffffffffffffffff1673ffffffffffffffffffffffffffffffffffffffff16815260200190815260200160002054611bb890919063ffffffff16565b600760008473ffffffffffffffffffffffffffffffffffffffff1673ffffffffffffffffffffffffffffffffffffffff168152602001908152602001600020819055505050565b60008183019050828110151515611bcb57fe5b80905092915050565b600254341115611d3257611c44611bf660025434611d3490919063ffffffff16565b600760003373ffffffffffffffffffffffffffffffffffffffff1673ffffffffffffffffffffffffffffffffffffffff16815260200190815260200160002054611bb890919063ffffffff16565b600760003373ffffffffffffffffffffffffffffffffffffffff1673ffffffffffffffffffffffffffffffffffffffff168152602001908152602001600020819055507f38dec0fa11e2eca35d2f1ae0dc1933f1c4de2a271f3ab480f29de14010fe9f8933600760003373ffffffffffffffffffffffffffffffffffffffff1673ffffffffffffffffffffffffffffffffffffffff16815260200190815260200160002054604051808373ffffffffffffffffffffffffffffffffffffffff1673ffffffffffffffffffffffffffffffffffffffff1681526020018281526020019250505060405180910390a15b565b6000828211151515611d4257fe5b818303905092915050565b828054828255906000526020600020908101928215611d8e5760005260206000209182015b82811115611d8d578254825591600101919060010190611d72565b5b509050611d9b9190611d9f565b5090565b611ddf91905b80821115611ddb57600081816101000a81549073ffffffffffffffffffffffffffffffffffffffff021916905550600101611da5565b5090565b905600a165627a7a72305820f0fd9581e33f85810a7070b39e1822746ed073d22ba258eca5ac115b1ea80fba0029a165627a7a72305820158afa1900e4e41f35ae316f132b393d49fd68dd528f33a4d0b73658223fd25c0029",
  "source": "pragma solidity ^0.4.23;\r\n\r\nimport \"./ownership/Ownable.sol\";\r\nimport \"./Lottery.sol\"; \r\n\r\n/**\r\n * @title LotteryFactory\r\n * @dev This is the lottery creator\r\n */\r\ncontract LotteryFactory is Ownable { \r\n    event LotteryDeployed(address deployedLottery);\r\n    \r\n    address[] public lotteries;\r\n\r\n    /** \r\n    * @notice (2600000 gas) To create a new Lottery\r\n    * first checks if there was lotteries created, if so creates the first lottery\r\n    * if there was lottery before created, then checks if lastLottery has already played\r\n    * to then create the newLottery\r\n    * @param _duration duration of the lottery\r\n    * @param _lotteryValue value of the lottery\r\n    */\r\n    function createNewLottery(uint256 _duration, uint256 _lotteryValue) external onlyOwner { \r\n        if (lotteries.length==0) {\r\n            Lottery newLottery = new Lottery(_duration, _lotteryValue, address(0));        \r\n            _setLotteryData(newLottery);\r\n        } else { \r\n            Lottery lottery = Lottery(lotteries[lotteries.length-1]);\r\n            require(lottery.lotteryHasPlayed(), \"Checks if the previous lottery has already played\");\r\n            _createLottery(_duration, _lotteryValue, lottery);\r\n        }\r\n    }\r\n\r\n    /** \r\n    * @notice create the new lottery, checks if last lottery has jackpot to transfer\r\n    * @param _duration duration of the lottery\r\n    * @param _lotteryValue value of the lottery\r\n    * @param _lastLottery the last deployed lottery\r\n    */\r\n    function _createLottery(uint256 _duration, uint256 _lotteryValue, Lottery _lastLottery) private {\r\n        Lottery newLottery = new Lottery(_duration, _lotteryValue, address(_lastLottery));\r\n        _setLotteryData(newLottery);\r\n        if (address(_lastLottery) != 0 && _lastLottery.getWinners().length == 0 && _lastLottery.jackPot() > 0) {\r\n            _lastLottery.transferJackPot(address(newLottery)); \r\n        } \r\n    }\r\n\r\n    /** \r\n    * @notice transfers ownership and push the new lottery\r\n    * @param _newLottery recently deployed lottery\r\n    */\r\n    function _setLotteryData(Lottery _newLottery) private {\r\n        _newLottery.transferOwnership(owner);\r\n        lotteries.push(address(_newLottery));\r\n        emit LotteryDeployed(address(_newLottery)); \r\n    }\r\n\r\n    /**\r\n    * @notice getter for all deployed lotteries\r\n     */\r\n    function getLotteries() external view returns (address[]){\r\n        return lotteries;\r\n    }\r\n}",
  "sourcePath": "E:\\Ethereum\\Worldpay\\lottery-contract\\ethereum\\contracts\\LotteryFactory.sol",
  "compiler": {
    "name": "solc",
    "version": "0.4.23+commit.124ca40d.Emscripten.clang"
  },
  "schemaVersion": "2.0.0",
  "updatedAt": "2018-05-26T10:01:30.036Z"
}