{
  "contractName": "LotteryFactory",
  "abi": [
    {
      "constant": true,
      "inputs": [
        {
          "name": "",
          "type": "uint256"
        }
      ],
      "name": "lotteries",
      "outputs": [
        {
          "name": "",
          "type": "address"
        }
      ],
      "payable": false,
      "stateMutability": "view",
      "type": "function"
    },
    {
      "constant": true,
      "inputs": [],
      "name": "owner",
      "outputs": [
        {
          "name": "",
          "type": "address"
        }
      ],
      "payable": false,
      "stateMutability": "view",
      "type": "function"
    },
    {
      "constant": false,
      "inputs": [
        {
          "name": "newOwner",
          "type": "address"
        }
      ],
      "name": "transferOwnership",
      "outputs": [],
      "payable": false,
      "stateMutability": "nonpayable",
      "type": "function"
    },
    {
      "constant": true,
      "inputs": [
        {
          "name": "",
          "type": "address"
        }
      ],
      "name": "indexOf",
      "outputs": [
        {
          "name": "",
          "type": "uint256"
        }
      ],
      "payable": false,
      "stateMutability": "view",
      "type": "function"
    },
    {
      "inputs": [
        {
          "name": "_duration",
          "type": "uint256"
        },
        {
          "name": "_lotteryValue",
          "type": "uint256"
        }
      ],
      "payable": false,
      "stateMutability": "nonpayable",
      "type": "constructor"
    },
    {
      "anonymous": false,
      "inputs": [
        {
          "indexed": false,
          "name": "deployedLottery",
          "type": "address"
        }
      ],
      "name": "LotteryDeployed",
      "type": "event"
    },
    {
      "anonymous": false,
      "inputs": [
        {
          "indexed": false,
          "name": "previousOwner",
          "type": "address"
        },
        {
          "indexed": false,
          "name": "newOwner",
          "type": "address"
        }
      ],
      "name": "OwnershipTransferred",
      "type": "event"
    },
    {
      "constant": false,
      "inputs": [
        {
          "name": "_duration",
          "type": "uint256"
        },
        {
          "name": "_lotteryValue",
          "type": "uint256"
        }
      ],
      "name": "createNewLottery",
      "outputs": [
        {
          "name": "",
          "type": "address"
        }
      ],
      "payable": false,
      "stateMutability": "nonpayable",
      "type": "function"
    },
    {
      "constant": true,
      "inputs": [],
      "name": "getLotteries",
      "outputs": [
        {
          "name": "",
          "type": "address[]"
        }
      ],
      "payable": false,
      "stateMutability": "view",
      "type": "function"
    }
  ],
  "bytecode": "0x608060405234801561001057600080fd5b50604051604080614bb68339810180604052810190808051906020019092919080519060200190929190505050336000806101000a81548173ffffffffffffffffffffffffffffffffffffffff021916908373ffffffffffffffffffffffffffffffffffffffff160217905550610098828260006100a0640100000000026401000000009004565b505050610348565b600080848430856100af610338565b808581526020018481526020018373ffffffffffffffffffffffffffffffffffffffff1673ffffffffffffffffffffffffffffffffffffffff1681526020018273ffffffffffffffffffffffffffffffffffffffff1673ffffffffffffffffffffffffffffffffffffffff168152602001945050505050604051809103906000f080158015610142573d6000803e3d6000fd5b5090508073ffffffffffffffffffffffffffffffffffffffff1663f2fde38b6000809054906101000a900473ffffffffffffffffffffffffffffffffffffffff166040518263ffffffff167c0100000000000000000000000000000000000000000000000000000000028152600401808273ffffffffffffffffffffffffffffffffffffffff1673ffffffffffffffffffffffffffffffffffffffff168152602001915050600060405180830381600087803b15801561020157600080fd5b505af1158015610215573d6000803e3d6000fd5b5050505060018190806001815401808255809150509060018203906000526020600020016000909192909190916101000a81548173ffffffffffffffffffffffffffffffffffffffff021916908373ffffffffffffffffffffffffffffffffffffffff160217905550506001808054905003600260008373ffffffffffffffffffffffffffffffffffffffff1673ffffffffffffffffffffffffffffffffffffffff168152602001908152602001600020819055507f06445d049f06d8e336db6cb614dc874b6e09880c1ee7418f27a58fddc1ed9be381604051808273ffffffffffffffffffffffffffffffffffffffff1673ffffffffffffffffffffffffffffffffffffffff16815260200191505060405180910390a1809150509392505050565b604051611f6b80612c4b83390190565b6128f4806103576000396000f300608060405260043610610078576000357c0100000000000000000000000000000000000000000000000000000000900463ffffffff1680631398e0761461007d5780638da5cb5b146100ea578063a99a690714610141578063bcc82ec4146101b8578063f2fde38b14610224578063fd6aad2514610267575b600080fd5b34801561008957600080fd5b506100a8600480360381019080803590602001909291905050506102be565b604051808273ffffffffffffffffffffffffffffffffffffffff1673ffffffffffffffffffffffffffffffffffffffff16815260200191505060405180910390f35b3480156100f657600080fd5b506100ff6102fc565b604051808273ffffffffffffffffffffffffffffffffffffffff1673ffffffffffffffffffffffffffffffffffffffff16815260200191505060405180910390f35b34801561014d57600080fd5b506101766004803603810190808035906020019092919080359060200190929190505050610321565b604051808273ffffffffffffffffffffffffffffffffffffffff1673ffffffffffffffffffffffffffffffffffffffff16815260200191505060405180910390f35b3480156101c457600080fd5b506101cd61047d565b6040518080602001828103825283818151815260200191508051906020019060200280838360005b838110156102105780820151818401526020810190506101f5565b505050509050019250505060405180910390f35b34801561023057600080fd5b50610265600480360381019080803573ffffffffffffffffffffffffffffffffffffffff16906020019092919050505061050b565b005b34801561027357600080fd5b506102a8600480360381019080803573ffffffffffffffffffffffffffffffffffffffff16906020019092919050505061069d565b6040518082815260200191505060405180910390f35b6001818154811015156102cd57fe5b906000526020600020016000915054906101000a900473ffffffffffffffffffffffffffffffffffffffff1681565b6000809054906101000a900473ffffffffffffffffffffffffffffffffffffffff1681565b600060018080805490500381548110151561033857fe5b9060005260206000200160009054906101000a900473ffffffffffffffffffffffffffffffffffffffff1673ffffffffffffffffffffffffffffffffffffffff163373ffffffffffffffffffffffffffffffffffffffff1614151561042b576040517f08c379a00000000000000000000000000000000000000000000000000000000081526004018080602001828103825260388152602001807f43616c6c6572206f6620746869732066756e6374696f6e206d7573742062652081526020017f746865206c617374206c6f74746572792063726561746564000000000000000081525060400191505060405180910390fd5b610475838360018080805490500381548110151561044557fe5b9060005260206000200160009054906101000a900473ffffffffffffffffffffffffffffffffffffffff166106b5565b905092915050565b6060600180548060200260200160405190810160405280929190818152602001828054801561050157602002820191906000526020600020905b8160009054906101000a900473ffffffffffffffffffffffffffffffffffffffff1673ffffffffffffffffffffffffffffffffffffffff16815260200190600101908083116104b7575b5050505050905090565b6000809054906101000a900473ffffffffffffffffffffffffffffffffffffffff1673ffffffffffffffffffffffffffffffffffffffff163373ffffffffffffffffffffffffffffffffffffffff1614151561056657600080fd5b600073ffffffffffffffffffffffffffffffffffffffff168173ffffffffffffffffffffffffffffffffffffffff16141515156105a257600080fd5b7f8be0079c531659141344cd1fd0a4f28419497f9722a3daafe3b4186f6b6457e06000809054906101000a900473ffffffffffffffffffffffffffffffffffffffff1682604051808373ffffffffffffffffffffffffffffffffffffffff1673ffffffffffffffffffffffffffffffffffffffff1681526020018273ffffffffffffffffffffffffffffffffffffffff1673ffffffffffffffffffffffffffffffffffffffff1681526020019250505060405180910390a1806000806101000a81548173ffffffffffffffffffffffffffffffffffffffff021916908373ffffffffffffffffffffffffffffffffffffffff16021790555050565b60026020528060005260406000206000915090505481565b600080848430856106c461094d565b808581526020018481526020018373ffffffffffffffffffffffffffffffffffffffff1673ffffffffffffffffffffffffffffffffffffffff1681526020018273ffffffffffffffffffffffffffffffffffffffff1673ffffffffffffffffffffffffffffffffffffffff168152602001945050505050604051809103906000f080158015610757573d6000803e3d6000fd5b5090508073ffffffffffffffffffffffffffffffffffffffff1663f2fde38b6000809054906101000a900473ffffffffffffffffffffffffffffffffffffffff166040518263ffffffff167c0100000000000000000000000000000000000000000000000000000000028152600401808273ffffffffffffffffffffffffffffffffffffffff1673ffffffffffffffffffffffffffffffffffffffff168152602001915050600060405180830381600087803b15801561081657600080fd5b505af115801561082a573d6000803e3d6000fd5b5050505060018190806001815401808255809150509060018203906000526020600020016000909192909190916101000a81548173ffffffffffffffffffffffffffffffffffffffff021916908373ffffffffffffffffffffffffffffffffffffffff160217905550506001808054905003600260008373ffffffffffffffffffffffffffffffffffffffff1673ffffffffffffffffffffffffffffffffffffffff168152602001908152602001600020819055507f06445d049f06d8e336db6cb614dc874b6e09880c1ee7418f27a58fddc1ed9be381604051808273ffffffffffffffffffffffffffffffffffffffff1673ffffffffffffffffffffffffffffffffffffffff16815260200191505060405180910390a1809150509392505050565b604051611f6b8061095e8339019056006080604052600a6005556000600a60006101000a81548160ff02191690831515021790555034801561003057600080fd5b50604051608080611f6b83398101806040528101908080519060200190929190805190602001909291908051906020019092919080519060200190929190505050336000806101000a81548173ffffffffffffffffffffffffffffffffffffffff021916908373ffffffffffffffffffffffffffffffffffffffff1602179055508342016001819055508260028190555081600b60006101000a81548173ffffffffffffffffffffffffffffffffffffffff021916908373ffffffffffffffffffffffffffffffffffffffff16021790555080600a60016101000a81548173ffffffffffffffffffffffffffffffffffffffff021916908373ffffffffffffffffffffffffffffffffffffffff16021790555050505050611e15806101566000396000f30060806040526004361061013e576000357c0100000000000000000000000000000000000000000000000000000000900463ffffffff16806313cf05f91461014357806329dcb0cf1461017a5780633ccfd60b146101a55780634664611e146101bc578063481456f9146101e75780634a78cdba1461021257806359e540951461023d5780635d495aea14610268578063642e8fef1461027f5780636a8f5678146102895780638b5b9ccc146103005780638da5cb5b1461036c5780639113a7b5146103c35780639c8ccc78146103ee578063a2fb117514610470578063a3e3d2e4146104dd578063a59f3e0c1461050a578063a947d0501461052a578063af0b4b2714610559578063bc3da535146105b0578063d2c42de114610607578063df15c37e14610634578063f2fde38b146106a0578063f71d96cb146106e3575b600080fd5b34801561014f57600080fd5b506101786004803603810190808035906020019092919080359060200190929190505050610750565b005b34801561018657600080fd5b5061018f610bea565b6040518082815260200191505060405180910390f35b3480156101b157600080fd5b506101ba610bf0565b005b3480156101c857600080fd5b506101d1610cc3565b6040518082815260200191505060405180910390f35b3480156101f357600080fd5b506101fc610cc9565b6040518082815260200191505060405180910390f35b34801561021e57600080fd5b50610227610ccf565b6040518082815260200191505060405180910390f35b34801561024957600080fd5b50610252610cd5565b6040518082815260200191505060405180910390f35b34801561027457600080fd5b5061027d610d1c565b005b61028761102c565b005b34801561029557600080fd5b506102be6004803603810190808035906020019092919080359060200190929190505050611091565b604051808273ffffffffffffffffffffffffffffffffffffffff1673ffffffffffffffffffffffffffffffffffffffff16815260200191505060405180910390f35b34801561030c57600080fd5b506103156110de565b6040518080602001828103825283818151815260200191508051906020019060200280838360005b8381101561035857808201518184015260208101905061033d565b505050509050019250505060405180910390f35b34801561037857600080fd5b5061038161116c565b604051808273ffffffffffffffffffffffffffffffffffffffff1673ffffffffffffffffffffffffffffffffffffffff16815260200191505060405180910390f35b3480156103cf57600080fd5b506103d8611191565b6040518082815260200191505060405180910390f35b3480156103fa57600080fd5b5061041960048036038101908080359060200190929190505050611197565b6040518080602001828103825283818151815260200191508051906020019060200280838360005b8381101561045c578082015181840152602081019050610441565b505050509050019250505060405180910390f35b34801561047c57600080fd5b5061049b60048036038101908080359060200190929190505050611238565b604051808273ffffffffffffffffffffffffffffffffffffffff1673ffffffffffffffffffffffffffffffffffffffff16815260200191505060405180910390f35b3480156104e957600080fd5b5061050860048036038101908080359060200190929190505050611276565b005b6105286004803603810190808035906020019092919050505061130d565b005b34801561053657600080fd5b5061053f611665565b604051808215151515815260200191505060405180910390f35b34801561056557600080fd5b5061056e611678565b604051808273ffffffffffffffffffffffffffffffffffffffff1673ffffffffffffffffffffffffffffffffffffffff16815260200191505060405180910390f35b3480156105bc57600080fd5b506105f1600480360381019080803573ffffffffffffffffffffffffffffffffffffffff16906020019092919050505061169e565b6040518082815260200191505060405180910390f35b34801561061357600080fd5b50610632600480360381019080803590602001909291905050506116b6565b005b34801561064057600080fd5b50610649611751565b6040518080602001828103825283818151815260200191508051906020019060200280838360005b8381101561068c578082015181840152602081019050610671565b505050509050019250505060405180910390f35b3480156106ac57600080fd5b506106e1600480360381019080803573ffffffffffffffffffffffffffffffffffffffff1690602001909291905050506117df565b005b3480156106ef57600080fd5b5061070e60048036038101908080359060200190929190505050611971565b604051808273ffffffffffffffffffffffffffffffffffffffff1673ffffffffffffffffffffffffffffffffffffffff16815260200191505060405180910390f35b60008060009054906101000a900473ffffffffffffffffffffffffffffffffffffffff1673ffffffffffffffffffffffffffffffffffffffff163373ffffffffffffffffffffffffffffffffffffffff161415156107ad57600080fd5b60011515600a60009054906101000a900460ff1615151415156107cf57600080fd5b6001600b60009054906101000a900473ffffffffffffffffffffffffffffffffffffffff1673ffffffffffffffffffffffffffffffffffffffff1663bcc82ec46040518163ffffffff167c0100000000000000000000000000000000000000000000000000000000028152600401600060405180830381600087803b15801561085757600080fd5b505af115801561086b573d6000803e3d6000fd5b505050506040513d6000823e3d601f19601f82011682018060405250602081101561089557600080fd5b8101908080516401000000008111156108ad57600080fd5b828101905060208101848111156108c357600080fd5b81518560208202830111640100000000821117156108e057600080fd5b50509291905050505103600b60009054906101000a900473ffffffffffffffffffffffffffffffffffffffff1673ffffffffffffffffffffffffffffffffffffffff1663fd6aad25306040518263ffffffff167c0100000000000000000000000000000000000000000000000000000000028152600401808273ffffffffffffffffffffffffffffffffffffffff1673ffffffffffffffffffffffffffffffffffffffff168152602001915050602060405180830381600087803b1580156109a757600080fd5b505af11580156109bb573d6000803e3d6000fd5b505050506040513d60208110156109d157600080fd5b8101908080519060200190929190505050141515610a7d576040517f08c379a00000000000000000000000000000000000000000000000000000000081526004018080602001828103825260258152602001807f6966207468697320697320746865206c61746572206465706c6f796564204c6f81526020017f747465727900000000000000000000000000000000000000000000000000000081525060400191505060405180910390fd5b600083111515610a8c57600080fd5b600082111515610a9b57600080fd5b600b60009054906101000a900473ffffffffffffffffffffffffffffffffffffffff1673ffffffffffffffffffffffffffffffffffffffff1663a99a690784846040518363ffffffff167c01000000000000000000000000000000000000000000000000000000000281526004018083815260200182815260200192505050602060405180830381600087803b158015610b3457600080fd5b505af1158015610b48573d6000803e3d6000fd5b505050506040513d6020811015610b5e57600080fd5b810190808051906020019092919050505090506000600980549050148015610bb35750600073ffffffffffffffffffffffffffffffffffffffff168173ffffffffffffffffffffffffffffffffffffffff1614155b8015610bd6575060003073ffffffffffffffffffffffffffffffffffffffff1631115b15610be557610be4816119af565b5b505050565b60015481565b6000600760003373ffffffffffffffffffffffffffffffffffffffff1673ffffffffffffffffffffffffffffffffffffffff1681526020019081526020016000205490506000600760003373ffffffffffffffffffffffffffffffffffffffff1673ffffffffffffffffffffffffffffffffffffffff168152602001908152602001600020819055503373ffffffffffffffffffffffffffffffffffffffff166108fc829081150290604051600060405180830381858888f19350505050158015610cbf573d6000803e3d6000fd5b5050565b60045481565b60055481565b60035481565b6000600760003373ffffffffffffffffffffffffffffffffffffffff1673ffffffffffffffffffffffffffffffffffffffff16815260200190815260200160002054905090565b6000806000809054906101000a900473ffffffffffffffffffffffffffffffffffffffff1673ffffffffffffffffffffffffffffffffffffffff163373ffffffffffffffffffffffffffffffffffffffff16141515610d7a57600080fd5b60015442111515610df3576040517f08c379a00000000000000000000000000000000000000000000000000000000081526004018080602001828103825260198152602001807f546865206c6f7474657279206973207374696c6c206f70656e0000000000000081525060200191505060405180910390fd5b60001515600a60009054906101000a900460ff161515141515610e7e576040517f08c379a000000000000000000000000000000000000000000000000000000000815260040180806020018281038252601e8152602001807f546865206c6f74746572792068617320616c726561647920706c61796564000081525060200191505060405180910390fd5b6001600a60006101000a81548160ff02191690831515021790555060006004541415610eb357610eac611a58565b6004819055505b6006600060045481526020019081526020016000206009908054610ed8929190611d54565b506000600980549050111561102857610f01600980549050600354611b1090919063ffffffff16565b91506000600381905550600090505b6009805490508160ff161015610f7357610f6660098260ff16815481101515610f3557fe5b9060005260206000200160009054906101000a900473ffffffffffffffffffffffffffffffffffffffff1683611b26565b8080600101915050610f10565b7f413cf1e17d70833c017de9b3c64d0104e3e37a7191d95b3d0d6276de992a0b4d6009836040518080602001838152602001828103825284818154815260200191508054801561101857602002820191906000526020600020905b8160009054906101000a900473ffffffffffffffffffffffffffffffffffffffff1673ffffffffffffffffffffffffffffffffffffffff1681526020019060010190808311610fce575b5050935050505060405180910390a15b5050565b60003411151561103b57600080fd5b61105034600354611bbf90919063ffffffff16565b6003819055507fc2c48fe60b23268064613cbca1898c1871bae36909b3f33467dd82c6fe2cb2e36003546040518082815260200191505060405180910390a1565b6006602052816000526040600020818154811015156110ac57fe5b906000526020600020016000915091509054906101000a900473ffffffffffffffffffffffffffffffffffffffff1681565b6060600880548060200260200160405190810160405280929190818152602001828054801561116257602002820191906000526020600020905b8160009054906101000a900473ffffffffffffffffffffffffffffffffffffffff1673ffffffffffffffffffffffffffffffffffffffff1681526020019060010190808311611118575b5050505050905090565b6000809054906101000a900473ffffffffffffffffffffffffffffffffffffffff1681565b60025481565b60606006600083815260200190815260200160002080548060200260200160405190810160405280929190818152602001828054801561122c57602002820191906000526020600020905b8160009054906101000a900473ffffffffffffffffffffffffffffffffffffffff1673ffffffffffffffffffffffffffffffffffffffff16815260200190600101908083116111e2575b50505050509050919050565b60098181548110151561124757fe5b906000526020600020016000915054906101000a900473ffffffffffffffffffffffffffffffffffffffff1681565b6000809054906101000a900473ffffffffffffffffffffffffffffffffffffffff1673ffffffffffffffffffffffffffffffffffffffff163373ffffffffffffffffffffffffffffffffffffffff161415156112d157600080fd5b60001515600a60009054906101000a900460ff1615151415156112f357600080fd5b4260015410151561130357600080fd5b8060048190555050565b60025434101515156113ad576040517f08c379a000000000000000000000000000000000000000000000000000000000815260040180806020018281038252602c8152602001807f76616c7565207265636569766564206973206c657373207468616e207468652081526020017f6c6f747465727956616c7565000000000000000000000000000000000000000081525060400191505060405180910390fd5b60015442101515611426576040517f08c379a00000000000000000000000000000000000000000000000000000000081526004018080602001828103825260158152602001807f4c6f7474657279206861732066696e616c697a6564000000000000000000000081525060200191505060405180910390fd5b60055481111515156114a0576040517f08c379a000000000000000000000000000000000000000000000000000000000815260040180806020018281038252601f8152602001807f6e756d626572206973206c657373207468616e2070726f626162696c6974790081525060200191505060405180910390fd5b60008111151561153e576040517f08c379a00000000000000000000000000000000000000000000000000000000081526004018080602001828103825260228152602001807f6e756d6265722069732067726561746572207468616e2070726f626162696c6981526020017f747900000000000000000000000000000000000000000000000000000000000081525060400191505060405180910390fd5b60001515600a60009054906101000a900460ff16151514151561156057600080fd5b611577600254600354611bbf90919063ffffffff16565b60038190555060083390806001815401808255809150509060018203906000526020600020016000909192909190916101000a81548173ffffffffffffffffffffffffffffffffffffffff021916908373ffffffffffffffffffffffffffffffffffffffff16021790555050600660008281526020019081526020016000203390806001815401808255809150509060018203906000526020600020016000909192909190916101000a81548173ffffffffffffffffffffffffffffffffffffffff021916908373ffffffffffffffffffffffffffffffffffffffff16021790555050611662611bdb565b50565b600a60009054906101000a900460ff1681565b600a60019054906101000a900473ffffffffffffffffffffffffffffffffffffffff1681565b60076020528060005260406000206000915090505481565b6000809054906101000a900473ffffffffffffffffffffffffffffffffffffffff1673ffffffffffffffffffffffffffffffffffffffff163373ffffffffffffffffffffffffffffffffffffffff1614151561171157600080fd5b600060088054905014151561172557600080fd5b60001515600a60009054906101000a900460ff16151514151561174757600080fd5b8060058190555050565b606060098054806020026020016040519081016040528092919081815260200182805480156117d557602002820191906000526020600020905b8160009054906101000a900473ffffffffffffffffffffffffffffffffffffffff1673ffffffffffffffffffffffffffffffffffffffff168152602001906001019080831161178b575b5050505050905090565b6000809054906101000a900473ffffffffffffffffffffffffffffffffffffffff1673ffffffffffffffffffffffffffffffffffffffff163373ffffffffffffffffffffffffffffffffffffffff1614151561183a57600080fd5b600073ffffffffffffffffffffffffffffffffffffffff168173ffffffffffffffffffffffffffffffffffffffff161415151561187657600080fd5b7f8be0079c531659141344cd1fd0a4f28419497f9722a3daafe3b4186f6b6457e06000809054906101000a900473ffffffffffffffffffffffffffffffffffffffff1682604051808373ffffffffffffffffffffffffffffffffffffffff1673ffffffffffffffffffffffffffffffffffffffff1681526020018273ffffffffffffffffffffffffffffffffffffffff1673ffffffffffffffffffffffffffffffffffffffff1681526020019250505060405180910390a1806000806101000a81548173ffffffffffffffffffffffffffffffffffffffff021916908373ffffffffffffffffffffffffffffffffffffffff16021790555050565b60088181548110151561198057fe5b906000526020600020016000915054906101000a900473ffffffffffffffffffffffffffffffffffffffff1681565b60008060006009805490501415156119c657600080fd5b600354915060006003819055508290508073ffffffffffffffffffffffffffffffffffffffff1663642e8fef836040518263ffffffff167c01000000000000000000000000000000000000000000000000000000000281526004016000604051808303818588803b158015611a3a57600080fd5b505af1158015611a4e573d6000803e3d6000fd5b5050505050505050565b60008044436008604051808481526020018381526020018280548015611ad357602002820191906000526020600020905b8160009054906101000a900473ffffffffffffffffffffffffffffffffffffffff1673ffffffffffffffffffffffffffffffffffffffff1681526020019060010190808311611a89575b505093505050506040518091039020600190049050600554811015611af85780611b0a565b600160055482811515611b0757fe5b06015b91505090565b60008183811515611b1d57fe5b04905092915050565b611b7881600760008573ffffffffffffffffffffffffffffffffffffffff1673ffffffffffffffffffffffffffffffffffffffff16815260200190815260200160002054611bbf90919063ffffffff16565b600760008473ffffffffffffffffffffffffffffffffffffffff1673ffffffffffffffffffffffffffffffffffffffff168152602001908152602001600020819055505050565b60008183019050828110151515611bd257fe5b80905092915050565b600254341115611d3957611c4b611bfd60025434611d3b90919063ffffffff16565b600760003373ffffffffffffffffffffffffffffffffffffffff1673ffffffffffffffffffffffffffffffffffffffff16815260200190815260200160002054611bbf90919063ffffffff16565b600760003373ffffffffffffffffffffffffffffffffffffffff1673ffffffffffffffffffffffffffffffffffffffff168152602001908152602001600020819055507f38dec0fa11e2eca35d2f1ae0dc1933f1c4de2a271f3ab480f29de14010fe9f8933600760003373ffffffffffffffffffffffffffffffffffffffff1673ffffffffffffffffffffffffffffffffffffffff16815260200190815260200160002054604051808373ffffffffffffffffffffffffffffffffffffffff1673ffffffffffffffffffffffffffffffffffffffff1681526020018281526020019250505060405180910390a15b565b6000828211151515611d4957fe5b818303905092915050565b828054828255906000526020600020908101928215611d955760005260206000209182015b82811115611d94578254825591600101919060010190611d79565b5b509050611da29190611da6565b5090565b611de691905b80821115611de257600081816101000a81549073ffffffffffffffffffffffffffffffffffffffff021916905550600101611dac565b5090565b905600a165627a7a7230582020e595e13227a7912a5ac3649948d90a530936084de2aea92459f3d9deb0301a0029a165627a7a7230582068511b4b31e95567ef7dcc5dbe1c5e73cb6b5d749490638204272318952f600c00296080604052600a6005556000600a60006101000a81548160ff02191690831515021790555034801561003057600080fd5b50604051608080611f6b83398101806040528101908080519060200190929190805190602001909291908051906020019092919080519060200190929190505050336000806101000a81548173ffffffffffffffffffffffffffffffffffffffff021916908373ffffffffffffffffffffffffffffffffffffffff1602179055508342016001819055508260028190555081600b60006101000a81548173ffffffffffffffffffffffffffffffffffffffff021916908373ffffffffffffffffffffffffffffffffffffffff16021790555080600a60016101000a81548173ffffffffffffffffffffffffffffffffffffffff021916908373ffffffffffffffffffffffffffffffffffffffff16021790555050505050611e15806101566000396000f30060806040526004361061013e576000357c0100000000000000000000000000000000000000000000000000000000900463ffffffff16806313cf05f91461014357806329dcb0cf1461017a5780633ccfd60b146101a55780634664611e146101bc578063481456f9146101e75780634a78cdba1461021257806359e540951461023d5780635d495aea14610268578063642e8fef1461027f5780636a8f5678146102895780638b5b9ccc146103005780638da5cb5b1461036c5780639113a7b5146103c35780639c8ccc78146103ee578063a2fb117514610470578063a3e3d2e4146104dd578063a59f3e0c1461050a578063a947d0501461052a578063af0b4b2714610559578063bc3da535146105b0578063d2c42de114610607578063df15c37e14610634578063f2fde38b146106a0578063f71d96cb146106e3575b600080fd5b34801561014f57600080fd5b506101786004803603810190808035906020019092919080359060200190929190505050610750565b005b34801561018657600080fd5b5061018f610bea565b6040518082815260200191505060405180910390f35b3480156101b157600080fd5b506101ba610bf0565b005b3480156101c857600080fd5b506101d1610cc3565b6040518082815260200191505060405180910390f35b3480156101f357600080fd5b506101fc610cc9565b6040518082815260200191505060405180910390f35b34801561021e57600080fd5b50610227610ccf565b6040518082815260200191505060405180910390f35b34801561024957600080fd5b50610252610cd5565b6040518082815260200191505060405180910390f35b34801561027457600080fd5b5061027d610d1c565b005b61028761102c565b005b34801561029557600080fd5b506102be6004803603810190808035906020019092919080359060200190929190505050611091565b604051808273ffffffffffffffffffffffffffffffffffffffff1673ffffffffffffffffffffffffffffffffffffffff16815260200191505060405180910390f35b34801561030c57600080fd5b506103156110de565b6040518080602001828103825283818151815260200191508051906020019060200280838360005b8381101561035857808201518184015260208101905061033d565b505050509050019250505060405180910390f35b34801561037857600080fd5b5061038161116c565b604051808273ffffffffffffffffffffffffffffffffffffffff1673ffffffffffffffffffffffffffffffffffffffff16815260200191505060405180910390f35b3480156103cf57600080fd5b506103d8611191565b6040518082815260200191505060405180910390f35b3480156103fa57600080fd5b5061041960048036038101908080359060200190929190505050611197565b6040518080602001828103825283818151815260200191508051906020019060200280838360005b8381101561045c578082015181840152602081019050610441565b505050509050019250505060405180910390f35b34801561047c57600080fd5b5061049b60048036038101908080359060200190929190505050611238565b604051808273ffffffffffffffffffffffffffffffffffffffff1673ffffffffffffffffffffffffffffffffffffffff16815260200191505060405180910390f35b3480156104e957600080fd5b5061050860048036038101908080359060200190929190505050611276565b005b6105286004803603810190808035906020019092919050505061130d565b005b34801561053657600080fd5b5061053f611665565b604051808215151515815260200191505060405180910390f35b34801561056557600080fd5b5061056e611678565b604051808273ffffffffffffffffffffffffffffffffffffffff1673ffffffffffffffffffffffffffffffffffffffff16815260200191505060405180910390f35b3480156105bc57600080fd5b506105f1600480360381019080803573ffffffffffffffffffffffffffffffffffffffff16906020019092919050505061169e565b6040518082815260200191505060405180910390f35b34801561061357600080fd5b50610632600480360381019080803590602001909291905050506116b6565b005b34801561064057600080fd5b50610649611751565b6040518080602001828103825283818151815260200191508051906020019060200280838360005b8381101561068c578082015181840152602081019050610671565b505050509050019250505060405180910390f35b3480156106ac57600080fd5b506106e1600480360381019080803573ffffffffffffffffffffffffffffffffffffffff1690602001909291905050506117df565b005b3480156106ef57600080fd5b5061070e60048036038101908080359060200190929190505050611971565b604051808273ffffffffffffffffffffffffffffffffffffffff1673ffffffffffffffffffffffffffffffffffffffff16815260200191505060405180910390f35b60008060009054906101000a900473ffffffffffffffffffffffffffffffffffffffff1673ffffffffffffffffffffffffffffffffffffffff163373ffffffffffffffffffffffffffffffffffffffff161415156107ad57600080fd5b60011515600a60009054906101000a900460ff1615151415156107cf57600080fd5b6001600b60009054906101000a900473ffffffffffffffffffffffffffffffffffffffff1673ffffffffffffffffffffffffffffffffffffffff1663bcc82ec46040518163ffffffff167c0100000000000000000000000000000000000000000000000000000000028152600401600060405180830381600087803b15801561085757600080fd5b505af115801561086b573d6000803e3d6000fd5b505050506040513d6000823e3d601f19601f82011682018060405250602081101561089557600080fd5b8101908080516401000000008111156108ad57600080fd5b828101905060208101848111156108c357600080fd5b81518560208202830111640100000000821117156108e057600080fd5b50509291905050505103600b60009054906101000a900473ffffffffffffffffffffffffffffffffffffffff1673ffffffffffffffffffffffffffffffffffffffff1663fd6aad25306040518263ffffffff167c0100000000000000000000000000000000000000000000000000000000028152600401808273ffffffffffffffffffffffffffffffffffffffff1673ffffffffffffffffffffffffffffffffffffffff168152602001915050602060405180830381600087803b1580156109a757600080fd5b505af11580156109bb573d6000803e3d6000fd5b505050506040513d60208110156109d157600080fd5b8101908080519060200190929190505050141515610a7d576040517f08c379a00000000000000000000000000000000000000000000000000000000081526004018080602001828103825260258152602001807f6966207468697320697320746865206c61746572206465706c6f796564204c6f81526020017f747465727900000000000000000000000000000000000000000000000000000081525060400191505060405180910390fd5b600083111515610a8c57600080fd5b600082111515610a9b57600080fd5b600b60009054906101000a900473ffffffffffffffffffffffffffffffffffffffff1673ffffffffffffffffffffffffffffffffffffffff1663a99a690784846040518363ffffffff167c01000000000000000000000000000000000000000000000000000000000281526004018083815260200182815260200192505050602060405180830381600087803b158015610b3457600080fd5b505af1158015610b48573d6000803e3d6000fd5b505050506040513d6020811015610b5e57600080fd5b810190808051906020019092919050505090506000600980549050148015610bb35750600073ffffffffffffffffffffffffffffffffffffffff168173ffffffffffffffffffffffffffffffffffffffff1614155b8015610bd6575060003073ffffffffffffffffffffffffffffffffffffffff1631115b15610be557610be4816119af565b5b505050565b60015481565b6000600760003373ffffffffffffffffffffffffffffffffffffffff1673ffffffffffffffffffffffffffffffffffffffff1681526020019081526020016000205490506000600760003373ffffffffffffffffffffffffffffffffffffffff1673ffffffffffffffffffffffffffffffffffffffff168152602001908152602001600020819055503373ffffffffffffffffffffffffffffffffffffffff166108fc829081150290604051600060405180830381858888f19350505050158015610cbf573d6000803e3d6000fd5b5050565b60045481565b60055481565b60035481565b6000600760003373ffffffffffffffffffffffffffffffffffffffff1673ffffffffffffffffffffffffffffffffffffffff16815260200190815260200160002054905090565b6000806000809054906101000a900473ffffffffffffffffffffffffffffffffffffffff1673ffffffffffffffffffffffffffffffffffffffff163373ffffffffffffffffffffffffffffffffffffffff16141515610d7a57600080fd5b60015442111515610df3576040517f08c379a00000000000000000000000000000000000000000000000000000000081526004018080602001828103825260198152602001807f546865206c6f7474657279206973207374696c6c206f70656e0000000000000081525060200191505060405180910390fd5b60001515600a60009054906101000a900460ff161515141515610e7e576040517f08c379a000000000000000000000000000000000000000000000000000000000815260040180806020018281038252601e8152602001807f546865206c6f74746572792068617320616c726561647920706c61796564000081525060200191505060405180910390fd5b6001600a60006101000a81548160ff02191690831515021790555060006004541415610eb357610eac611a58565b6004819055505b6006600060045481526020019081526020016000206009908054610ed8929190611d54565b506000600980549050111561102857610f01600980549050600354611b1090919063ffffffff16565b91506000600381905550600090505b6009805490508160ff161015610f7357610f6660098260ff16815481101515610f3557fe5b9060005260206000200160009054906101000a900473ffffffffffffffffffffffffffffffffffffffff1683611b26565b8080600101915050610f10565b7f413cf1e17d70833c017de9b3c64d0104e3e37a7191d95b3d0d6276de992a0b4d6009836040518080602001838152602001828103825284818154815260200191508054801561101857602002820191906000526020600020905b8160009054906101000a900473ffffffffffffffffffffffffffffffffffffffff1673ffffffffffffffffffffffffffffffffffffffff1681526020019060010190808311610fce575b5050935050505060405180910390a15b5050565b60003411151561103b57600080fd5b61105034600354611bbf90919063ffffffff16565b6003819055507fc2c48fe60b23268064613cbca1898c1871bae36909b3f33467dd82c6fe2cb2e36003546040518082815260200191505060405180910390a1565b6006602052816000526040600020818154811015156110ac57fe5b906000526020600020016000915091509054906101000a900473ffffffffffffffffffffffffffffffffffffffff1681565b6060600880548060200260200160405190810160405280929190818152602001828054801561116257602002820191906000526020600020905b8160009054906101000a900473ffffffffffffffffffffffffffffffffffffffff1673ffffffffffffffffffffffffffffffffffffffff1681526020019060010190808311611118575b5050505050905090565b6000809054906101000a900473ffffffffffffffffffffffffffffffffffffffff1681565b60025481565b60606006600083815260200190815260200160002080548060200260200160405190810160405280929190818152602001828054801561122c57602002820191906000526020600020905b8160009054906101000a900473ffffffffffffffffffffffffffffffffffffffff1673ffffffffffffffffffffffffffffffffffffffff16815260200190600101908083116111e2575b50505050509050919050565b60098181548110151561124757fe5b906000526020600020016000915054906101000a900473ffffffffffffffffffffffffffffffffffffffff1681565b6000809054906101000a900473ffffffffffffffffffffffffffffffffffffffff1673ffffffffffffffffffffffffffffffffffffffff163373ffffffffffffffffffffffffffffffffffffffff161415156112d157600080fd5b60001515600a60009054906101000a900460ff1615151415156112f357600080fd5b4260015410151561130357600080fd5b8060048190555050565b60025434101515156113ad576040517f08c379a000000000000000000000000000000000000000000000000000000000815260040180806020018281038252602c8152602001807f76616c7565207265636569766564206973206c657373207468616e207468652081526020017f6c6f747465727956616c7565000000000000000000000000000000000000000081525060400191505060405180910390fd5b60015442101515611426576040517f08c379a00000000000000000000000000000000000000000000000000000000081526004018080602001828103825260158152602001807f4c6f7474657279206861732066696e616c697a6564000000000000000000000081525060200191505060405180910390fd5b60055481111515156114a0576040517f08c379a000000000000000000000000000000000000000000000000000000000815260040180806020018281038252601f8152602001807f6e756d626572206973206c657373207468616e2070726f626162696c6974790081525060200191505060405180910390fd5b60008111151561153e576040517f08c379a00000000000000000000000000000000000000000000000000000000081526004018080602001828103825260228152602001807f6e756d6265722069732067726561746572207468616e2070726f626162696c6981526020017f747900000000000000000000000000000000000000000000000000000000000081525060400191505060405180910390fd5b60001515600a60009054906101000a900460ff16151514151561156057600080fd5b611577600254600354611bbf90919063ffffffff16565b60038190555060083390806001815401808255809150509060018203906000526020600020016000909192909190916101000a81548173ffffffffffffffffffffffffffffffffffffffff021916908373ffffffffffffffffffffffffffffffffffffffff16021790555050600660008281526020019081526020016000203390806001815401808255809150509060018203906000526020600020016000909192909190916101000a81548173ffffffffffffffffffffffffffffffffffffffff021916908373ffffffffffffffffffffffffffffffffffffffff16021790555050611662611bdb565b50565b600a60009054906101000a900460ff1681565b600a60019054906101000a900473ffffffffffffffffffffffffffffffffffffffff1681565b60076020528060005260406000206000915090505481565b6000809054906101000a900473ffffffffffffffffffffffffffffffffffffffff1673ffffffffffffffffffffffffffffffffffffffff163373ffffffffffffffffffffffffffffffffffffffff1614151561171157600080fd5b600060088054905014151561172557600080fd5b60001515600a60009054906101000a900460ff16151514151561174757600080fd5b8060058190555050565b606060098054806020026020016040519081016040528092919081815260200182805480156117d557602002820191906000526020600020905b8160009054906101000a900473ffffffffffffffffffffffffffffffffffffffff1673ffffffffffffffffffffffffffffffffffffffff168152602001906001019080831161178b575b5050505050905090565b6000809054906101000a900473ffffffffffffffffffffffffffffffffffffffff1673ffffffffffffffffffffffffffffffffffffffff163373ffffffffffffffffffffffffffffffffffffffff1614151561183a57600080fd5b600073ffffffffffffffffffffffffffffffffffffffff168173ffffffffffffffffffffffffffffffffffffffff161415151561187657600080fd5b7f8be0079c531659141344cd1fd0a4f28419497f9722a3daafe3b4186f6b6457e06000809054906101000a900473ffffffffffffffffffffffffffffffffffffffff1682604051808373ffffffffffffffffffffffffffffffffffffffff1673ffffffffffffffffffffffffffffffffffffffff1681526020018273ffffffffffffffffffffffffffffffffffffffff1673ffffffffffffffffffffffffffffffffffffffff1681526020019250505060405180910390a1806000806101000a81548173ffffffffffffffffffffffffffffffffffffffff021916908373ffffffffffffffffffffffffffffffffffffffff16021790555050565b60088181548110151561198057fe5b906000526020600020016000915054906101000a900473ffffffffffffffffffffffffffffffffffffffff1681565b60008060006009805490501415156119c657600080fd5b600354915060006003819055508290508073ffffffffffffffffffffffffffffffffffffffff1663642e8fef836040518263ffffffff167c01000000000000000000000000000000000000000000000000000000000281526004016000604051808303818588803b158015611a3a57600080fd5b505af1158015611a4e573d6000803e3d6000fd5b5050505050505050565b60008044436008604051808481526020018381526020018280548015611ad357602002820191906000526020600020905b8160009054906101000a900473ffffffffffffffffffffffffffffffffffffffff1673ffffffffffffffffffffffffffffffffffffffff1681526020019060010190808311611a89575b505093505050506040518091039020600190049050600554811015611af85780611b0a565b600160055482811515611b0757fe5b06015b91505090565b60008183811515611b1d57fe5b04905092915050565b611b7881600760008573ffffffffffffffffffffffffffffffffffffffff1673ffffffffffffffffffffffffffffffffffffffff16815260200190815260200160002054611bbf90919063ffffffff16565b600760008473ffffffffffffffffffffffffffffffffffffffff1673ffffffffffffffffffffffffffffffffffffffff168152602001908152602001600020819055505050565b60008183019050828110151515611bd257fe5b80905092915050565b600254341115611d3957611c4b611bfd60025434611d3b90919063ffffffff16565b600760003373ffffffffffffffffffffffffffffffffffffffff1673ffffffffffffffffffffffffffffffffffffffff16815260200190815260200160002054611bbf90919063ffffffff16565b600760003373ffffffffffffffffffffffffffffffffffffffff1673ffffffffffffffffffffffffffffffffffffffff168152602001908152602001600020819055507f38dec0fa11e2eca35d2f1ae0dc1933f1c4de2a271f3ab480f29de14010fe9f8933600760003373ffffffffffffffffffffffffffffffffffffffff1673ffffffffffffffffffffffffffffffffffffffff16815260200190815260200160002054604051808373ffffffffffffffffffffffffffffffffffffffff1673ffffffffffffffffffffffffffffffffffffffff1681526020018281526020019250505060405180910390a15b565b6000828211151515611d4957fe5b818303905092915050565b828054828255906000526020600020908101928215611d955760005260206000209182015b82811115611d94578254825591600101919060010190611d79565b5b509050611da29190611da6565b5090565b611de691905b80821115611de257600081816101000a81549073ffffffffffffffffffffffffffffffffffffffff021916905550600101611dac565b5090565b905600a165627a7a7230582020e595e13227a7912a5ac3649948d90a530936084de2aea92459f3d9deb0301a0029",
  "source": "pragma solidity ^0.4.23;\r\n\r\nimport \"./ownership/Ownable.sol\";\r\nimport \"./Lottery.sol\"; \r\n\r\n/**\r\n * @title LotteryFactory\r\n * @dev This is the lottery creator\r\n */\r\ncontract LotteryFactory is Ownable { \r\n    event LotteryDeployed(address deployedLottery);\r\n    \r\n    address[] public lotteries;\r\n    mapping(address => uint256) public indexOf; \r\n    \r\n    //\r\n    /** \r\n    * @notice (1586381 gas) We launch this to start creating the chain of all contratacts\r\n    * @param _duration duration of the lottery\r\n    * @param _lotteryValue value of the lottery\r\n    */\r\n\r\n    constructor(uint256 _duration, uint256 _lotteryValue) public {\r\n        createLottery(_duration, _lotteryValue, address(0));\r\n    }\r\n\r\n\r\n    /** \r\n    * @notice gets called when a new lottery is created from Lottery.sol,\r\n    *  we check if the caller is the last lottery created\r\n    * @param _duration duration of the lottery\r\n    * @param _lotteryValue value of the lottery\r\n    */\r\n    function createNewLottery(uint256 _duration, uint256 _lotteryValue) public returns (Lottery) { \r\n        require(msg.sender==lotteries[lotteries.length-1], \"Caller of this function must be the last lottery created\");\r\n        return createLottery(_duration, _lotteryValue, lotteries[lotteries.length-1]);\r\n        \r\n    }\r\n\r\n    /** \r\n    * @notice create the new lottery,\r\n    * @param _duration duration of the lottery\r\n    * @param _lotteryValue value of the lottery\r\n    * @param _laterLottery address of the most recent lottery\r\n    */\r\n    function createLottery(uint256 _duration, uint256 _lotteryValue, address _laterLottery) private returns (Lottery) {\r\n        Lottery l = new Lottery(_duration, _lotteryValue, this, _laterLottery);\r\n        l.transferOwnership(owner);\r\n        lotteries.push(address(l));\r\n        indexOf[address(l)] = lotteries.length - 1;\r\n        emit LotteryDeployed(address(l));\r\n        return l;\r\n    }\r\n\r\n    /**\r\n    * @notice getter for all deployed lotteries\r\n     */\r\n    function getLotteries() external view returns (address[]){\r\n        return lotteries;\r\n    }\r\n}",
  "sourcePath": "E:\\Ethereum\\Worldpay\\lottery-contract\\ethereum\\contracts\\LotteryFactory.sol",
  "compiler": {
    "name": "solc",
    "version": "0.4.23+commit.124ca40d.Emscripten.clang"
  },
  "schemaVersion": "2.0.0",
  "updatedAt": "2018-05-17T09:52:50.771Z"
}