{
  "contractName": "Lottery",
  "abi": [
    {
      "constant": true,
      "inputs": [],
      "name": "winningNumbers",
      "outputs": [
        {
          "name": "winningNumber",
          "type": "bytes4"
        }
      ],
      "payable": false,
      "stateMutability": "view",
      "type": "function"
    },
    {
      "constant": true,
      "inputs": [],
      "name": "finalJackPot",
      "outputs": [
        {
          "name": "",
          "type": "uint256"
        }
      ],
      "payable": false,
      "stateMutability": "view",
      "type": "function"
    },
    {
      "constant": true,
      "inputs": [],
      "name": "deadline",
      "outputs": [
        {
          "name": "",
          "type": "uint256"
        }
      ],
      "payable": false,
      "stateMutability": "view",
      "type": "function"
    },
    {
      "constant": true,
      "inputs": [
        {
          "name": "",
          "type": "bytes4"
        },
        {
          "name": "",
          "type": "uint256"
        }
      ],
      "name": "numbers4",
      "outputs": [
        {
          "name": "",
          "type": "address"
        }
      ],
      "payable": false,
      "stateMutability": "view",
      "type": "function"
    },
    {
      "constant": true,
      "inputs": [
        {
          "name": "",
          "type": "address"
        }
      ],
      "name": "winnersAllocation",
      "outputs": [
        {
          "name": "",
          "type": "uint256"
        }
      ],
      "payable": false,
      "stateMutability": "view",
      "type": "function"
    },
    {
      "constant": true,
      "inputs": [],
      "name": "jackPot",
      "outputs": [
        {
          "name": "",
          "type": "uint256"
        }
      ],
      "payable": false,
      "stateMutability": "view",
      "type": "function"
    },
    {
      "constant": true,
      "inputs": [
        {
          "name": "",
          "type": "address"
        },
        {
          "name": "",
          "type": "uint256"
        }
      ],
      "name": "playerNumbers3",
      "outputs": [
        {
          "name": "",
          "type": "bytes3"
        }
      ],
      "payable": false,
      "stateMutability": "view",
      "type": "function"
    },
    {
      "constant": true,
      "inputs": [],
      "name": "owner",
      "outputs": [
        {
          "name": "",
          "type": "address"
        }
      ],
      "payable": false,
      "stateMutability": "view",
      "type": "function"
    },
    {
      "constant": true,
      "inputs": [
        {
          "name": "",
          "type": "address"
        },
        {
          "name": "",
          "type": "uint256"
        }
      ],
      "name": "playerNumbers4",
      "outputs": [
        {
          "name": "",
          "type": "bytes4"
        }
      ],
      "payable": false,
      "stateMutability": "view",
      "type": "function"
    },
    {
      "constant": true,
      "inputs": [],
      "name": "lotteryValue",
      "outputs": [
        {
          "name": "",
          "type": "uint256"
        }
      ],
      "payable": false,
      "stateMutability": "view",
      "type": "function"
    },
    {
      "constant": true,
      "inputs": [],
      "name": "factoryAddress",
      "outputs": [
        {
          "name": "",
          "type": "address"
        }
      ],
      "payable": false,
      "stateMutability": "view",
      "type": "function"
    },
    {
      "constant": true,
      "inputs": [
        {
          "name": "",
          "type": "uint256"
        }
      ],
      "name": "winners",
      "outputs": [
        {
          "name": "",
          "type": "address"
        }
      ],
      "payable": false,
      "stateMutability": "view",
      "type": "function"
    },
    {
      "constant": true,
      "inputs": [],
      "name": "lotteryHasPlayed",
      "outputs": [
        {
          "name": "",
          "type": "bool"
        }
      ],
      "payable": false,
      "stateMutability": "view",
      "type": "function"
    },
    {
      "constant": true,
      "inputs": [],
      "name": "lastLottery",
      "outputs": [
        {
          "name": "",
          "type": "address"
        }
      ],
      "payable": false,
      "stateMutability": "view",
      "type": "function"
    },
    {
      "constant": true,
      "inputs": [
        {
          "name": "",
          "type": "bytes3"
        },
        {
          "name": "",
          "type": "uint256"
        }
      ],
      "name": "numbers3",
      "outputs": [
        {
          "name": "",
          "type": "address"
        }
      ],
      "payable": false,
      "stateMutability": "view",
      "type": "function"
    },
    {
      "constant": true,
      "inputs": [],
      "name": "winners3Length",
      "outputs": [
        {
          "name": "",
          "type": "uint256"
        }
      ],
      "payable": false,
      "stateMutability": "view",
      "type": "function"
    },
    {
      "constant": true,
      "inputs": [],
      "name": "prize",
      "outputs": [
        {
          "name": "",
          "type": "uint256"
        }
      ],
      "payable": false,
      "stateMutability": "view",
      "type": "function"
    },
    {
      "constant": false,
      "inputs": [
        {
          "name": "newOwner",
          "type": "address"
        }
      ],
      "name": "transferOwnership",
      "outputs": [],
      "payable": false,
      "stateMutability": "nonpayable",
      "type": "function"
    },
    {
      "constant": true,
      "inputs": [
        {
          "name": "",
          "type": "uint256"
        }
      ],
      "name": "players",
      "outputs": [
        {
          "name": "",
          "type": "address"
        }
      ],
      "payable": false,
      "stateMutability": "view",
      "type": "function"
    },
    {
      "inputs": [
        {
          "name": "_duration",
          "type": "uint256"
        },
        {
          "name": "_lotteryValue",
          "type": "uint256"
        },
        {
          "name": "_lastLotteryAddress",
          "type": "address"
        }
      ],
      "payable": false,
      "stateMutability": "nonpayable",
      "type": "constructor"
    },
    {
      "anonymous": false,
      "inputs": [
        {
          "indexed": false,
          "name": "value",
          "type": "uint256"
        }
      ],
      "name": "TransferJackPot",
      "type": "event"
    },
    {
      "anonymous": false,
      "inputs": [
        {
          "indexed": true,
          "name": "buyer",
          "type": "address"
        },
        {
          "indexed": false,
          "name": "jackPot",
          "type": "uint256"
        },
        {
          "indexed": false,
          "name": "numOfPlayers",
          "type": "uint256"
        }
      ],
      "name": "TicketBuy",
      "type": "event"
    },
    {
      "anonymous": false,
      "inputs": [
        {
          "indexed": false,
          "name": "numOfWinners",
          "type": "uint256"
        },
        {
          "indexed": false,
          "name": "prize",
          "type": "uint256"
        },
        {
          "indexed": false,
          "name": "winningNumber",
          "type": "bytes4"
        },
        {
          "indexed": false,
          "name": "finalJackPot",
          "type": "uint256"
        }
      ],
      "name": "LotteryHasPlayed",
      "type": "event"
    },
    {
      "anonymous": false,
      "inputs": [
        {
          "indexed": false,
          "name": "previousOwner",
          "type": "address"
        },
        {
          "indexed": false,
          "name": "newOwner",
          "type": "address"
        }
      ],
      "name": "OwnershipTransferred",
      "type": "event"
    },
    {
      "constant": false,
      "inputs": [
        {
          "name": "_number4",
          "type": "bytes4"
        },
        {
          "name": "_numbers3",
          "type": "bytes3[4]"
        }
      ],
      "name": "enter",
      "outputs": [],
      "payable": true,
      "stateMutability": "payable",
      "type": "function"
    },
    {
      "constant": false,
      "inputs": [],
      "name": "addJackPot",
      "outputs": [],
      "payable": true,
      "stateMutability": "payable",
      "type": "function"
    },
    {
      "constant": false,
      "inputs": [],
      "name": "playTheLottery",
      "outputs": [],
      "payable": false,
      "stateMutability": "nonpayable",
      "type": "function"
    },
    {
      "constant": false,
      "inputs": [],
      "name": "payWinners",
      "outputs": [],
      "payable": false,
      "stateMutability": "nonpayable",
      "type": "function"
    },
    {
      "constant": false,
      "inputs": [
        {
          "name": "_newLottery",
          "type": "address"
        }
      ],
      "name": "transferJackPot",
      "outputs": [],
      "payable": false,
      "stateMutability": "nonpayable",
      "type": "function"
    },
    {
      "constant": true,
      "inputs": [],
      "name": "getPlayers",
      "outputs": [
        {
          "name": "",
          "type": "address[]"
        }
      ],
      "payable": false,
      "stateMutability": "view",
      "type": "function"
    },
    {
      "constant": true,
      "inputs": [],
      "name": "getSummary",
      "outputs": [
        {
          "name": "",
          "type": "uint256"
        },
        {
          "name": "",
          "type": "uint256"
        },
        {
          "name": "",
          "type": "uint256"
        },
        {
          "name": "",
          "type": "uint256"
        },
        {
          "name": "",
          "type": "uint256"
        },
        {
          "name": "",
          "type": "uint256"
        },
        {
          "name": "",
          "type": "uint256"
        },
        {
          "name": "",
          "type": "bool"
        },
        {
          "name": "",
          "type": "address"
        },
        {
          "name": "",
          "type": "address"
        },
        {
          "name": "",
          "type": "address"
        },
        {
          "name": "",
          "type": "bytes4"
        }
      ],
      "payable": false,
      "stateMutability": "view",
      "type": "function"
    },
    {
      "constant": true,
      "inputs": [],
      "name": "getWinningNumbers",
      "outputs": [
        {
          "name": "",
          "type": "bytes4"
        },
        {
          "name": "",
          "type": "bytes3"
        },
        {
          "name": "",
          "type": "bytes3"
        },
        {
          "name": "",
          "type": "bytes3"
        },
        {
          "name": "",
          "type": "bytes3"
        }
      ],
      "payable": false,
      "stateMutability": "view",
      "type": "function"
    },
    {
      "constant": true,
      "inputs": [],
      "name": "getNumbers4ByPlayer",
      "outputs": [
        {
          "name": "",
          "type": "bytes4[]"
        }
      ],
      "payable": false,
      "stateMutability": "view",
      "type": "function"
    },
    {
      "constant": true,
      "inputs": [],
      "name": "getNumbers3ByPlayer",
      "outputs": [
        {
          "name": "",
          "type": "bytes3[]"
        }
      ],
      "payable": false,
      "stateMutability": "view",
      "type": "function"
    },
    {
      "constant": true,
      "inputs": [
        {
          "name": "_number",
          "type": "bytes4"
        }
      ],
      "name": "getPlayersByNumber4",
      "outputs": [
        {
          "name": "",
          "type": "address[]"
        }
      ],
      "payable": false,
      "stateMutability": "view",
      "type": "function"
    },
    {
      "constant": true,
      "inputs": [
        {
          "name": "_number3",
          "type": "bytes3"
        }
      ],
      "name": "getPlayersByNumber3",
      "outputs": [
        {
          "name": "",
          "type": "address[]"
        }
      ],
      "payable": false,
      "stateMutability": "view",
      "type": "function"
    }
  ],
  "bytecode": "0x60806040526000601060006101000a81548160ff02191690831515021790555034801561002b57600080fd5b5060405160608062003ed7833981018060405281019080805190602001909291908051906020019092919080519060200190929190505050336000806101000a81548173ffffffffffffffffffffffffffffffffffffffff021916908373ffffffffffffffffffffffffffffffffffffffff1602179055506000831115156100b257600080fd5b6000821115156100c157600080fd5b33601160006101000a81548173ffffffffffffffffffffffffffffffffffffffff021916908373ffffffffffffffffffffffffffffffffffffffff1602179055508242016001819055508160028190555080601060016101000a81548173ffffffffffffffffffffffffffffffffffffffff021916908373ffffffffffffffffffffffffffffffffffffffff160217905550505050613d7180620001666000396000f30060806040526004361061018b576000357c0100000000000000000000000000000000000000000000000000000000900463ffffffff16806321e0f2281461019057806328435506146101f957806329dcb0cf14610224578063347fc7181461024f5780634051ddac146102e557806347f234c9146104235780634a78cdba1461047a5780634c39775e146104a55780635337448e14610547578063558f38531461055e57806360de93ab146105ca578063642e8fef1461066b57806384350e1d146106755780638b5b9ccc146107fa5780638da5cb5b14610866578063900f46c6146108bd5780639113a7b51461095c578063966dae0e14610987578063a0b29f7e146109de578063a2fb117514610a27578063a319d14314610a94578063a947d05014610aab578063af0b4b2714610ada578063aff9d40714610b31578063c64facb514610bc8578063cdbddca014610c0b578063d705a4b814610c77578063e3ac5d2614610ca2578063f2fde38b14610ccd578063f5256f3b14610d10578063f71d96cb14610db1575b600080fd5b34801561019c57600080fd5b506101a5610e1e565b60405180827bffffffffffffffffffffffffffffffffffffffffffffffffffffffff19167bffffffffffffffffffffffffffffffffffffffffffffffffffffffff1916815260200191505060405180910390f35b34801561020557600080fd5b5061020e610e53565b6040518082815260200191505060405180910390f35b34801561023057600080fd5b50610239610e59565b6040518082815260200191505060405180910390f35b34801561025b57600080fd5b506102a360048036038101908080357bffffffffffffffffffffffffffffffffffffffffffffffffffffffff1916906020019092919080359060200190929190505050610e5f565b604051808273ffffffffffffffffffffffffffffffffffffffff1673ffffffffffffffffffffffffffffffffffffffff16815260200191505060405180910390f35b3480156102f157600080fd5b506102fa610eac565b604051808d81526020018c81526020018b81526020018a8152602001898152602001888152602001878152602001861515151581526020018573ffffffffffffffffffffffffffffffffffffffff1673ffffffffffffffffffffffffffffffffffffffff1681526020018473ffffffffffffffffffffffffffffffffffffffff1673ffffffffffffffffffffffffffffffffffffffff1681526020018373ffffffffffffffffffffffffffffffffffffffff1673ffffffffffffffffffffffffffffffffffffffff168152602001827bffffffffffffffffffffffffffffffffffffffffffffffffffffffff19167bffffffffffffffffffffffffffffffffffffffffffffffffffffffff191681526020019c5050505050505050505050505060405180910390f35b34801561042f57600080fd5b50610464600480360381019080803573ffffffffffffffffffffffffffffffffffffffff169060200190929190505050610fa6565b6040518082815260200191505060405180910390f35b34801561048657600080fd5b5061048f610fbe565b6040518082815260200191505060405180910390f35b3480156104b157600080fd5b506104f060048036038101908080357cffffffffffffffffffffffffffffffffffffffffffffffffffffffffff19169060200190929190505050610fc4565b6040518080602001828103825283818151815260200191508051906020019060200280838360005b83811015610533578082015181840152602081019050610518565b505050509050019250505060405180910390f35b34801561055357600080fd5b5061055c6110a5565b005b34801561056a57600080fd5b506105736112ba565b6040518080602001828103825283818151815260200191508051906020019060200280838360005b838110156105b657808201518184015260208101905061059b565b505050509050019250505060405180910390f35b3480156105d657600080fd5b50610615600480360381019080803573ffffffffffffffffffffffffffffffffffffffff169060200190929190803590602001909291905050506113ad565b60405180827cffffffffffffffffffffffffffffffffffffffffffffffffffffffffff19167cffffffffffffffffffffffffffffffffffffffffffffffffffffffffff1916815260200191505060405180910390f35b61067361140f565b005b34801561068157600080fd5b5061068a611572565b60405180867bffffffffffffffffffffffffffffffffffffffffffffffffffffffff19167bffffffffffffffffffffffffffffffffffffffffffffffffffffffff19168152602001857cffffffffffffffffffffffffffffffffffffffffffffffffffffffffff19167cffffffffffffffffffffffffffffffffffffffffffffffffffffffffff19168152602001847cffffffffffffffffffffffffffffffffffffffffffffffffffffffffff19167cffffffffffffffffffffffffffffffffffffffffffffffffffffffffff19168152602001837cffffffffffffffffffffffffffffffffffffffffffffffffffffffffff19167cffffffffffffffffffffffffffffffffffffffffffffffffffffffffff19168152602001827cffffffffffffffffffffffffffffffffffffffffffffffffffffffffff19167cffffffffffffffffffffffffffffffffffffffffffffffffffffffffff191681526020019550505050505060405180910390f35b34801561080657600080fd5b5061080f6116de565b6040518080602001828103825283818151815260200191508051906020019060200280838360005b83811015610852578082015181840152602081019050610837565b505050509050019250505060405180910390f35b34801561087257600080fd5b5061087b61176c565b604051808273ffffffffffffffffffffffffffffffffffffffff1673ffffffffffffffffffffffffffffffffffffffff16815260200191505060405180910390f35b3480156108c957600080fd5b50610908600480360381019080803573ffffffffffffffffffffffffffffffffffffffff16906020019092919080359060200190929190505050611791565b60405180827bffffffffffffffffffffffffffffffffffffffffffffffffffffffff19167bffffffffffffffffffffffffffffffffffffffffffffffffffffffff1916815260200191505060405180910390f35b34801561096857600080fd5b506109716117f2565b6040518082815260200191505060405180910390f35b34801561099357600080fd5b5061099c6117f8565b604051808273ffffffffffffffffffffffffffffffffffffffff1673ffffffffffffffffffffffffffffffffffffffff16815260200191505060405180910390f35b610a2560048036038101908080357bffffffffffffffffffffffffffffffffffffffffffffffffffffffff191690602001909291908060800190919291929050505061181e565b005b348015610a3357600080fd5b50610a5260048036038101908080359060200190929190505050611bf2565b604051808273ffffffffffffffffffffffffffffffffffffffff1673ffffffffffffffffffffffffffffffffffffffff16815260200191505060405180910390f35b348015610aa057600080fd5b50610aa9611c30565b005b348015610ab757600080fd5b50610ac0611fb5565b604051808215151515815260200191505060405180910390f35b348015610ae657600080fd5b50610aef611fc8565b604051808273ffffffffffffffffffffffffffffffffffffffff1673ffffffffffffffffffffffffffffffffffffffff16815260200191505060405180910390f35b348015610b3d57600080fd5b50610b8660048036038101908080357cffffffffffffffffffffffffffffffffffffffffffffffffffffffffff1916906020019092919080359060200190929190505050611fee565b604051808273ffffffffffffffffffffffffffffffffffffffff1673ffffffffffffffffffffffffffffffffffffffff16815260200191505060405180910390f35b348015610bd457600080fd5b50610c09600480360381019080803573ffffffffffffffffffffffffffffffffffffffff16906020019092919050505061203b565b005b348015610c1757600080fd5b50610c206122f5565b6040518080602001828103825283818151815260200191508051906020019060200280838360005b83811015610c63578082015181840152602081019050610c48565b505050509050019250505060405180910390f35b348015610c8357600080fd5b50610c8c6123ea565b6040518082815260200191505060405180910390f35b348015610cae57600080fd5b50610cb76123f0565b6040518082815260200191505060405180910390f35b348015610cd957600080fd5b50610d0e600480360381019080803573ffffffffffffffffffffffffffffffffffffffff1690602001909291905050506123f6565b005b348015610d1c57600080fd5b50610d5a60048036038101908080357bffffffffffffffffffffffffffffffffffffffffffffffffffffffff19169060200190929190505050612588565b6040518080602001828103825283818151815260200191508051906020019060200280838360005b83811015610d9d578082015181840152602081019050610d82565b505050509050019250505060405180910390f35b348015610dbd57600080fd5b50610ddc60048036038101908080359060200190929190505050612667565b604051808273ffffffffffffffffffffffffffffffffffffffff1673ffffffffffffffffffffffffffffffffffffffff16815260200191505060405180910390f35b60078060000160009054906101000a90047c010000000000000000000000000000000000000000000000000000000002905081565b60045481565b60015481565b600b60205281600052604060002081815481101515610e7a57fe5b906000526020600020016000915091509054906101000a900473ffffffffffffffffffffffffffffffffffffffff1681565b600080600080600080600080600080600080600254600154600354600e80549050600554600f80549050600454601060009054906101000a900460ff16601060019054906101000a900473ffffffffffffffffffffffffffffffffffffffff16601160009054906101000a900473ffffffffffffffffffffffffffffffffffffffff166000809054906101000a900473ffffffffffffffffffffffffffffffffffffffff16600760000160009054906101000a90047c0100000000000000000000000000000000000000000000000000000000029b509b509b509b509b509b509b509b509b509b509b509b50909192939495969798999a9b565b600d6020528060005260406000206000915090505481565b60035481565b6060600c6000837cffffffffffffffffffffffffffffffffffffffffffffffffffffffffff19167cffffffffffffffffffffffffffffffffffffffffffffffffffffffffff1916815260200190815260200160002080548060200260200160405190810160405280929190818152602001828054801561109957602002820191906000526020600020905b8160009054906101000a900473ffffffffffffffffffffffffffffffffffffffff1673ffffffffffffffffffffffffffffffffffffffff168152602001906001019080831161104f575b50505050509050919050565b60008060008060009054906101000a900473ffffffffffffffffffffffffffffffffffffffff1673ffffffffffffffffffffffffffffffffffffffff163373ffffffffffffffffffffffffffffffffffffffff1614151561110557600080fd5b601060009054906101000a900460ff16151561112057600080fd5b60003073ffffffffffffffffffffffffffffffffffffffff163111151561114657600080fd5b3073ffffffffffffffffffffffffffffffffffffffff16316003541015151561116e57600080fd5b6000600f8054905011151561118257600080fd5b600092505b600f805490508310156112b557600f838154811015156111a357fe5b9060005260206000200160009054906101000a900473ffffffffffffffffffffffffffffffffffffffff169150600d60008373ffffffffffffffffffffffffffffffffffffffff1673ffffffffffffffffffffffffffffffffffffffff16815260200190815260200160002054905060008111156112a8576000600d60008473ffffffffffffffffffffffffffffffffffffffff1673ffffffffffffffffffffffffffffffffffffffff168152602001908152602001600020819055508173ffffffffffffffffffffffffffffffffffffffff166108fc829081150290604051600060405180830381858888f193505050501580156112a6573d6000803e3d6000fd5b505b8280600101935050611187565b505050565b6060600960003373ffffffffffffffffffffffffffffffffffffffff1673ffffffffffffffffffffffffffffffffffffffff1681526020019081526020016000208054806020026020016040519081016040528092919081815260200182805480156113a357602002820191906000526020600020906000905b82829054906101000a90047c0100000000000000000000000000000000000000000000000000000000027bffffffffffffffffffffffffffffffffffffffffffffffffffffffff1916815260200190600401906020826003010492830192600103820291508084116113345790505b5050505050905090565b600a602052816000526040600020818154811015156113c857fe5b90600052602060002090600a9182820401919006600302915091509054906101000a90047d0100000000000000000000000000000000000000000000000000000000000281565b601060009054906101000a900460ff16151515611494576040517f08c379a000000000000000000000000000000000000000000000000000000000815260040180806020018281038252601c8152602001807f6c6f747465727920686173207374696c6c206e6f7420706c617965640000000081525060200191505060405180910390fd5b4260015411151561150d576040517f08c379a00000000000000000000000000000000000000000000000000000000081526004018080602001828103825260108152602001807f646561646c696e65206973206f7665720000000000000000000000000000000081525060200191505060405180910390fd5b60003411151561151c57600080fd5b611531346003546126a590919063ffffffff16565b6003819055507fc2c48fe60b23268064613cbca1898c1871bae36909b3f33467dd82c6fe2cb2e36003546040518082815260200191505060405180910390a1565b6000806000806000600760000160009054906101000a90047c010000000000000000000000000000000000000000000000000000000002600760010160006004811015156115bc57fe5b600a91828204019190066003029054906101000a90047d010000000000000000000000000000000000000000000000000000000000026007600101600160048110151561160557fe5b600a91828204019190066003029054906101000a90047d010000000000000000000000000000000000000000000000000000000000026007600101600260048110151561164e57fe5b600a91828204019190066003029054906101000a90047d010000000000000000000000000000000000000000000000000000000000026007600101600360048110151561169757fe5b600a91828204019190066003029054906101000a90047d01000000000000000000000000000000000000000000000000000000000002945094509450945094509091929394565b6060600e80548060200260200160405190810160405280929190818152602001828054801561176257602002820191906000526020600020905b8160009054906101000a900473ffffffffffffffffffffffffffffffffffffffff1673ffffffffffffffffffffffffffffffffffffffff1681526020019060010190808311611718575b5050505050905090565b6000809054906101000a900473ffffffffffffffffffffffffffffffffffffffff1681565b6009602052816000526040600020818154811015156117ac57fe5b9060005260206000209060089182820401919006600402915091509054906101000a90047c01000000000000000000000000000000000000000000000000000000000281565b60025481565b601160009054906101000a900473ffffffffffffffffffffffffffffffffffffffff1681565b600254341415156118bd576040517f08c379a000000000000000000000000000000000000000000000000000000000815260040180806020018281038252602c8152602001807f76616c7565207265636569766564206973206c657373207468616e207468652081526020017f6c6f747465727956616c7565000000000000000000000000000000000000000081525060400191505060405180910390fd5b60015442101515611936576040517f08c379a00000000000000000000000000000000000000000000000000000000081526004018080602001828103825260158152602001807f4c6f7474657279206861732066696e616c697a6564000000000000000000000081525060200191505060405180910390fd5b601060009054906101000a900460ff161515156119bb576040517f08c379a000000000000000000000000000000000000000000000000000000000815260040180806020018281038252601a8152602001807f4c6f74746572792068617320616c726561647920706c6179656400000000000081525060200191505060405180910390fd5b6119e3827bffffffffffffffffffffffffffffffffffffffffffffffffffffffff19166126c1565b1515611a7d576040517f08c379a00000000000000000000000000000000000000000000000000000000081526004018080602001828103825260228152602001807f4e6f207265706561746564206e756d6265727320696e7369646520746865206281526020017f657400000000000000000000000000000000000000000000000000000000000081525060400191505060405180910390fd5b611ad48160048060200260405190810160405280929190826004602002808284378201915050505050837bffffffffffffffffffffffffffffffffffffffffffffffffffffffff191661284590919063ffffffff16565b1515611adf57600080fd5b611af66002546003546126a590919063ffffffff16565b600381905550600e3390806001815401808255809150509060018203906000526020600020016000909192909190916101000a81548173ffffffffffffffffffffffffffffffffffffffff021916908373ffffffffffffffffffffffffffffffffffffffff16021790555050611b918282600480602002604051908101604052809291908260046020028082843782019150505050506129c7565b3373ffffffffffffffffffffffffffffffffffffffff167f7161ae8ed1d6afc002ada852faaf7f77973bd0d83165acda81a927674acc058d600354600e80549050604051808381526020018281526020019250505060405180910390a25050565b600f81815481101515611c0157fe5b906000526020600020016000915054906101000a900473ffffffffffffffffffffffffffffffffffffffff1681565b600060606000806000809054906101000a900473ffffffffffffffffffffffffffffffffffffffff1673ffffffffffffffffffffffffffffffffffffffff163373ffffffffffffffffffffffffffffffffffffffff16141515611c9257600080fd5b42600154101515611d0b576040517f08c379a00000000000000000000000000000000000000000000000000000000081526004018080602001828103825260178152602001807f646561646c696e652068617320746f206265206f76657200000000000000000081525060200191505060405180910390fd5b601060009054906101000a900460ff16151515611d90576040517f08c379a00000000000000000000000000000000000000000000000000000000081526004018080602001828103825260128152602001807f6c6f74746572792068617320706c61796564000000000000000000000000000081525060200191505060405180910390fd5b6001601060006101000a81548160ff02191690831515021790555060405180807f310000000000000000000000000000000000000000000000000000000000000081525060010190506040518091039020935060046040519080825280601f01601f191660200182016040528015611e175781602001602082028038833980820191505090505b509250600091505b6004821015611f39576004821415611e3657611f39565b6063847e010000000000000000000000000000000000000000000000000000000000009004811515611e6457fe5b0690506000811415611e7557606390505b611eaa817f01000000000000000000000000000000000000000000000000000000000000000284612cbc90919063ffffffff16565b8015611eb7575060008114155b15611f2657807f0100000000000000000000000000000000000000000000000000000000000000028383815181101515611eed57fe5b9060200101907effffffffffffffffffffffffffffffffffffffffffffffffffffffffffffff1916908160001a90535081806001019250505b601084600019169060020a029350611e1f565b611f4283612d93565b9250611f4d8361300f565b600760000160006101000a81548163ffffffff02191690837c010000000000000000000000000000000000000000000000000000000090040217905550611f93836130e3565b6007600101906004611fa6929190613c34565b50611faf6133a1565b50505050565b601060009054906101000a900460ff1681565b601060019054906101000a900473ffffffffffffffffffffffffffffffffffffffff1681565b600c6020528160005260406000208181548110151561200957fe5b906000526020600020016000915091509054906101000a900473ffffffffffffffffffffffffffffffffffffffff1681565b600080601160009054906101000a900473ffffffffffffffffffffffffffffffffffffffff1673ffffffffffffffffffffffffffffffffffffffff163373ffffffffffffffffffffffffffffffffffffffff1614151561209a57600080fd5b6000600354111515612114576040517f08c379a000000000000000000000000000000000000000000000000000000000815260040180806020018281038252601d8152602001807f4a61636b706f7420736f68756c64206265206d6f7265207468616e203000000081525060200191505060405180910390fd5b601060009054906101000a900460ff161515612198576040517f08c379a00000000000000000000000000000000000000000000000000000000081526004018080602001828103825260128152602001807f6c6f74746572792068617320706c61796564000000000000000000000000000081525060200191505060405180910390fd5b600073ffffffffffffffffffffffffffffffffffffffff168373ffffffffffffffffffffffffffffffffffffffff1614151515612263576040517f08c379a00000000000000000000000000000000000000000000000000000000081526004018080602001828103825260238152602001807f6e6577206c6f747465727920616464726573732073686f756c64206e6f74206281526020017f652030000000000000000000000000000000000000000000000000000000000081525060400191505060405180910390fd5b600354915060006003819055508290508073ffffffffffffffffffffffffffffffffffffffff1663642e8fef836040518263ffffffff167c01000000000000000000000000000000000000000000000000000000000281526004016000604051808303818588803b1580156122d757600080fd5b505af11580156122eb573d6000803e3d6000fd5b5050505050505050565b6060600a60003373ffffffffffffffffffffffffffffffffffffffff1673ffffffffffffffffffffffffffffffffffffffff1681526020019081526020016000208054806020026020016040519081016040528092919081815260200182805480156123e057602002820191906000526020600020906000905b82829054906101000a90047d010000000000000000000000000000000000000000000000000000000000027cffffffffffffffffffffffffffffffffffffffffffffffffffffffffff19168152602001906003019060208260020104928301926001038202915080841161236f5790505b5050505050905090565b60065481565b60055481565b6000809054906101000a900473ffffffffffffffffffffffffffffffffffffffff1673ffffffffffffffffffffffffffffffffffffffff163373ffffffffffffffffffffffffffffffffffffffff1614151561245157600080fd5b600073ffffffffffffffffffffffffffffffffffffffff168173ffffffffffffffffffffffffffffffffffffffff161415151561248d57600080fd5b7f8be0079c531659141344cd1fd0a4f28419497f9722a3daafe3b4186f6b6457e06000809054906101000a900473ffffffffffffffffffffffffffffffffffffffff1682604051808373ffffffffffffffffffffffffffffffffffffffff1673ffffffffffffffffffffffffffffffffffffffff1681526020018273ffffffffffffffffffffffffffffffffffffffff1673ffffffffffffffffffffffffffffffffffffffff1681526020019250505060405180910390a1806000806101000a81548173ffffffffffffffffffffffffffffffffffffffff021916908373ffffffffffffffffffffffffffffffffffffffff16021790555050565b6060600b6000837bffffffffffffffffffffffffffffffffffffffffffffffffffffffff19167bffffffffffffffffffffffffffffffffffffffffffffffffffffffff1916815260200190815260200160002080548060200260200160405190810160405280929190818152602001828054801561265b57602002820191906000526020600020905b8160009054906101000a900473ffffffffffffffffffffffffffffffffffffffff1673ffffffffffffffffffffffffffffffffffffffff1681526020019060010190808311612611575b50505050509050919050565b600e8181548110151561267657fe5b906000526020600020016000915054906101000a900473ffffffffffffffffffffffffffffffffffffffff1681565b600081830190508281101515156126b857fe5b80905092915050565b60008060008060048060ff161415156126dd576000935061283d565b600092505b600460ff168310156128385784836004811015156126fc57fe5b1a7f01000000000000000000000000000000000000000000000000000000000000000291506000827f0100000000000000000000000000000000000000000000000000000000000000900411158061277757506063827f01000000000000000000000000000000000000000000000000000000000000009004115b15612785576000935061283d565b6001830190505b600460ff1681101561282b5784816004811015156127a657fe5b1a7f0100000000000000000000000000000000000000000000000000000000000000027effffffffffffffffffffffffffffffffffffffffffffffffffffffffffffff1916827effffffffffffffffffffffffffffffffffffffffffffffffffffffffffffff191610151561281e576000935061283d565b808060010191505061278c565b82806001019350506126e2565b600193505b505050919050565b6000806000806000806000806000809750600096505b60048710156129b257898760048110151561287257fe5b6020020151955061288286613730565b151561289157600098506129b9565b6000945060009350600092505b600360ff168310156129935785836003811015156128b857fe5b1a7f01000000000000000000000000000000000000000000000000000000000000000291508490505b600460ff1681101561298657817effffffffffffffffffffffffffffffffffffffffffffffffffffffffffffff19168b8260048110151561291e57fe5b1a7f0100000000000000000000000000000000000000000000000000000000000000027effffffffffffffffffffffffffffffffffffffffffffffffffffffffffffff19161415612979578094508380600101945050612986565b80806001019150506128e1565b828060010193505061289e565b60038414156129a55787806001019850505b868060010197505061285b565b6004881498505b505050505050505092915050565b600080600960003373ffffffffffffffffffffffffffffffffffffffff1673ffffffffffffffffffffffffffffffffffffffff16815260200190815260200160002084908060018154018082558091505090600182039060005260206000209060089182820401919006600402909192909190916101000a81548163ffffffff02191690837c01000000000000000000000000000000000000000000000000000000009004021790555050600b6000857bffffffffffffffffffffffffffffffffffffffffffffffffffffffff19167bffffffffffffffffffffffffffffffffffffffffffffffffffffffff191681526020019081526020016000203390806001815401808255809150509060018203906000526020600020016000909192909190916101000a81548173ffffffffffffffffffffffffffffffffffffffff021916908373ffffffffffffffffffffffffffffffffffffffff16021790555050600091505b6004821015612cb6578282600481101515612b4357fe5b60200201519050600a60003373ffffffffffffffffffffffffffffffffffffffff1673ffffffffffffffffffffffffffffffffffffffff168152602001908152602001600020819080600181540180825580915050906001820390600052602060002090600a9182820401919006600302909192909190916101000a81548162ffffff02191690837d0100000000000000000000000000000000000000000000000000000000009004021790555050600c6000827cffffffffffffffffffffffffffffffffffffffffffffffffffffffffff19167cffffffffffffffffffffffffffffffffffffffffffffffffffffffffff191681526020019081526020016000203390806001815401808255809150509060018203906000526020600020016000909192909190916101000a81548173ffffffffffffffffffffffffffffffffffffffff021916908373ffffffffffffffffffffffffffffffffffffffff160217905550508180600101925050612b2c565b50505050565b600080600090505b8351811015612d87578381815181101515612cdb57fe5b9060200101517f010000000000000000000000000000000000000000000000000000000000000090047f0100000000000000000000000000000000000000000000000000000000000000027effffffffffffffffffffffffffffffffffffffffffffffffffffffffffffff1916837effffffffffffffffffffffffffffffffffffffffffffffffffffffffffffff19161415612d7a5760009150612d8c565b8080600101915050612cc4565b600191505b5092915050565b606060008060008085519350600092505b83831015613003576001830191505b83821015612ff6578582815181101515612dc957fe5b9060200101517f010000000000000000000000000000000000000000000000000000000000000090047f0100000000000000000000000000000000000000000000000000000000000000027effffffffffffffffffffffffffffffffffffffffffffffffffffffffffffff19168684815181101515612e4457fe5b9060200101517f010000000000000000000000000000000000000000000000000000000000000090047f0100000000000000000000000000000000000000000000000000000000000000027effffffffffffffffffffffffffffffffffffffffffffffffffffffffffffff19161115612fe9578583815181101515612ec557fe5b9060200101517f010000000000000000000000000000000000000000000000000000000000000090047f01000000000000000000000000000000000000000000000000000000000000000290508582815181101515612f2057fe5b9060200101517f010000000000000000000000000000000000000000000000000000000000000090047f0100000000000000000000000000000000000000000000000000000000000000028684815181101515612f7957fe5b9060200101907effffffffffffffffffffffffffffffffffffffffffffffffffffffffffffff1916908160001a905350808683815181101515612fb857fe5b9060200101907effffffffffffffffffffffffffffffffffffffffffffffffffffffffffffff1916908160001a9053505b8180600101925050612db3565b8280600101935050612da4565b85945050505050919050565b60008060008091505b83518210156130dc57838281518110151561302f57fe5b9060200101517f010000000000000000000000000000000000000000000000000000000000000090047f0100000000000000000000000000000000000000000000000000000000000000027effffffffffffffffffffffffffffffffffffffffffffffffffffffffffffff1916905081600802817bffffffffffffffffffffffffffffffffffffffffffffffffffffffff19169060020a9004905080831792508180600101925050613018565b5050919050565b6130eb613cf0565b600080606060008060006130fd613cf0565b606060006003985060049750886040519080825280602002602001820160405280156131385781602001602082028038833980820191505090505b5096506000955060009450600093505b600086101515613392578886038801851115156133395784878781518110151561316e57fe5b90602001906020020181815250506001890386141561330e57886040519080825280601f01601f1916602001820160405280156131ba5781602001602082028038833980820191505090505b509150600090505b8651811015613286578a87828151811015156131da57fe5b906020019060200201518151811015156131f057fe5b9060200101517f010000000000000000000000000000000000000000000000000000000000000090047f010000000000000000000000000000000000000000000000000000000000000002828281518110151561324957fe5b9060200101907effffffffffffffffffffffffffffffffffffffffffffffffffffffffffffff1916908160001a90535080806001019150506131c2565b61328f826138b4565b838560048110151561329d57fe5b60200201907cffffffffffffffffffffffffffffffffffffffffffffffffffffffffff191690817cffffffffffffffffffffffffffffffffffffffffffffffffffffffffff19168152505083806001019450508480600101955050600484141561330957829950613393565b613334565b6001878781518110151561331e57fe5b9060200190602002015101945085806001019650505b61338d565b858060019003965050600086111561336d576001878781518110151561335b57fe5b9060200190602002015101945061338c565b600187600081518110151561337e57fe5b906020019060200201510194505b5b613148565b5b505050505050505050919050565b600060606000806000806000606060006133c7600260035461398990919063ffffffff16565b9850600b6000600760000160009054906101000a90047c0100000000000000000000000000000000000000000000000000000000027bffffffffffffffffffffffffffffffffffffffffffffffffffffffff19167bffffffffffffffffffffffffffffffffffffffffffffffffffffffff191681526020019081526020016000208054806020026020016040519081016040528092919081815260200182805480156134c857602002820191906000526020600020905b8160009054906101000a900473ffffffffffffffffffffffffffffffffffffffff1673ffffffffffffffffffffffffffffffffffffffff168152602001906001019080831161347e575b50505050509750600088511115613562576134ee896005546126a590919063ffffffff16565b6005819055506135098960035461399f90919063ffffffff16565b60038190555061352388518a61398990919063ffffffff16565b9650600095505b875186101561356157613554888781518110151561354457fe5b90602001906020020151886139b8565b858060010196505061352a565b5b600093505b600484101561359b5761358c61357c85613b00565b51866126a590919063ffffffff16565b94508380600101945050613567565b6000851115613658576135b9896005546126a590919063ffffffff16565b6005819055506135d48960035461399f90919063ffffffff16565b6003819055506135ed858a61398990919063ffffffff16565b9650600092505b60048310156136575761360683613b00565b915060008251111561364a57600090505b81518110156136495761363682516006546126a590919063ffffffff16565b6006819055508080600101915050613617565b5b82806001019350506135f4565b5b6003546004819055507f72ca82fd72ba775f1994326b46d5c3a81d11d0cc24325df07fa8939f8a2c3d07600f80549050600554600760000160009054906101000a90047c01000000000000000000000000000000000000000000000000000000000260045460405180858152602001848152602001837bffffffffffffffffffffffffffffffffffffffffffffffffffffffff19167bffffffffffffffffffffffffffffffffffffffffffffffffffffffff1916815260200182815260200194505050505060405180910390a1505050505050505050565b60008060008060038060ff1614151561374c57600093506138ac565b600092505b600360ff168310156138a757848360038110151561376b57fe5b1a7f01000000000000000000000000000000000000000000000000000000000000000291506000827f010000000000000000000000000000000000000000000000000000000000000090041115806137e657506063827f01000000000000000000000000000000000000000000000000000000000000009004115b156137f457600093506138ac565b6001830190505b600360ff1681101561389a57848160038110151561381557fe5b1a7f0100000000000000000000000000000000000000000000000000000000000000027effffffffffffffffffffffffffffffffffffffffffffffffffffffffffffff1916827effffffffffffffffffffffffffffffffffffffffffffffffffffffffffffff191610151561388d57600093506138ac565b80806001019150506137fb565b8280600101935050613751565b600193505b505050919050565b60008060008091505b83518210156139825783828151811015156138d457fe5b9060200101517f010000000000000000000000000000000000000000000000000000000000000090047f0100000000000000000000000000000000000000000000000000000000000000027effffffffffffffffffffffffffffffffffffffffffffffffffffffffffffff1916905081600802817cffffffffffffffffffffffffffffffffffffffffffffffffffffffffff19169060020a90049050808317925081806001019250506138bd565b5050919050565b6000818381151561399657fe5b04905092915050565b60008282111515156139ad57fe5b818303905092915050565b6000600d60008473ffffffffffffffffffffffffffffffffffffffff1673ffffffffffffffffffffffffffffffffffffffff168152602001908152602001600020541415613a6757600f8290806001815401808255809150509060018203906000526020600020016000909192909190916101000a81548173ffffffffffffffffffffffffffffffffffffffff021916908373ffffffffffffffffffffffffffffffffffffffff160217905550505b613ab981600d60008573ffffffffffffffffffffffffffffffffffffffff1673ffffffffffffffffffffffffffffffffffffffff168152602001908152602001600020546126a590919063ffffffff16565b600d60008473ffffffffffffffffffffffffffffffffffffffff1673ffffffffffffffffffffffffffffffffffffffff168152602001908152602001600020819055505050565b606060006060600760010184600481101515613b1857fe5b600a91828204019190066003029054906101000a90047d010000000000000000000000000000000000000000000000000000000000029150600c6000837cffffffffffffffffffffffffffffffffffffffffffffffffffffffffff19167cffffffffffffffffffffffffffffffffffffffffffffffffffffffffff19168152602001908152602001600020805480602002602001604051908101604052809291908181526020018280548015613c2357602002820191906000526020600020905b8160009054906101000a900473ffffffffffffffffffffffffffffffffffffffff1673ffffffffffffffffffffffffffffffffffffffff1681526020019060010190808311613bd9575b505050505090508092505050919050565b826004600901600a90048101928215613cdf5791602002820160005b83821115613cae57835183826101000a81548162ffffff02191690837d010000000000000000000000000000000000000000000000000000000000900402179055509260200192600301602081600201049283019260010302613c50565b8015613cdd5782816101000a81549062ffffff0219169055600301602081600201049283019260010302613cae565b505b509050613cec9190613d13565b5090565b608060405190810160405280600490602082028038833980820191505090505090565b613d4291905b80821115613d3e57600081816101000a81549062ffffff021916905550600101613d19565b5090565b905600a165627a7a723058209a8ce1c00cee73f3d83e21156d4fd4e3186c060b0ec9c80c2e029704428593480029",
  "source": "pragma solidity ^0.4.23;\r\n\r\nimport \"./ownership/Ownable.sol\";\r\nimport \"./math/SafeMath.sol\";\r\nimport \"./LotteryFactory.sol\";\r\nimport \"./BytesConvertLib.sol\";\r\n\r\n/**\r\n * @title Lottery\r\n * @dev Lottery with 4 numbers between 01-99. for each bet we store:\r\n * 1 bytes4 [ 16, 19, 66, 88 ] = 0x10134258\r\n * 4 bytes3 [ 16, 19, 66 ] = 0x101342,  0x101358,  0x104258,  134258\r\n * according to the formula (n!/(k!(n-k)!)) where\r\n * for 3 numbers n = 4 and k = 3\r\n */\r\n\r\ncontract Lottery is Ownable {\r\n    using SafeMath for uint256; \r\n    using BytesConvertLib for bytes;\r\n    using BytesConvertLib for bytes4;\r\n\r\n    event TransferJackPot(uint256 value);\r\n    event TicketBuy(address indexed buyer, uint256 jackPot, uint256 numOfPlayers);\r\n    event LotteryHasPlayed(\r\n        uint256 numOfWinners, uint256 prize, bytes4 winningNumber, uint256 finalJackPot);\r\n\r\n    uint256 public deadline;\r\n    uint256 public lotteryValue;\r\n    uint256 public jackPot;\r\n    uint256 public finalJackPot;\r\n    uint256 public prize;\r\n\r\n    uint256 public winners3Length;\r\n   \r\n    struct WinningNumbers { \r\n        bytes4 winningNumber; \r\n        bytes3[4] winningNumbers3;\r\n    } \r\n\r\n    WinningNumbers public winningNumbers;\r\n\r\n    // @dev mapping of the sender => numbers, when user enters the lottery we save his numbers\r\n    mapping(address => bytes4[]) public playerNumbers4;\r\n    mapping(address => bytes3[]) public playerNumbers3;\r\n\r\n    // @dev mapping of the numbers => players[], when user enters a number we save his \r\n    // number pointing to his address\r\n    mapping(bytes4 => address[]) public numbers4;\r\n    mapping(bytes3 => address[]) public numbers3;\r\n\r\n    // @dev mapping of player => allocation, when player is a winner we add the prize \r\n    mapping(address => uint256) public winnersAllocation;\r\n\r\n    address[] public players;\r\n    address[] public winners;\r\n\r\n    bool public lotteryHasPlayed = false;\r\n\r\n    // @dev we keep a reference of the last lottery\r\n    address public lastLottery;\r\n\r\n    // @dev the address of the factory which deployed this lottery\r\n    address public factoryAddress;\r\n\r\n    // @dev modifier to check if sender is the factoryAddress\r\n    modifier onlyFactory() {\r\n        require(msg.sender == factoryAddress);\r\n        _;\r\n    }\r\n    /** \r\n    * @dev we set the lotteryFactory as the creator of this lottery\r\n    * @param _duration how long will the lottery be open to enter\r\n    * @param _lotteryValue sets the value of the lottery\r\n    * @param _lastLotteryAddress address of the previous lottery\r\n    */\r\n    constructor(uint256 _duration, uint256 _lotteryValue, address _lastLotteryAddress) public {\r\n        require(_duration > 0);\r\n        require(_lotteryValue > 0);\r\n        factoryAddress = msg.sender;\r\n        deadline = now + _duration;\r\n        lotteryValue = _lotteryValue;\r\n        lastLottery = _lastLotteryAddress;\r\n    }\r\n\r\n    /** \r\n    * @notice allows the player to enter \r\n    * @param _number4 the main number in bytes [ 14, 15, 16, 19] = 0x0e0f1013\r\n    * @param _numbers3 array[4] of bytes3, 4 possible combinations of 3 numbers\r\n    * [ 14, 15, 16] = 0x0e0f10, ....\r\n    */\r\n    function enter(bytes4 _number4, bytes3[4] _numbers3) external payable {\r\n        require(msg.value == lotteryValue, \"value received is less than the lotteryValue\");\r\n        require(now < deadline, \"Lottery has finalized\");\r\n        require(!lotteryHasPlayed, \"Lottery has already played\"); \r\n        require(_number4.areValidNumbers4(), \"No repeated numbers inside the bet\");\r\n        require(_number4.areInsideNumber4(_numbers3));\r\n        jackPot = jackPot.add(lotteryValue);\r\n        players.push(msg.sender);\r\n        _storeNumbers(_number4, _numbers3);\r\n        emit TicketBuy(msg.sender, jackPot, players.length);\r\n    }\r\n\r\n    /** \r\n    * @notice we store one bytes4 and 4 bytes3 so when lottery plays\r\n    * we compare how many players played these numbers to know how much was won\r\n    * and separate this money from the jackpot\r\n    * @param _number4 4 bytes containing the numbers\r\n    * @param _numbers3 array[4] of bytes3 \r\n    */\r\n    function _storeNumbers(bytes4 _number4, bytes3[4] memory _numbers3) private {\r\n        playerNumbers4[msg.sender].push(_number4);\r\n        numbers4[_number4].push(msg.sender);\r\n        for(uint256 k = 0; k < 4; k++){\r\n            bytes3 _number3 = _numbers3[k];\r\n            playerNumbers3[msg.sender].push(_number3);\r\n            numbers3[_number3].push(msg.sender);\r\n        }\r\n    }\r\n\r\n    /**     \r\n    * @dev is called when player enters the lottery, we use this to allocate the money\r\n    */\r\n    function addJackPot() public payable {\r\n        require(!lotteryHasPlayed, \"lottery has still not played\");\r\n        require(deadline > now, \"deadline is over\");\r\n        require(msg.value>0);\r\n        jackPot = jackPot.add(msg.value);\r\n        emit TransferJackPot(jackPot);\r\n    }\r\n\r\n    /** \r\n    * @notice play the lottery when is finished, we get a bytes32 keccak256 of the \r\n    * random number, first 2 bytes are divided by 99 and we take the residous\r\n    * if the number is ok we put it in the first place of _number4, then we take\r\n    * the subsequent 2 bytes and do the same to put it in the second slot of _number4\r\n    * at the end _number 4 is the winning number\r\n    */\r\n    function playTheLottery() external onlyOwner {\r\n        require(deadline < now, \"deadline has to be over\");\r\n        require(!lotteryHasPlayed, \"lottery has played\");\r\n        lotteryHasPlayed = true;\r\n        bytes32 random = keccak256(\"1\");        \r\n        bytes memory _number4 = new bytes(4);\r\n        uint256 size = 0;\r\n        while(size < 4){\r\n            if(size==4) break;\r\n            uint256 pair = uint256(bytes2(random)) % 99;\r\n            if(pair == 0) pair = 99;\r\n            if(_number4.isNotRepeated(bytes1(pair)) && pair != 0){\r\n                _number4[size] = bytes1(pair);\r\n                size++;\r\n            } \r\n            random = random << 16;\r\n        }\r\n        _number4 = _number4.sortArray();\r\n        winningNumbers.winningNumber = _number4.convertBytesToBytes4();\r\n        winningNumbers.winningNumbers3 = _number4.setCombinations3();\r\n        _setWinners();\r\n    }\r\n\r\n    function _setWinners() private {\r\n        uint256 allocation = jackPot.div(2);\r\n        address[] memory number4Winners = numbers4[winningNumbers.winningNumber];\r\n        if(number4Winners.length > 0){\r\n            prize = prize.add(allocation);\r\n            jackPot = jackPot.sub(allocation);\r\n            uint256 allocationPerPlayer = allocation.div(number4Winners.length);\r\n            for(uint256 j = 0; j < number4Winners.length; j++) {\r\n                allocateEth(number4Winners[j], allocationPerPlayer);\r\n            }\r\n        }\r\n\r\n        uint256 numberOfWinners;\r\n        for(uint256 i = 0; i < 4; i++) {\r\n            numberOfWinners = numberOfWinners.add(_getWinners3(i).length);\r\n        }\r\n        if(numberOfWinners > 0) {\r\n            prize = prize.add(allocation);\r\n            jackPot = jackPot.sub(allocation);\r\n            allocationPerPlayer = allocation.div(numberOfWinners);\r\n            for(uint256 k = 0; k < 4; k++) {\r\n                address[] memory winners3 = _getWinners3(k); \r\n                if(winners3.length > 0) {\r\n                    for(uint256 h = 0; h < winners3.length; h++) {\r\n                        \r\n                        winners3Length = winners3Length.add(winners3.length);\r\n                        //allocateEth(winners3[j], allocationPerPlayer);\r\n                    }\r\n                }\r\n                \r\n            } \r\n        }\r\n        finalJackPot = jackPot;\r\n        emit LotteryHasPlayed(winners.length, prize, winningNumbers.winningNumber, finalJackPot);    \r\n    }\r\n\r\n    function allocateEth(address _winner, uint256 _allocation) private {\r\n        if(winnersAllocation[_winner] == 0) winners.push(_winner);\r\n        winnersAllocation[_winner] = winnersAllocation[_winner].add(_allocation);\r\n    }\r\n\r\n    function payWinners() external onlyOwner {\r\n        require(lotteryHasPlayed);\r\n        require(address(this).balance > 0);\r\n        require(jackPot >= address(this).balance);\r\n        require(winners.length > 0);\r\n        for(uint256 j = 0; j < winners.length; j++) {\r\n            address winner = winners[j];\r\n            uint256 amount = winnersAllocation[winner];\r\n            if(amount > 0) {\r\n                winnersAllocation[winner] = 0;\r\n                winner.transfer(amount);\r\n            }\r\n            \r\n        }\r\n    }\r\n\r\n    function _getWinners3(uint256 _index) private view returns(address[]) {\r\n        bytes3 thisNumber = winningNumbers.winningNumbers3[_index];\r\n        address[] memory theseWinners = numbers3[thisNumber];\r\n        return theseWinners;\r\n    }\r\n\r\n     /** \r\n    * @notice Transfer the jackpot after picking all winners\r\n    */\r\n    function transferJackPot(address _newLottery) external onlyFactory {\r\n        require(jackPot > 0, \"Jackpot sohuld be more than 0\");\r\n        require(lotteryHasPlayed, \"lottery has played\");\r\n        require(_newLottery != address(0), \"new lottery address should not be 0\");\r\n        uint256 _jackPot = jackPot;\r\n        jackPot = 0;\r\n        Lottery lottery = Lottery(_newLottery);\r\n        lottery.addJackPot.value(_jackPot)();  \r\n    } \r\n\r\n    //@dev Getters\r\n    \r\n    function getPlayers() external view returns(address[]){\r\n        return players;\r\n    }\r\n\r\n    function getSummary() external view returns (\r\n        uint256, uint256, uint256, uint256, uint256, uint256, \r\n        uint256, bool, address, address, address, bytes4\r\n    ) {\r\n        return (\r\n            lotteryValue,\r\n            deadline,\r\n            jackPot,\r\n            players.length,\r\n            prize,\r\n            winners.length,\r\n            finalJackPot,\r\n            lotteryHasPlayed,\r\n            lastLottery,\r\n            factoryAddress, \r\n            owner, \r\n            winningNumbers.winningNumber\r\n        );\r\n    }\r\n\r\n    function getWinningNumbers() external view returns(bytes4, bytes3, bytes3, bytes3, bytes3) {\r\n        return  (\r\n            winningNumbers.winningNumber,\r\n            winningNumbers.winningNumbers3[0],\r\n            winningNumbers.winningNumbers3[1],\r\n            winningNumbers.winningNumbers3[2],\r\n            winningNumbers.winningNumbers3[3]);\r\n    }\r\n\r\n    function getNumbers4ByPlayer() external view returns(bytes4[]) {\r\n        return playerNumbers4[msg.sender];\r\n    }\r\n\r\n    function getNumbers3ByPlayer() external view returns(bytes3[]) {\r\n        return playerNumbers3[msg.sender];\r\n    }\r\n\r\n    function getPlayersByNumber4(bytes4 _number) external view returns(address[]){\r\n        return numbers4[_number];\r\n    }\r\n\r\n    function getPlayersByNumber3(bytes3 _number3) external view returns(address[]){\r\n        return numbers3[_number3];\r\n    }\r\n}\r\n\r\n\r\n\r\n",
  "sourcePath": "E:\\Ethereum\\Worldpay\\lottery-contract\\ethereum\\contracts\\Lottery.sol",
  "compiler": {
    "name": "solc",
    "version": "0.4.23+commit.124ca40d.Emscripten.clang"
  },
  "schemaVersion": "2.0.0",
  "updatedAt": "2018-07-08T14:18:23.002Z"
}