{
  "contractName": "Lottery",
  "abi": [
    {
      "constant": true,
      "inputs": [],
      "name": "deadline",
      "outputs": [
        {
          "name": "",
          "type": "uint256"
        }
      ],
      "payable": false,
      "stateMutability": "view",
      "type": "function"
    },
    {
      "constant": true,
      "inputs": [],
      "name": "winningNumber",
      "outputs": [
        {
          "name": "",
          "type": "uint256"
        }
      ],
      "payable": false,
      "stateMutability": "view",
      "type": "function"
    },
    {
      "constant": true,
      "inputs": [],
      "name": "jackPot",
      "outputs": [
        {
          "name": "",
          "type": "uint256"
        }
      ],
      "payable": false,
      "stateMutability": "view",
      "type": "function"
    },
    {
      "constant": true,
      "inputs": [
        {
          "name": "",
          "type": "uint256"
        },
        {
          "name": "",
          "type": "uint256"
        }
      ],
      "name": "contest",
      "outputs": [
        {
          "name": "",
          "type": "address"
        }
      ],
      "payable": false,
      "stateMutability": "view",
      "type": "function"
    },
    {
      "constant": true,
      "inputs": [],
      "name": "owner",
      "outputs": [
        {
          "name": "",
          "type": "address"
        }
      ],
      "payable": false,
      "stateMutability": "view",
      "type": "function"
    },
    {
      "constant": true,
      "inputs": [],
      "name": "lotteryValue",
      "outputs": [
        {
          "name": "",
          "type": "uint256"
        }
      ],
      "payable": false,
      "stateMutability": "view",
      "type": "function"
    },
    {
      "constant": true,
      "inputs": [
        {
          "name": "",
          "type": "uint256"
        }
      ],
      "name": "winners",
      "outputs": [
        {
          "name": "",
          "type": "address"
        }
      ],
      "payable": false,
      "stateMutability": "view",
      "type": "function"
    },
    {
      "constant": true,
      "inputs": [],
      "name": "lotteryHasPlayed",
      "outputs": [
        {
          "name": "",
          "type": "bool"
        }
      ],
      "payable": false,
      "stateMutability": "view",
      "type": "function"
    },
    {
      "constant": true,
      "inputs": [
        {
          "name": "",
          "type": "address"
        }
      ],
      "name": "refunds",
      "outputs": [
        {
          "name": "",
          "type": "uint256"
        }
      ],
      "payable": false,
      "stateMutability": "view",
      "type": "function"
    },
    {
      "constant": false,
      "inputs": [
        {
          "name": "newOwner",
          "type": "address"
        }
      ],
      "name": "transferOwnership",
      "outputs": [],
      "payable": false,
      "stateMutability": "nonpayable",
      "type": "function"
    },
    {
      "constant": true,
      "inputs": [
        {
          "name": "",
          "type": "uint256"
        }
      ],
      "name": "players",
      "outputs": [
        {
          "name": "",
          "type": "address"
        }
      ],
      "payable": false,
      "stateMutability": "view",
      "type": "function"
    },
    {
      "inputs": [
        {
          "name": "_duration",
          "type": "uint256"
        },
        {
          "name": "_lotteryValue",
          "type": "uint256"
        }
      ],
      "payable": false,
      "stateMutability": "nonpayable",
      "type": "constructor"
    },
    {
      "anonymous": false,
      "inputs": [
        {
          "indexed": false,
          "name": "player",
          "type": "address"
        },
        {
          "indexed": false,
          "name": "amount",
          "type": "uint256"
        }
      ],
      "name": "RefundAdded",
      "type": "event"
    },
    {
      "anonymous": false,
      "inputs": [
        {
          "indexed": false,
          "name": "winners",
          "type": "address[]"
        },
        {
          "indexed": false,
          "name": "jackPot",
          "type": "uint256"
        }
      ],
      "name": "Winners",
      "type": "event"
    },
    {
      "anonymous": false,
      "inputs": [
        {
          "indexed": true,
          "name": "previousOwner",
          "type": "address"
        },
        {
          "indexed": true,
          "name": "newOwner",
          "type": "address"
        }
      ],
      "name": "OwnershipTransferred",
      "type": "event"
    },
    {
      "constant": false,
      "inputs": [
        {
          "name": "_number",
          "type": "uint256"
        }
      ],
      "name": "enter",
      "outputs": [],
      "payable": true,
      "stateMutability": "payable",
      "type": "function"
    },
    {
      "constant": false,
      "inputs": [],
      "name": "pickWinner",
      "outputs": [],
      "payable": false,
      "stateMutability": "nonpayable",
      "type": "function"
    },
    {
      "constant": false,
      "inputs": [
        {
          "name": "contractAddress",
          "type": "address"
        }
      ],
      "name": "transferJackPot",
      "outputs": [],
      "payable": false,
      "stateMutability": "nonpayable",
      "type": "function"
    },
    {
      "constant": false,
      "inputs": [],
      "name": "withdraw",
      "outputs": [],
      "payable": false,
      "stateMutability": "nonpayable",
      "type": "function"
    }
  ],
  "bytecode": "0x60806040526342c9eb686005556000600a60006101000a81548160ff02191690831515021790555034801561003357600080fd5b5060405160408061125e8339810180604052810190808051906020019092919080519060200190929190505050336000806101000a81548173ffffffffffffffffffffffffffffffffffffffff021916908373ffffffffffffffffffffffffffffffffffffffff16021790555081420160018190555080600281905550505061119d806100c16000396000f3006080604052600436106100db576000357c0100000000000000000000000000000000000000000000000000000000900463ffffffff16806329dcb0cf146100e05780633ccfd60b1461010b5780634664611e146101225780634a78cdba1461014d5780635d495aea146101785780636a8f56781461018f5780638da5cb5b146102065780639113a7b51461025d578063a2fb117514610288578063a59f3e0c146102f5578063a947d05014610315578063bc3da53514610344578063c64facb51461039b578063f2fde38b146103de578063f71d96cb14610421575b600080fd5b3480156100ec57600080fd5b506100f561048e565b6040518082815260200191505060405180910390f35b34801561011757600080fd5b50610120610494565b005b34801561012e57600080fd5b50610137610567565b6040518082815260200191505060405180910390f35b34801561015957600080fd5b5061016261056d565b6040518082815260200191505060405180910390f35b34801561018457600080fd5b5061018d610573565b005b34801561019b57600080fd5b506101c46004803603810190808035906020019092919080359060200190929190505050610877565b604051808273ffffffffffffffffffffffffffffffffffffffff1673ffffffffffffffffffffffffffffffffffffffff16815260200191505060405180910390f35b34801561021257600080fd5b5061021b6108c4565b604051808273ffffffffffffffffffffffffffffffffffffffff1673ffffffffffffffffffffffffffffffffffffffff16815260200191505060405180910390f35b34801561026957600080fd5b506102726108e9565b6040518082815260200191505060405180910390f35b34801561029457600080fd5b506102b3600480360381019080803590602001909291905050506108ef565b604051808273ffffffffffffffffffffffffffffffffffffffff1673ffffffffffffffffffffffffffffffffffffffff16815260200191505060405180910390f35b6103136004803603810190808035906020019092919050505061092d565b005b34801561032157600080fd5b5061032a610bc5565b604051808215151515815260200191505060405180910390f35b34801561035057600080fd5b50610385600480360381019080803573ffffffffffffffffffffffffffffffffffffffff169060200190929190505050610bd8565b6040518082815260200191505060405180910390f35b3480156103a757600080fd5b506103dc600480360381019080803573ffffffffffffffffffffffffffffffffffffffff169060200190929190505050610bf0565b005b3480156103ea57600080fd5b5061041f600480360381019080803573ffffffffffffffffffffffffffffffffffffffff169060200190929190505050610cd5565b005b34801561042d57600080fd5b5061044c60048036038101908080359060200190929190505050610e2a565b604051808273ffffffffffffffffffffffffffffffffffffffff1673ffffffffffffffffffffffffffffffffffffffff16815260200191505060405180910390f35b60015481565b6000600760003373ffffffffffffffffffffffffffffffffffffffff1673ffffffffffffffffffffffffffffffffffffffff1681526020019081526020016000205490506000600760003373ffffffffffffffffffffffffffffffffffffffff1673ffffffffffffffffffffffffffffffffffffffff168152602001908152602001600020819055503373ffffffffffffffffffffffffffffffffffffffff166108fc829081150290604051600060405180830381858888f19350505050158015610563573d6000803e3d6000fd5b5050565b60045481565b60035481565b6000806000809054906101000a900473ffffffffffffffffffffffffffffffffffffffff1673ffffffffffffffffffffffffffffffffffffffff163373ffffffffffffffffffffffffffffffffffffffff161415156105d157600080fd5b6001544211151561064a576040517f08c379a00000000000000000000000000000000000000000000000000000000081526004018080602001828103825260198152602001807f546865206c6f7474657279206973207374696c6c206f70656e0000000000000081525060200191505060405180910390fd5b60001515600a60009054906101000a900460ff1615151415156106d5576040517f08c379a000000000000000000000000000000000000000000000000000000000815260040180806020018281038252601e8152602001807f546865206c6f74746572792068617320616c726561647920706c61796564000081525060200191505060405180910390fd5b6001600a60006101000a81548160ff0219169083151502179055506106f8610e68565b60048190555060066000600454815260200190815260200160002060099080546107239291906110dc565b50600060098054905011156108735761074c600980549050600354610e9890919063ffffffff16565b91506000600381905550600090505b6009805490508160ff1610156107be576107b160098260ff1681548110151561078057fe5b9060005260206000200160009054906101000a900473ffffffffffffffffffffffffffffffffffffffff1683610eae565b808060010191505061075b565b7f413cf1e17d70833c017de9b3c64d0104e3e37a7191d95b3d0d6276de992a0b4d6009836040518080602001838152602001828103825284818154815260200191508054801561086357602002820191906000526020600020905b8160009054906101000a900473ffffffffffffffffffffffffffffffffffffffff1673ffffffffffffffffffffffffffffffffffffffff1681526020019060010190808311610819575b5050935050505060405180910390a15b5050565b60066020528160005260406000208181548110151561089257fe5b906000526020600020016000915091509054906101000a900473ffffffffffffffffffffffffffffffffffffffff1681565b6000809054906101000a900473ffffffffffffffffffffffffffffffffffffffff1681565b60025481565b6009818154811015156108fe57fe5b906000526020600020016000915054906101000a900473ffffffffffffffffffffffffffffffffffffffff1681565b60025434101515156109cd576040517f08c379a000000000000000000000000000000000000000000000000000000000815260040180806020018281038252602c8152602001807f76616c7565207265636569766564206973206c657373207468616e207468652081526020017f6c6f747465727956616c7565000000000000000000000000000000000000000081525060400191505060405180910390fd5b60015442101515610a46576040517f08c379a00000000000000000000000000000000000000000000000000000000081526004018080602001828103825260158152602001807f4c6f7474657279206861732066696e616c697a6564000000000000000000000081525060200191505060405180910390fd5b6005548111151515610ac0576040517f08c379a000000000000000000000000000000000000000000000000000000000815260040180806020018281038252601f8152602001807f6e756d626572206973206c657373207468616e2070726f626162696c6974790081525060200191505060405180910390fd5b610ad7600254600354610f4790919063ffffffff16565b60038190555060083390806001815401808255809150509060018203906000526020600020016000909192909190916101000a81548173ffffffffffffffffffffffffffffffffffffffff021916908373ffffffffffffffffffffffffffffffffffffffff16021790555050600660008281526020019081526020016000203390806001815401808255809150509060018203906000526020600020016000909192909190916101000a81548173ffffffffffffffffffffffffffffffffffffffff021916908373ffffffffffffffffffffffffffffffffffffffff16021790555050610bc2610f63565b50565b600a60009054906101000a900460ff1681565b60076020528060005260406000206000915090505481565b6000809054906101000a900473ffffffffffffffffffffffffffffffffffffffff1673ffffffffffffffffffffffffffffffffffffffff163373ffffffffffffffffffffffffffffffffffffffff16141515610c4b57600080fd5b60011515600a60009054906101000a900460ff161515141515610c6d57600080fd5b6000600980549050141515610c8157600080fd5b8073ffffffffffffffffffffffffffffffffffffffff166108fc6003549081150290604051600060405180830381858888f19350505050158015610cc9573d6000803e3d6000fd5b50600060038190555050565b6000809054906101000a900473ffffffffffffffffffffffffffffffffffffffff1673ffffffffffffffffffffffffffffffffffffffff163373ffffffffffffffffffffffffffffffffffffffff16141515610d3057600080fd5b600073ffffffffffffffffffffffffffffffffffffffff168173ffffffffffffffffffffffffffffffffffffffff1614151515610d6c57600080fd5b8073ffffffffffffffffffffffffffffffffffffffff166000809054906101000a900473ffffffffffffffffffffffffffffffffffffffff1673ffffffffffffffffffffffffffffffffffffffff167f8be0079c531659141344cd1fd0a4f28419497f9722a3daafe3b4186f6b6457e060405160405180910390a3806000806101000a81548173ffffffffffffffffffffffffffffffffffffffff021916908373ffffffffffffffffffffffffffffffffffffffff16021790555050565b600881815481101515610e3957fe5b906000526020600020016000915054906101000a900473ffffffffffffffffffffffffffffffffffffffff1681565b6000804340600190049050600554811015610e835780610e92565b60055481811515610e9057fe5b065b91505090565b60008183811515610ea557fe5b04905092915050565b610f0081600760008573ffffffffffffffffffffffffffffffffffffffff1673ffffffffffffffffffffffffffffffffffffffff16815260200190815260200160002054610f4790919063ffffffff16565b600760008473ffffffffffffffffffffffffffffffffffffffff1673ffffffffffffffffffffffffffffffffffffffff168152602001908152602001600020819055505050565b60008183019050828110151515610f5a57fe5b80905092915050565b6002543411156110c157610fd3610f85600254346110c390919063ffffffff16565b600760003373ffffffffffffffffffffffffffffffffffffffff1673ffffffffffffffffffffffffffffffffffffffff16815260200190815260200160002054610f4790919063ffffffff16565b600760003373ffffffffffffffffffffffffffffffffffffffff1673ffffffffffffffffffffffffffffffffffffffff168152602001908152602001600020819055507f38dec0fa11e2eca35d2f1ae0dc1933f1c4de2a271f3ab480f29de14010fe9f8933600760003373ffffffffffffffffffffffffffffffffffffffff1673ffffffffffffffffffffffffffffffffffffffff16815260200190815260200160002054604051808373ffffffffffffffffffffffffffffffffffffffff1673ffffffffffffffffffffffffffffffffffffffff1681526020018281526020019250505060405180910390a15b565b60008282111515156110d157fe5b818303905092915050565b82805482825590600052602060002090810192821561111d5760005260206000209182015b8281111561111c578254825591600101919060010190611101565b5b50905061112a919061112e565b5090565b61116e91905b8082111561116a57600081816101000a81549073ffffffffffffffffffffffffffffffffffffffff021916905550600101611134565b5090565b905600a165627a7a723058204987a32b4b619c759601abc65966fb441d091a0386cb4051be279651dbd674d00029",
  "source": "pragma solidity ^0.4.23;\r\n\r\nimport \"./ownership/Ownable.sol\";\r\nimport \"./math/safeMath.sol\";\r\n\r\n/**\r\n * @title Lottery\r\n * @dev Lottery with 6 numbers between 01-99.\r\n */\r\ncontract Lottery is Ownable {\r\n    using SafeMath for uint256;\r\n\r\n    event RefundAdded(address player, uint256 amount);\r\n    event Winners(address[] winners, uint256 jackPot);\r\n\r\n    uint256 public deadline;\r\n    uint256 public lotteryValue;\r\n    uint256 public jackPot;\r\n    uint256 public winningNumber;\r\n    // @dev probability is (99*98*97*96*95*94)/6! = 1120529256\r\n    uint256 probability = 1120529256; //\r\n    \r\n    // @dev mapping of the LotteryNumber => users who chose that number\r\n    mapping(uint256 => address[]) public contest;\r\n\r\n    // @dev mapping of the sender => amount, if user sends more than the value of the lottery\r\n    mapping(address => uint256) public refunds;\r\n    address[] public players;\r\n    address[] public winners;\r\n\r\n    bool public lotteryHasPlayed = false;\r\n\r\n    /**\r\n    * @dev constructor\r\n    * @param _duration how long will the lottery be open to enter\r\n    * @param _lotteryValue sets the value of the lottery\r\n    */\r\n    constructor(uint256 _duration, uint256 _lotteryValue) public {\r\n        deadline = now + _duration;\r\n        lotteryValue = _lotteryValue;\r\n    }\r\n\r\n    /** \r\n    * @notice allows the player to enter, chacking amount and deadline and refund \r\n    * if the value sent is more than the lotteryValue\r\n    * @param _number inside the probability \r\n    */\r\n    function enter(uint256 _number) external payable {\r\n        require(msg.value >= lotteryValue, \"value received is less than the lotteryValue\");\r\n        require(now < deadline, \"Lottery has finalized\");\r\n        require(_number <= probability, \"number is less than probability\");\r\n        jackPot = jackPot.add(lotteryValue);\r\n        players.push(msg.sender);\r\n        contest[_number].push(msg.sender);    \r\n        _refundIfValueExceedsPrice();\r\n    }\r\n\r\n    /** \r\n    * @notice add the refunded value to the sender\r\n    */\r\n    function _refundIfValueExceedsPrice() private {\r\n        if (msg.value > lotteryValue) {\r\n            refunds[msg.sender] = refunds[msg.sender].add(msg.value.sub(lotteryValue));\r\n            emit RefundAdded(msg.sender, refunds[msg.sender]);\r\n        } \r\n    }\r\n\r\n    /** \r\n    * @notice pickWinner can only be called by the owner and requires\r\n    * the lottery to be closed, still waiting for a good source \r\n    * of random generator, we will use the blockhash for the moment\r\n    * check if there are winners, if yes, divide the jackpot between\r\n    * winners and add it to the refund mapping\r\n    */\r\n    function pickWinner() external onlyOwner {\r\n        require(now > deadline, \"The lottery is still open\");\r\n        require(lotteryHasPlayed == false, \"The lottery has already played\");\r\n        lotteryHasPlayed = true;\r\n        winningNumber = _setResult();\r\n        winners = contest[winningNumber];\r\n        if (winners.length > 0) {\r\n            uint256 prizePerPlayer = jackPot.div(winners.length);\r\n            jackPot = 0;\r\n            for (uint8 i = 0; i < winners.length; i++) {\r\n                _refund(winners[i], prizePerPlayer);\r\n            }\r\n            emit Winners(winners, prizePerPlayer);\r\n        }         \r\n    }\r\n\r\n    /** \r\n    * @notice we just using blockhash fro the moment to set the lottery result\r\n    */\r\n    function _setResult() private view returns(uint256) {\r\n        uint256 result = uint256(blockhash(block.number));\r\n        return result >= probability ? result % probability : result;\r\n    }\r\n\r\n    /** \r\n    * @notice add  amount won to the @param winner into the refund mapping\r\n    * @param winner the winner of the lottery\r\n    * @param amount to be refunded\r\n    */\r\n    function _refund(address winner, uint256 amount) private {\r\n        refunds[winner] = refunds[winner].add(amount);\r\n    }\r\n\r\n    /** \r\n    * @notice Transfer the jackpot nobody won the lottery to a new deployed lottery\r\n    * @param contractAddress \r\n    */\r\n    function transferJackPot(address contractAddress) external onlyOwner {\r\n        require(lotteryHasPlayed == true);\r\n        require(winners.length == 0);\r\n        contractAddress.transfer(jackPot);\r\n        jackPot = 0;\r\n    }\r\n\r\n    /** \r\n    * @notice withdraw the whole amount stored in the refunds mapping\r\n    */\r\n    function withdraw() external {\r\n        uint256 amount = refunds[msg.sender];\r\n        refunds[msg.sender] = 0;\r\n        msg.sender.transfer(amount);\r\n    }\r\n}",
  "sourcePath": "E:\\Ethereum\\Worldpay\\contracts\\Lottery.sol",
  "compiler": {
    "name": "solc",
    "version": "0.4.23+commit.124ca40d.Emscripten.clang"
  },
  "schemaVersion": "2.0.0",
  "updatedAt": "2018-05-04T06:48:23.176Z"
}