{
  "contractName": "LotteryFactory",
  "abi": [
    {
      "constant": true,
      "inputs": [],
      "name": "deployedLottery",
      "outputs": [
        {
          "name": "",
          "type": "address"
        }
      ],
      "payable": false,
      "stateMutability": "view",
      "type": "function"
    },
    {
      "constant": true,
      "inputs": [],
      "name": "owner",
      "outputs": [
        {
          "name": "",
          "type": "address"
        }
      ],
      "payable": false,
      "stateMutability": "view",
      "type": "function"
    },
    {
      "constant": false,
      "inputs": [
        {
          "name": "newOwner",
          "type": "address"
        }
      ],
      "name": "transferOwnership",
      "outputs": [],
      "payable": false,
      "stateMutability": "nonpayable",
      "type": "function"
    },
    {
      "anonymous": false,
      "inputs": [
        {
          "indexed": false,
          "name": "deployedLottery",
          "type": "address"
        }
      ],
      "name": "LotteryDeployed",
      "type": "event"
    },
    {
      "anonymous": false,
      "inputs": [
        {
          "indexed": false,
          "name": "owner",
          "type": "address"
        }
      ],
      "name": "Owner",
      "type": "event"
    },
    {
      "anonymous": false,
      "inputs": [
        {
          "indexed": false,
          "name": "lotteryOwner",
          "type": "address"
        }
      ],
      "name": "LotteryOwner",
      "type": "event"
    },
    {
      "anonymous": false,
      "inputs": [
        {
          "indexed": true,
          "name": "previousOwner",
          "type": "address"
        },
        {
          "indexed": true,
          "name": "newOwner",
          "type": "address"
        }
      ],
      "name": "OwnershipTransferred",
      "type": "event"
    },
    {
      "constant": false,
      "inputs": [
        {
          "name": "_duration",
          "type": "uint256"
        },
        {
          "name": "_lotteryValue",
          "type": "uint256"
        },
        {
          "name": "_reference",
          "type": "address"
        }
      ],
      "name": "createNewLottery",
      "outputs": [
        {
          "name": "",
          "type": "address"
        }
      ],
      "payable": false,
      "stateMutability": "nonpayable",
      "type": "function"
    }
  ],
  "bytecode": "0x6080604052336000806101000a81548173ffffffffffffffffffffffffffffffffffffffff021916908373ffffffffffffffffffffffffffffffffffffffff1602179055506122dc806100536000396000f300608060405260043610610062576000357c0100000000000000000000000000000000000000000000000000000000900463ffffffff168063111bb1681461006757806371df7387146100fe5780638da5cb5b14610155578063f2fde38b146101ac575b600080fd5b34801561007357600080fd5b506100bc6004803603810190808035906020019092919080359060200190929190803573ffffffffffffffffffffffffffffffffffffffff1690602001909291905050506101ef565b604051808273ffffffffffffffffffffffffffffffffffffffff1673ffffffffffffffffffffffffffffffffffffffff16815260200191505060405180910390f35b34801561010a57600080fd5b506101136104ff565b604051808273ffffffffffffffffffffffffffffffffffffffff1673ffffffffffffffffffffffffffffffffffffffff16815260200191505060405180910390f35b34801561016157600080fd5b5061016a610525565b604051808273ffffffffffffffffffffffffffffffffffffffff1673ffffffffffffffffffffffffffffffffffffffff16815260200191505060405180910390f35b3480156101b857600080fd5b506101ed600480360381019080803573ffffffffffffffffffffffffffffffffffffffff16906020019092919050505061054a565b005b6000807fa5e220c2c27d986cc8efeafa8f34ba6ea6bf96a34e146b29b6bdd8587771b1306000809054906101000a900473ffffffffffffffffffffffffffffffffffffffff16604051808273ffffffffffffffffffffffffffffffffffffffff1673ffffffffffffffffffffffffffffffffffffffff16815260200191505060405180910390a17fb947fc8245330d3a0e08ff2f6063c8aa8321598b911dccaf4f8279eff66d4fa233604051808273ffffffffffffffffffffffffffffffffffffffff1673ffffffffffffffffffffffffffffffffffffffff16815260200191505060405180910390a1848430856102e561069f565b808581526020018481526020018373ffffffffffffffffffffffffffffffffffffffff1673ffffffffffffffffffffffffffffffffffffffff1681526020018273ffffffffffffffffffffffffffffffffffffffff1673ffffffffffffffffffffffffffffffffffffffff168152602001945050505050604051809103906000f080158015610378573d6000803e3d6000fd5b5090508073ffffffffffffffffffffffffffffffffffffffff1663f2fde38b336040518263ffffffff167c0100000000000000000000000000000000000000000000000000000000028152600401808273ffffffffffffffffffffffffffffffffffffffff1673ffffffffffffffffffffffffffffffffffffffff168152602001915050600060405180830381600087803b15801561041657600080fd5b505af115801561042a573d6000803e3d6000fd5b5050505080600160006101000a81548173ffffffffffffffffffffffffffffffffffffffff021916908373ffffffffffffffffffffffffffffffffffffffff1602179055507f06445d049f06d8e336db6cb614dc874b6e09880c1ee7418f27a58fddc1ed9be3600160009054906101000a900473ffffffffffffffffffffffffffffffffffffffff16604051808273ffffffffffffffffffffffffffffffffffffffff1673ffffffffffffffffffffffffffffffffffffffff16815260200191505060405180910390a1809150509392505050565b600160009054906101000a900473ffffffffffffffffffffffffffffffffffffffff1681565b6000809054906101000a900473ffffffffffffffffffffffffffffffffffffffff1681565b6000809054906101000a900473ffffffffffffffffffffffffffffffffffffffff1673ffffffffffffffffffffffffffffffffffffffff163373ffffffffffffffffffffffffffffffffffffffff161415156105a557600080fd5b600073ffffffffffffffffffffffffffffffffffffffff168173ffffffffffffffffffffffffffffffffffffffff16141515156105e157600080fd5b8073ffffffffffffffffffffffffffffffffffffffff166000809054906101000a900473ffffffffffffffffffffffffffffffffffffffff1673ffffffffffffffffffffffffffffffffffffffff167f8be0079c531659141344cd1fd0a4f28419497f9722a3daafe3b4186f6b6457e060405160405180910390a3806000806101000a81548173ffffffffffffffffffffffffffffffffffffffff021916908373ffffffffffffffffffffffffffffffffffffffff16021790555050565b604051611c01806106b083390190560060806040526342c9eb686005556000600a60006101000a81548160ff02191690831515021790555034801561003357600080fd5b50604051608080611c0183398101806040528101908080519060200190929190805190602001909291908051906020019092919080519060200190929190505050336000806101000a81548173ffffffffffffffffffffffffffffffffffffffff021916908373ffffffffffffffffffffffffffffffffffffffff1602179055508342016001819055508260028190555081600c60006101000a81548173ffffffffffffffffffffffffffffffffffffffff021916908373ffffffffffffffffffffffffffffffffffffffff16021790555080600b60006101000a81548173ffffffffffffffffffffffffffffffffffffffff021916908373ffffffffffffffffffffffffffffffffffffffff16021790555050505050611aa8806101596000396000f30060806040526004361061013e576000357c0100000000000000000000000000000000000000000000000000000000900463ffffffff16806313cf05f91461014357806329dcb0cf1461017a5780633ccfd60b146101a55780634664611e146101bc578063481456f9146101e75780634a78cdba146102125780635d495aea1461023d578063642e8fef146102545780636a8f56781461025e5780638b5b9ccc146102d55780638da5cb5b146103415780639113a7b5146103985780639c8ccc78146103c3578063a2fb117514610445578063a3e3d2e4146104b2578063a59f3e0c146104df578063a947d050146104ff578063af0b4b271461052e578063b1e2cb0314610585578063bc3da535146105dc578063d2c42de114610633578063df15c37e14610660578063f2fde38b146106cc578063f71d96cb1461070f575b600080fd5b34801561014f57600080fd5b50610178600480360381019080803590602001909291908035906020019092919050505061077c565b005b34801561018657600080fd5b5061018f610aaa565b6040518082815260200191505060405180910390f35b3480156101b157600080fd5b506101ba610ab0565b005b3480156101c857600080fd5b506101d1610b83565b6040518082815260200191505060405180910390f35b3480156101f357600080fd5b506101fc610b89565b6040518082815260200191505060405180910390f35b34801561021e57600080fd5b50610227610b8f565b6040518082815260200191505060405180910390f35b34801561024957600080fd5b50610252610b95565b005b61025c610ea5565b005b34801561026a57600080fd5b506102936004803603810190808035906020019092919080359060200190929190505050610f0a565b604051808273ffffffffffffffffffffffffffffffffffffffff1673ffffffffffffffffffffffffffffffffffffffff16815260200191505060405180910390f35b3480156102e157600080fd5b506102ea610f57565b6040518080602001828103825283818151815260200191508051906020019060200280838360005b8381101561032d578082015181840152602081019050610312565b505050509050019250505060405180910390f35b34801561034d57600080fd5b50610356610fe5565b604051808273ffffffffffffffffffffffffffffffffffffffff1673ffffffffffffffffffffffffffffffffffffffff16815260200191505060405180910390f35b3480156103a457600080fd5b506103ad61100a565b6040518082815260200191505060405180910390f35b3480156103cf57600080fd5b506103ee60048036038101908080359060200190929190505050611010565b6040518080602001828103825283818151815260200191508051906020019060200280838360005b83811015610431578082015181840152602081019050610416565b505050509050019250505060405180910390f35b34801561045157600080fd5b50610470600480360381019080803590602001909291905050506110b1565b604051808273ffffffffffffffffffffffffffffffffffffffff1673ffffffffffffffffffffffffffffffffffffffff16815260200191505060405180910390f35b3480156104be57600080fd5b506104dd600480360381019080803590602001909291905050506110ef565b005b6104fd60048036038101908080359060200190929190505050611186565b005b34801561050b57600080fd5b50610514611440565b604051808215151515815260200191505060405180910390f35b34801561053a57600080fd5b50610543611453565b604051808273ffffffffffffffffffffffffffffffffffffffff1673ffffffffffffffffffffffffffffffffffffffff16815260200191505060405180910390f35b34801561059157600080fd5b5061059a611479565b604051808273ffffffffffffffffffffffffffffffffffffffff1673ffffffffffffffffffffffffffffffffffffffff16815260200191505060405180910390f35b3480156105e857600080fd5b5061061d600480360381019080803573ffffffffffffffffffffffffffffffffffffffff16906020019092919050505061149f565b6040518082815260200191505060405180910390f35b34801561063f57600080fd5b5061065e600480360381019080803590602001909291905050506114b7565b005b34801561066c57600080fd5b50610675611552565b6040518080602001828103825283818151815260200191508051906020019060200280838360005b838110156106b857808201518184015260208101905061069d565b505050509050019250505060405180910390f35b3480156106d857600080fd5b5061070d600480360381019080803573ffffffffffffffffffffffffffffffffffffffff1690602001909291905050506115e0565b005b34801561071b57600080fd5b5061073a60048036038101908080359060200190929190505050611735565b604051808273ffffffffffffffffffffffffffffffffffffffff1673ffffffffffffffffffffffffffffffffffffffff16815260200191505060405180910390f35b6000809054906101000a900473ffffffffffffffffffffffffffffffffffffffff1673ffffffffffffffffffffffffffffffffffffffff163373ffffffffffffffffffffffffffffffffffffffff161415156107d757600080fd5b60011515600a60009054906101000a900460ff1615151415156107f957600080fd5b600073ffffffffffffffffffffffffffffffffffffffff16600a60019054906101000a900473ffffffffffffffffffffffffffffffffffffffff1673ffffffffffffffffffffffffffffffffffffffff1614151561085657600080fd5b60008211151561086557600080fd5b60008111151561087457600080fd5b600c60009054906101000a900473ffffffffffffffffffffffffffffffffffffffff1673ffffffffffffffffffffffffffffffffffffffff1663111bb1688383306040518463ffffffff167c0100000000000000000000000000000000000000000000000000000000028152600401808481526020018381526020018273ffffffffffffffffffffffffffffffffffffffff1673ffffffffffffffffffffffffffffffffffffffff1681526020019350505050602060405180830381600087803b15801561094157600080fd5b505af1158015610955573d6000803e3d6000fd5b505050506040513d602081101561096b57600080fd5b8101908080519060200190929190505050600a60016101000a81548173ffffffffffffffffffffffffffffffffffffffff021916908373ffffffffffffffffffffffffffffffffffffffff1602179055507fdbb18653dafc4962dc966dac250a14155f0c8a5040e55c5c59ed5f4acb69f5be600a60019054906101000a900473ffffffffffffffffffffffffffffffffffffffff16604051808273ffffffffffffffffffffffffffffffffffffffff1673ffffffffffffffffffffffffffffffffffffffff16815260200191505060405180910390a16000600980549050148015610aa55750600073ffffffffffffffffffffffffffffffffffffffff16600a60019054906101000a900473ffffffffffffffffffffffffffffffffffffffff1673ffffffffffffffffffffffffffffffffffffffff1614155b505050565b60015481565b6000600760003373ffffffffffffffffffffffffffffffffffffffff1673ffffffffffffffffffffffffffffffffffffffff1681526020019081526020016000205490506000600760003373ffffffffffffffffffffffffffffffffffffffff1673ffffffffffffffffffffffffffffffffffffffff168152602001908152602001600020819055503373ffffffffffffffffffffffffffffffffffffffff166108fc829081150290604051600060405180830381858888f19350505050158015610b7f573d6000803e3d6000fd5b5050565b60045481565b60055481565b60035481565b6000806000809054906101000a900473ffffffffffffffffffffffffffffffffffffffff1673ffffffffffffffffffffffffffffffffffffffff163373ffffffffffffffffffffffffffffffffffffffff16141515610bf357600080fd5b60015442111515610c6c576040517f08c379a00000000000000000000000000000000000000000000000000000000081526004018080602001828103825260198152602001807f546865206c6f7474657279206973207374696c6c206f70656e0000000000000081525060200191505060405180910390fd5b60001515600a60009054906101000a900460ff161515141515610cf7576040517f08c379a000000000000000000000000000000000000000000000000000000000815260040180806020018281038252601e8152602001807f546865206c6f74746572792068617320616c726561647920706c61796564000081525060200191505060405180910390fd5b6001600a60006101000a81548160ff02191690831515021790555060006004541415610d2c57610d25611773565b6004819055505b6006600060045481526020019081526020016000206009908054610d519291906119e7565b5060006009805490501115610ea157610d7a6009805490506003546117a390919063ffffffff16565b91506000600381905550600090505b6009805490508160ff161015610dec57610ddf60098260ff16815481101515610dae57fe5b9060005260206000200160009054906101000a900473ffffffffffffffffffffffffffffffffffffffff16836117b9565b8080600101915050610d89565b7f413cf1e17d70833c017de9b3c64d0104e3e37a7191d95b3d0d6276de992a0b4d60098360405180806020018381526020018281038252848181548152602001915080548015610e9157602002820191906000526020600020905b8160009054906101000a900473ffffffffffffffffffffffffffffffffffffffff1673ffffffffffffffffffffffffffffffffffffffff1681526020019060010190808311610e47575b5050935050505060405180910390a15b5050565b600034111515610eb457600080fd5b610ec93460035461185290919063ffffffff16565b6003819055507fc2c48fe60b23268064613cbca1898c1871bae36909b3f33467dd82c6fe2cb2e36003546040518082815260200191505060405180910390a1565b600660205281600052604060002081815481101515610f2557fe5b906000526020600020016000915091509054906101000a900473ffffffffffffffffffffffffffffffffffffffff1681565b60606008805480602002602001604051908101604052809291908181526020018280548015610fdb57602002820191906000526020600020905b8160009054906101000a900473ffffffffffffffffffffffffffffffffffffffff1673ffffffffffffffffffffffffffffffffffffffff1681526020019060010190808311610f91575b5050505050905090565b6000809054906101000a900473ffffffffffffffffffffffffffffffffffffffff1681565b60025481565b6060600660008381526020019081526020016000208054806020026020016040519081016040528092919081815260200182805480156110a557602002820191906000526020600020905b8160009054906101000a900473ffffffffffffffffffffffffffffffffffffffff1673ffffffffffffffffffffffffffffffffffffffff168152602001906001019080831161105b575b50505050509050919050565b6009818154811015156110c057fe5b906000526020600020016000915054906101000a900473ffffffffffffffffffffffffffffffffffffffff1681565b6000809054906101000a900473ffffffffffffffffffffffffffffffffffffffff1673ffffffffffffffffffffffffffffffffffffffff163373ffffffffffffffffffffffffffffffffffffffff1614151561114a57600080fd5b60001515600a60009054906101000a900460ff16151514151561116c57600080fd5b4260015410151561117c57600080fd5b8060048190555050565b6002543410151515611226576040517f08c379a000000000000000000000000000000000000000000000000000000000815260040180806020018281038252602c8152602001807f76616c7565207265636569766564206973206c657373207468616e207468652081526020017f6c6f747465727956616c7565000000000000000000000000000000000000000081525060400191505060405180910390fd5b6001544210151561129f576040517f08c379a00000000000000000000000000000000000000000000000000000000081526004018080602001828103825260158152602001807f4c6f7474657279206861732066696e616c697a6564000000000000000000000081525060200191505060405180910390fd5b6005548111151515611319576040517f08c379a000000000000000000000000000000000000000000000000000000000815260040180806020018281038252601f8152602001807f6e756d626572206973206c657373207468616e2070726f626162696c6974790081525060200191505060405180910390fd5b60001515600a60009054906101000a900460ff16151514151561133b57600080fd5b61135260025460035461185290919063ffffffff16565b60038190555060083390806001815401808255809150509060018203906000526020600020016000909192909190916101000a81548173ffffffffffffffffffffffffffffffffffffffff021916908373ffffffffffffffffffffffffffffffffffffffff16021790555050600660008281526020019081526020016000203390806001815401808255809150509060018203906000526020600020016000909192909190916101000a81548173ffffffffffffffffffffffffffffffffffffffff021916908373ffffffffffffffffffffffffffffffffffffffff1602179055505061143d61186e565b50565b600a60009054906101000a900460ff1681565b600b60009054906101000a900473ffffffffffffffffffffffffffffffffffffffff1681565b600a60019054906101000a900473ffffffffffffffffffffffffffffffffffffffff1681565b60076020528060005260406000206000915090505481565b6000809054906101000a900473ffffffffffffffffffffffffffffffffffffffff1673ffffffffffffffffffffffffffffffffffffffff163373ffffffffffffffffffffffffffffffffffffffff1614151561151257600080fd5b600060088054905014151561152657600080fd5b60001515600a60009054906101000a900460ff16151514151561154857600080fd5b8060058190555050565b606060098054806020026020016040519081016040528092919081815260200182805480156115d657602002820191906000526020600020905b8160009054906101000a900473ffffffffffffffffffffffffffffffffffffffff1673ffffffffffffffffffffffffffffffffffffffff168152602001906001019080831161158c575b5050505050905090565b6000809054906101000a900473ffffffffffffffffffffffffffffffffffffffff1673ffffffffffffffffffffffffffffffffffffffff163373ffffffffffffffffffffffffffffffffffffffff1614151561163b57600080fd5b600073ffffffffffffffffffffffffffffffffffffffff168173ffffffffffffffffffffffffffffffffffffffff161415151561167757600080fd5b8073ffffffffffffffffffffffffffffffffffffffff166000809054906101000a900473ffffffffffffffffffffffffffffffffffffffff1673ffffffffffffffffffffffffffffffffffffffff167f8be0079c531659141344cd1fd0a4f28419497f9722a3daafe3b4186f6b6457e060405160405180910390a3806000806101000a81548173ffffffffffffffffffffffffffffffffffffffff021916908373ffffffffffffffffffffffffffffffffffffffff16021790555050565b60088181548110151561174457fe5b906000526020600020016000915054906101000a900473ffffffffffffffffffffffffffffffffffffffff1681565b600080434060019004905060055481101561178e578061179d565b6005548181151561179b57fe5b065b91505090565b600081838115156117b057fe5b04905092915050565b61180b81600760008573ffffffffffffffffffffffffffffffffffffffff1673ffffffffffffffffffffffffffffffffffffffff1681526020019081526020016000205461185290919063ffffffff16565b600760008473ffffffffffffffffffffffffffffffffffffffff1673ffffffffffffffffffffffffffffffffffffffff168152602001908152602001600020819055505050565b6000818301905082811015151561186557fe5b80905092915050565b6002543411156119cc576118de611890600254346119ce90919063ffffffff16565b600760003373ffffffffffffffffffffffffffffffffffffffff1673ffffffffffffffffffffffffffffffffffffffff1681526020019081526020016000205461185290919063ffffffff16565b600760003373ffffffffffffffffffffffffffffffffffffffff1673ffffffffffffffffffffffffffffffffffffffff168152602001908152602001600020819055507f38dec0fa11e2eca35d2f1ae0dc1933f1c4de2a271f3ab480f29de14010fe9f8933600760003373ffffffffffffffffffffffffffffffffffffffff1673ffffffffffffffffffffffffffffffffffffffff16815260200190815260200160002054604051808373ffffffffffffffffffffffffffffffffffffffff1673ffffffffffffffffffffffffffffffffffffffff1681526020018281526020019250505060405180910390a15b565b60008282111515156119dc57fe5b818303905092915050565b828054828255906000526020600020908101928215611a285760005260206000209182015b82811115611a27578254825591600101919060010190611a0c565b5b509050611a359190611a39565b5090565b611a7991905b80821115611a7557600081816101000a81549073ffffffffffffffffffffffffffffffffffffffff021916905550600101611a3f565b5090565b905600a165627a7a7230582029cba8065e5fb4d73878b0276770eefa05cde66b44cbe122fe4e18c07a09c9ea0029a165627a7a72305820a4b6f3ed6c794efa5ac5a37ec61990a54415f9a981b1aa2c5ec5eb6980a5d15f0029",
  "source": "pragma solidity ^0.4.23;\r\n\r\nimport \"./ownership/Ownable.sol\";\r\nimport \"./Lottery.sol\"; \r\n\r\n/**\r\n * @title LotteryFactory\r\n * @dev This is the lottery creator\r\n */\r\ncontract LotteryFactory is Ownable { \r\n    event LotteryDeployed(address deployedLottery);\r\n    event Owner(address owner);\r\n    event LotteryOwner(address lotteryOwner);\r\n    address public deployedLottery;\r\n\r\n    \r\n    //\r\n    /** \r\n    * @notice (1586381 gas) We launch this to start creating the chain of all contratacts,\r\n    * gets called when a new lottery is created from Lottery.sol\r\n    * @param _duration duration of the lottery\r\n    * @param _lotteryValue value of the lottery\r\n    * @param _reference address of the contract who will create the new one\r\n    *  for first instance, is done manually with the an address(0)\r\n    */\r\n    function createNewLottery(uint256 _duration, uint256 _lotteryValue, address _reference) public returns (Lottery) {\r\n        emit Owner(owner);\r\n        emit LotteryOwner(msg.sender);\r\n        Lottery l = new Lottery(_duration, _lotteryValue, this, _reference);\r\n        l.transferOwnership(msg.sender);\r\n        deployedLottery = address(l);\r\n        emit LotteryDeployed(deployedLottery);\r\n        return l;\r\n    }\r\n}",
  "sourcePath": "E:\\Ethereum\\Worldpay\\lottery-contract\\contracts\\LotteryFactory.sol",
  "compiler": {
    "name": "solc",
    "version": "0.4.23+commit.124ca40d.Emscripten.clang"
  },
  "schemaVersion": "2.0.0",
  "updatedAt": "2018-05-12T02:06:58.585Z"
}