{
  "contractName": "Lottery",
  "abi": [
    {
      "constant": true,
      "inputs": [],
      "name": "deadline",
      "outputs": [
        {
          "name": "",
          "type": "uint256"
        }
      ],
      "payable": false,
      "stateMutability": "view",
      "type": "function"
    },
    {
      "constant": true,
      "inputs": [],
      "name": "winningNumber",
      "outputs": [
        {
          "name": "",
          "type": "uint256"
        }
      ],
      "payable": false,
      "stateMutability": "view",
      "type": "function"
    },
    {
      "constant": true,
      "inputs": [],
      "name": "probability",
      "outputs": [
        {
          "name": "",
          "type": "uint256"
        }
      ],
      "payable": false,
      "stateMutability": "view",
      "type": "function"
    },
    {
      "constant": true,
      "inputs": [],
      "name": "jackPot",
      "outputs": [
        {
          "name": "",
          "type": "uint256"
        }
      ],
      "payable": false,
      "stateMutability": "view",
      "type": "function"
    },
    {
      "constant": true,
      "inputs": [
        {
          "name": "",
          "type": "uint256"
        },
        {
          "name": "",
          "type": "uint256"
        }
      ],
      "name": "contest",
      "outputs": [
        {
          "name": "",
          "type": "address"
        }
      ],
      "payable": false,
      "stateMutability": "view",
      "type": "function"
    },
    {
      "constant": true,
      "inputs": [],
      "name": "owner",
      "outputs": [
        {
          "name": "",
          "type": "address"
        }
      ],
      "payable": false,
      "stateMutability": "view",
      "type": "function"
    },
    {
      "constant": true,
      "inputs": [],
      "name": "lotteryValue",
      "outputs": [
        {
          "name": "",
          "type": "uint256"
        }
      ],
      "payable": false,
      "stateMutability": "view",
      "type": "function"
    },
    {
      "constant": true,
      "inputs": [
        {
          "name": "",
          "type": "uint256"
        }
      ],
      "name": "winners",
      "outputs": [
        {
          "name": "",
          "type": "address"
        }
      ],
      "payable": false,
      "stateMutability": "view",
      "type": "function"
    },
    {
      "constant": true,
      "inputs": [],
      "name": "lotteryHasPlayed",
      "outputs": [
        {
          "name": "",
          "type": "bool"
        }
      ],
      "payable": false,
      "stateMutability": "view",
      "type": "function"
    },
    {
      "constant": true,
      "inputs": [],
      "name": "lastLottery",
      "outputs": [
        {
          "name": "",
          "type": "address"
        }
      ],
      "payable": false,
      "stateMutability": "view",
      "type": "function"
    },
    {
      "constant": true,
      "inputs": [],
      "name": "newLottery",
      "outputs": [
        {
          "name": "",
          "type": "address"
        }
      ],
      "payable": false,
      "stateMutability": "view",
      "type": "function"
    },
    {
      "constant": true,
      "inputs": [
        {
          "name": "",
          "type": "address"
        }
      ],
      "name": "refunds",
      "outputs": [
        {
          "name": "",
          "type": "uint256"
        }
      ],
      "payable": false,
      "stateMutability": "view",
      "type": "function"
    },
    {
      "constant": false,
      "inputs": [
        {
          "name": "newOwner",
          "type": "address"
        }
      ],
      "name": "transferOwnership",
      "outputs": [],
      "payable": false,
      "stateMutability": "nonpayable",
      "type": "function"
    },
    {
      "constant": true,
      "inputs": [
        {
          "name": "",
          "type": "uint256"
        }
      ],
      "name": "players",
      "outputs": [
        {
          "name": "",
          "type": "address"
        }
      ],
      "payable": false,
      "stateMutability": "view",
      "type": "function"
    },
    {
      "inputs": [
        {
          "name": "_duration",
          "type": "uint256"
        },
        {
          "name": "_lotteryValue",
          "type": "uint256"
        },
        {
          "name": "_lotteryFactory",
          "type": "address"
        },
        {
          "name": "_lastLottery",
          "type": "address"
        }
      ],
      "payable": false,
      "stateMutability": "nonpayable",
      "type": "constructor"
    },
    {
      "anonymous": false,
      "inputs": [
        {
          "indexed": false,
          "name": "player",
          "type": "address"
        },
        {
          "indexed": false,
          "name": "amount",
          "type": "uint256"
        }
      ],
      "name": "RefundAdded",
      "type": "event"
    },
    {
      "anonymous": false,
      "inputs": [
        {
          "indexed": false,
          "name": "winners",
          "type": "address[]"
        },
        {
          "indexed": false,
          "name": "jackPot",
          "type": "uint256"
        }
      ],
      "name": "Winners",
      "type": "event"
    },
    {
      "anonymous": false,
      "inputs": [
        {
          "indexed": false,
          "name": "newLotteryAddress",
          "type": "address"
        }
      ],
      "name": "NewLottery",
      "type": "event"
    },
    {
      "anonymous": false,
      "inputs": [
        {
          "indexed": false,
          "name": "value",
          "type": "uint256"
        }
      ],
      "name": "TransferJackPot",
      "type": "event"
    },
    {
      "anonymous": false,
      "inputs": [
        {
          "indexed": true,
          "name": "previousOwner",
          "type": "address"
        },
        {
          "indexed": true,
          "name": "newOwner",
          "type": "address"
        }
      ],
      "name": "OwnershipTransferred",
      "type": "event"
    },
    {
      "constant": false,
      "inputs": [
        {
          "name": "_number",
          "type": "uint256"
        }
      ],
      "name": "enter",
      "outputs": [],
      "payable": true,
      "stateMutability": "payable",
      "type": "function"
    },
    {
      "constant": false,
      "inputs": [],
      "name": "pickWinner",
      "outputs": [],
      "payable": false,
      "stateMutability": "nonpayable",
      "type": "function"
    },
    {
      "constant": false,
      "inputs": [
        {
          "name": "_duration",
          "type": "uint256"
        },
        {
          "name": "_lotteryValue",
          "type": "uint256"
        }
      ],
      "name": "attempNewLottery",
      "outputs": [],
      "payable": false,
      "stateMutability": "nonpayable",
      "type": "function"
    },
    {
      "constant": false,
      "inputs": [],
      "name": "withdraw",
      "outputs": [],
      "payable": false,
      "stateMutability": "nonpayable",
      "type": "function"
    },
    {
      "constant": false,
      "inputs": [],
      "name": "addJackPot",
      "outputs": [],
      "payable": true,
      "stateMutability": "payable",
      "type": "function"
    },
    {
      "constant": true,
      "inputs": [],
      "name": "getPlayers",
      "outputs": [
        {
          "name": "",
          "type": "address[]"
        }
      ],
      "payable": false,
      "stateMutability": "view",
      "type": "function"
    },
    {
      "constant": true,
      "inputs": [
        {
          "name": "_number",
          "type": "uint256"
        }
      ],
      "name": "getPlayersByLotteryNumber",
      "outputs": [
        {
          "name": "",
          "type": "address[]"
        }
      ],
      "payable": false,
      "stateMutability": "view",
      "type": "function"
    },
    {
      "constant": true,
      "inputs": [],
      "name": "getWinners",
      "outputs": [
        {
          "name": "",
          "type": "address[]"
        }
      ],
      "payable": false,
      "stateMutability": "view",
      "type": "function"
    },
    {
      "constant": false,
      "inputs": [
        {
          "name": "_winningNumber",
          "type": "uint256"
        }
      ],
      "name": "setWinningNumber",
      "outputs": [],
      "payable": false,
      "stateMutability": "nonpayable",
      "type": "function"
    },
    {
      "constant": false,
      "inputs": [
        {
          "name": "_probability",
          "type": "uint256"
        }
      ],
      "name": "setProbability",
      "outputs": [],
      "payable": false,
      "stateMutability": "nonpayable",
      "type": "function"
    }
  ],
  "bytecode": "0x60806040526342c9eb686005556000600a60006101000a81548160ff02191690831515021790555034801561003357600080fd5b50604051608080611c0183398101806040528101908080519060200190929190805190602001909291908051906020019092919080519060200190929190505050336000806101000a81548173ffffffffffffffffffffffffffffffffffffffff021916908373ffffffffffffffffffffffffffffffffffffffff1602179055508342016001819055508260028190555081600c60006101000a81548173ffffffffffffffffffffffffffffffffffffffff021916908373ffffffffffffffffffffffffffffffffffffffff16021790555080600b60006101000a81548173ffffffffffffffffffffffffffffffffffffffff021916908373ffffffffffffffffffffffffffffffffffffffff16021790555050505050611aa8806101596000396000f30060806040526004361061013e576000357c0100000000000000000000000000000000000000000000000000000000900463ffffffff16806313cf05f91461014357806329dcb0cf1461017a5780633ccfd60b146101a55780634664611e146101bc578063481456f9146101e75780634a78cdba146102125780635d495aea1461023d578063642e8fef146102545780636a8f56781461025e5780638b5b9ccc146102d55780638da5cb5b146103415780639113a7b5146103985780639c8ccc78146103c3578063a2fb117514610445578063a3e3d2e4146104b2578063a59f3e0c146104df578063a947d050146104ff578063af0b4b271461052e578063b1e2cb0314610585578063bc3da535146105dc578063d2c42de114610633578063df15c37e14610660578063f2fde38b146106cc578063f71d96cb1461070f575b600080fd5b34801561014f57600080fd5b50610178600480360381019080803590602001909291908035906020019092919050505061077c565b005b34801561018657600080fd5b5061018f610aaa565b6040518082815260200191505060405180910390f35b3480156101b157600080fd5b506101ba610ab0565b005b3480156101c857600080fd5b506101d1610b83565b6040518082815260200191505060405180910390f35b3480156101f357600080fd5b506101fc610b89565b6040518082815260200191505060405180910390f35b34801561021e57600080fd5b50610227610b8f565b6040518082815260200191505060405180910390f35b34801561024957600080fd5b50610252610b95565b005b61025c610ea5565b005b34801561026a57600080fd5b506102936004803603810190808035906020019092919080359060200190929190505050610f0a565b604051808273ffffffffffffffffffffffffffffffffffffffff1673ffffffffffffffffffffffffffffffffffffffff16815260200191505060405180910390f35b3480156102e157600080fd5b506102ea610f57565b6040518080602001828103825283818151815260200191508051906020019060200280838360005b8381101561032d578082015181840152602081019050610312565b505050509050019250505060405180910390f35b34801561034d57600080fd5b50610356610fe5565b604051808273ffffffffffffffffffffffffffffffffffffffff1673ffffffffffffffffffffffffffffffffffffffff16815260200191505060405180910390f35b3480156103a457600080fd5b506103ad61100a565b6040518082815260200191505060405180910390f35b3480156103cf57600080fd5b506103ee60048036038101908080359060200190929190505050611010565b6040518080602001828103825283818151815260200191508051906020019060200280838360005b83811015610431578082015181840152602081019050610416565b505050509050019250505060405180910390f35b34801561045157600080fd5b50610470600480360381019080803590602001909291905050506110b1565b604051808273ffffffffffffffffffffffffffffffffffffffff1673ffffffffffffffffffffffffffffffffffffffff16815260200191505060405180910390f35b3480156104be57600080fd5b506104dd600480360381019080803590602001909291905050506110ef565b005b6104fd60048036038101908080359060200190929190505050611186565b005b34801561050b57600080fd5b50610514611440565b604051808215151515815260200191505060405180910390f35b34801561053a57600080fd5b50610543611453565b604051808273ffffffffffffffffffffffffffffffffffffffff1673ffffffffffffffffffffffffffffffffffffffff16815260200191505060405180910390f35b34801561059157600080fd5b5061059a611479565b604051808273ffffffffffffffffffffffffffffffffffffffff1673ffffffffffffffffffffffffffffffffffffffff16815260200191505060405180910390f35b3480156105e857600080fd5b5061061d600480360381019080803573ffffffffffffffffffffffffffffffffffffffff16906020019092919050505061149f565b6040518082815260200191505060405180910390f35b34801561063f57600080fd5b5061065e600480360381019080803590602001909291905050506114b7565b005b34801561066c57600080fd5b50610675611552565b6040518080602001828103825283818151815260200191508051906020019060200280838360005b838110156106b857808201518184015260208101905061069d565b505050509050019250505060405180910390f35b3480156106d857600080fd5b5061070d600480360381019080803573ffffffffffffffffffffffffffffffffffffffff1690602001909291905050506115e0565b005b34801561071b57600080fd5b5061073a60048036038101908080359060200190929190505050611735565b604051808273ffffffffffffffffffffffffffffffffffffffff1673ffffffffffffffffffffffffffffffffffffffff16815260200191505060405180910390f35b6000809054906101000a900473ffffffffffffffffffffffffffffffffffffffff1673ffffffffffffffffffffffffffffffffffffffff163373ffffffffffffffffffffffffffffffffffffffff161415156107d757600080fd5b60011515600a60009054906101000a900460ff1615151415156107f957600080fd5b600073ffffffffffffffffffffffffffffffffffffffff16600a60019054906101000a900473ffffffffffffffffffffffffffffffffffffffff1673ffffffffffffffffffffffffffffffffffffffff1614151561085657600080fd5b60008211151561086557600080fd5b60008111151561087457600080fd5b600c60009054906101000a900473ffffffffffffffffffffffffffffffffffffffff1673ffffffffffffffffffffffffffffffffffffffff1663111bb1688383306040518463ffffffff167c0100000000000000000000000000000000000000000000000000000000028152600401808481526020018381526020018273ffffffffffffffffffffffffffffffffffffffff1673ffffffffffffffffffffffffffffffffffffffff1681526020019350505050602060405180830381600087803b15801561094157600080fd5b505af1158015610955573d6000803e3d6000fd5b505050506040513d602081101561096b57600080fd5b8101908080519060200190929190505050600a60016101000a81548173ffffffffffffffffffffffffffffffffffffffff021916908373ffffffffffffffffffffffffffffffffffffffff1602179055507fdbb18653dafc4962dc966dac250a14155f0c8a5040e55c5c59ed5f4acb69f5be600a60019054906101000a900473ffffffffffffffffffffffffffffffffffffffff16604051808273ffffffffffffffffffffffffffffffffffffffff1673ffffffffffffffffffffffffffffffffffffffff16815260200191505060405180910390a16000600980549050148015610aa55750600073ffffffffffffffffffffffffffffffffffffffff16600a60019054906101000a900473ffffffffffffffffffffffffffffffffffffffff1673ffffffffffffffffffffffffffffffffffffffff1614155b505050565b60015481565b6000600760003373ffffffffffffffffffffffffffffffffffffffff1673ffffffffffffffffffffffffffffffffffffffff1681526020019081526020016000205490506000600760003373ffffffffffffffffffffffffffffffffffffffff1673ffffffffffffffffffffffffffffffffffffffff168152602001908152602001600020819055503373ffffffffffffffffffffffffffffffffffffffff166108fc829081150290604051600060405180830381858888f19350505050158015610b7f573d6000803e3d6000fd5b5050565b60045481565b60055481565b60035481565b6000806000809054906101000a900473ffffffffffffffffffffffffffffffffffffffff1673ffffffffffffffffffffffffffffffffffffffff163373ffffffffffffffffffffffffffffffffffffffff16141515610bf357600080fd5b60015442111515610c6c576040517f08c379a00000000000000000000000000000000000000000000000000000000081526004018080602001828103825260198152602001807f546865206c6f7474657279206973207374696c6c206f70656e0000000000000081525060200191505060405180910390fd5b60001515600a60009054906101000a900460ff161515141515610cf7576040517f08c379a000000000000000000000000000000000000000000000000000000000815260040180806020018281038252601e8152602001807f546865206c6f74746572792068617320616c726561647920706c61796564000081525060200191505060405180910390fd5b6001600a60006101000a81548160ff02191690831515021790555060006004541415610d2c57610d25611773565b6004819055505b6006600060045481526020019081526020016000206009908054610d519291906119e7565b5060006009805490501115610ea157610d7a6009805490506003546117a390919063ffffffff16565b91506000600381905550600090505b6009805490508160ff161015610dec57610ddf60098260ff16815481101515610dae57fe5b9060005260206000200160009054906101000a900473ffffffffffffffffffffffffffffffffffffffff16836117b9565b8080600101915050610d89565b7f413cf1e17d70833c017de9b3c64d0104e3e37a7191d95b3d0d6276de992a0b4d60098360405180806020018381526020018281038252848181548152602001915080548015610e9157602002820191906000526020600020905b8160009054906101000a900473ffffffffffffffffffffffffffffffffffffffff1673ffffffffffffffffffffffffffffffffffffffff1681526020019060010190808311610e47575b5050935050505060405180910390a15b5050565b600034111515610eb457600080fd5b610ec93460035461185290919063ffffffff16565b6003819055507fc2c48fe60b23268064613cbca1898c1871bae36909b3f33467dd82c6fe2cb2e36003546040518082815260200191505060405180910390a1565b600660205281600052604060002081815481101515610f2557fe5b906000526020600020016000915091509054906101000a900473ffffffffffffffffffffffffffffffffffffffff1681565b60606008805480602002602001604051908101604052809291908181526020018280548015610fdb57602002820191906000526020600020905b8160009054906101000a900473ffffffffffffffffffffffffffffffffffffffff1673ffffffffffffffffffffffffffffffffffffffff1681526020019060010190808311610f91575b5050505050905090565b6000809054906101000a900473ffffffffffffffffffffffffffffffffffffffff1681565b60025481565b6060600660008381526020019081526020016000208054806020026020016040519081016040528092919081815260200182805480156110a557602002820191906000526020600020905b8160009054906101000a900473ffffffffffffffffffffffffffffffffffffffff1673ffffffffffffffffffffffffffffffffffffffff168152602001906001019080831161105b575b50505050509050919050565b6009818154811015156110c057fe5b906000526020600020016000915054906101000a900473ffffffffffffffffffffffffffffffffffffffff1681565b6000809054906101000a900473ffffffffffffffffffffffffffffffffffffffff1673ffffffffffffffffffffffffffffffffffffffff163373ffffffffffffffffffffffffffffffffffffffff1614151561114a57600080fd5b60001515600a60009054906101000a900460ff16151514151561116c57600080fd5b4260015410151561117c57600080fd5b8060048190555050565b6002543410151515611226576040517f08c379a000000000000000000000000000000000000000000000000000000000815260040180806020018281038252602c8152602001807f76616c7565207265636569766564206973206c657373207468616e207468652081526020017f6c6f747465727956616c7565000000000000000000000000000000000000000081525060400191505060405180910390fd5b6001544210151561129f576040517f08c379a00000000000000000000000000000000000000000000000000000000081526004018080602001828103825260158152602001807f4c6f7474657279206861732066696e616c697a6564000000000000000000000081525060200191505060405180910390fd5b6005548111151515611319576040517f08c379a000000000000000000000000000000000000000000000000000000000815260040180806020018281038252601f8152602001807f6e756d626572206973206c657373207468616e2070726f626162696c6974790081525060200191505060405180910390fd5b60001515600a60009054906101000a900460ff16151514151561133b57600080fd5b61135260025460035461185290919063ffffffff16565b60038190555060083390806001815401808255809150509060018203906000526020600020016000909192909190916101000a81548173ffffffffffffffffffffffffffffffffffffffff021916908373ffffffffffffffffffffffffffffffffffffffff16021790555050600660008281526020019081526020016000203390806001815401808255809150509060018203906000526020600020016000909192909190916101000a81548173ffffffffffffffffffffffffffffffffffffffff021916908373ffffffffffffffffffffffffffffffffffffffff1602179055505061143d61186e565b50565b600a60009054906101000a900460ff1681565b600b60009054906101000a900473ffffffffffffffffffffffffffffffffffffffff1681565b600a60019054906101000a900473ffffffffffffffffffffffffffffffffffffffff1681565b60076020528060005260406000206000915090505481565b6000809054906101000a900473ffffffffffffffffffffffffffffffffffffffff1673ffffffffffffffffffffffffffffffffffffffff163373ffffffffffffffffffffffffffffffffffffffff1614151561151257600080fd5b600060088054905014151561152657600080fd5b60001515600a60009054906101000a900460ff16151514151561154857600080fd5b8060058190555050565b606060098054806020026020016040519081016040528092919081815260200182805480156115d657602002820191906000526020600020905b8160009054906101000a900473ffffffffffffffffffffffffffffffffffffffff1673ffffffffffffffffffffffffffffffffffffffff168152602001906001019080831161158c575b5050505050905090565b6000809054906101000a900473ffffffffffffffffffffffffffffffffffffffff1673ffffffffffffffffffffffffffffffffffffffff163373ffffffffffffffffffffffffffffffffffffffff1614151561163b57600080fd5b600073ffffffffffffffffffffffffffffffffffffffff168173ffffffffffffffffffffffffffffffffffffffff161415151561167757600080fd5b8073ffffffffffffffffffffffffffffffffffffffff166000809054906101000a900473ffffffffffffffffffffffffffffffffffffffff1673ffffffffffffffffffffffffffffffffffffffff167f8be0079c531659141344cd1fd0a4f28419497f9722a3daafe3b4186f6b6457e060405160405180910390a3806000806101000a81548173ffffffffffffffffffffffffffffffffffffffff021916908373ffffffffffffffffffffffffffffffffffffffff16021790555050565b60088181548110151561174457fe5b906000526020600020016000915054906101000a900473ffffffffffffffffffffffffffffffffffffffff1681565b600080434060019004905060055481101561178e578061179d565b6005548181151561179b57fe5b065b91505090565b600081838115156117b057fe5b04905092915050565b61180b81600760008573ffffffffffffffffffffffffffffffffffffffff1673ffffffffffffffffffffffffffffffffffffffff1681526020019081526020016000205461185290919063ffffffff16565b600760008473ffffffffffffffffffffffffffffffffffffffff1673ffffffffffffffffffffffffffffffffffffffff168152602001908152602001600020819055505050565b6000818301905082811015151561186557fe5b80905092915050565b6002543411156119cc576118de611890600254346119ce90919063ffffffff16565b600760003373ffffffffffffffffffffffffffffffffffffffff1673ffffffffffffffffffffffffffffffffffffffff1681526020019081526020016000205461185290919063ffffffff16565b600760003373ffffffffffffffffffffffffffffffffffffffff1673ffffffffffffffffffffffffffffffffffffffff168152602001908152602001600020819055507f38dec0fa11e2eca35d2f1ae0dc1933f1c4de2a271f3ab480f29de14010fe9f8933600760003373ffffffffffffffffffffffffffffffffffffffff1673ffffffffffffffffffffffffffffffffffffffff16815260200190815260200160002054604051808373ffffffffffffffffffffffffffffffffffffffff1673ffffffffffffffffffffffffffffffffffffffff1681526020018281526020019250505060405180910390a15b565b60008282111515156119dc57fe5b818303905092915050565b828054828255906000526020600020908101928215611a285760005260206000209182015b82811115611a27578254825591600101919060010190611a0c565b5b509050611a359190611a39565b5090565b611a7991905b80821115611a7557600081816101000a81549073ffffffffffffffffffffffffffffffffffffffff021916905550600101611a3f565b5090565b905600a165627a7a7230582029cba8065e5fb4d73878b0276770eefa05cde66b44cbe122fe4e18c07a09c9ea0029",
  "source": "pragma solidity ^0.4.23;\r\n\r\nimport \"./ownership/Ownable.sol\";\r\nimport \"./math/SafeMath.sol\";\r\nimport \"./LotteryFactory.sol\";\r\n\r\n/**\r\n * @title Lottery\r\n * @dev Lottery with 6 numbers between 01-99.\r\n */\r\ncontract Lottery is Ownable {\r\n    using SafeMath for uint256; \r\n\r\n    event RefundAdded(address player, uint256 amount);\r\n    event Winners(address[] winners, uint256 jackPot);\r\n    event NewLottery(address newLotteryAddress);\r\n    event TransferJackPot(uint256 value);\r\n\r\n    uint256 public deadline;\r\n    uint256 public lotteryValue;\r\n    uint256 public jackPot;\r\n    uint256 public winningNumber;\r\n    // @dev probability is (99*98*97*96*95*94)/6! = 1.120'529.256\r\n    uint256 public probability = 1120529256; //\r\n    \r\n    // @dev mapping of the LotteryNumber => users who chose that number\r\n    mapping(uint256 => address[]) public contest;\r\n\r\n    // @dev mapping of the sender => amount, if user sends more than the value of the lottery\r\n    mapping(address => uint256) public refunds;\r\n    address[] public players;\r\n    address[] public winners;\r\n\r\n    bool public lotteryHasPlayed = false;\r\n\r\n    // @dev the new lottery deployed where we are transfering the jackpot\r\n    address public newLottery;\r\n    // @dev we keep a reference of the last lottery\r\n    address public lastLottery;\r\n\r\n    //instance of the lottery factory\r\n    LotteryFactory lotteryFactory; \r\n\r\n    /**\r\n    * @dev constructor\r\n    * @param _duration how long will the lottery be open to enter\r\n    * @param _lotteryValue sets the value of the lottery\r\n    * @param _lotteryFactory instance of lotteryFactory to create a new lottery\r\n    * @param _lastLottery we keep a reference of the creator of this lottery\r\n    */\r\n    constructor(uint256 _duration, uint256 _lotteryValue, LotteryFactory _lotteryFactory, address _lastLottery) public {\r\n        deadline = now + _duration;\r\n        lotteryValue = _lotteryValue;\r\n        lotteryFactory = _lotteryFactory;\r\n        lastLottery = _lastLottery;\r\n    }\r\n\r\n    /** \r\n    * @notice allows the player to enter, chacking amount and deadline and refund \r\n    * if the value sent is more than the lotteryValue\r\n    * @param _number inside the probability \r\n    */\r\n    function enter(uint256 _number) external payable {\r\n        require(msg.value >= lotteryValue, \"value received is less than the lotteryValue\");\r\n        require(now < deadline, \"Lottery has finalized\");\r\n        require(_number <= probability, \"number is less than probability\");\r\n        require(lotteryHasPlayed == false);\r\n        jackPot = jackPot.add(lotteryValue);\r\n        players.push(msg.sender);\r\n        contest[_number].push(msg.sender);    \r\n        _refundIfValueExceedsPrice();\r\n    }\r\n\r\n    /** \r\n    * @notice add the refunded value to the sender\r\n    */\r\n    function _refundIfValueExceedsPrice() private {\r\n        if (msg.value > lotteryValue) {\r\n            refunds[msg.sender] = refunds[msg.sender].add(msg.value.sub(lotteryValue));\r\n            emit RefundAdded(msg.sender, refunds[msg.sender]);\r\n        } \r\n    }\r\n\r\n    /** \r\n    * @notice pickWinner can only be called by the owner and requires\r\n    * the lottery to be closed, still waiting for a good source \r\n    * of random generator, we will use the blockhash for the moment\r\n    * check if there are winners, if yes, divide the jackpot between\r\n    * winners and add it to the refund mapping\r\n    */\r\n    function pickWinner() external onlyOwner {\r\n        require(now > deadline, \"The lottery is still open\");\r\n        require(lotteryHasPlayed == false, \"The lottery has already played\");\r\n        lotteryHasPlayed = true;\r\n        if(winningNumber==0) winningNumber = _setResult();\r\n        winners = contest[winningNumber];\r\n        if (winners.length > 0) {\r\n            uint256 prizePerPlayer = jackPot.div(winners.length);\r\n            jackPot = 0;\r\n            for (uint8 i = 0; i < winners.length; i++) {\r\n                _refund(winners[i], prizePerPlayer);\r\n            }\r\n            emit Winners(winners, prizePerPlayer);\r\n        }         \r\n    }\r\n\r\n    /** \r\n    * @notice we just using blockhash fro the moment to set the lottery result\r\n    */\r\n    function _setResult() private view returns(uint256) {\r\n        uint256 result = uint256(blockhash(block.number));\r\n        return result >= probability ? result % probability : result;\r\n    }\r\n\r\n    /** \r\n    * @notice add  amount won to the @param winner into the refund mapping\r\n    * @param winner the winner of the lottery\r\n    * @param amount to be refunded\r\n    */\r\n    function _refund(address winner, uint256 amount) internal {\r\n        refunds[winner] = refunds[winner].add(amount);\r\n    }\r\n\r\n    /** \r\n    * @notice Transfer the jackpot nobody won the lottery to a the newLottery \r\n    */\r\n    function _transferJackPot() private  {\r\n        require(winners.length == 0);\r\n        uint256 _jackPot = jackPot;\r\n        jackPot = 0;\r\n        Lottery lottery = Lottery(newLottery);\r\n        lottery.addJackPot.value(_jackPot)();  \r\n    }\r\n\r\n    /** \r\n    * @notice Attemps to create a new lottery, gets stored into newLottery, if winners we cal _transferJackPot()\r\n    * @param _duration duration of the new lottery\r\n    * @param _lotteryValue value of the new lottery\r\n    */\r\n    function attempNewLottery(uint256 _duration, uint256 _lotteryValue) external onlyOwner {\r\n        require(lotteryHasPlayed == true);\r\n        require(newLottery == address(0));\r\n        require(_duration > 0);\r\n        require(_lotteryValue > 0);\r\n        newLottery = lotteryFactory.createNewLottery(_duration, _lotteryValue, this);\r\n        emit NewLottery(newLottery);\r\n        if (winners.length==0 && newLottery != address(0)) {\r\n           // _transferJackPot();\r\n        } \r\n    }\r\n\r\n\r\n    /** \r\n    * @notice withdraw the whole amount stored in the refunds mapping\r\n    */\r\n    function withdraw() external {\r\n        uint256 amount = refunds[msg.sender];\r\n        refunds[msg.sender] = 0;\r\n        msg.sender.transfer(amount);\r\n    }\r\n\r\n    function addJackPot() public payable {\r\n        require(msg.value>0);\r\n        jackPot = jackPot.add(msg.value);\r\n        emit TransferJackPot(jackPot);\r\n    }\r\n\r\n    /** \r\n    * @notice All getters\r\n    */\r\n    function getPlayers() external view returns(address[]) {\r\n        return players;\r\n    }\r\n\r\n    function getPlayersByLotteryNumber(uint256 _number) external view returns(address[]) {\r\n        return contest[_number];\r\n    }\r\n\r\n    function getWinners() external view returns(address[]){\r\n        return winners;\r\n    }\r\n\r\n/////////////////////////////////////////////////////////////////////\r\n/////////////////////////////////////////////////////////////////////\r\n/////////////////////////////////////////////////////////////////////\r\n/////////////////////////////////////////////////////////////////////\r\n/////////////////////////////////////////////////////////////////////\r\n/////////////////////////////////////////////////////////////////////\r\n    /** \r\n    * @notice This is used only for testing purpose, has to be deleted \r\n    */\r\n    function setWinningNumber(uint256 _winningNumber) external onlyOwner {\r\n        require(lotteryHasPlayed==false);\r\n        require(deadline < now);\r\n        winningNumber = _winningNumber;\r\n    }\r\n\r\n    /** \r\n    * @notice This is used only for testing purpose, has to be deleted \r\n    */\r\n    function setProbability(uint256 _probability) external onlyOwner {\r\n        require(players.length == 0);\r\n        require(lotteryHasPlayed == false);\r\n        probability = _probability;\r\n    }\r\n}\r\n\r\n\r\n\r\n",
  "sourcePath": "E:\\Ethereum\\Worldpay\\lottery-contract\\contracts\\Lottery.sol",
  "compiler": {
    "name": "solc",
    "version": "0.4.23+commit.124ca40d.Emscripten.clang"
  },
  "schemaVersion": "2.0.0",
  "updatedAt": "2018-05-12T02:06:58.594Z"
}