{
  "contractName": "Lottery",
  "abi": [
    {
      "constant": true,
      "inputs": [],
      "name": "deadline",
      "outputs": [
        {
          "name": "",
          "type": "uint256"
        }
      ],
      "payable": false,
      "stateMutability": "view",
      "type": "function"
    },
    {
      "constant": true,
      "inputs": [],
      "name": "winningNumber",
      "outputs": [
        {
          "name": "",
          "type": "uint256"
        }
      ],
      "payable": false,
      "stateMutability": "view",
      "type": "function"
    },
    {
      "constant": true,
      "inputs": [],
      "name": "probability",
      "outputs": [
        {
          "name": "",
          "type": "uint256"
        }
      ],
      "payable": false,
      "stateMutability": "view",
      "type": "function"
    },
    {
      "constant": true,
      "inputs": [],
      "name": "jackPot",
      "outputs": [
        {
          "name": "",
          "type": "uint256"
        }
      ],
      "payable": false,
      "stateMutability": "view",
      "type": "function"
    },
    {
      "constant": true,
      "inputs": [
        {
          "name": "",
          "type": "uint256"
        },
        {
          "name": "",
          "type": "uint256"
        }
      ],
      "name": "contest",
      "outputs": [
        {
          "name": "",
          "type": "address"
        }
      ],
      "payable": false,
      "stateMutability": "view",
      "type": "function"
    },
    {
      "constant": true,
      "inputs": [],
      "name": "owner",
      "outputs": [
        {
          "name": "",
          "type": "address"
        }
      ],
      "payable": false,
      "stateMutability": "view",
      "type": "function"
    },
    {
      "constant": true,
      "inputs": [],
      "name": "lotteryValue",
      "outputs": [
        {
          "name": "",
          "type": "uint256"
        }
      ],
      "payable": false,
      "stateMutability": "view",
      "type": "function"
    },
    {
      "constant": true,
      "inputs": [
        {
          "name": "",
          "type": "uint256"
        }
      ],
      "name": "winners",
      "outputs": [
        {
          "name": "",
          "type": "address"
        }
      ],
      "payable": false,
      "stateMutability": "view",
      "type": "function"
    },
    {
      "constant": true,
      "inputs": [],
      "name": "lotteryHasPlayed",
      "outputs": [
        {
          "name": "",
          "type": "bool"
        }
      ],
      "payable": false,
      "stateMutability": "view",
      "type": "function"
    },
    {
      "constant": true,
      "inputs": [],
      "name": "lastLottery",
      "outputs": [
        {
          "name": "",
          "type": "address"
        }
      ],
      "payable": false,
      "stateMutability": "view",
      "type": "function"
    },
    {
      "constant": true,
      "inputs": [
        {
          "name": "",
          "type": "address"
        }
      ],
      "name": "refunds",
      "outputs": [
        {
          "name": "",
          "type": "uint256"
        }
      ],
      "payable": false,
      "stateMutability": "view",
      "type": "function"
    },
    {
      "constant": false,
      "inputs": [
        {
          "name": "newOwner",
          "type": "address"
        }
      ],
      "name": "transferOwnership",
      "outputs": [],
      "payable": false,
      "stateMutability": "nonpayable",
      "type": "function"
    },
    {
      "constant": true,
      "inputs": [
        {
          "name": "",
          "type": "uint256"
        }
      ],
      "name": "players",
      "outputs": [
        {
          "name": "",
          "type": "address"
        }
      ],
      "payable": false,
      "stateMutability": "view",
      "type": "function"
    },
    {
      "inputs": [
        {
          "name": "_duration",
          "type": "uint256"
        },
        {
          "name": "_lotteryValue",
          "type": "uint256"
        },
        {
          "name": "_lotteryFactory",
          "type": "address"
        },
        {
          "name": "_lastLottery",
          "type": "address"
        }
      ],
      "payable": false,
      "stateMutability": "nonpayable",
      "type": "constructor"
    },
    {
      "anonymous": false,
      "inputs": [
        {
          "indexed": false,
          "name": "player",
          "type": "address"
        },
        {
          "indexed": false,
          "name": "amount",
          "type": "uint256"
        }
      ],
      "name": "RefundAdded",
      "type": "event"
    },
    {
      "anonymous": false,
      "inputs": [
        {
          "indexed": false,
          "name": "winners",
          "type": "address[]"
        },
        {
          "indexed": false,
          "name": "jackPot",
          "type": "uint256"
        }
      ],
      "name": "Winners",
      "type": "event"
    },
    {
      "anonymous": false,
      "inputs": [
        {
          "indexed": false,
          "name": "value",
          "type": "uint256"
        }
      ],
      "name": "TransferJackPot",
      "type": "event"
    },
    {
      "anonymous": false,
      "inputs": [
        {
          "indexed": false,
          "name": "previousOwner",
          "type": "address"
        },
        {
          "indexed": false,
          "name": "newOwner",
          "type": "address"
        }
      ],
      "name": "OwnershipTransferred",
      "type": "event"
    },
    {
      "constant": false,
      "inputs": [
        {
          "name": "_number",
          "type": "uint256"
        }
      ],
      "name": "enter",
      "outputs": [],
      "payable": true,
      "stateMutability": "payable",
      "type": "function"
    },
    {
      "constant": false,
      "inputs": [],
      "name": "pickWinner",
      "outputs": [],
      "payable": false,
      "stateMutability": "nonpayable",
      "type": "function"
    },
    {
      "constant": false,
      "inputs": [
        {
          "name": "_duration",
          "type": "uint256"
        },
        {
          "name": "_lotteryValue",
          "type": "uint256"
        }
      ],
      "name": "attempNewLottery",
      "outputs": [],
      "payable": false,
      "stateMutability": "nonpayable",
      "type": "function"
    },
    {
      "constant": false,
      "inputs": [],
      "name": "withdraw",
      "outputs": [],
      "payable": false,
      "stateMutability": "nonpayable",
      "type": "function"
    },
    {
      "constant": false,
      "inputs": [],
      "name": "addJackPot",
      "outputs": [],
      "payable": true,
      "stateMutability": "payable",
      "type": "function"
    },
    {
      "constant": true,
      "inputs": [],
      "name": "getPlayers",
      "outputs": [
        {
          "name": "",
          "type": "address[]"
        }
      ],
      "payable": false,
      "stateMutability": "view",
      "type": "function"
    },
    {
      "constant": true,
      "inputs": [
        {
          "name": "_number",
          "type": "uint256"
        }
      ],
      "name": "getPlayersByLotteryNumber",
      "outputs": [
        {
          "name": "",
          "type": "address[]"
        }
      ],
      "payable": false,
      "stateMutability": "view",
      "type": "function"
    },
    {
      "constant": true,
      "inputs": [],
      "name": "getWinners",
      "outputs": [
        {
          "name": "",
          "type": "address[]"
        }
      ],
      "payable": false,
      "stateMutability": "view",
      "type": "function"
    },
    {
      "constant": true,
      "inputs": [],
      "name": "getRefundValue",
      "outputs": [
        {
          "name": "",
          "type": "uint256"
        }
      ],
      "payable": false,
      "stateMutability": "view",
      "type": "function"
    },
    {
      "constant": false,
      "inputs": [
        {
          "name": "_winningNumber",
          "type": "uint256"
        }
      ],
      "name": "setWinningNumber",
      "outputs": [],
      "payable": false,
      "stateMutability": "nonpayable",
      "type": "function"
    },
    {
      "constant": false,
      "inputs": [
        {
          "name": "_probability",
          "type": "uint256"
        }
      ],
      "name": "setProbability",
      "outputs": [],
      "payable": false,
      "stateMutability": "nonpayable",
      "type": "function"
    }
  ],
  "bytecode": "0x6080604052600a6005556000600a60006101000a81548160ff02191690831515021790555034801561003057600080fd5b50604051608080611f4883398101806040528101908080519060200190929190805190602001909291908051906020019092919080519060200190929190505050336000806101000a81548173ffffffffffffffffffffffffffffffffffffffff021916908373ffffffffffffffffffffffffffffffffffffffff1602179055508342016001819055508260028190555081600b60006101000a81548173ffffffffffffffffffffffffffffffffffffffff021916908373ffffffffffffffffffffffffffffffffffffffff16021790555080600a60016101000a81548173ffffffffffffffffffffffffffffffffffffffff021916908373ffffffffffffffffffffffffffffffffffffffff16021790555050505050611df2806101566000396000f30060806040526004361061013e576000357c0100000000000000000000000000000000000000000000000000000000900463ffffffff16806313cf05f91461014357806329dcb0cf1461017a5780633ccfd60b146101a55780634664611e146101bc578063481456f9146101e75780634a78cdba1461021257806359e540951461023d5780635d495aea14610268578063642e8fef1461027f5780636a8f5678146102895780638b5b9ccc146103005780638da5cb5b1461036c5780639113a7b5146103c35780639c8ccc78146103ee578063a2fb117514610470578063a3e3d2e4146104dd578063a59f3e0c1461050a578063a947d0501461052a578063af0b4b2714610559578063bc3da535146105b0578063d2c42de114610607578063df15c37e14610634578063f2fde38b146106a0578063f71d96cb146106e3575b600080fd5b34801561014f57600080fd5b506101786004803603810190808035906020019092919080359060200190929190505050610750565b005b34801561018657600080fd5b5061018f610bc7565b6040518082815260200191505060405180910390f35b3480156101b157600080fd5b506101ba610bcd565b005b3480156101c857600080fd5b506101d1610ca0565b6040518082815260200191505060405180910390f35b3480156101f357600080fd5b506101fc610ca6565b6040518082815260200191505060405180910390f35b34801561021e57600080fd5b50610227610cac565b6040518082815260200191505060405180910390f35b34801561024957600080fd5b50610252610cb2565b6040518082815260200191505060405180910390f35b34801561027457600080fd5b5061027d610cf9565b005b610287611009565b005b34801561029557600080fd5b506102be600480360381019080803590602001909291908035906020019092919050505061106e565b604051808273ffffffffffffffffffffffffffffffffffffffff1673ffffffffffffffffffffffffffffffffffffffff16815260200191505060405180910390f35b34801561030c57600080fd5b506103156110bb565b6040518080602001828103825283818151815260200191508051906020019060200280838360005b8381101561035857808201518184015260208101905061033d565b505050509050019250505060405180910390f35b34801561037857600080fd5b50610381611149565b604051808273ffffffffffffffffffffffffffffffffffffffff1673ffffffffffffffffffffffffffffffffffffffff16815260200191505060405180910390f35b3480156103cf57600080fd5b506103d861116e565b6040518082815260200191505060405180910390f35b3480156103fa57600080fd5b5061041960048036038101908080359060200190929190505050611174565b6040518080602001828103825283818151815260200191508051906020019060200280838360005b8381101561045c578082015181840152602081019050610441565b505050509050019250505060405180910390f35b34801561047c57600080fd5b5061049b60048036038101908080359060200190929190505050611215565b604051808273ffffffffffffffffffffffffffffffffffffffff1673ffffffffffffffffffffffffffffffffffffffff16815260200191505060405180910390f35b3480156104e957600080fd5b5061050860048036038101908080359060200190929190505050611253565b005b610528600480360381019080803590602001909291905050506112ea565b005b34801561053657600080fd5b5061053f611642565b604051808215151515815260200191505060405180910390f35b34801561056557600080fd5b5061056e611655565b604051808273ffffffffffffffffffffffffffffffffffffffff1673ffffffffffffffffffffffffffffffffffffffff16815260200191505060405180910390f35b3480156105bc57600080fd5b506105f1600480360381019080803573ffffffffffffffffffffffffffffffffffffffff16906020019092919050505061167b565b6040518082815260200191505060405180910390f35b34801561061357600080fd5b5061063260048036038101908080359060200190929190505050611693565b005b34801561064057600080fd5b5061064961172e565b6040518080602001828103825283818151815260200191508051906020019060200280838360005b8381101561068c578082015181840152602081019050610671565b505050509050019250505060405180910390f35b3480156106ac57600080fd5b506106e1600480360381019080803573ffffffffffffffffffffffffffffffffffffffff1690602001909291905050506117bc565b005b3480156106ef57600080fd5b5061070e6004803603810190808035906020019092919050505061194e565b604051808273ffffffffffffffffffffffffffffffffffffffff1673ffffffffffffffffffffffffffffffffffffffff16815260200191505060405180910390f35b60008060009054906101000a900473ffffffffffffffffffffffffffffffffffffffff1673ffffffffffffffffffffffffffffffffffffffff163373ffffffffffffffffffffffffffffffffffffffff161415156107ad57600080fd5b60011515600a60009054906101000a900460ff1615151415156107cf57600080fd5b6001600b60009054906101000a900473ffffffffffffffffffffffffffffffffffffffff1673ffffffffffffffffffffffffffffffffffffffff1663bcc82ec46040518163ffffffff167c0100000000000000000000000000000000000000000000000000000000028152600401600060405180830381600087803b15801561085757600080fd5b505af115801561086b573d6000803e3d6000fd5b505050506040513d6000823e3d601f19601f82011682018060405250602081101561089557600080fd5b8101908080516401000000008111156108ad57600080fd5b828101905060208101848111156108c357600080fd5b81518560208202830111640100000000821117156108e057600080fd5b50509291905050505103600b60009054906101000a900473ffffffffffffffffffffffffffffffffffffffff1673ffffffffffffffffffffffffffffffffffffffff1663fd6aad25306040518263ffffffff167c0100000000000000000000000000000000000000000000000000000000028152600401808273ffffffffffffffffffffffffffffffffffffffff1673ffffffffffffffffffffffffffffffffffffffff168152602001915050602060405180830381600087803b1580156109a757600080fd5b505af11580156109bb573d6000803e3d6000fd5b505050506040513d60208110156109d157600080fd5b8101908080519060200190929190505050141515610a7d576040517f08c379a00000000000000000000000000000000000000000000000000000000081526004018080602001828103825260258152602001807f6966207468697320697320746865206c61746572206465706c6f796564204c6f81526020017f747465727900000000000000000000000000000000000000000000000000000081525060400191505060405180910390fd5b600083111515610a8c57600080fd5b600082111515610a9b57600080fd5b600b60009054906101000a900473ffffffffffffffffffffffffffffffffffffffff1673ffffffffffffffffffffffffffffffffffffffff1663a99a690784846040518363ffffffff167c01000000000000000000000000000000000000000000000000000000000281526004018083815260200182815260200192505050602060405180830381600087803b158015610b3457600080fd5b505af1158015610b48573d6000803e3d6000fd5b505050506040513d6020811015610b5e57600080fd5b810190808051906020019092919050505090506000600980549050148015610bb35750600073ffffffffffffffffffffffffffffffffffffffff168173ffffffffffffffffffffffffffffffffffffffff1614155b15610bc257610bc18161198c565b5b505050565b60015481565b6000600760003373ffffffffffffffffffffffffffffffffffffffff1673ffffffffffffffffffffffffffffffffffffffff1681526020019081526020016000205490506000600760003373ffffffffffffffffffffffffffffffffffffffff1673ffffffffffffffffffffffffffffffffffffffff168152602001908152602001600020819055503373ffffffffffffffffffffffffffffffffffffffff166108fc829081150290604051600060405180830381858888f19350505050158015610c9c573d6000803e3d6000fd5b5050565b60045481565b60055481565b60035481565b6000600760003373ffffffffffffffffffffffffffffffffffffffff1673ffffffffffffffffffffffffffffffffffffffff16815260200190815260200160002054905090565b6000806000809054906101000a900473ffffffffffffffffffffffffffffffffffffffff1673ffffffffffffffffffffffffffffffffffffffff163373ffffffffffffffffffffffffffffffffffffffff16141515610d5757600080fd5b60015442111515610dd0576040517f08c379a00000000000000000000000000000000000000000000000000000000081526004018080602001828103825260198152602001807f546865206c6f7474657279206973207374696c6c206f70656e0000000000000081525060200191505060405180910390fd5b60001515600a60009054906101000a900460ff161515141515610e5b576040517f08c379a000000000000000000000000000000000000000000000000000000000815260040180806020018281038252601e8152602001807f546865206c6f74746572792068617320616c726561647920706c61796564000081525060200191505060405180910390fd5b6001600a60006101000a81548160ff02191690831515021790555060006004541415610e9057610e89611a35565b6004819055505b6006600060045481526020019081526020016000206009908054610eb5929190611d31565b506000600980549050111561100557610ede600980549050600354611aed90919063ffffffff16565b91506000600381905550600090505b6009805490508160ff161015610f5057610f4360098260ff16815481101515610f1257fe5b9060005260206000200160009054906101000a900473ffffffffffffffffffffffffffffffffffffffff1683611b03565b8080600101915050610eed565b7f413cf1e17d70833c017de9b3c64d0104e3e37a7191d95b3d0d6276de992a0b4d60098360405180806020018381526020018281038252848181548152602001915080548015610ff557602002820191906000526020600020905b8160009054906101000a900473ffffffffffffffffffffffffffffffffffffffff1673ffffffffffffffffffffffffffffffffffffffff1681526020019060010190808311610fab575b5050935050505060405180910390a15b5050565b60003411151561101857600080fd5b61102d34600354611b9c90919063ffffffff16565b6003819055507fc2c48fe60b23268064613cbca1898c1871bae36909b3f33467dd82c6fe2cb2e36003546040518082815260200191505060405180910390a1565b60066020528160005260406000208181548110151561108957fe5b906000526020600020016000915091509054906101000a900473ffffffffffffffffffffffffffffffffffffffff1681565b6060600880548060200260200160405190810160405280929190818152602001828054801561113f57602002820191906000526020600020905b8160009054906101000a900473ffffffffffffffffffffffffffffffffffffffff1673ffffffffffffffffffffffffffffffffffffffff16815260200190600101908083116110f5575b5050505050905090565b6000809054906101000a900473ffffffffffffffffffffffffffffffffffffffff1681565b60025481565b60606006600083815260200190815260200160002080548060200260200160405190810160405280929190818152602001828054801561120957602002820191906000526020600020905b8160009054906101000a900473ffffffffffffffffffffffffffffffffffffffff1673ffffffffffffffffffffffffffffffffffffffff16815260200190600101908083116111bf575b50505050509050919050565b60098181548110151561122457fe5b906000526020600020016000915054906101000a900473ffffffffffffffffffffffffffffffffffffffff1681565b6000809054906101000a900473ffffffffffffffffffffffffffffffffffffffff1673ffffffffffffffffffffffffffffffffffffffff163373ffffffffffffffffffffffffffffffffffffffff161415156112ae57600080fd5b60001515600a60009054906101000a900460ff1615151415156112d057600080fd5b426001541015156112e057600080fd5b8060048190555050565b600254341015151561138a576040517f08c379a000000000000000000000000000000000000000000000000000000000815260040180806020018281038252602c8152602001807f76616c7565207265636569766564206973206c657373207468616e207468652081526020017f6c6f747465727956616c7565000000000000000000000000000000000000000081525060400191505060405180910390fd5b60015442101515611403576040517f08c379a00000000000000000000000000000000000000000000000000000000081526004018080602001828103825260158152602001807f4c6f7474657279206861732066696e616c697a6564000000000000000000000081525060200191505060405180910390fd5b600554811115151561147d576040517f08c379a000000000000000000000000000000000000000000000000000000000815260040180806020018281038252601f8152602001807f6e756d626572206973206c657373207468616e2070726f626162696c6974790081525060200191505060405180910390fd5b60008111151561151b576040517f08c379a00000000000000000000000000000000000000000000000000000000081526004018080602001828103825260228152602001807f6e756d6265722069732067726561746572207468616e2070726f626162696c6981526020017f747900000000000000000000000000000000000000000000000000000000000081525060400191505060405180910390fd5b60001515600a60009054906101000a900460ff16151514151561153d57600080fd5b611554600254600354611b9c90919063ffffffff16565b60038190555060083390806001815401808255809150509060018203906000526020600020016000909192909190916101000a81548173ffffffffffffffffffffffffffffffffffffffff021916908373ffffffffffffffffffffffffffffffffffffffff16021790555050600660008281526020019081526020016000203390806001815401808255809150509060018203906000526020600020016000909192909190916101000a81548173ffffffffffffffffffffffffffffffffffffffff021916908373ffffffffffffffffffffffffffffffffffffffff1602179055505061163f611bb8565b50565b600a60009054906101000a900460ff1681565b600a60019054906101000a900473ffffffffffffffffffffffffffffffffffffffff1681565b60076020528060005260406000206000915090505481565b6000809054906101000a900473ffffffffffffffffffffffffffffffffffffffff1673ffffffffffffffffffffffffffffffffffffffff163373ffffffffffffffffffffffffffffffffffffffff161415156116ee57600080fd5b600060088054905014151561170257600080fd5b60001515600a60009054906101000a900460ff16151514151561172457600080fd5b8060058190555050565b606060098054806020026020016040519081016040528092919081815260200182805480156117b257602002820191906000526020600020905b8160009054906101000a900473ffffffffffffffffffffffffffffffffffffffff1673ffffffffffffffffffffffffffffffffffffffff1681526020019060010190808311611768575b5050505050905090565b6000809054906101000a900473ffffffffffffffffffffffffffffffffffffffff1673ffffffffffffffffffffffffffffffffffffffff163373ffffffffffffffffffffffffffffffffffffffff1614151561181757600080fd5b600073ffffffffffffffffffffffffffffffffffffffff168173ffffffffffffffffffffffffffffffffffffffff161415151561185357600080fd5b7f8be0079c531659141344cd1fd0a4f28419497f9722a3daafe3b4186f6b6457e06000809054906101000a900473ffffffffffffffffffffffffffffffffffffffff1682604051808373ffffffffffffffffffffffffffffffffffffffff1673ffffffffffffffffffffffffffffffffffffffff1681526020018273ffffffffffffffffffffffffffffffffffffffff1673ffffffffffffffffffffffffffffffffffffffff1681526020019250505060405180910390a1806000806101000a81548173ffffffffffffffffffffffffffffffffffffffff021916908373ffffffffffffffffffffffffffffffffffffffff16021790555050565b60088181548110151561195d57fe5b906000526020600020016000915054906101000a900473ffffffffffffffffffffffffffffffffffffffff1681565b60008060006009805490501415156119a357600080fd5b600354915060006003819055508290508073ffffffffffffffffffffffffffffffffffffffff1663642e8fef836040518263ffffffff167c01000000000000000000000000000000000000000000000000000000000281526004016000604051808303818588803b158015611a1757600080fd5b505af1158015611a2b573d6000803e3d6000fd5b5050505050505050565b60008044436008604051808481526020018381526020018280548015611ab057602002820191906000526020600020905b8160009054906101000a900473ffffffffffffffffffffffffffffffffffffffff1673ffffffffffffffffffffffffffffffffffffffff1681526020019060010190808311611a66575b505093505050506040518091039020600190049050600554811015611ad55780611ae7565b600160055482811515611ae457fe5b06015b91505090565b60008183811515611afa57fe5b04905092915050565b611b5581600760008573ffffffffffffffffffffffffffffffffffffffff1673ffffffffffffffffffffffffffffffffffffffff16815260200190815260200160002054611b9c90919063ffffffff16565b600760008473ffffffffffffffffffffffffffffffffffffffff1673ffffffffffffffffffffffffffffffffffffffff168152602001908152602001600020819055505050565b60008183019050828110151515611baf57fe5b80905092915050565b600254341115611d1657611c28611bda60025434611d1890919063ffffffff16565b600760003373ffffffffffffffffffffffffffffffffffffffff1673ffffffffffffffffffffffffffffffffffffffff16815260200190815260200160002054611b9c90919063ffffffff16565b600760003373ffffffffffffffffffffffffffffffffffffffff1673ffffffffffffffffffffffffffffffffffffffff168152602001908152602001600020819055507f38dec0fa11e2eca35d2f1ae0dc1933f1c4de2a271f3ab480f29de14010fe9f8933600760003373ffffffffffffffffffffffffffffffffffffffff1673ffffffffffffffffffffffffffffffffffffffff16815260200190815260200160002054604051808373ffffffffffffffffffffffffffffffffffffffff1673ffffffffffffffffffffffffffffffffffffffff1681526020018281526020019250505060405180910390a15b565b6000828211151515611d2657fe5b818303905092915050565b828054828255906000526020600020908101928215611d725760005260206000209182015b82811115611d71578254825591600101919060010190611d56565b5b509050611d7f9190611d83565b5090565b611dc391905b80821115611dbf57600081816101000a81549073ffffffffffffffffffffffffffffffffffffffff021916905550600101611d89565b5090565b905600a165627a7a7230582064a34e383ceee4d951bdac405c871fcfaf361e4962a355d4199cd80d77a06e240029",
  "source": "pragma solidity ^0.4.23;\r\n\r\nimport \"./ownership/Ownable.sol\";\r\nimport \"./math/SafeMath.sol\";\r\nimport \"./LotteryFactory.sol\";\r\n\r\n/**\r\n * @title Lottery\r\n * @dev Lottery with 6 numbers between 01-99.\r\n */\r\ncontract Lottery is Ownable {\r\n    using SafeMath for uint256; \r\n\r\n    event RefundAdded(address player, uint256 amount);\r\n    event Winners(address[] winners, uint256 jackPot);\r\n    event TransferJackPot(uint256 value);\r\n\r\n    uint256 public deadline;\r\n    uint256 public lotteryValue;\r\n    uint256 public jackPot;\r\n    uint256 public winningNumber;\r\n    // @dev probability is (99*98*97*96*95*94)/6! = 1.120'529.256\r\n    uint256 public probability = 10; //\r\n    \r\n    // @dev mapping of the LotteryNumber => users who chose that number\r\n    mapping(uint256 => address[]) public contest;\r\n\r\n    // @dev mapping of the sender => amount, if user sends more than the value of the lottery\r\n    mapping(address => uint256) public refunds;\r\n    address[] public players;\r\n    address[] public winners;\r\n\r\n    bool public lotteryHasPlayed = false;\r\n\r\n    // @dev we keep a reference of the last lottery\r\n    address public lastLottery;\r\n\r\n    //instance of the lottery factory\r\n    LotteryFactory lotteryFactory; \r\n\r\n    /**\r\n    * @dev constructor\r\n    * @param _duration how long will the lottery be open to enter\r\n    * @param _lotteryValue sets the value of the lottery\r\n    * @param _lotteryFactory instance of lotteryFactory to create a new lottery\r\n    * @param _lastLottery we keep a reference of the creator of this lottery\r\n    */\r\n    constructor(uint256 _duration, uint256 _lotteryValue, LotteryFactory _lotteryFactory, address _lastLottery) public {\r\n        deadline = now + _duration;\r\n        lotteryValue = _lotteryValue;\r\n        lotteryFactory = _lotteryFactory;\r\n        lastLottery = _lastLottery;\r\n    }\r\n\r\n    /** \r\n    * @notice allows the player to enter, chacking amount and deadline and refund \r\n    * if the value sent is more than the lotteryValue\r\n    * @param _number inside the probability \r\n    */\r\n    function enter(uint256 _number) external payable {\r\n        require(msg.value >= lotteryValue, \"value received is less than the lotteryValue\");\r\n        require(now < deadline, \"Lottery has finalized\");\r\n        require(_number <= probability, \"number is less than probability\");\r\n        require(_number > 0, \"number is greater than probability\");\r\n        require(lotteryHasPlayed == false);\r\n        jackPot = jackPot.add(lotteryValue);\r\n        players.push(msg.sender);\r\n        contest[_number].push(msg.sender);    \r\n        _refundIfValueExceedsPrice();\r\n    }\r\n\r\n    /** \r\n    * @notice add the refunded value to the sender\r\n    */\r\n    function _refundIfValueExceedsPrice() private {\r\n        if (msg.value > lotteryValue) {\r\n            refunds[msg.sender] = refunds[msg.sender].add(msg.value.sub(lotteryValue));\r\n            emit RefundAdded(msg.sender, refunds[msg.sender]);\r\n        } \r\n    }\r\n\r\n    /** \r\n    * @notice pickWinner can only be called by the owner and requires\r\n    * the lottery to be closed, still waiting for a good source \r\n    * of random generator, we will use the blockhash for the moment\r\n    * check if there are winners, if yes, divide the jackpot between\r\n    * winners and add it to the refund mapping\r\n    */\r\n    function pickWinner() external onlyOwner {\r\n        require(now > deadline, \"The lottery is still open\");\r\n        require(lotteryHasPlayed == false, \"The lottery has already played\");\r\n        lotteryHasPlayed = true;\r\n        if(winningNumber == 0){\r\n            winningNumber = _setResult();\r\n        }\r\n        //require(winningNumber != 0, \"Winnning number has to be greater than 0\");\r\n        winners = contest[winningNumber];\r\n        if (winners.length > 0) {\r\n            uint256 prizePerPlayer = jackPot.div(winners.length);\r\n            jackPot = 0;\r\n            for (uint8 i = 0; i < winners.length; i++) {\r\n                _refund(winners[i], prizePerPlayer);\r\n            }\r\n            emit Winners(winners, prizePerPlayer);\r\n        }         \r\n    }\r\n\r\n    /** \r\n    * @notice we just using blockhash fro the moment to set the lottery result\r\n    */\r\n    function _setResult() private view returns(uint256) {\r\n        uint256 result = uint256(keccak256(block.difficulty, block.number, players));\r\n\r\n        return result >= probability ? (result % probability)+1 : result;        \r\n    }\r\n\r\n    /** \r\n    * @notice add  amount won to the @param winner into the refund mapping\r\n    * @param winner the winner of the lottery\r\n    * @param amount to be refunded\r\n    */\r\n    function _refund(address winner, uint256 amount) internal {\r\n        refunds[winner] = refunds[winner].add(amount);\r\n    }\r\n\r\n    /** \r\n    * @notice Attemps to create a new lottery, gets stored into newLottery, if winners we cal _transferJackPot()\r\n    * @param _duration duration of the new lottery\r\n    * @param _lotteryValue value of the new lottery\r\n    */\r\n    function attempNewLottery(uint256 _duration, uint256 _lotteryValue) external onlyOwner {\r\n        require(lotteryHasPlayed == true);\r\n        require(lotteryFactory.indexOf(this) == lotteryFactory.getLotteries().length-1, \"if this is the later deployed Lottery\"); \r\n        require(_duration > 0);\r\n        require(_lotteryValue > 0);\r\n        address newLottery = lotteryFactory.createNewLottery(_duration, _lotteryValue); \r\n        if (winners.length==0 && newLottery != address(0)) {\r\n            _transferJackPot(newLottery);\r\n        } \r\n    }\r\n\r\n     /** \r\n    * @notice Transfer the jackpot nobody won the lottery to a the newLottery \r\n    */\r\n    function _transferJackPot(address newLottery) private  {\r\n        require(winners.length == 0);\r\n        uint256 _jackPot = jackPot;\r\n        jackPot = 0;\r\n        Lottery lottery = Lottery(newLottery);\r\n        lottery.addJackPot.value(_jackPot)();  \r\n    }\r\n\r\n\r\n    /** \r\n    * @notice withdraw the whole amount stored in the refunds mapping\r\n    */\r\n    function withdraw() external {\r\n        uint256 amount = refunds[msg.sender];\r\n        refunds[msg.sender] = 0;\r\n        msg.sender.transfer(amount);\r\n    }\r\n\r\n    function addJackPot() public payable {\r\n        require(msg.value>0);\r\n        jackPot = jackPot.add(msg.value);\r\n        emit TransferJackPot(jackPot);\r\n    }\r\n\r\n    /** \r\n    * @notice All getters\r\n    */\r\n    function getPlayers() external view returns(address[]) {\r\n        return players;\r\n    }\r\n\r\n    function getPlayersByLotteryNumber(uint256 _number) external view returns(address[]) {\r\n        return contest[_number];\r\n    }\r\n\r\n    function getWinners() external view returns(address[]){\r\n        return winners;\r\n    }\r\n\r\n    function getRefundValue() external view returns(uint256) {\r\n        return refunds[msg.sender];\r\n    } \r\n\r\n/////////////////////////////////////////////////////////////////////\r\n/////////////////////////////////////////////////////////////////////\r\n/////////////////////////////////////////////////////////////////////\r\n/////////////////////////////////////////////////////////////////////\r\n/////////////////////////////////////////////////////////////////////\r\n/////////////////////////////////////////////////////////////////////\r\n    /** \r\n    * @notice This is used only for testing purpose, has to be deleted \r\n    */\r\n    function setWinningNumber(uint256 _winningNumber) external onlyOwner {\r\n        require(lotteryHasPlayed==false);\r\n        require(deadline < now);\r\n        winningNumber = _winningNumber;\r\n    }\r\n\r\n    /** \r\n    * @notice This is used only for testing purpose, has to be deleted \r\n    */\r\n    function setProbability(uint256 _probability) external onlyOwner {\r\n        require(players.length == 0);\r\n        require(lotteryHasPlayed == false);\r\n        probability = _probability;\r\n    }\r\n}\r\n\r\n\r\n\r\n",
  "sourcePath": "E:\\Ethereum\\Worldpay\\lottery-contract\\contracts\\Lottery.sol",
  "compiler": {
    "name": "solc",
    "version": "0.4.23+commit.124ca40d.Emscripten.clang"
  },
  "schemaVersion": "2.0.0",
  "updatedAt": "2018-05-16T08:00:42.481Z"
}