{
  "contractName": "Lottery",
  "abi": [
    {
      "constant": true,
      "inputs": [],
      "name": "deadline",
      "outputs": [
        {
          "name": "",
          "type": "uint256"
        }
      ],
      "payable": false,
      "stateMutability": "view",
      "type": "function"
    },
    {
      "constant": true,
      "inputs": [],
      "name": "winningNumber",
      "outputs": [
        {
          "name": "",
          "type": "uint256"
        }
      ],
      "payable": false,
      "stateMutability": "view",
      "type": "function"
    },
    {
      "constant": true,
      "inputs": [],
      "name": "probability",
      "outputs": [
        {
          "name": "",
          "type": "uint256"
        }
      ],
      "payable": false,
      "stateMutability": "view",
      "type": "function"
    },
    {
      "constant": true,
      "inputs": [],
      "name": "jackPot",
      "outputs": [
        {
          "name": "",
          "type": "uint256"
        }
      ],
      "payable": false,
      "stateMutability": "view",
      "type": "function"
    },
    {
      "constant": true,
      "inputs": [
        {
          "name": "",
          "type": "uint256"
        },
        {
          "name": "",
          "type": "uint256"
        }
      ],
      "name": "contest",
      "outputs": [
        {
          "name": "",
          "type": "address"
        }
      ],
      "payable": false,
      "stateMutability": "view",
      "type": "function"
    },
    {
      "constant": true,
      "inputs": [],
      "name": "owner",
      "outputs": [
        {
          "name": "",
          "type": "address"
        }
      ],
      "payable": false,
      "stateMutability": "view",
      "type": "function"
    },
    {
      "constant": true,
      "inputs": [],
      "name": "lotteryValue",
      "outputs": [
        {
          "name": "",
          "type": "uint256"
        }
      ],
      "payable": false,
      "stateMutability": "view",
      "type": "function"
    },
    {
      "constant": true,
      "inputs": [
        {
          "name": "",
          "type": "uint256"
        }
      ],
      "name": "winners",
      "outputs": [
        {
          "name": "",
          "type": "address"
        }
      ],
      "payable": false,
      "stateMutability": "view",
      "type": "function"
    },
    {
      "constant": true,
      "inputs": [],
      "name": "lotteryHasPlayed",
      "outputs": [
        {
          "name": "",
          "type": "bool"
        }
      ],
      "payable": false,
      "stateMutability": "view",
      "type": "function"
    },
    {
      "constant": true,
      "inputs": [],
      "name": "lastLottery",
      "outputs": [
        {
          "name": "",
          "type": "address"
        }
      ],
      "payable": false,
      "stateMutability": "view",
      "type": "function"
    },
    {
      "constant": true,
      "inputs": [],
      "name": "newLottery",
      "outputs": [
        {
          "name": "",
          "type": "address"
        }
      ],
      "payable": false,
      "stateMutability": "view",
      "type": "function"
    },
    {
      "constant": true,
      "inputs": [
        {
          "name": "",
          "type": "address"
        }
      ],
      "name": "refunds",
      "outputs": [
        {
          "name": "",
          "type": "uint256"
        }
      ],
      "payable": false,
      "stateMutability": "view",
      "type": "function"
    },
    {
      "constant": false,
      "inputs": [
        {
          "name": "newOwner",
          "type": "address"
        }
      ],
      "name": "transferOwnership",
      "outputs": [],
      "payable": false,
      "stateMutability": "nonpayable",
      "type": "function"
    },
    {
      "constant": true,
      "inputs": [
        {
          "name": "",
          "type": "uint256"
        }
      ],
      "name": "players",
      "outputs": [
        {
          "name": "",
          "type": "address"
        }
      ],
      "payable": false,
      "stateMutability": "view",
      "type": "function"
    },
    {
      "inputs": [
        {
          "name": "_duration",
          "type": "uint256"
        },
        {
          "name": "_lotteryValue",
          "type": "uint256"
        },
        {
          "name": "_lotteryFactory",
          "type": "address"
        },
        {
          "name": "_lastLottery",
          "type": "address"
        }
      ],
      "payable": false,
      "stateMutability": "nonpayable",
      "type": "constructor"
    },
    {
      "anonymous": false,
      "inputs": [
        {
          "indexed": false,
          "name": "player",
          "type": "address"
        },
        {
          "indexed": false,
          "name": "amount",
          "type": "uint256"
        }
      ],
      "name": "RefundAdded",
      "type": "event"
    },
    {
      "anonymous": false,
      "inputs": [
        {
          "indexed": false,
          "name": "winners",
          "type": "address[]"
        },
        {
          "indexed": false,
          "name": "jackPot",
          "type": "uint256"
        }
      ],
      "name": "Winners",
      "type": "event"
    },
    {
      "anonymous": false,
      "inputs": [
        {
          "indexed": false,
          "name": "newLotteryAddress",
          "type": "address"
        }
      ],
      "name": "NewLottery",
      "type": "event"
    },
    {
      "anonymous": false,
      "inputs": [
        {
          "indexed": false,
          "name": "value",
          "type": "uint256"
        }
      ],
      "name": "TransferJackPot",
      "type": "event"
    },
    {
      "anonymous": false,
      "inputs": [
        {
          "indexed": false,
          "name": "previousOwner",
          "type": "address"
        },
        {
          "indexed": false,
          "name": "newOwner",
          "type": "address"
        }
      ],
      "name": "OwnershipTransferred",
      "type": "event"
    },
    {
      "constant": false,
      "inputs": [
        {
          "name": "_number",
          "type": "uint256"
        }
      ],
      "name": "enter",
      "outputs": [],
      "payable": true,
      "stateMutability": "payable",
      "type": "function"
    },
    {
      "constant": false,
      "inputs": [],
      "name": "pickWinner",
      "outputs": [],
      "payable": false,
      "stateMutability": "nonpayable",
      "type": "function"
    },
    {
      "constant": false,
      "inputs": [
        {
          "name": "_duration",
          "type": "uint256"
        },
        {
          "name": "_lotteryValue",
          "type": "uint256"
        }
      ],
      "name": "attempNewLottery",
      "outputs": [],
      "payable": false,
      "stateMutability": "nonpayable",
      "type": "function"
    },
    {
      "constant": false,
      "inputs": [],
      "name": "withdraw",
      "outputs": [],
      "payable": false,
      "stateMutability": "nonpayable",
      "type": "function"
    },
    {
      "constant": false,
      "inputs": [],
      "name": "addJackPot",
      "outputs": [],
      "payable": true,
      "stateMutability": "payable",
      "type": "function"
    },
    {
      "constant": true,
      "inputs": [],
      "name": "getPlayers",
      "outputs": [
        {
          "name": "",
          "type": "address[]"
        }
      ],
      "payable": false,
      "stateMutability": "view",
      "type": "function"
    },
    {
      "constant": true,
      "inputs": [
        {
          "name": "_number",
          "type": "uint256"
        }
      ],
      "name": "getPlayersByLotteryNumber",
      "outputs": [
        {
          "name": "",
          "type": "address[]"
        }
      ],
      "payable": false,
      "stateMutability": "view",
      "type": "function"
    },
    {
      "constant": true,
      "inputs": [],
      "name": "getWinners",
      "outputs": [
        {
          "name": "",
          "type": "address[]"
        }
      ],
      "payable": false,
      "stateMutability": "view",
      "type": "function"
    },
    {
      "constant": true,
      "inputs": [],
      "name": "getRefundValue",
      "outputs": [
        {
          "name": "",
          "type": "uint256"
        }
      ],
      "payable": false,
      "stateMutability": "view",
      "type": "function"
    },
    {
      "constant": false,
      "inputs": [
        {
          "name": "_winningNumber",
          "type": "uint256"
        }
      ],
      "name": "setWinningNumber",
      "outputs": [],
      "payable": false,
      "stateMutability": "nonpayable",
      "type": "function"
    },
    {
      "constant": false,
      "inputs": [
        {
          "name": "_probability",
          "type": "uint256"
        }
      ],
      "name": "setProbability",
      "outputs": [],
      "payable": false,
      "stateMutability": "nonpayable",
      "type": "function"
    }
  ],
  "bytecode": "0x60806040526342c9eb686005556000600a60006101000a81548160ff02191690831515021790555034801561003357600080fd5b50604051608080611d5e83398101806040528101908080519060200190929190805190602001909291908051906020019092919080519060200190929190505050336000806101000a81548173ffffffffffffffffffffffffffffffffffffffff021916908373ffffffffffffffffffffffffffffffffffffffff1602179055508342016001819055508260028190555081600c60006101000a81548173ffffffffffffffffffffffffffffffffffffffff021916908373ffffffffffffffffffffffffffffffffffffffff16021790555080600b60006101000a81548173ffffffffffffffffffffffffffffffffffffffff021916908373ffffffffffffffffffffffffffffffffffffffff16021790555050505050611c05806101596000396000f300608060405260043610610149576000357c0100000000000000000000000000000000000000000000000000000000900463ffffffff16806313cf05f91461014e57806329dcb0cf146101855780633ccfd60b146101b05780634664611e146101c7578063481456f9146101f25780634a78cdba1461021d57806359e54095146102485780635d495aea14610273578063642e8fef1461028a5780636a8f5678146102945780638b5b9ccc1461030b5780638da5cb5b146103775780639113a7b5146103ce5780639c8ccc78146103f9578063a2fb11751461047b578063a3e3d2e4146104e8578063a59f3e0c14610515578063a947d05014610535578063af0b4b2714610564578063b1e2cb03146105bb578063bc3da53514610612578063d2c42de114610669578063df15c37e14610696578063f2fde38b14610702578063f71d96cb14610745575b600080fd5b34801561015a57600080fd5b5061018360048036038101908080359060200190929190803590602001909291905050506107b2565b005b34801561019157600080fd5b5061019a610ab9565b6040518082815260200191505060405180910390f35b3480156101bc57600080fd5b506101c5610abf565b005b3480156101d357600080fd5b506101dc610b92565b6040518082815260200191505060405180910390f35b3480156101fe57600080fd5b50610207610b98565b6040518082815260200191505060405180910390f35b34801561022957600080fd5b50610232610b9e565b6040518082815260200191505060405180910390f35b34801561025457600080fd5b5061025d610ba4565b6040518082815260200191505060405180910390f35b34801561027f57600080fd5b50610288610beb565b005b610292610efb565b005b3480156102a057600080fd5b506102c96004803603810190808035906020019092919080359060200190929190505050610f60565b604051808273ffffffffffffffffffffffffffffffffffffffff1673ffffffffffffffffffffffffffffffffffffffff16815260200191505060405180910390f35b34801561031757600080fd5b50610320610fad565b6040518080602001828103825283818151815260200191508051906020019060200280838360005b83811015610363578082015181840152602081019050610348565b505050509050019250505060405180910390f35b34801561038357600080fd5b5061038c61103b565b604051808273ffffffffffffffffffffffffffffffffffffffff1673ffffffffffffffffffffffffffffffffffffffff16815260200191505060405180910390f35b3480156103da57600080fd5b506103e3611060565b6040518082815260200191505060405180910390f35b34801561040557600080fd5b5061042460048036038101908080359060200190929190505050611066565b6040518080602001828103825283818151815260200191508051906020019060200280838360005b8381101561046757808201518184015260208101905061044c565b505050509050019250505060405180910390f35b34801561048757600080fd5b506104a660048036038101908080359060200190929190505050611107565b604051808273ffffffffffffffffffffffffffffffffffffffff1673ffffffffffffffffffffffffffffffffffffffff16815260200191505060405180910390f35b3480156104f457600080fd5b5061051360048036038101908080359060200190929190505050611145565b005b610533600480360381019080803590602001909291905050506111dc565b005b34801561054157600080fd5b5061054a611496565b604051808215151515815260200191505060405180910390f35b34801561057057600080fd5b506105796114a9565b604051808273ffffffffffffffffffffffffffffffffffffffff1673ffffffffffffffffffffffffffffffffffffffff16815260200191505060405180910390f35b3480156105c757600080fd5b506105d06114cf565b604051808273ffffffffffffffffffffffffffffffffffffffff1673ffffffffffffffffffffffffffffffffffffffff16815260200191505060405180910390f35b34801561061e57600080fd5b50610653600480360381019080803573ffffffffffffffffffffffffffffffffffffffff1690602001909291905050506114f5565b6040518082815260200191505060405180910390f35b34801561067557600080fd5b506106946004803603810190808035906020019092919050505061150d565b005b3480156106a257600080fd5b506106ab6115a8565b6040518080602001828103825283818151815260200191508051906020019060200280838360005b838110156106ee5780820151818401526020810190506106d3565b505050509050019250505060405180910390f35b34801561070e57600080fd5b50610743600480360381019080803573ffffffffffffffffffffffffffffffffffffffff169060200190929190505050611636565b005b34801561075157600080fd5b50610770600480360381019080803590602001909291905050506117c8565b604051808273ffffffffffffffffffffffffffffffffffffffff1673ffffffffffffffffffffffffffffffffffffffff16815260200191505060405180910390f35b6000809054906101000a900473ffffffffffffffffffffffffffffffffffffffff1673ffffffffffffffffffffffffffffffffffffffff163373ffffffffffffffffffffffffffffffffffffffff1614151561080d57600080fd5b60011515600a60009054906101000a900460ff16151514151561082f57600080fd5b600073ffffffffffffffffffffffffffffffffffffffff16600a60019054906101000a900473ffffffffffffffffffffffffffffffffffffffff1673ffffffffffffffffffffffffffffffffffffffff1614151561088c57600080fd5b60008211151561089b57600080fd5b6000811115156108aa57600080fd5b600c60009054906101000a900473ffffffffffffffffffffffffffffffffffffffff1673ffffffffffffffffffffffffffffffffffffffff1663a99a690783836040518363ffffffff167c01000000000000000000000000000000000000000000000000000000000281526004018083815260200182815260200192505050602060405180830381600087803b15801561094357600080fd5b505af1158015610957573d6000803e3d6000fd5b505050506040513d602081101561096d57600080fd5b8101908080519060200190929190505050600a60016101000a81548173ffffffffffffffffffffffffffffffffffffffff021916908373ffffffffffffffffffffffffffffffffffffffff1602179055507fdbb18653dafc4962dc966dac250a14155f0c8a5040e55c5c59ed5f4acb69f5be600a60019054906101000a900473ffffffffffffffffffffffffffffffffffffffff16604051808273ffffffffffffffffffffffffffffffffffffffff1673ffffffffffffffffffffffffffffffffffffffff16815260200191505060405180910390a16000600980549050148015610aa75750600073ffffffffffffffffffffffffffffffffffffffff16600a60019054906101000a900473ffffffffffffffffffffffffffffffffffffffff1673ffffffffffffffffffffffffffffffffffffffff1614155b15610ab557610ab4611806565b5b5050565b60015481565b6000600760003373ffffffffffffffffffffffffffffffffffffffff1673ffffffffffffffffffffffffffffffffffffffff1681526020019081526020016000205490506000600760003373ffffffffffffffffffffffffffffffffffffffff1673ffffffffffffffffffffffffffffffffffffffff168152602001908152602001600020819055503373ffffffffffffffffffffffffffffffffffffffff166108fc829081150290604051600060405180830381858888f19350505050158015610b8e573d6000803e3d6000fd5b5050565b60045481565b60055481565b60035481565b6000600760003373ffffffffffffffffffffffffffffffffffffffff1673ffffffffffffffffffffffffffffffffffffffff16815260200190815260200160002054905090565b6000806000809054906101000a900473ffffffffffffffffffffffffffffffffffffffff1673ffffffffffffffffffffffffffffffffffffffff163373ffffffffffffffffffffffffffffffffffffffff16141515610c4957600080fd5b60015442111515610cc2576040517f08c379a00000000000000000000000000000000000000000000000000000000081526004018080602001828103825260198152602001807f546865206c6f7474657279206973207374696c6c206f70656e0000000000000081525060200191505060405180910390fd5b60001515600a60009054906101000a900460ff161515141515610d4d576040517f08c379a000000000000000000000000000000000000000000000000000000000815260040180806020018281038252601e8152602001807f546865206c6f74746572792068617320616c726561647920706c61796564000081525060200191505060405180910390fd5b6001600a60006101000a81548160ff02191690831515021790555060006004541415610d8257610d7b6118d0565b6004819055505b6006600060045481526020019081526020016000206009908054610da7929190611b44565b5060006009805490501115610ef757610dd060098054905060035461190090919063ffffffff16565b91506000600381905550600090505b6009805490508160ff161015610e4257610e3560098260ff16815481101515610e0457fe5b9060005260206000200160009054906101000a900473ffffffffffffffffffffffffffffffffffffffff1683611916565b8080600101915050610ddf565b7f413cf1e17d70833c017de9b3c64d0104e3e37a7191d95b3d0d6276de992a0b4d60098360405180806020018381526020018281038252848181548152602001915080548015610ee757602002820191906000526020600020905b8160009054906101000a900473ffffffffffffffffffffffffffffffffffffffff1673ffffffffffffffffffffffffffffffffffffffff1681526020019060010190808311610e9d575b5050935050505060405180910390a15b5050565b600034111515610f0a57600080fd5b610f1f346003546119af90919063ffffffff16565b6003819055507fc2c48fe60b23268064613cbca1898c1871bae36909b3f33467dd82c6fe2cb2e36003546040518082815260200191505060405180910390a1565b600660205281600052604060002081815481101515610f7b57fe5b906000526020600020016000915091509054906101000a900473ffffffffffffffffffffffffffffffffffffffff1681565b6060600880548060200260200160405190810160405280929190818152602001828054801561103157602002820191906000526020600020905b8160009054906101000a900473ffffffffffffffffffffffffffffffffffffffff1673ffffffffffffffffffffffffffffffffffffffff1681526020019060010190808311610fe7575b5050505050905090565b6000809054906101000a900473ffffffffffffffffffffffffffffffffffffffff1681565b60025481565b6060600660008381526020019081526020016000208054806020026020016040519081016040528092919081815260200182805480156110fb57602002820191906000526020600020905b8160009054906101000a900473ffffffffffffffffffffffffffffffffffffffff1673ffffffffffffffffffffffffffffffffffffffff16815260200190600101908083116110b1575b50505050509050919050565b60098181548110151561111657fe5b906000526020600020016000915054906101000a900473ffffffffffffffffffffffffffffffffffffffff1681565b6000809054906101000a900473ffffffffffffffffffffffffffffffffffffffff1673ffffffffffffffffffffffffffffffffffffffff163373ffffffffffffffffffffffffffffffffffffffff161415156111a057600080fd5b60001515600a60009054906101000a900460ff1615151415156111c257600080fd5b426001541015156111d257600080fd5b8060048190555050565b600254341015151561127c576040517f08c379a000000000000000000000000000000000000000000000000000000000815260040180806020018281038252602c8152602001807f76616c7565207265636569766564206973206c657373207468616e207468652081526020017f6c6f747465727956616c7565000000000000000000000000000000000000000081525060400191505060405180910390fd5b600154421015156112f5576040517f08c379a00000000000000000000000000000000000000000000000000000000081526004018080602001828103825260158152602001807f4c6f7474657279206861732066696e616c697a6564000000000000000000000081525060200191505060405180910390fd5b600554811115151561136f576040517f08c379a000000000000000000000000000000000000000000000000000000000815260040180806020018281038252601f8152602001807f6e756d626572206973206c657373207468616e2070726f626162696c6974790081525060200191505060405180910390fd5b60001515600a60009054906101000a900460ff16151514151561139157600080fd5b6113a86002546003546119af90919063ffffffff16565b60038190555060083390806001815401808255809150509060018203906000526020600020016000909192909190916101000a81548173ffffffffffffffffffffffffffffffffffffffff021916908373ffffffffffffffffffffffffffffffffffffffff16021790555050600660008281526020019081526020016000203390806001815401808255809150509060018203906000526020600020016000909192909190916101000a81548173ffffffffffffffffffffffffffffffffffffffff021916908373ffffffffffffffffffffffffffffffffffffffff160217905550506114936119cb565b50565b600a60009054906101000a900460ff1681565b600b60009054906101000a900473ffffffffffffffffffffffffffffffffffffffff1681565b600a60019054906101000a900473ffffffffffffffffffffffffffffffffffffffff1681565b60076020528060005260406000206000915090505481565b6000809054906101000a900473ffffffffffffffffffffffffffffffffffffffff1673ffffffffffffffffffffffffffffffffffffffff163373ffffffffffffffffffffffffffffffffffffffff1614151561156857600080fd5b600060088054905014151561157c57600080fd5b60001515600a60009054906101000a900460ff16151514151561159e57600080fd5b8060058190555050565b6060600980548060200260200160405190810160405280929190818152602001828054801561162c57602002820191906000526020600020905b8160009054906101000a900473ffffffffffffffffffffffffffffffffffffffff1673ffffffffffffffffffffffffffffffffffffffff16815260200190600101908083116115e2575b5050505050905090565b6000809054906101000a900473ffffffffffffffffffffffffffffffffffffffff1673ffffffffffffffffffffffffffffffffffffffff163373ffffffffffffffffffffffffffffffffffffffff1614151561169157600080fd5b600073ffffffffffffffffffffffffffffffffffffffff168173ffffffffffffffffffffffffffffffffffffffff16141515156116cd57600080fd5b7f8be0079c531659141344cd1fd0a4f28419497f9722a3daafe3b4186f6b6457e06000809054906101000a900473ffffffffffffffffffffffffffffffffffffffff1682604051808373ffffffffffffffffffffffffffffffffffffffff1673ffffffffffffffffffffffffffffffffffffffff1681526020018273ffffffffffffffffffffffffffffffffffffffff1673ffffffffffffffffffffffffffffffffffffffff1681526020019250505060405180910390a1806000806101000a81548173ffffffffffffffffffffffffffffffffffffffff021916908373ffffffffffffffffffffffffffffffffffffffff16021790555050565b6008818154811015156117d757fe5b906000526020600020016000915054906101000a900473ffffffffffffffffffffffffffffffffffffffff1681565b600080600060098054905014151561181d57600080fd5b60035491506000600381905550600a60019054906101000a900473ffffffffffffffffffffffffffffffffffffffff1690508073ffffffffffffffffffffffffffffffffffffffff1663642e8fef836040518263ffffffff167c01000000000000000000000000000000000000000000000000000000000281526004016000604051808303818588803b1580156118b357600080fd5b505af11580156118c7573d6000803e3d6000fd5b50505050505050565b60008043406001900490506005548110156118eb57806118fa565b600554818115156118f857fe5b065b91505090565b6000818381151561190d57fe5b04905092915050565b61196881600760008573ffffffffffffffffffffffffffffffffffffffff1673ffffffffffffffffffffffffffffffffffffffff168152602001908152602001600020546119af90919063ffffffff16565b600760008473ffffffffffffffffffffffffffffffffffffffff1673ffffffffffffffffffffffffffffffffffffffff168152602001908152602001600020819055505050565b600081830190508281101515156119c257fe5b80905092915050565b600254341115611b2957611a3b6119ed60025434611b2b90919063ffffffff16565b600760003373ffffffffffffffffffffffffffffffffffffffff1673ffffffffffffffffffffffffffffffffffffffff168152602001908152602001600020546119af90919063ffffffff16565b600760003373ffffffffffffffffffffffffffffffffffffffff1673ffffffffffffffffffffffffffffffffffffffff168152602001908152602001600020819055507f38dec0fa11e2eca35d2f1ae0dc1933f1c4de2a271f3ab480f29de14010fe9f8933600760003373ffffffffffffffffffffffffffffffffffffffff1673ffffffffffffffffffffffffffffffffffffffff16815260200190815260200160002054604051808373ffffffffffffffffffffffffffffffffffffffff1673ffffffffffffffffffffffffffffffffffffffff1681526020018281526020019250505060405180910390a15b565b6000828211151515611b3957fe5b818303905092915050565b828054828255906000526020600020908101928215611b855760005260206000209182015b82811115611b84578254825591600101919060010190611b69565b5b509050611b929190611b96565b5090565b611bd691905b80821115611bd257600081816101000a81549073ffffffffffffffffffffffffffffffffffffffff021916905550600101611b9c565b5090565b905600a165627a7a72305820c76b532d019317752214d0a3f84c5e8d22cf265ba1b20f460811f617b87fffb70029",
  "source": "pragma solidity ^0.4.23;\r\n\r\nimport \"./ownership/Ownable.sol\";\r\nimport \"./math/SafeMath.sol\";\r\nimport \"./LotteryFactory.sol\";\r\n\r\n/**\r\n * @title Lottery\r\n * @dev Lottery with 6 numbers between 01-99.\r\n */\r\ncontract Lottery is Ownable {\r\n    using SafeMath for uint256; \r\n\r\n    event RefundAdded(address player, uint256 amount);\r\n    event Winners(address[] winners, uint256 jackPot);\r\n    event NewLottery(address newLotteryAddress);\r\n    event TransferJackPot(uint256 value);\r\n\r\n    uint256 public deadline;\r\n    uint256 public lotteryValue;\r\n    uint256 public jackPot;\r\n    uint256 public winningNumber;\r\n    // @dev probability is (99*98*97*96*95*94)/6! = 1.120'529.256\r\n    uint256 public probability = 1120529256; //\r\n    \r\n    // @dev mapping of the LotteryNumber => users who chose that number\r\n    mapping(uint256 => address[]) public contest;\r\n\r\n    // @dev mapping of the sender => amount, if user sends more than the value of the lottery\r\n    mapping(address => uint256) public refunds;\r\n    address[] public players;\r\n    address[] public winners;\r\n\r\n    bool public lotteryHasPlayed = false;\r\n\r\n    // @dev the new lottery deployed where we are transfering the jackpot\r\n    address public newLottery;\r\n    // @dev we keep a reference of the last lottery\r\n    address public lastLottery;\r\n\r\n    //instance of the lottery factory\r\n    LotteryFactory lotteryFactory; \r\n\r\n    /**\r\n    * @dev constructor\r\n    * @param _duration how long will the lottery be open to enter\r\n    * @param _lotteryValue sets the value of the lottery\r\n    * @param _lotteryFactory instance of lotteryFactory to create a new lottery\r\n    * @param _lastLottery we keep a reference of the creator of this lottery\r\n    */\r\n    constructor(uint256 _duration, uint256 _lotteryValue, LotteryFactory _lotteryFactory, address _lastLottery) public {\r\n        deadline = now + _duration;\r\n        lotteryValue = _lotteryValue;\r\n        lotteryFactory = _lotteryFactory;\r\n        lastLottery = _lastLottery;\r\n    }\r\n\r\n    /** \r\n    * @notice allows the player to enter, chacking amount and deadline and refund \r\n    * if the value sent is more than the lotteryValue\r\n    * @param _number inside the probability \r\n    */\r\n    function enter(uint256 _number) external payable {\r\n        require(msg.value >= lotteryValue, \"value received is less than the lotteryValue\");\r\n        require(now < deadline, \"Lottery has finalized\");\r\n        require(_number <= probability, \"number is less than probability\");\r\n        require(lotteryHasPlayed == false);\r\n        jackPot = jackPot.add(lotteryValue);\r\n        players.push(msg.sender);\r\n        contest[_number].push(msg.sender);    \r\n        _refundIfValueExceedsPrice();\r\n    }\r\n\r\n    /** \r\n    * @notice add the refunded value to the sender\r\n    */\r\n    function _refundIfValueExceedsPrice() private {\r\n        if (msg.value > lotteryValue) {\r\n            refunds[msg.sender] = refunds[msg.sender].add(msg.value.sub(lotteryValue));\r\n            emit RefundAdded(msg.sender, refunds[msg.sender]);\r\n        } \r\n    }\r\n\r\n    /** \r\n    * @notice pickWinner can only be called by the owner and requires\r\n    * the lottery to be closed, still waiting for a good source \r\n    * of random generator, we will use the blockhash for the moment\r\n    * check if there are winners, if yes, divide the jackpot between\r\n    * winners and add it to the refund mapping\r\n    */\r\n    function pickWinner() external onlyOwner {\r\n        require(now > deadline, \"The lottery is still open\");\r\n        require(lotteryHasPlayed == false, \"The lottery has already played\");\r\n        lotteryHasPlayed = true;\r\n        if(winningNumber==0) winningNumber = _setResult();\r\n        winners = contest[winningNumber];\r\n        if (winners.length > 0) {\r\n            uint256 prizePerPlayer = jackPot.div(winners.length);\r\n            jackPot = 0;\r\n            for (uint8 i = 0; i < winners.length; i++) {\r\n                _refund(winners[i], prizePerPlayer);\r\n            }\r\n            emit Winners(winners, prizePerPlayer);\r\n        }         \r\n    }\r\n\r\n    /** \r\n    * @notice we just using blockhash fro the moment to set the lottery result\r\n    */\r\n    function _setResult() private view returns(uint256) {\r\n        uint256 result = uint256(blockhash(block.number));\r\n        return result >= probability ? result % probability : result;\r\n    }\r\n\r\n    /** \r\n    * @notice add  amount won to the @param winner into the refund mapping\r\n    * @param winner the winner of the lottery\r\n    * @param amount to be refunded\r\n    */\r\n    function _refund(address winner, uint256 amount) internal {\r\n        refunds[winner] = refunds[winner].add(amount);\r\n    }\r\n\r\n    /** \r\n    * @notice Attemps to create a new lottery, gets stored into newLottery, if winners we cal _transferJackPot()\r\n    * @param _duration duration of the new lottery\r\n    * @param _lotteryValue value of the new lottery\r\n    */\r\n    function attempNewLottery(uint256 _duration, uint256 _lotteryValue) external onlyOwner {\r\n        require(lotteryHasPlayed == true);\r\n        require(newLottery == address(0));\r\n        require(_duration > 0);\r\n        require(_lotteryValue > 0);\r\n        newLottery = lotteryFactory.createNewLottery(_duration, _lotteryValue);\r\n        emit NewLottery(newLottery); \r\n        if (winners.length==0 && newLottery != address(0)) {\r\n            _transferJackPot();\r\n        } \r\n    }\r\n\r\n     /** \r\n    * @notice Transfer the jackpot nobody won the lottery to a the newLottery \r\n    */\r\n    function _transferJackPot() private  {\r\n        require(winners.length == 0);\r\n        uint256 _jackPot = jackPot;\r\n        jackPot = 0;\r\n        Lottery lottery = Lottery(newLottery);\r\n        lottery.addJackPot.value(_jackPot)();  \r\n    }\r\n\r\n\r\n    /** \r\n    * @notice withdraw the whole amount stored in the refunds mapping\r\n    */\r\n    function withdraw() external {\r\n        uint256 amount = refunds[msg.sender];\r\n        refunds[msg.sender] = 0;\r\n        msg.sender.transfer(amount);\r\n    }\r\n\r\n    function addJackPot() public payable {\r\n        require(msg.value>0);\r\n        jackPot = jackPot.add(msg.value);\r\n        emit TransferJackPot(jackPot);\r\n    }\r\n\r\n    /** \r\n    * @notice All getters\r\n    */\r\n    function getPlayers() external view returns(address[]) {\r\n        return players;\r\n    }\r\n\r\n    function getPlayersByLotteryNumber(uint256 _number) external view returns(address[]) {\r\n        return contest[_number];\r\n    }\r\n\r\n    function getWinners() external view returns(address[]){\r\n        return winners;\r\n    }\r\n\r\n    function getRefundValue() external view returns(uint256) {\r\n        return refunds[msg.sender];\r\n    } \r\n\r\n/////////////////////////////////////////////////////////////////////\r\n/////////////////////////////////////////////////////////////////////\r\n/////////////////////////////////////////////////////////////////////\r\n/////////////////////////////////////////////////////////////////////\r\n/////////////////////////////////////////////////////////////////////\r\n/////////////////////////////////////////////////////////////////////\r\n    /** \r\n    * @notice This is used only for testing purpose, has to be deleted \r\n    */\r\n    function setWinningNumber(uint256 _winningNumber) external onlyOwner {\r\n        require(lotteryHasPlayed==false);\r\n        require(deadline < now);\r\n        winningNumber = _winningNumber;\r\n    }\r\n\r\n    /** \r\n    * @notice This is used only for testing purpose, has to be deleted \r\n    */\r\n    function setProbability(uint256 _probability) external onlyOwner {\r\n        require(players.length == 0);\r\n        require(lotteryHasPlayed == false);\r\n        probability = _probability;\r\n    }\r\n}\r\n\r\n\r\n\r\n",
  "sourcePath": "E:\\Ethereum\\Worldpay\\lottery-contract\\contracts\\Lottery.sol",
  "compiler": {
    "name": "solc",
    "version": "0.4.23+commit.124ca40d.Emscripten.clang"
  },
  "schemaVersion": "2.0.0",
  "updatedAt": "2018-05-15T07:52:20.564Z"
}